{
	"contracts/test.sol": {
		"test": {
			"abi": [
				{
					"inputs": [
						{
							"internalType": "uint256",
							"name": "times",
							"type": "uint256"
						}
					],
					"name": "addAddress",
					"outputs": [],
					"stateMutability": "nonpayable",
					"type": "function"
				}
			],
			"devdoc": {
				"kind": "dev",
				"methods": {},
				"version": 1
			},
			"evm": {
				"assembly": "    /* \"contracts/test.sol\":64:282  contract test{... */\n  mstore(0x40, 0x80)\n  callvalue\n  dup1\n  iszero\n  tag_1\n  jumpi\n  0x00\n  dup1\n  revert\ntag_1:\n  pop\n  dataSize(sub_0)\n  dup1\n  dataOffset(sub_0)\n  0x00\n  codecopy\n  0x00\n  return\nstop\n\nsub_0: assembly {\n        /* \"contracts/test.sol\":64:282  contract test{... */\n      mstore(0x40, 0x80)\n      callvalue\n      dup1\n      iszero\n      tag_1\n      jumpi\n      0x00\n      dup1\n      revert\n    tag_1:\n      pop\n      jumpi(tag_2, lt(calldatasize, 0x04))\n      shr(0xe0, calldataload(0x00))\n      dup1\n      0xd0ee8110\n      eq\n      tag_3\n      jumpi\n    tag_2:\n      0x00\n      dup1\n      revert\n        /* \"contracts/test.sol\":110:280  function addAddress(uint256 times) public {... */\n    tag_3:\n      tag_4\n      0x04\n      dup1\n      calldatasize\n      sub\n      dup2\n      add\n      swap1\n      tag_5\n      swap2\n      swap1\n      tag_6\n      jump\t// in\n    tag_5:\n      tag_7\n      jump\t// in\n    tag_4:\n      stop\n    tag_7:\n        /* \"contracts/test.sol\":162:176  address sender */\n      0x00\n        /* \"contracts/test.sol\":179:189  msg.sender */\n      caller\n        /* \"contracts/test.sol\":162:189  address sender = msg.sender */\n      swap1\n      pop\n        /* \"contracts/test.sol\":203:212  uint256 i */\n      0x00\n        /* \"contracts/test.sol\":199:274  for(uint256 i; i< times;i++){... */\n    tag_9:\n        /* \"contracts/test.sol\":217:222  times */\n      dup3\n        /* \"contracts/test.sol\":214:215  i */\n      dup2\n        /* \"contracts/test.sol\":214:222  i< times */\n      lt\n        /* \"contracts/test.sol\":199:274  for(uint256 i; i< times;i++){... */\n      iszero\n      tag_10\n      jumpi\n        /* \"contracts/test.sol\":241:250  addresses */\n      0x00\n        /* \"contracts/test.sol\":256:262  sender */\n      dup3\n        /* \"contracts/test.sol\":241:263  addresses.push(sender) */\n      swap1\n      dup1\n      0x01\n      dup2\n      sload\n      add\n      dup1\n      dup3\n      sstore\n      dup1\n      swap2\n      pop\n      pop\n      0x01\n      swap1\n      sub\n      swap1\n      0x00\n      mstore\n      keccak256(0x00, 0x20)\n      add\n      0x00\n      swap1\n      swap2\n      swap1\n      swap2\n      swap1\n      swap2\n      0x0100\n      exp\n      dup2\n      sload\n      dup2\n      0xffffffffffffffffffffffffffffffffffffffff\n      mul\n      not\n      and\n      swap1\n      dup4\n      0xffffffffffffffffffffffffffffffffffffffff\n      and\n      mul\n      or\n      swap1\n      sstore\n      pop\n        /* \"contracts/test.sol\":223:226  i++ */\n      dup1\n      dup1\n      tag_13\n      swap1\n      tag_14\n      jump\t// in\n    tag_13:\n      swap2\n      pop\n      pop\n        /* \"contracts/test.sol\":199:274  for(uint256 i; i< times;i++){... */\n      jump(tag_9)\n    tag_10:\n      pop\n        /* \"contracts/test.sol\":110:280  function addAddress(uint256 times) public {... */\n      pop\n      pop\n      jump\t// out\n        /* \"#utility.yul\":7:146   */\n    tag_16:\n      0x00\n        /* \"#utility.yul\":91:97   */\n      dup2\n        /* \"#utility.yul\":78:98   */\n      calldataload\n        /* \"#utility.yul\":69:98   */\n      swap1\n      pop\n        /* \"#utility.yul\":107:140   */\n      tag_18\n        /* \"#utility.yul\":134:139   */\n      dup2\n        /* \"#utility.yul\":107:140   */\n      tag_19\n      jump\t// in\n    tag_18:\n        /* \"#utility.yul\":59:146   */\n      swap3\n      swap2\n      pop\n      pop\n      jump\t// out\n        /* \"#utility.yul\":152:414   */\n    tag_6:\n      0x00\n        /* \"#utility.yul\":260:262   */\n      0x20\n        /* \"#utility.yul\":248:257   */\n      dup3\n        /* \"#utility.yul\":239:246   */\n      dup5\n        /* \"#utility.yul\":235:258   */\n      sub\n        /* \"#utility.yul\":231:263   */\n      slt\n        /* \"#utility.yul\":228:230   */\n      iszero\n      tag_21\n      jumpi\n        /* \"#utility.yul\":276:277   */\n      0x00\n        /* \"#utility.yul\":273:274   */\n      dup1\n        /* \"#utility.yul\":266:278   */\n      revert\n        /* \"#utility.yul\":228:230   */\n    tag_21:\n        /* \"#utility.yul\":319:320   */\n      0x00\n        /* \"#utility.yul\":344:397   */\n      tag_22\n        /* \"#utility.yul\":389:396   */\n      dup5\n        /* \"#utility.yul\":380:386   */\n      dup3\n        /* \"#utility.yul\":369:378   */\n      dup6\n        /* \"#utility.yul\":365:387   */\n      add\n        /* \"#utility.yul\":344:397   */\n      tag_16\n      jump\t// in\n    tag_22:\n        /* \"#utility.yul\":334:397   */\n      swap2\n      pop\n        /* \"#utility.yul\":290:407   */\n      pop\n        /* \"#utility.yul\":218:414   */\n      swap3\n      swap2\n      pop\n      pop\n      jump\t// out\n        /* \"#utility.yul\":420:497   */\n    tag_23:\n      0x00\n        /* \"#utility.yul\":486:491   */\n      dup2\n        /* \"#utility.yul\":475:491   */\n      swap1\n      pop\n        /* \"#utility.yul\":465:497   */\n      swap2\n      swap1\n      pop\n      jump\t// out\n        /* \"#utility.yul\":503:736   */\n    tag_14:\n      0x00\n        /* \"#utility.yul\":565:589   */\n      tag_26\n        /* \"#utility.yul\":583:588   */\n      dup3\n        /* \"#utility.yul\":565:589   */\n      tag_23\n      jump\t// in\n    tag_26:\n        /* \"#utility.yul\":556:589   */\n      swap2\n      pop\n        /* \"#utility.yul\":611:677   */\n      0xffffffffffffffffffffffffffffffffffffffffffffffffffffffffffffffff\n        /* \"#utility.yul\":604:609   */\n      dup3\n        /* \"#utility.yul\":601:678   */\n      eq\n        /* \"#utility.yul\":598:600   */\n      iszero\n      tag_27\n      jumpi\n        /* \"#utility.yul\":681:699   */\n      tag_28\n      tag_29\n      jump\t// in\n    tag_28:\n        /* \"#utility.yul\":598:600   */\n    tag_27:\n        /* \"#utility.yul\":728:729   */\n      0x01\n        /* \"#utility.yul\":721:726   */\n      dup3\n        /* \"#utility.yul\":717:730   */\n      add\n        /* \"#utility.yul\":710:730   */\n      swap1\n      pop\n        /* \"#utility.yul\":546:736   */\n      swap2\n      swap1\n      pop\n      jump\t// out\n        /* \"#utility.yul\":742:922   */\n    tag_29:\n        /* \"#utility.yul\":790:867   */\n      0x4e487b7100000000000000000000000000000000000000000000000000000000\n        /* \"#utility.yul\":787:788   */\n      0x00\n        /* \"#utility.yul\":780:868   */\n      mstore\n        /* \"#utility.yul\":887:891   */\n      0x11\n        /* \"#utility.yul\":884:885   */\n      0x04\n        /* \"#utility.yul\":877:892   */\n      mstore\n        /* \"#utility.yul\":911:915   */\n      0x24\n        /* \"#utility.yul\":908:909   */\n      0x00\n        /* \"#utility.yul\":901:916   */\n      revert\n        /* \"#utility.yul\":928:1050   */\n    tag_19:\n        /* \"#utility.yul\":1001:1025   */\n      tag_32\n        /* \"#utility.yul\":1019:1024   */\n      dup2\n        /* \"#utility.yul\":1001:1025   */\n      tag_23\n      jump\t// in\n    tag_32:\n        /* \"#utility.yul\":994:999   */\n      dup2\n        /* \"#utility.yul\":991:1026   */\n      eq\n        /* \"#utility.yul\":981:983   */\n      tag_33\n      jumpi\n        /* \"#utility.yul\":1040:1041   */\n      0x00\n        /* \"#utility.yul\":1037:1038   */\n      dup1\n        /* \"#utility.yul\":1030:1042   */\n      revert\n        /* \"#utility.yul\":981:983   */\n    tag_33:\n        /* \"#utility.yul\":971:1050   */\n      pop\n      jump\t// out\n\n    auxdata: 0xa2646970667358221220e3a16bbe8aa1ff5278ceb80a2ccf3f2fc5276f5c56c2b833ad335cfd29a3b78764736f6c63430008000033\n}\n",
				"bytecode": {
					"linkReferences": {},
					"object": "608060405234801561001057600080fd5b506101e4806100206000396000f3fe608060405234801561001057600080fd5b506004361061002b5760003560e01c8063d0ee811014610030575b600080fd5b61004a600480360381019061004591906100ec565b61004c565b005b600033905060005b828110156100d2576000829080600181540180825580915050600190039060005260206000200160009091909190916101000a81548173ffffffffffffffffffffffffffffffffffffffff021916908373ffffffffffffffffffffffffffffffffffffffff16021790555080806100ca9061011f565b915050610054565b505050565b6000813590506100e681610197565b92915050565b6000602082840312156100fe57600080fd5b600061010c848285016100d7565b91505092915050565b6000819050919050565b600061012a82610115565b91507fffffffffffffffffffffffffffffffffffffffffffffffffffffffffffffffff82141561015d5761015c610168565b5b600182019050919050565b7f4e487b7100000000000000000000000000000000000000000000000000000000600052601160045260246000fd5b6101a081610115565b81146101ab57600080fd5b5056fea2646970667358221220e3a16bbe8aa1ff5278ceb80a2ccf3f2fc5276f5c56c2b833ad335cfd29a3b78764736f6c63430008000033",
					"opcodes": "PUSH1 0x80 PUSH1 0x40 MSTORE CALLVALUE DUP1 ISZERO PUSH2 0x10 JUMPI PUSH1 0x0 DUP1 REVERT JUMPDEST POP PUSH2 0x1E4 DUP1 PUSH2 0x20 PUSH1 0x0 CODECOPY PUSH1 0x0 RETURN INVALID PUSH1 0x80 PUSH1 0x40 MSTORE CALLVALUE DUP1 ISZERO PUSH2 0x10 JUMPI PUSH1 0x0 DUP1 REVERT JUMPDEST POP PUSH1 0x4 CALLDATASIZE LT PUSH2 0x2B JUMPI PUSH1 0x0 CALLDATALOAD PUSH1 0xE0 SHR DUP1 PUSH4 0xD0EE8110 EQ PUSH2 0x30 JUMPI JUMPDEST PUSH1 0x0 DUP1 REVERT JUMPDEST PUSH2 0x4A PUSH1 0x4 DUP1 CALLDATASIZE SUB DUP2 ADD SWAP1 PUSH2 0x45 SWAP2 SWAP1 PUSH2 0xEC JUMP JUMPDEST PUSH2 0x4C JUMP JUMPDEST STOP JUMPDEST PUSH1 0x0 CALLER SWAP1 POP PUSH1 0x0 JUMPDEST DUP3 DUP2 LT ISZERO PUSH2 0xD2 JUMPI PUSH1 0x0 DUP3 SWAP1 DUP1 PUSH1 0x1 DUP2 SLOAD ADD DUP1 DUP3 SSTORE DUP1 SWAP2 POP POP PUSH1 0x1 SWAP1 SUB SWAP1 PUSH1 0x0 MSTORE PUSH1 0x20 PUSH1 0x0 KECCAK256 ADD PUSH1 0x0 SWAP1 SWAP2 SWAP1 SWAP2 SWAP1 SWAP2 PUSH2 0x100 EXP DUP2 SLOAD DUP2 PUSH20 0xFFFFFFFFFFFFFFFFFFFFFFFFFFFFFFFFFFFFFFFF MUL NOT AND SWAP1 DUP4 PUSH20 0xFFFFFFFFFFFFFFFFFFFFFFFFFFFFFFFFFFFFFFFF AND MUL OR SWAP1 SSTORE POP DUP1 DUP1 PUSH2 0xCA SWAP1 PUSH2 0x11F JUMP JUMPDEST SWAP2 POP POP PUSH2 0x54 JUMP JUMPDEST POP POP POP JUMP JUMPDEST PUSH1 0x0 DUP2 CALLDATALOAD SWAP1 POP PUSH2 0xE6 DUP2 PUSH2 0x197 JUMP JUMPDEST SWAP3 SWAP2 POP POP JUMP JUMPDEST PUSH1 0x0 PUSH1 0x20 DUP3 DUP5 SUB SLT ISZERO PUSH2 0xFE JUMPI PUSH1 0x0 DUP1 REVERT JUMPDEST PUSH1 0x0 PUSH2 0x10C DUP5 DUP3 DUP6 ADD PUSH2 0xD7 JUMP JUMPDEST SWAP2 POP POP SWAP3 SWAP2 POP POP JUMP JUMPDEST PUSH1 0x0 DUP2 SWAP1 POP SWAP2 SWAP1 POP JUMP JUMPDEST PUSH1 0x0 PUSH2 0x12A DUP3 PUSH2 0x115 JUMP JUMPDEST SWAP2 POP PUSH32 0xFFFFFFFFFFFFFFFFFFFFFFFFFFFFFFFFFFFFFFFFFFFFFFFFFFFFFFFFFFFFFFFF DUP3 EQ ISZERO PUSH2 0x15D JUMPI PUSH2 0x15C PUSH2 0x168 JUMP JUMPDEST JUMPDEST PUSH1 0x1 DUP3 ADD SWAP1 POP SWAP2 SWAP1 POP JUMP JUMPDEST PUSH32 0x4E487B7100000000000000000000000000000000000000000000000000000000 PUSH1 0x0 MSTORE PUSH1 0x11 PUSH1 0x4 MSTORE PUSH1 0x24 PUSH1 0x0 REVERT JUMPDEST PUSH2 0x1A0 DUP2 PUSH2 0x115 JUMP JUMPDEST DUP2 EQ PUSH2 0x1AB JUMPI PUSH1 0x0 DUP1 REVERT JUMPDEST POP JUMP INVALID LOG2 PUSH5 0x6970667358 0x22 SLT KECCAK256 0xE3 LOG1 PUSH12 0xBE8AA1FF5278CEB80A2CCF3F 0x2F 0xC5 0x27 PUSH16 0x5C56C2B833AD335CFD29A3B78764736F PUSH13 0x63430008000033000000000000 "
				},
				"gasEstimates": {
					"creation": {
						"codeDepositCost": "96800",
						"executionCost": "147",
						"totalCost": "96947"
					},
					"external": {
						"addAddress(uint256)": "infinite"
					}
				},
				"methodIdentifiers": {
					"addAddress(uint256)": "d0ee8110"
				}
			},
			"storageLayout": {
				"storage": [
					{
						"astId": 4,
						"contract": "contracts/test.sol:test",
						"label": "addresses",
						"offset": 0,
						"slot": "0",
						"type": "t_array(t_address)dyn_storage"
					}
				],
				"types": {
					"t_address": {
						"encoding": "inplace",
						"label": "address",
						"numberOfBytes": "20"
					},
					"t_array(t_address)dyn_storage": {
						"base": "t_address",
						"encoding": "dynamic_array",
						"label": "address[]",
						"numberOfBytes": "32"
					}
				}
			},
			"userdoc": {
				"kind": "user",
				"methods": {},
				"version": 1
			}
		}
	}
}