{
	"contracts/test.sol": {
		"test": {
			"abi": [
				{
					"inputs": [
						{
							"internalType": "uint256",
							"name": "times",
							"type": "uint256"
						}
					],
					"name": "addAddress",
					"outputs": [],
					"stateMutability": "nonpayable",
					"type": "function"
				},
				{
					"inputs": [],
					"name": "getAddresses",
					"outputs": [
						{
							"internalType": "address[]",
							"name": "",
							"type": "address[]"
						}
					],
					"stateMutability": "view",
					"type": "function"
				}
			],
			"devdoc": {
				"kind": "dev",
				"methods": {},
				"version": 1
			},
			"evm": {
				"assembly": "    /* \"contracts/test.sol\":64:382  contract test{... */\n  mstore(0x40, 0x80)\n  callvalue\n  dup1\n  iszero\n  tag_1\n  jumpi\n  0x00\n  dup1\n  revert\ntag_1:\n  pop\n  dataSize(sub_0)\n  dup1\n  dataOffset(sub_0)\n  0x00\n  codecopy\n  0x00\n  return\nstop\n\nsub_0: assembly {\n        /* \"contracts/test.sol\":64:382  contract test{... */\n      mstore(0x40, 0x80)\n      callvalue\n      dup1\n      iszero\n      tag_1\n      jumpi\n      0x00\n      dup1\n      revert\n    tag_1:\n      pop\n      jumpi(tag_2, lt(calldatasize, 0x04))\n      shr(0xe0, calldataload(0x00))\n      dup1\n      0xa39fac12\n      eq\n      tag_3\n      jumpi\n      dup1\n      0xd0ee8110\n      eq\n      tag_4\n      jumpi\n    tag_2:\n      0x00\n      dup1\n      revert\n        /* \"contracts/test.sol\":286:380  function getAddresses() public view returns(address[] memory){... */\n    tag_3:\n      tag_5\n      tag_6\n      jump\t// in\n    tag_5:\n      mload(0x40)\n      tag_7\n      swap2\n      swap1\n      tag_8\n      jump\t// in\n    tag_7:\n      mload(0x40)\n      dup1\n      swap2\n      sub\n      swap1\n      return\n        /* \"contracts/test.sol\":110:280  function addAddress(uint256 times) public {... */\n    tag_4:\n      tag_9\n      0x04\n      dup1\n      calldatasize\n      sub\n      dup2\n      add\n      swap1\n      tag_10\n      swap2\n      swap1\n      tag_11\n      jump\t// in\n    tag_10:\n      tag_12\n      jump\t// in\n    tag_9:\n      stop\n        /* \"contracts/test.sol\":286:380  function getAddresses() public view returns(address[] memory){... */\n    tag_6:\n        /* \"contracts/test.sol\":330:346  address[] memory */\n      0x60\n        /* \"contracts/test.sol\":364:373  addresses */\n      0x00\n        /* \"contracts/test.sol\":357:373  return addresses */\n      dup1\n      sload\n      dup1\n      0x20\n      mul\n      0x20\n      add\n      mload(0x40)\n      swap1\n      dup2\n      add\n      0x40\n      mstore\n      dup1\n      swap3\n      swap2\n      swap1\n      dup2\n      dup2\n      mstore\n      0x20\n      add\n      dup3\n      dup1\n      sload\n      dup1\n      iszero\n      tag_14\n      jumpi\n      0x20\n      mul\n      dup3\n      add\n      swap2\n      swap1\n      0x00\n      mstore\n      keccak256(0x00, 0x20)\n      swap1\n    tag_15:\n      dup2\n      0x00\n      swap1\n      sload\n      swap1\n      0x0100\n      exp\n      swap1\n      div\n      0xffffffffffffffffffffffffffffffffffffffff\n      and\n      0xffffffffffffffffffffffffffffffffffffffff\n      and\n      dup2\n      mstore\n      0x20\n      add\n      swap1\n      0x01\n      add\n      swap1\n      dup1\n      dup4\n      gt\n      tag_15\n      jumpi\n    tag_14:\n      pop\n      pop\n      pop\n      pop\n      pop\n      swap1\n      pop\n        /* \"contracts/test.sol\":286:380  function getAddresses() public view returns(address[] memory){... */\n      swap1\n      jump\t// out\n        /* \"contracts/test.sol\":110:280  function addAddress(uint256 times) public {... */\n    tag_12:\n        /* \"contracts/test.sol\":162:176  address sender */\n      0x00\n        /* \"contracts/test.sol\":179:189  msg.sender */\n      caller\n        /* \"contracts/test.sol\":162:189  address sender = msg.sender */\n      swap1\n      pop\n        /* \"contracts/test.sol\":203:212  uint256 i */\n      0x00\n        /* \"contracts/test.sol\":199:274  for(uint256 i; i< times;i++){... */\n    tag_17:\n        /* \"contracts/test.sol\":217:222  times */\n      dup3\n        /* \"contracts/test.sol\":214:215  i */\n      dup2\n        /* \"contracts/test.sol\":214:222  i< times */\n      lt\n        /* \"contracts/test.sol\":199:274  for(uint256 i; i< times;i++){... */\n      iszero\n      tag_18\n      jumpi\n        /* \"contracts/test.sol\":241:250  addresses */\n      0x00\n        /* \"contracts/test.sol\":256:262  sender */\n      dup3\n        /* \"contracts/test.sol\":241:263  addresses.push(sender) */\n      swap1\n      dup1\n      0x01\n      dup2\n      sload\n      add\n      dup1\n      dup3\n      sstore\n      dup1\n      swap2\n      pop\n      pop\n      0x01\n      swap1\n      sub\n      swap1\n      0x00\n      mstore\n      keccak256(0x00, 0x20)\n      add\n      0x00\n      swap1\n      swap2\n      swap1\n      swap2\n      swap1\n      swap2\n      0x0100\n      exp\n      dup2\n      sload\n      dup2\n      0xffffffffffffffffffffffffffffffffffffffff\n      mul\n      not\n      and\n      swap1\n      dup4\n      0xffffffffffffffffffffffffffffffffffffffff\n      and\n      mul\n      or\n      swap1\n      sstore\n      pop\n        /* \"contracts/test.sol\":223:226  i++ */\n      dup1\n      dup1\n      tag_21\n      swap1\n      tag_22\n      jump\t// in\n    tag_21:\n      swap2\n      pop\n      pop\n        /* \"contracts/test.sol\":199:274  for(uint256 i; i< times;i++){... */\n      jump(tag_17)\n    tag_18:\n      pop\n        /* \"contracts/test.sol\":110:280  function addAddress(uint256 times) public {... */\n      pop\n      pop\n      jump\t// out\n        /* \"#utility.yul\":7:146   */\n    tag_24:\n      0x00\n        /* \"#utility.yul\":91:97   */\n      dup2\n        /* \"#utility.yul\":78:98   */\n      calldataload\n        /* \"#utility.yul\":69:98   */\n      swap1\n      pop\n        /* \"#utility.yul\":107:140   */\n      tag_26\n        /* \"#utility.yul\":134:139   */\n      dup2\n        /* \"#utility.yul\":107:140   */\n      tag_27\n      jump\t// in\n    tag_26:\n        /* \"#utility.yul\":59:146   */\n      swap3\n      swap2\n      pop\n      pop\n      jump\t// out\n        /* \"#utility.yul\":152:414   */\n    tag_11:\n      0x00\n        /* \"#utility.yul\":260:262   */\n      0x20\n        /* \"#utility.yul\":248:257   */\n      dup3\n        /* \"#utility.yul\":239:246   */\n      dup5\n        /* \"#utility.yul\":235:258   */\n      sub\n        /* \"#utility.yul\":231:263   */\n      slt\n        /* \"#utility.yul\":228:230   */\n      iszero\n      tag_29\n      jumpi\n        /* \"#utility.yul\":276:277   */\n      0x00\n        /* \"#utility.yul\":273:274   */\n      dup1\n        /* \"#utility.yul\":266:278   */\n      revert\n        /* \"#utility.yul\":228:230   */\n    tag_29:\n        /* \"#utility.yul\":319:320   */\n      0x00\n        /* \"#utility.yul\":344:397   */\n      tag_30\n        /* \"#utility.yul\":389:396   */\n      dup5\n        /* \"#utility.yul\":380:386   */\n      dup3\n        /* \"#utility.yul\":369:378   */\n      dup6\n        /* \"#utility.yul\":365:387   */\n      add\n        /* \"#utility.yul\":344:397   */\n      tag_24\n      jump\t// in\n    tag_30:\n        /* \"#utility.yul\":334:397   */\n      swap2\n      pop\n        /* \"#utility.yul\":290:407   */\n      pop\n        /* \"#utility.yul\":218:414   */\n      swap3\n      swap2\n      pop\n      pop\n      jump\t// out\n        /* \"#utility.yul\":420:599   */\n    tag_31:\n      0x00\n        /* \"#utility.yul\":510:556   */\n      tag_33\n        /* \"#utility.yul\":552:555   */\n      dup4\n        /* \"#utility.yul\":544:550   */\n      dup4\n        /* \"#utility.yul\":510:556   */\n      tag_34\n      jump\t// in\n    tag_33:\n        /* \"#utility.yul\":588:592   */\n      0x20\n        /* \"#utility.yul\":583:586   */\n      dup4\n        /* \"#utility.yul\":579:593   */\n      add\n        /* \"#utility.yul\":565:593   */\n      swap1\n      pop\n        /* \"#utility.yul\":500:599   */\n      swap3\n      swap2\n      pop\n      pop\n      jump\t// out\n        /* \"#utility.yul\":605:713   */\n    tag_34:\n        /* \"#utility.yul\":682:706   */\n      tag_36\n        /* \"#utility.yul\":700:705   */\n      dup2\n        /* \"#utility.yul\":682:706   */\n      tag_37\n      jump\t// in\n    tag_36:\n        /* \"#utility.yul\":677:680   */\n      dup3\n        /* \"#utility.yul\":670:707   */\n      mstore\n        /* \"#utility.yul\":660:713   */\n      pop\n      pop\n      jump\t// out\n        /* \"#utility.yul\":749:1481   */\n    tag_38:\n      0x00\n        /* \"#utility.yul\":897:951   */\n      tag_40\n        /* \"#utility.yul\":945:950   */\n      dup3\n        /* \"#utility.yul\":897:951   */\n      tag_41\n      jump\t// in\n    tag_40:\n        /* \"#utility.yul\":967:1053   */\n      tag_42\n        /* \"#utility.yul\":1046:1052   */\n      dup2\n        /* \"#utility.yul\":1041:1044   */\n      dup6\n        /* \"#utility.yul\":967:1053   */\n      tag_43\n      jump\t// in\n    tag_42:\n        /* \"#utility.yul\":960:1053   */\n      swap4\n      pop\n        /* \"#utility.yul\":1077:1133   */\n      tag_44\n        /* \"#utility.yul\":1127:1132   */\n      dup4\n        /* \"#utility.yul\":1077:1133   */\n      tag_45\n      jump\t// in\n    tag_44:\n        /* \"#utility.yul\":1156:1163   */\n      dup1\n        /* \"#utility.yul\":1187:1188   */\n      0x00\n        /* \"#utility.yul\":1172:1456   */\n    tag_46:\n        /* \"#utility.yul\":1197:1203   */\n      dup4\n        /* \"#utility.yul\":1194:1195   */\n      dup2\n        /* \"#utility.yul\":1191:1204   */\n      lt\n        /* \"#utility.yul\":1172:1456   */\n      iszero\n      tag_48\n      jumpi\n        /* \"#utility.yul\":1273:1279   */\n      dup2\n        /* \"#utility.yul\":1267:1280   */\n      mload\n        /* \"#utility.yul\":1300:1363   */\n      tag_49\n        /* \"#utility.yul\":1359:1362   */\n      dup9\n        /* \"#utility.yul\":1344:1357   */\n      dup3\n        /* \"#utility.yul\":1300:1363   */\n      tag_31\n      jump\t// in\n    tag_49:\n        /* \"#utility.yul\":1293:1363   */\n      swap8\n      pop\n        /* \"#utility.yul\":1386:1446   */\n      tag_50\n        /* \"#utility.yul\":1439:1445   */\n      dup4\n        /* \"#utility.yul\":1386:1446   */\n      tag_51\n      jump\t// in\n    tag_50:\n        /* \"#utility.yul\":1376:1446   */\n      swap3\n      pop\n        /* \"#utility.yul\":1232:1456   */\n      pop\n        /* \"#utility.yul\":1219:1220   */\n      0x01\n        /* \"#utility.yul\":1216:1217   */\n      dup2\n        /* \"#utility.yul\":1212:1221   */\n      add\n        /* \"#utility.yul\":1207:1221   */\n      swap1\n      pop\n        /* \"#utility.yul\":1172:1456   */\n      jump(tag_46)\n    tag_48:\n        /* \"#utility.yul\":1176:1190   */\n      pop\n        /* \"#utility.yul\":1472:1475   */\n      dup6\n        /* \"#utility.yul\":1465:1475   */\n      swap4\n      pop\n        /* \"#utility.yul\":873:1481   */\n      pop\n      pop\n      pop\n      swap3\n      swap2\n      pop\n      pop\n      jump\t// out\n        /* \"#utility.yul\":1487:1860   */\n    tag_8:\n      0x00\n        /* \"#utility.yul\":1668:1670   */\n      0x20\n        /* \"#utility.yul\":1657:1666   */\n      dup3\n        /* \"#utility.yul\":1653:1671   */\n      add\n        /* \"#utility.yul\":1645:1671   */\n      swap1\n      pop\n        /* \"#utility.yul\":1717:1726   */\n      dup2\n        /* \"#utility.yul\":1711:1715   */\n      dup2\n        /* \"#utility.yul\":1707:1727   */\n      sub\n        /* \"#utility.yul\":1703:1704   */\n      0x00\n        /* \"#utility.yul\":1692:1701   */\n      dup4\n        /* \"#utility.yul\":1688:1705   */\n      add\n        /* \"#utility.yul\":1681:1728   */\n      mstore\n        /* \"#utility.yul\":1745:1853   */\n      tag_53\n        /* \"#utility.yul\":1848:1852   */\n      dup2\n        /* \"#utility.yul\":1839:1845   */\n      dup5\n        /* \"#utility.yul\":1745:1853   */\n      tag_38\n      jump\t// in\n    tag_53:\n        /* \"#utility.yul\":1737:1853   */\n      swap1\n      pop\n        /* \"#utility.yul\":1635:1860   */\n      swap3\n      swap2\n      pop\n      pop\n      jump\t// out\n        /* \"#utility.yul\":1866:1998   */\n    tag_45:\n      0x00\n        /* \"#utility.yul\":1956:1959   */\n      dup2\n        /* \"#utility.yul\":1948:1959   */\n      swap1\n      pop\n        /* \"#utility.yul\":1986:1990   */\n      0x20\n        /* \"#utility.yul\":1981:1984   */\n      dup3\n        /* \"#utility.yul\":1977:1991   */\n      add\n        /* \"#utility.yul\":1969:1991   */\n      swap1\n      pop\n        /* \"#utility.yul\":1938:1998   */\n      swap2\n      swap1\n      pop\n      jump\t// out\n        /* \"#utility.yul\":2004:2118   */\n    tag_41:\n      0x00\n        /* \"#utility.yul\":2105:2110   */\n      dup2\n        /* \"#utility.yul\":2099:2111   */\n      mload\n        /* \"#utility.yul\":2089:2111   */\n      swap1\n      pop\n        /* \"#utility.yul\":2078:2118   */\n      swap2\n      swap1\n      pop\n      jump\t// out\n        /* \"#utility.yul\":2124:2237   */\n    tag_51:\n      0x00\n        /* \"#utility.yul\":2226:2230   */\n      0x20\n        /* \"#utility.yul\":2221:2224   */\n      dup3\n        /* \"#utility.yul\":2217:2231   */\n      add\n        /* \"#utility.yul\":2209:2231   */\n      swap1\n      pop\n        /* \"#utility.yul\":2199:2237   */\n      swap2\n      swap1\n      pop\n      jump\t// out\n        /* \"#utility.yul\":2243:2427   */\n    tag_43:\n      0x00\n        /* \"#utility.yul\":2376:2382   */\n      dup3\n        /* \"#utility.yul\":2371:2374   */\n      dup3\n        /* \"#utility.yul\":2364:2383   */\n      mstore\n        /* \"#utility.yul\":2416:2420   */\n      0x20\n        /* \"#utility.yul\":2411:2414   */\n      dup3\n        /* \"#utility.yul\":2407:2421   */\n      add\n        /* \"#utility.yul\":2392:2421   */\n      swap1\n      pop\n        /* \"#utility.yul\":2354:2427   */\n      swap3\n      swap2\n      pop\n      pop\n      jump\t// out\n        /* \"#utility.yul\":2433:2529   */\n    tag_37:\n      0x00\n        /* \"#utility.yul\":2499:2523   */\n      tag_59\n        /* \"#utility.yul\":2517:2522   */\n      dup3\n        /* \"#utility.yul\":2499:2523   */\n      tag_60\n      jump\t// in\n    tag_59:\n        /* \"#utility.yul\":2488:2523   */\n      swap1\n      pop\n        /* \"#utility.yul\":2478:2529   */\n      swap2\n      swap1\n      pop\n      jump\t// out\n        /* \"#utility.yul\":2535:2661   */\n    tag_60:\n      0x00\n        /* \"#utility.yul\":2612:2654   */\n      0xffffffffffffffffffffffffffffffffffffffff\n        /* \"#utility.yul\":2605:2610   */\n      dup3\n        /* \"#utility.yul\":2601:2655   */\n      and\n        /* \"#utility.yul\":2590:2655   */\n      swap1\n      pop\n        /* \"#utility.yul\":2580:2661   */\n      swap2\n      swap1\n      pop\n      jump\t// out\n        /* \"#utility.yul\":2667:2744   */\n    tag_62:\n      0x00\n        /* \"#utility.yul\":2733:2738   */\n      dup2\n        /* \"#utility.yul\":2722:2738   */\n      swap1\n      pop\n        /* \"#utility.yul\":2712:2744   */\n      swap2\n      swap1\n      pop\n      jump\t// out\n        /* \"#utility.yul\":2750:2983   */\n    tag_22:\n      0x00\n        /* \"#utility.yul\":2812:2836   */\n      tag_65\n        /* \"#utility.yul\":2830:2835   */\n      dup3\n        /* \"#utility.yul\":2812:2836   */\n      tag_62\n      jump\t// in\n    tag_65:\n        /* \"#utility.yul\":2803:2836   */\n      swap2\n      pop\n        /* \"#utility.yul\":2858:2924   */\n      0xffffffffffffffffffffffffffffffffffffffffffffffffffffffffffffffff\n        /* \"#utility.yul\":2851:2856   */\n      dup3\n        /* \"#utility.yul\":2848:2925   */\n      eq\n        /* \"#utility.yul\":2845:2847   */\n      iszero\n      tag_66\n      jumpi\n        /* \"#utility.yul\":2928:2946   */\n      tag_67\n      tag_68\n      jump\t// in\n    tag_67:\n        /* \"#utility.yul\":2845:2847   */\n    tag_66:\n        /* \"#utility.yul\":2975:2976   */\n      0x01\n        /* \"#utility.yul\":2968:2973   */\n      dup3\n        /* \"#utility.yul\":2964:2977   */\n      add\n        /* \"#utility.yul\":2957:2977   */\n      swap1\n      pop\n        /* \"#utility.yul\":2793:2983   */\n      swap2\n      swap1\n      pop\n      jump\t// out\n        /* \"#utility.yul\":2989:3169   */\n    tag_68:\n        /* \"#utility.yul\":3037:3114   */\n      0x4e487b7100000000000000000000000000000000000000000000000000000000\n        /* \"#utility.yul\":3034:3035   */\n      0x00\n        /* \"#utility.yul\":3027:3115   */\n      mstore\n        /* \"#utility.yul\":3134:3138   */\n      0x11\n        /* \"#utility.yul\":3131:3132   */\n      0x04\n        /* \"#utility.yul\":3124:3139   */\n      mstore\n        /* \"#utility.yul\":3158:3162   */\n      0x24\n        /* \"#utility.yul\":3155:3156   */\n      0x00\n        /* \"#utility.yul\":3148:3163   */\n      revert\n        /* \"#utility.yul\":3175:3297   */\n    tag_27:\n        /* \"#utility.yul\":3248:3272   */\n      tag_71\n        /* \"#utility.yul\":3266:3271   */\n      dup2\n        /* \"#utility.yul\":3248:3272   */\n      tag_62\n      jump\t// in\n    tag_71:\n        /* \"#utility.yul\":3241:3246   */\n      dup2\n        /* \"#utility.yul\":3238:3273   */\n      eq\n        /* \"#utility.yul\":3228:3230   */\n      tag_72\n      jumpi\n        /* \"#utility.yul\":3287:3288   */\n      0x00\n        /* \"#utility.yul\":3284:3285   */\n      dup1\n        /* \"#utility.yul\":3277:3289   */\n      revert\n        /* \"#utility.yul\":3228:3230   */\n    tag_72:\n        /* \"#utility.yul\":3218:3297   */\n      pop\n      jump\t// out\n\n    auxdata: 0xa2646970667358221220ae95396b66eca5e06820a1ac51db307c4a15be12cb4d0fa1bffe2a30033dae3464736f6c63430008000033\n}\n",
				"bytecode": {
					"linkReferences": {},
					"object": "608060405234801561001057600080fd5b506103ad806100206000396000f3fe608060405234801561001057600080fd5b50600436106100365760003560e01c8063a39fac121461003b578063d0ee811014610059575b600080fd5b610043610075565b6040516100509190610251565b60405180910390f35b610073600480360381019061006e91906101a3565b610103565b005b606060008054806020026020016040519081016040528092919081815260200182805480156100f957602002820191906000526020600020905b8160009054906101000a900473ffffffffffffffffffffffffffffffffffffffff1673ffffffffffffffffffffffffffffffffffffffff16815260200190600101908083116100af575b5050505050905090565b600033905060005b82811015610189576000829080600181540180825580915050600190039060005260206000200160009091909190916101000a81548173ffffffffffffffffffffffffffffffffffffffff021916908373ffffffffffffffffffffffffffffffffffffffff1602179055508080610181906102e8565b91505061010b565b505050565b60008135905061019d81610360565b92915050565b6000602082840312156101b557600080fd5b60006101c38482850161018e565b91505092915050565b60006101d883836101e4565b60208301905092915050565b6101ed816102ac565b82525050565b60006101fe82610283565b610208818561029b565b935061021383610273565b8060005b8381101561024457815161022b88826101cc565b97506102368361028e565b925050600181019050610217565b5085935050505092915050565b6000602082019050818103600083015261026b81846101f3565b905092915050565b6000819050602082019050919050565b600081519050919050565b6000602082019050919050565b600082825260208201905092915050565b60006102b7826102be565b9050919050565b600073ffffffffffffffffffffffffffffffffffffffff82169050919050565b6000819050919050565b60006102f3826102de565b91507fffffffffffffffffffffffffffffffffffffffffffffffffffffffffffffffff82141561032657610325610331565b5b600182019050919050565b7f4e487b7100000000000000000000000000000000000000000000000000000000600052601160045260246000fd5b610369816102de565b811461037457600080fd5b5056fea2646970667358221220ae95396b66eca5e06820a1ac51db307c4a15be12cb4d0fa1bffe2a30033dae3464736f6c63430008000033",
					"opcodes": "PUSH1 0x80 PUSH1 0x40 MSTORE CALLVALUE DUP1 ISZERO PUSH2 0x10 JUMPI PUSH1 0x0 DUP1 REVERT JUMPDEST POP PUSH2 0x3AD DUP1 PUSH2 0x20 PUSH1 0x0 CODECOPY PUSH1 0x0 RETURN INVALID PUSH1 0x80 PUSH1 0x40 MSTORE CALLVALUE DUP1 ISZERO PUSH2 0x10 JUMPI PUSH1 0x0 DUP1 REVERT JUMPDEST POP PUSH1 0x4 CALLDATASIZE LT PUSH2 0x36 JUMPI PUSH1 0x0 CALLDATALOAD PUSH1 0xE0 SHR DUP1 PUSH4 0xA39FAC12 EQ PUSH2 0x3B JUMPI DUP1 PUSH4 0xD0EE8110 EQ PUSH2 0x59 JUMPI JUMPDEST PUSH1 0x0 DUP1 REVERT JUMPDEST PUSH2 0x43 PUSH2 0x75 JUMP JUMPDEST PUSH1 0x40 MLOAD PUSH2 0x50 SWAP2 SWAP1 PUSH2 0x251 JUMP JUMPDEST PUSH1 0x40 MLOAD DUP1 SWAP2 SUB SWAP1 RETURN JUMPDEST PUSH2 0x73 PUSH1 0x4 DUP1 CALLDATASIZE SUB DUP2 ADD SWAP1 PUSH2 0x6E SWAP2 SWAP1 PUSH2 0x1A3 JUMP JUMPDEST PUSH2 0x103 JUMP JUMPDEST STOP JUMPDEST PUSH1 0x60 PUSH1 0x0 DUP1 SLOAD DUP1 PUSH1 0x20 MUL PUSH1 0x20 ADD PUSH1 0x40 MLOAD SWAP1 DUP2 ADD PUSH1 0x40 MSTORE DUP1 SWAP3 SWAP2 SWAP1 DUP2 DUP2 MSTORE PUSH1 0x20 ADD DUP3 DUP1 SLOAD DUP1 ISZERO PUSH2 0xF9 JUMPI PUSH1 0x20 MUL DUP3 ADD SWAP2 SWAP1 PUSH1 0x0 MSTORE PUSH1 0x20 PUSH1 0x0 KECCAK256 SWAP1 JUMPDEST DUP2 PUSH1 0x0 SWAP1 SLOAD SWAP1 PUSH2 0x100 EXP SWAP1 DIV PUSH20 0xFFFFFFFFFFFFFFFFFFFFFFFFFFFFFFFFFFFFFFFF AND PUSH20 0xFFFFFFFFFFFFFFFFFFFFFFFFFFFFFFFFFFFFFFFF AND DUP2 MSTORE PUSH1 0x20 ADD SWAP1 PUSH1 0x1 ADD SWAP1 DUP1 DUP4 GT PUSH2 0xAF JUMPI JUMPDEST POP POP POP POP POP SWAP1 POP SWAP1 JUMP JUMPDEST PUSH1 0x0 CALLER SWAP1 POP PUSH1 0x0 JUMPDEST DUP3 DUP2 LT ISZERO PUSH2 0x189 JUMPI PUSH1 0x0 DUP3 SWAP1 DUP1 PUSH1 0x1 DUP2 SLOAD ADD DUP1 DUP3 SSTORE DUP1 SWAP2 POP POP PUSH1 0x1 SWAP1 SUB SWAP1 PUSH1 0x0 MSTORE PUSH1 0x20 PUSH1 0x0 KECCAK256 ADD PUSH1 0x0 SWAP1 SWAP2 SWAP1 SWAP2 SWAP1 SWAP2 PUSH2 0x100 EXP DUP2 SLOAD DUP2 PUSH20 0xFFFFFFFFFFFFFFFFFFFFFFFFFFFFFFFFFFFFFFFF MUL NOT AND SWAP1 DUP4 PUSH20 0xFFFFFFFFFFFFFFFFFFFFFFFFFFFFFFFFFFFFFFFF AND MUL OR SWAP1 SSTORE POP DUP1 DUP1 PUSH2 0x181 SWAP1 PUSH2 0x2E8 JUMP JUMPDEST SWAP2 POP POP PUSH2 0x10B JUMP JUMPDEST POP POP POP JUMP JUMPDEST PUSH1 0x0 DUP2 CALLDATALOAD SWAP1 POP PUSH2 0x19D DUP2 PUSH2 0x360 JUMP JUMPDEST SWAP3 SWAP2 POP POP JUMP JUMPDEST PUSH1 0x0 PUSH1 0x20 DUP3 DUP5 SUB SLT ISZERO PUSH2 0x1B5 JUMPI PUSH1 0x0 DUP1 REVERT JUMPDEST PUSH1 0x0 PUSH2 0x1C3 DUP5 DUP3 DUP6 ADD PUSH2 0x18E JUMP JUMPDEST SWAP2 POP POP SWAP3 SWAP2 POP POP JUMP JUMPDEST PUSH1 0x0 PUSH2 0x1D8 DUP4 DUP4 PUSH2 0x1E4 JUMP JUMPDEST PUSH1 0x20 DUP4 ADD SWAP1 POP SWAP3 SWAP2 POP POP JUMP JUMPDEST PUSH2 0x1ED DUP2 PUSH2 0x2AC JUMP JUMPDEST DUP3 MSTORE POP POP JUMP JUMPDEST PUSH1 0x0 PUSH2 0x1FE DUP3 PUSH2 0x283 JUMP JUMPDEST PUSH2 0x208 DUP2 DUP6 PUSH2 0x29B JUMP JUMPDEST SWAP4 POP PUSH2 0x213 DUP4 PUSH2 0x273 JUMP JUMPDEST DUP1 PUSH1 0x0 JUMPDEST DUP4 DUP2 LT ISZERO PUSH2 0x244 JUMPI DUP2 MLOAD PUSH2 0x22B DUP9 DUP3 PUSH2 0x1CC JUMP JUMPDEST SWAP8 POP PUSH2 0x236 DUP4 PUSH2 0x28E JUMP JUMPDEST SWAP3 POP POP PUSH1 0x1 DUP2 ADD SWAP1 POP PUSH2 0x217 JUMP JUMPDEST POP DUP6 SWAP4 POP POP POP POP SWAP3 SWAP2 POP POP JUMP JUMPDEST PUSH1 0x0 PUSH1 0x20 DUP3 ADD SWAP1 POP DUP2 DUP2 SUB PUSH1 0x0 DUP4 ADD MSTORE PUSH2 0x26B DUP2 DUP5 PUSH2 0x1F3 JUMP JUMPDEST SWAP1 POP SWAP3 SWAP2 POP POP JUMP JUMPDEST PUSH1 0x0 DUP2 SWAP1 POP PUSH1 0x20 DUP3 ADD SWAP1 POP SWAP2 SWAP1 POP JUMP JUMPDEST PUSH1 0x0 DUP2 MLOAD SWAP1 POP SWAP2 SWAP1 POP JUMP JUMPDEST PUSH1 0x0 PUSH1 0x20 DUP3 ADD SWAP1 POP SWAP2 SWAP1 POP JUMP JUMPDEST PUSH1 0x0 DUP3 DUP3 MSTORE PUSH1 0x20 DUP3 ADD SWAP1 POP SWAP3 SWAP2 POP POP JUMP JUMPDEST PUSH1 0x0 PUSH2 0x2B7 DUP3 PUSH2 0x2BE JUMP JUMPDEST SWAP1 POP SWAP2 SWAP1 POP JUMP JUMPDEST PUSH1 0x0 PUSH20 0xFFFFFFFFFFFFFFFFFFFFFFFFFFFFFFFFFFFFFFFF DUP3 AND SWAP1 POP SWAP2 SWAP1 POP JUMP JUMPDEST PUSH1 0x0 DUP2 SWAP1 POP SWAP2 SWAP1 POP JUMP JUMPDEST PUSH1 0x0 PUSH2 0x2F3 DUP3 PUSH2 0x2DE JUMP JUMPDEST SWAP2 POP PUSH32 0xFFFFFFFFFFFFFFFFFFFFFFFFFFFFFFFFFFFFFFFFFFFFFFFFFFFFFFFFFFFFFFFF DUP3 EQ ISZERO PUSH2 0x326 JUMPI PUSH2 0x325 PUSH2 0x331 JUMP JUMPDEST JUMPDEST PUSH1 0x1 DUP3 ADD SWAP1 POP SWAP2 SWAP1 POP JUMP JUMPDEST PUSH32 0x4E487B7100000000000000000000000000000000000000000000000000000000 PUSH1 0x0 MSTORE PUSH1 0x11 PUSH1 0x4 MSTORE PUSH1 0x24 PUSH1 0x0 REVERT JUMPDEST PUSH2 0x369 DUP2 PUSH2 0x2DE JUMP JUMPDEST DUP2 EQ PUSH2 0x374 JUMPI PUSH1 0x0 DUP1 REVERT JUMPDEST POP JUMP INVALID LOG2 PUSH5 0x6970667358 0x22 SLT KECCAK256 0xAE SWAP6 CODECOPY PUSH12 0x66ECA5E06820A1AC51DB307C 0x4A ISZERO 0xBE SLT 0xCB 0x4D 0xF LOG1 0xBF INVALID 0x2A ADDRESS SUB RETURNDATASIZE 0xAE CALLVALUE PUSH5 0x736F6C6343 STOP ADDMOD STOP STOP CALLER "
				},
				"gasEstimates": {
					"creation": {
						"codeDepositCost": "188200",
						"executionCost": "232",
						"totalCost": "188432"
					},
					"external": {
						"addAddress(uint256)": "infinite",
						"getAddresses()": "infinite"
					}
				},
				"methodIdentifiers": {
					"addAddress(uint256)": "d0ee8110",
					"getAddresses()": "a39fac12"
				}
			},
			"storageLayout": {
				"storage": [
					{
						"astId": 4,
						"contract": "contracts/test.sol:test",
						"label": "addresses",
						"offset": 0,
						"slot": "0",
						"type": "t_array(t_address)dyn_storage"
					}
				],
				"types": {
					"t_address": {
						"encoding": "inplace",
						"label": "address",
						"numberOfBytes": "20"
					},
					"t_array(t_address)dyn_storage": {
						"base": "t_address",
						"encoding": "dynamic_array",
						"label": "address[]",
						"numberOfBytes": "32"
					}
				}
			},
			"userdoc": {
				"kind": "user",
				"methods": {},
				"version": 1
			}
		}
	}
}