{
	"contracts/MultiSigWallet.sol": {
		"MultiSigWallet": {
			"abi": [
				{
					"inputs": [
						{
							"internalType": "address",
							"name": "_owner",
							"type": "address"
						},
						{
							"internalType": "address",
							"name": "_factoryAddress",
							"type": "address"
						},
						{
							"internalType": "uint256",
							"name": "_walletId",
							"type": "uint256"
						}
					],
					"stateMutability": "nonpayable",
					"type": "constructor"
				},
				{
					"inputs": [
						{
							"internalType": "address[]",
							"name": "members",
							"type": "address[]"
						}
					],
					"name": "addMembers",
					"outputs": [],
					"stateMutability": "nonpayable",
					"type": "function"
				},
				{
					"inputs": [
						{
							"internalType": "address",
							"name": "",
							"type": "address"
						}
					],
					"name": "addressToMember",
					"outputs": [
						{
							"internalType": "uint256",
							"name": "timeAdded",
							"type": "uint256"
						},
						{
							"internalType": "address",
							"name": "walletAddress",
							"type": "address"
						}
					],
					"stateMutability": "view",
					"type": "function"
				},
				{
					"inputs": [
						{
							"internalType": "address",
							"name": "tokenAddress",
							"type": "address"
						}
					],
					"name": "balanceOf",
					"outputs": [
						{
							"internalType": "uint256",
							"name": "balance",
							"type": "uint256"
						}
					],
					"stateMutability": "view",
					"type": "function"
				},
				{
					"inputs": [
						{
							"internalType": "address",
							"name": "_tokenAddress",
							"type": "address"
						},
						{
							"internalType": "address",
							"name": "_toAddress",
							"type": "address"
						},
						{
							"internalType": "uint256",
							"name": "_amount",
							"type": "uint256"
						}
					],
					"name": "createOrder",
					"outputs": [],
					"stateMutability": "nonpayable",
					"type": "function"
				},
				{
					"inputs": [
						{
							"internalType": "address",
							"name": "",
							"type": "address"
						}
					],
					"name": "isMember",
					"outputs": [
						{
							"internalType": "bool",
							"name": "",
							"type": "bool"
						}
					],
					"stateMutability": "view",
					"type": "function"
				},
				{
					"inputs": [
						{
							"internalType": "uint256",
							"name": "orderId",
							"type": "uint256"
						},
						{
							"internalType": "uint256",
							"name": "decision",
							"type": "uint256"
						}
					],
					"name": "makeDecision",
					"outputs": [],
					"stateMutability": "nonpayable",
					"type": "function"
				},
				{
					"inputs": [],
					"name": "memberCount",
					"outputs": [
						{
							"internalType": "uint256",
							"name": "",
							"type": "uint256"
						}
					],
					"stateMutability": "view",
					"type": "function"
				},
				{
					"inputs": [],
					"name": "orderCounter",
					"outputs": [
						{
							"internalType": "uint256",
							"name": "",
							"type": "uint256"
						}
					],
					"stateMutability": "view",
					"type": "function"
				},
				{
					"inputs": [
						{
							"internalType": "uint256",
							"name": "",
							"type": "uint256"
						}
					],
					"name": "orderIdToOrder",
					"outputs": [
						{
							"internalType": "uint256",
							"name": "creationTime",
							"type": "uint256"
						},
						{
							"internalType": "address",
							"name": "tokenAddress",
							"type": "address"
						},
						{
							"internalType": "address",
							"name": "toAddress",
							"type": "address"
						},
						{
							"internalType": "uint256",
							"name": "amount",
							"type": "uint256"
						},
						{
							"internalType": "uint256",
							"name": "numberOfAcceptance",
							"type": "uint256"
						},
						{
							"internalType": "uint256",
							"name": "numberOfRejections",
							"type": "uint256"
						},
						{
							"internalType": "uint256",
							"name": "minRequiredDecision",
							"type": "uint256"
						},
						{
							"internalType": "uint256",
							"name": "finalDecision",
							"type": "uint256"
						}
					],
					"stateMutability": "view",
					"type": "function"
				},
				{
					"inputs": [],
					"name": "owner",
					"outputs": [
						{
							"internalType": "address",
							"name": "",
							"type": "address"
						}
					],
					"stateMutability": "view",
					"type": "function"
				},
				{
					"inputs": [],
					"name": "walletId",
					"outputs": [
						{
							"internalType": "uint256",
							"name": "",
							"type": "uint256"
						}
					],
					"stateMutability": "view",
					"type": "function"
				}
			],
			"devdoc": {
				"kind": "dev",
				"methods": {},
				"version": 1
			},
			"evm": {
				"assembly": "    /* \"contracts/MultiSigWallet.sol\":229:4075  contract MultiSigWallet is ReentrancyGuard {... */\n  mstore(0x40, 0x80)\n    /* \"contracts/MultiSigWallet.sol\":1036:1260  constructor(... */\n  callvalue\n  dup1\n  iszero\n  tag_1\n  jumpi\n  0x00\n  dup1\n  revert\ntag_1:\n  pop\n  mload(0x40)\n  sub(codesize, bytecodeSize)\n  dup1\n  bytecodeSize\n  dup4\n  codecopy\n  dup2\n  dup2\n  add\n  0x40\n  mstore\n  dup2\n  add\n  swap1\n  tag_2\n  swap2\n  swap1\n  tag_3\n  jump\t// in\ntag_2:\n    /* \"@openzeppelin/contracts/security/ReentrancyGuard.sol\":1701:1702  1 */\n  0x01\n    /* \"@openzeppelin/contracts/security/ReentrancyGuard.sol\":1806:1813  _status */\n  0x00\n    /* \"@openzeppelin/contracts/security/ReentrancyGuard.sol\":1806:1828  _status = _NOT_ENTERED */\n  dup2\n  swap1\n  sstore\n  pop\n    /* \"contracts/MultiSigWallet.sol\":1156:1162  _owner */\n  dup3\n    /* \"contracts/MultiSigWallet.sol\":1148:1153  owner */\n  0x01\n  0x00\n    /* \"contracts/MultiSigWallet.sol\":1148:1162  owner = _owner */\n  0x0100\n  exp\n  dup2\n  sload\n  dup2\n  0xffffffffffffffffffffffffffffffffffffffff\n  mul\n  not\n  and\n  swap1\n  dup4\n  0xffffffffffffffffffffffffffffffffffffffff\n  and\n  mul\n  or\n  swap1\n  sstore\n  pop\n    /* \"contracts/MultiSigWallet.sol\":1207:1222  _factoryAddress */\n  dup2\n    /* \"contracts/MultiSigWallet.sol\":1172:1187  multiSigFactory */\n  0x04\n  0x00\n    /* \"contracts/MultiSigWallet.sol\":1172:1223  multiSigFactory = IMultiSigFactory(_factoryAddress) */\n  0x0100\n  exp\n  dup2\n  sload\n  dup2\n  0xffffffffffffffffffffffffffffffffffffffff\n  mul\n  not\n  and\n  swap1\n  dup4\n  0xffffffffffffffffffffffffffffffffffffffff\n  and\n  mul\n  or\n  swap1\n  sstore\n  pop\n    /* \"contracts/MultiSigWallet.sol\":1244:1253  _walletId */\n  dup1\n    /* \"contracts/MultiSigWallet.sol\":1233:1241  walletId */\n  0x03\n    /* \"contracts/MultiSigWallet.sol\":1233:1253  walletId = _walletId */\n  dup2\n  swap1\n  sstore\n  pop\n    /* \"contracts/MultiSigWallet.sol\":1036:1260  constructor(... */\n  pop\n  pop\n  pop\n    /* \"contracts/MultiSigWallet.sol\":229:4075  contract MultiSigWallet is ReentrancyGuard {... */\n  jump(tag_8)\n    /* \"#utility.yul\":7:150   */\ntag_10:\n  0x00\n    /* \"#utility.yul\":95:101   */\n  dup2\n    /* \"#utility.yul\":89:102   */\n  mload\n    /* \"#utility.yul\":80:102   */\n  swap1\n  pop\n    /* \"#utility.yul\":111:144   */\n  tag_12\n    /* \"#utility.yul\":138:143   */\n  dup2\n    /* \"#utility.yul\":111:144   */\n  tag_13\n  jump\t// in\ntag_12:\n    /* \"#utility.yul\":70:150   */\n  swap3\n  swap2\n  pop\n  pop\n  jump\t// out\n    /* \"#utility.yul\":156:299   */\ntag_14:\n  0x00\n    /* \"#utility.yul\":244:250   */\n  dup2\n    /* \"#utility.yul\":238:251   */\n  mload\n    /* \"#utility.yul\":229:251   */\n  swap1\n  pop\n    /* \"#utility.yul\":260:293   */\n  tag_16\n    /* \"#utility.yul\":287:292   */\n  dup2\n    /* \"#utility.yul\":260:293   */\n  tag_17\n  jump\t// in\ntag_16:\n    /* \"#utility.yul\":219:299   */\n  swap3\n  swap2\n  pop\n  pop\n  jump\t// out\n    /* \"#utility.yul\":305:901   */\ntag_3:\n  0x00\n  dup1\n  0x00\n    /* \"#utility.yul\":458:460   */\n  0x60\n    /* \"#utility.yul\":446:455   */\n  dup5\n    /* \"#utility.yul\":437:444   */\n  dup7\n    /* \"#utility.yul\":433:456   */\n  sub\n    /* \"#utility.yul\":429:461   */\n  slt\n    /* \"#utility.yul\":426:428   */\n  iszero\n  tag_19\n  jumpi\n    /* \"#utility.yul\":474:475   */\n  0x00\n    /* \"#utility.yul\":471:472   */\n  dup1\n    /* \"#utility.yul\":464:476   */\n  revert\n    /* \"#utility.yul\":426:428   */\ntag_19:\n    /* \"#utility.yul\":517:518   */\n  0x00\n    /* \"#utility.yul\":542:606   */\n  tag_20\n    /* \"#utility.yul\":598:605   */\n  dup7\n    /* \"#utility.yul\":589:595   */\n  dup3\n    /* \"#utility.yul\":578:587   */\n  dup8\n    /* \"#utility.yul\":574:596   */\n  add\n    /* \"#utility.yul\":542:606   */\n  tag_10\n  jump\t// in\ntag_20:\n    /* \"#utility.yul\":532:606   */\n  swap4\n  pop\n    /* \"#utility.yul\":488:616   */\n  pop\n    /* \"#utility.yul\":655:657   */\n  0x20\n    /* \"#utility.yul\":681:745   */\n  tag_21\n    /* \"#utility.yul\":737:744   */\n  dup7\n    /* \"#utility.yul\":728:734   */\n  dup3\n    /* \"#utility.yul\":717:726   */\n  dup8\n    /* \"#utility.yul\":713:735   */\n  add\n    /* \"#utility.yul\":681:745   */\n  tag_10\n  jump\t// in\ntag_21:\n    /* \"#utility.yul\":671:745   */\n  swap3\n  pop\n    /* \"#utility.yul\":626:755   */\n  pop\n    /* \"#utility.yul\":794:796   */\n  0x40\n    /* \"#utility.yul\":820:884   */\n  tag_22\n    /* \"#utility.yul\":876:883   */\n  dup7\n    /* \"#utility.yul\":867:873   */\n  dup3\n    /* \"#utility.yul\":856:865   */\n  dup8\n    /* \"#utility.yul\":852:874   */\n  add\n    /* \"#utility.yul\":820:884   */\n  tag_14\n  jump\t// in\ntag_22:\n    /* \"#utility.yul\":810:884   */\n  swap2\n  pop\n    /* \"#utility.yul\":765:894   */\n  pop\n    /* \"#utility.yul\":416:901   */\n  swap3\n  pop\n  swap3\n  pop\n  swap3\n  jump\t// out\n    /* \"#utility.yul\":907:1003   */\ntag_23:\n  0x00\n    /* \"#utility.yul\":973:997   */\n  tag_25\n    /* \"#utility.yul\":991:996   */\n  dup3\n    /* \"#utility.yul\":973:997   */\n  tag_26\n  jump\t// in\ntag_25:\n    /* \"#utility.yul\":962:997   */\n  swap1\n  pop\n    /* \"#utility.yul\":952:1003   */\n  swap2\n  swap1\n  pop\n  jump\t// out\n    /* \"#utility.yul\":1009:1135   */\ntag_26:\n  0x00\n    /* \"#utility.yul\":1086:1128   */\n  0xffffffffffffffffffffffffffffffffffffffff\n    /* \"#utility.yul\":1079:1084   */\n  dup3\n    /* \"#utility.yul\":1075:1129   */\n  and\n    /* \"#utility.yul\":1064:1129   */\n  swap1\n  pop\n    /* \"#utility.yul\":1054:1135   */\n  swap2\n  swap1\n  pop\n  jump\t// out\n    /* \"#utility.yul\":1141:1218   */\ntag_28:\n  0x00\n    /* \"#utility.yul\":1207:1212   */\n  dup2\n    /* \"#utility.yul\":1196:1212   */\n  swap1\n  pop\n    /* \"#utility.yul\":1186:1218   */\n  swap2\n  swap1\n  pop\n  jump\t// out\n    /* \"#utility.yul\":1224:1346   */\ntag_13:\n    /* \"#utility.yul\":1297:1321   */\n  tag_31\n    /* \"#utility.yul\":1315:1320   */\n  dup2\n    /* \"#utility.yul\":1297:1321   */\n  tag_23\n  jump\t// in\ntag_31:\n    /* \"#utility.yul\":1290:1295   */\n  dup2\n    /* \"#utility.yul\":1287:1322   */\n  eq\n    /* \"#utility.yul\":1277:1279   */\n  tag_32\n  jumpi\n    /* \"#utility.yul\":1336:1337   */\n  0x00\n    /* \"#utility.yul\":1333:1334   */\n  dup1\n    /* \"#utility.yul\":1326:1338   */\n  revert\n    /* \"#utility.yul\":1277:1279   */\ntag_32:\n    /* \"#utility.yul\":1267:1346   */\n  pop\n  jump\t// out\n    /* \"#utility.yul\":1352:1474   */\ntag_17:\n    /* \"#utility.yul\":1425:1449   */\n  tag_34\n    /* \"#utility.yul\":1443:1448   */\n  dup2\n    /* \"#utility.yul\":1425:1449   */\n  tag_28\n  jump\t// in\ntag_34:\n    /* \"#utility.yul\":1418:1423   */\n  dup2\n    /* \"#utility.yul\":1415:1450   */\n  eq\n    /* \"#utility.yul\":1405:1407   */\n  tag_35\n  jumpi\n    /* \"#utility.yul\":1464:1465   */\n  0x00\n    /* \"#utility.yul\":1461:1462   */\n  dup1\n    /* \"#utility.yul\":1454:1466   */\n  revert\n    /* \"#utility.yul\":1405:1407   */\ntag_35:\n    /* \"#utility.yul\":1395:1474   */\n  pop\n  jump\t// out\n    /* \"contracts/MultiSigWallet.sol\":229:4075  contract MultiSigWallet is ReentrancyGuard {... */\ntag_8:\n  dataSize(sub_0)\n  dup1\n  dataOffset(sub_0)\n  0x00\n  codecopy\n  0x00\n  return\nstop\n\nsub_0: assembly {\n        /* \"contracts/MultiSigWallet.sol\":229:4075  contract MultiSigWallet is ReentrancyGuard {... */\n      mstore(0x40, 0x80)\n      callvalue\n      dup1\n      iszero\n      tag_1\n      jumpi\n      0x00\n      dup1\n      revert\n    tag_1:\n      pop\n      jumpi(tag_2, lt(calldatasize, 0x04))\n      shr(0xe0, calldataload(0x00))\n      dup1\n      0x8da5cb5b\n      gt\n      tag_14\n      jumpi\n      dup1\n      0x8da5cb5b\n      eq\n      tag_8\n      jumpi\n      dup1\n      0x9a5d6a4a\n      eq\n      tag_9\n      jumpi\n      dup1\n      0xa230c524\n      eq\n      tag_10\n      jumpi\n      dup1\n      0xa4b08872\n      eq\n      tag_11\n      jumpi\n      dup1\n      0xb789bf52\n      eq\n      tag_12\n      jumpi\n      dup1\n      0xc162ba2f\n      eq\n      tag_13\n      jumpi\n      jump(tag_2)\n    tag_14:\n      dup1\n      0x039935ff\n      eq\n      tag_3\n      jumpi\n      dup1\n      0x11aee380\n      eq\n      tag_4\n      jumpi\n      dup1\n      0x3ee79599\n      eq\n      tag_5\n      jumpi\n      dup1\n      0x6f4d469b\n      eq\n      tag_6\n      jumpi\n      dup1\n      0x70a08231\n      eq\n      tag_7\n      jumpi\n    tag_2:\n      0x00\n      dup1\n      revert\n        /* \"contracts/MultiSigWallet.sol\":902:949  mapping(uint256 => Order) public orderIdToOrder */\n    tag_3:\n      tag_15\n      0x04\n      dup1\n      calldatasize\n      sub\n      dup2\n      add\n      swap1\n      tag_16\n      swap2\n      swap1\n      tag_17\n      jump\t// in\n    tag_16:\n      tag_18\n      jump\t// in\n    tag_15:\n      mload(0x40)\n      tag_19\n      swap9\n      swap8\n      swap7\n      swap6\n      swap5\n      swap4\n      swap3\n      swap2\n      swap1\n      tag_20\n      jump\t// in\n    tag_19:\n      mload(0x40)\n      dup1\n      swap2\n      sub\n      swap1\n      return\n        /* \"contracts/MultiSigWallet.sol\":767:793  uint256 public memberCount */\n    tag_4:\n      tag_21\n      tag_22\n      jump\t// in\n    tag_21:\n      mload(0x40)\n      tag_23\n      swap2\n      swap1\n      tag_24\n      jump\t// in\n    tag_23:\n      mload(0x40)\n      dup1\n      swap2\n      sub\n      swap1\n      return\n        /* \"contracts/MultiSigWallet.sol\":2659:3558  function makeDecision(uint256 orderId, uint256 decision)... */\n    tag_5:\n      tag_25\n      0x04\n      dup1\n      calldatasize\n      sub\n      dup2\n      add\n      swap1\n      tag_26\n      swap2\n      swap1\n      tag_27\n      jump\t// in\n    tag_26:\n      tag_28\n      jump\t// in\n    tag_25:\n      stop\n        /* \"contracts/MultiSigWallet.sol\":1921:2063  function addMembers(address[] memory members) public onlyOwner {... */\n    tag_6:\n      tag_29\n      0x04\n      dup1\n      calldatasize\n      sub\n      dup2\n      add\n      swap1\n      tag_30\n      swap2\n      swap1\n      tag_31\n      jump\t// in\n    tag_30:\n      tag_32\n      jump\t// in\n    tag_29:\n      stop\n        /* \"contracts/MultiSigWallet.sol\":1477:1626  function balanceOf(address tokenAddress) public view returns(uint256 balance){... */\n    tag_7:\n      tag_33\n      0x04\n      dup1\n      calldatasize\n      sub\n      dup2\n      add\n      swap1\n      tag_34\n      swap2\n      swap1\n      tag_35\n      jump\t// in\n    tag_34:\n      tag_36\n      jump\t// in\n    tag_33:\n      mload(0x40)\n      tag_37\n      swap2\n      swap1\n      tag_24\n      jump\t// in\n    tag_37:\n      mload(0x40)\n      dup1\n      swap2\n      sub\n      swap1\n      return\n        /* \"contracts/MultiSigWallet.sol\":278:298  address public owner */\n    tag_8:\n      tag_38\n      tag_39\n      jump\t// in\n    tag_38:\n      mload(0x40)\n      tag_40\n      swap2\n      swap1\n      tag_41\n      jump\t// in\n    tag_40:\n      mload(0x40)\n      dup1\n      swap2\n      sub\n      swap1\n      return\n        /* \"contracts/MultiSigWallet.sol\":2069:2599  function createOrder(... */\n    tag_9:\n      tag_42\n      0x04\n      dup1\n      calldatasize\n      sub\n      dup2\n      add\n      swap1\n      tag_43\n      swap2\n      swap1\n      tag_44\n      jump\t// in\n    tag_43:\n      tag_45\n      jump\t// in\n    tag_42:\n      stop\n        /* \"contracts/MultiSigWallet.sol\":854:894  mapping(address => bool) public isMember */\n    tag_10:\n      tag_46\n      0x04\n      dup1\n      calldatasize\n      sub\n      dup2\n      add\n      swap1\n      tag_47\n      swap2\n      swap1\n      tag_35\n      jump\t// in\n    tag_47:\n      tag_48\n      jump\t// in\n    tag_46:\n      mload(0x40)\n      tag_49\n      swap2\n      swap1\n      tag_50\n      jump\t// in\n    tag_49:\n      mload(0x40)\n      dup1\n      swap2\n      sub\n      swap1\n      return\n        /* \"contracts/MultiSigWallet.sol\":799:848  mapping(address => Member) public addressToMember */\n    tag_11:\n      tag_51\n      0x04\n      dup1\n      calldatasize\n      sub\n      dup2\n      add\n      swap1\n      tag_52\n      swap2\n      swap1\n      tag_35\n      jump\t// in\n    tag_52:\n      tag_53\n      jump\t// in\n    tag_51:\n      mload(0x40)\n      tag_54\n      swap3\n      swap2\n      swap1\n      tag_55\n      jump\t// in\n    tag_54:\n      mload(0x40)\n      dup1\n      swap2\n      sub\n      swap1\n      return\n        /* \"contracts/MultiSigWallet.sol\":304:331  uint256 public orderCounter */\n    tag_12:\n      tag_56\n      tag_57\n      jump\t// in\n    tag_56:\n      mload(0x40)\n      tag_58\n      swap2\n      swap1\n      tag_24\n      jump\t// in\n    tag_58:\n      mload(0x40)\n      dup1\n      swap2\n      sub\n      swap1\n      return\n        /* \"contracts/MultiSigWallet.sol\":337:360  uint256 public walletId */\n    tag_13:\n      tag_59\n      tag_60\n      jump\t// in\n    tag_59:\n      mload(0x40)\n      tag_61\n      swap2\n      swap1\n      tag_24\n      jump\t// in\n    tag_61:\n      mload(0x40)\n      dup1\n      swap2\n      sub\n      swap1\n      return\n        /* \"contracts/MultiSigWallet.sol\":902:949  mapping(uint256 => Order) public orderIdToOrder */\n    tag_18:\n      mstore(0x20, 0x08)\n      dup1\n      0x00\n      mstore\n      keccak256(0x00, 0x40)\n      0x00\n      swap2\n      pop\n      swap1\n      pop\n      dup1\n      0x00\n      add\n      sload\n      swap1\n      dup1\n      0x01\n      add\n      0x00\n      swap1\n      sload\n      swap1\n      0x0100\n      exp\n      swap1\n      div\n      0xffffffffffffffffffffffffffffffffffffffff\n      and\n      swap1\n      dup1\n      0x02\n      add\n      0x00\n      swap1\n      sload\n      swap1\n      0x0100\n      exp\n      swap1\n      div\n      0xffffffffffffffffffffffffffffffffffffffff\n      and\n      swap1\n      dup1\n      0x03\n      add\n      sload\n      swap1\n      dup1\n      0x04\n      add\n      sload\n      swap1\n      dup1\n      0x05\n      add\n      sload\n      swap1\n      dup1\n      0x06\n      add\n      sload\n      swap1\n      dup1\n      0x07\n      add\n      sload\n      swap1\n      pop\n      dup9\n      jump\t// out\n        /* \"contracts/MultiSigWallet.sol\":767:793  uint256 public memberCount */\n    tag_22:\n      sload(0x05)\n      dup2\n      jump\t// out\n        /* \"contracts/MultiSigWallet.sol\":2659:3558  function makeDecision(uint256 orderId, uint256 decision)... */\n    tag_28:\n        /* \"@openzeppelin/contracts/security/ReentrancyGuard.sol\":1744:1745  2 */\n      0x02\n        /* \"@openzeppelin/contracts/security/ReentrancyGuard.sol\":2325:2332  _status */\n      sload(0x00)\n        /* \"@openzeppelin/contracts/security/ReentrancyGuard.sol\":2325:2344  _status != _ENTERED */\n      eq\n      iszero\n        /* \"@openzeppelin/contracts/security/ReentrancyGuard.sol\":2317:2380  require(_status != _ENTERED, \"ReentrancyGuard: reentrant call\") */\n      tag_63\n      jumpi\n      mload(0x40)\n      0x08c379a000000000000000000000000000000000000000000000000000000000\n      dup2\n      mstore\n      0x04\n      add\n      tag_64\n      swap1\n      tag_65\n      jump\t// in\n    tag_64:\n      mload(0x40)\n      dup1\n      swap2\n      sub\n      swap1\n      revert\n    tag_63:\n        /* \"@openzeppelin/contracts/security/ReentrancyGuard.sol\":1744:1745  2 */\n      0x02\n        /* \"@openzeppelin/contracts/security/ReentrancyGuard.sol\":2455:2462  _status */\n      0x00\n        /* \"@openzeppelin/contracts/security/ReentrancyGuard.sol\":2455:2473  _status = _ENTERED */\n      dup2\n      swap1\n      sstore\n      pop\n        /* \"contracts/MultiSigWallet.sol\":2787:2788  1 */\n      0x01\n        /* \"contracts/MultiSigWallet.sol\":2775:2783  decision */\n      dup2\n        /* \"contracts/MultiSigWallet.sol\":2775:2788  decision == 1 */\n      eq\n        /* \"contracts/MultiSigWallet.sol\":2774:2808  (decision == 1) || (decision == 2) */\n      dup1\n      tag_67\n      jumpi\n      pop\n        /* \"contracts/MultiSigWallet.sol\":2806:2807  2 */\n      0x02\n        /* \"contracts/MultiSigWallet.sol\":2794:2802  decision */\n      dup2\n        /* \"contracts/MultiSigWallet.sol\":2794:2807  decision == 2 */\n      eq\n        /* \"contracts/MultiSigWallet.sol\":2774:2808  (decision == 1) || (decision == 2) */\n    tag_67:\n        /* \"contracts/MultiSigWallet.sol\":2766:2833  require((decision == 1) || (decision == 2), \"Not a valid decision\") */\n      tag_68\n      jumpi\n      mload(0x40)\n      0x08c379a000000000000000000000000000000000000000000000000000000000\n      dup2\n      mstore\n      0x04\n      add\n      tag_69\n      swap1\n      tag_70\n      jump\t// in\n    tag_69:\n      mload(0x40)\n      dup1\n      swap2\n      sub\n      swap1\n      revert\n    tag_68:\n        /* \"contracts/MultiSigWallet.sol\":2843:2858  Order storage o */\n      0x00\n        /* \"contracts/MultiSigWallet.sol\":2861:2875  orderIdToOrder */\n      0x08\n        /* \"contracts/MultiSigWallet.sol\":2861:2884  orderIdToOrder[orderId] */\n      0x00\n        /* \"contracts/MultiSigWallet.sol\":2876:2883  orderId */\n      dup5\n        /* \"contracts/MultiSigWallet.sol\":2861:2884  orderIdToOrder[orderId] */\n      dup2\n      mstore\n      0x20\n      add\n      swap1\n      dup2\n      mstore\n      0x20\n      add\n      0x00\n      keccak256\n        /* \"contracts/MultiSigWallet.sol\":2843:2884  Order storage o = orderIdToOrder[orderId] */\n      swap1\n      pop\n        /* \"contracts/MultiSigWallet.sol\":2921:2922  0 */\n      0x00\n        /* \"contracts/MultiSigWallet.sol\":2902:2903  o */\n      dup2\n        /* \"contracts/MultiSigWallet.sol\":2902:2917  o.finalDecision */\n      0x07\n      add\n      sload\n        /* \"contracts/MultiSigWallet.sol\":2902:2922  o.finalDecision != 0 */\n      eq\n      iszero\n        /* \"contracts/MultiSigWallet.sol\":2894:2943  require(o.finalDecision != 0, \"Already executed\") */\n      tag_71\n      jumpi\n      mload(0x40)\n      0x08c379a000000000000000000000000000000000000000000000000000000000\n      dup2\n      mstore\n      0x04\n      add\n      tag_72\n      swap1\n      tag_73\n      jump\t// in\n    tag_72:\n      mload(0x40)\n      dup1\n      swap2\n      sub\n      swap1\n      revert\n    tag_71:\n        /* \"contracts/MultiSigWallet.sol\":3015:3016  o */\n      dup1\n        /* \"contracts/MultiSigWallet.sol\":3015:3029  o.creationTime */\n      0x00\n      add\n      sload\n        /* \"contracts/MultiSigWallet.sol\":2974:2989  addressToMember */\n      0x06\n        /* \"contracts/MultiSigWallet.sol\":2974:3001  addressToMember[msg.sender] */\n      0x00\n        /* \"contracts/MultiSigWallet.sol\":2990:3000  msg.sender */\n      caller\n        /* \"contracts/MultiSigWallet.sol\":2974:3001  addressToMember[msg.sender] */\n      0xffffffffffffffffffffffffffffffffffffffff\n      and\n      0xffffffffffffffffffffffffffffffffffffffff\n      and\n      dup2\n      mstore\n      0x20\n      add\n      swap1\n      dup2\n      mstore\n      0x20\n      add\n      0x00\n      keccak256\n        /* \"contracts/MultiSigWallet.sol\":2974:3011  addressToMember[msg.sender].timeAdded */\n      0x00\n      add\n      sload\n        /* \"contracts/MultiSigWallet.sol\":2974:3029  addressToMember[msg.sender].timeAdded <= o.creationTime */\n      gt\n      iszero\n        /* \"contracts/MultiSigWallet.sol\":2953:3099  require(... */\n      tag_74\n      jumpi\n      mload(0x40)\n      0x08c379a000000000000000000000000000000000000000000000000000000000\n      dup2\n      mstore\n      0x04\n      add\n      tag_75\n      swap1\n      tag_76\n      jump\t// in\n    tag_75:\n      mload(0x40)\n      dup1\n      swap2\n      sub\n      swap1\n      revert\n    tag_74:\n        /* \"contracts/MultiSigWallet.sol\":3181:3182  0 */\n      0x00\n        /* \"contracts/MultiSigWallet.sol\":3130:3156  orderIdToAddressToDecision */\n      0x09\n        /* \"contracts/MultiSigWallet.sol\":3130:3165  orderIdToAddressToDecision[orderId] */\n      0x00\n        /* \"contracts/MultiSigWallet.sol\":3157:3164  orderId */\n      dup6\n        /* \"contracts/MultiSigWallet.sol\":3130:3165  orderIdToAddressToDecision[orderId] */\n      dup2\n      mstore\n      0x20\n      add\n      swap1\n      dup2\n      mstore\n      0x20\n      add\n      0x00\n      keccak256\n        /* \"contracts/MultiSigWallet.sol\":3130:3177  orderIdToAddressToDecision[orderId][msg.sender] */\n      0x00\n        /* \"contracts/MultiSigWallet.sol\":3166:3176  msg.sender */\n      caller\n        /* \"contracts/MultiSigWallet.sol\":3130:3177  orderIdToAddressToDecision[orderId][msg.sender] */\n      0xffffffffffffffffffffffffffffffffffffffff\n      and\n      0xffffffffffffffffffffffffffffffffffffffff\n      and\n      dup2\n      mstore\n      0x20\n      add\n      swap1\n      dup2\n      mstore\n      0x20\n      add\n      0x00\n      keccak256\n      sload\n        /* \"contracts/MultiSigWallet.sol\":3130:3182  orderIdToAddressToDecision[orderId][msg.sender] == 0 */\n      eq\n        /* \"contracts/MultiSigWallet.sol\":3109:3231  require(... */\n      tag_77\n      jumpi\n      mload(0x40)\n      0x08c379a000000000000000000000000000000000000000000000000000000000\n      dup2\n      mstore\n      0x04\n      add\n      tag_78\n      swap1\n      tag_79\n      jump\t// in\n    tag_78:\n      mload(0x40)\n      dup1\n      swap2\n      sub\n      swap1\n      revert\n    tag_77:\n        /* \"contracts/MultiSigWallet.sol\":3291:3299  decision */\n      dup2\n        /* \"contracts/MultiSigWallet.sol\":3241:3267  orderIdToAddressToDecision */\n      0x09\n        /* \"contracts/MultiSigWallet.sol\":3241:3276  orderIdToAddressToDecision[orderId] */\n      0x00\n        /* \"contracts/MultiSigWallet.sol\":3268:3275  orderId */\n      dup6\n        /* \"contracts/MultiSigWallet.sol\":3241:3276  orderIdToAddressToDecision[orderId] */\n      dup2\n      mstore\n      0x20\n      add\n      swap1\n      dup2\n      mstore\n      0x20\n      add\n      0x00\n      keccak256\n        /* \"contracts/MultiSigWallet.sol\":3241:3288  orderIdToAddressToDecision[orderId][msg.sender] */\n      0x00\n        /* \"contracts/MultiSigWallet.sol\":3277:3287  msg.sender */\n      caller\n        /* \"contracts/MultiSigWallet.sol\":3241:3288  orderIdToAddressToDecision[orderId][msg.sender] */\n      0xffffffffffffffffffffffffffffffffffffffff\n      and\n      0xffffffffffffffffffffffffffffffffffffffff\n      and\n      dup2\n      mstore\n      0x20\n      add\n      swap1\n      dup2\n      mstore\n      0x20\n      add\n      0x00\n      keccak256\n        /* \"contracts/MultiSigWallet.sol\":3241:3299  orderIdToAddressToDecision[orderId][msg.sender] = decision */\n      dup2\n      swap1\n      sstore\n      pop\n        /* \"contracts/MultiSigWallet.sol\":3325:3326  1 */\n      0x01\n        /* \"contracts/MultiSigWallet.sol\":3313:3321  decision */\n      dup3\n        /* \"contracts/MultiSigWallet.sol\":3313:3326  decision == 1 */\n      eq\n        /* \"contracts/MultiSigWallet.sol\":3309:3387  if (decision == 1) o.numberOfAcceptance++;... */\n      iszero\n      tag_80\n      jumpi\n        /* \"contracts/MultiSigWallet.sol\":3328:3329  o */\n      dup1\n        /* \"contracts/MultiSigWallet.sol\":3328:3348  o.numberOfAcceptance */\n      0x04\n      add\n      0x00\n        /* \"contracts/MultiSigWallet.sol\":3328:3350  o.numberOfAcceptance++ */\n      dup2\n      sload\n      dup1\n      swap3\n      swap2\n      swap1\n      tag_81\n      swap1\n      tag_82\n      jump\t// in\n    tag_81:\n      swap2\n      swap1\n      pop\n      sstore\n      pop\n        /* \"contracts/MultiSigWallet.sol\":3309:3387  if (decision == 1) o.numberOfAcceptance++;... */\n      jump(tag_83)\n    tag_80:\n        /* \"contracts/MultiSigWallet.sol\":3365:3366  o */\n      dup1\n        /* \"contracts/MultiSigWallet.sol\":3365:3385  o.numberOfRejections */\n      0x05\n      add\n      0x00\n        /* \"contracts/MultiSigWallet.sol\":3365:3387  o.numberOfRejections++ */\n      dup2\n      sload\n      dup1\n      swap3\n      swap2\n      swap1\n      tag_84\n      swap1\n      tag_82\n      jump\t// in\n    tag_84:\n      swap2\n      swap1\n      pop\n      sstore\n      pop\n        /* \"contracts/MultiSigWallet.sol\":3309:3387  if (decision == 1) o.numberOfAcceptance++;... */\n    tag_83:\n        /* \"contracts/MultiSigWallet.sol\":3439:3440  o */\n      dup1\n        /* \"contracts/MultiSigWallet.sol\":3439:3460  o.minRequiredDecision */\n      0x06\n      add\n      sload\n        /* \"contracts/MultiSigWallet.sol\":3415:3416  o */\n      dup2\n        /* \"contracts/MultiSigWallet.sol\":3415:3435  o.numberOfAcceptance */\n      0x04\n      add\n      sload\n        /* \"contracts/MultiSigWallet.sol\":3415:3460  o.numberOfAcceptance >= o.minRequiredDecision */\n      lt\n      iszero\n        /* \"contracts/MultiSigWallet.sol\":3414:3524  (o.numberOfAcceptance >= o.minRequiredDecision) ||... */\n      dup1\n      tag_85\n      jumpi\n      pop\n        /* \"contracts/MultiSigWallet.sol\":3502:3503  o */\n      dup1\n        /* \"contracts/MultiSigWallet.sol\":3502:3523  o.minRequiredDecision */\n      0x06\n      add\n      sload\n        /* \"contracts/MultiSigWallet.sol\":3478:3479  o */\n      dup2\n        /* \"contracts/MultiSigWallet.sol\":3478:3498  o.numberOfRejections */\n      0x05\n      add\n      sload\n        /* \"contracts/MultiSigWallet.sol\":3478:3523  o.numberOfRejections >= o.minRequiredDecision */\n      lt\n      iszero\n        /* \"contracts/MultiSigWallet.sol\":3414:3524  (o.numberOfAcceptance >= o.minRequiredDecision) ||... */\n    tag_85:\n        /* \"contracts/MultiSigWallet.sol\":3397:3551  if (... */\n      iszero\n      tag_86\n      jumpi\n        /* \"contracts/MultiSigWallet.sol\":3535:3551  finalizeOrder(o) */\n      tag_87\n        /* \"contracts/MultiSigWallet.sol\":3549:3550  o */\n      dup2\n        /* \"contracts/MultiSigWallet.sol\":3535:3548  finalizeOrder */\n      tag_88\n        /* \"contracts/MultiSigWallet.sol\":3535:3551  finalizeOrder(o) */\n      jump\t// in\n    tag_87:\n        /* \"contracts/MultiSigWallet.sol\":3397:3551  if (... */\n    tag_86:\n        /* \"@openzeppelin/contracts/security/ReentrancyGuard.sol\":2484:2485  _ */\n      pop\n        /* \"@openzeppelin/contracts/security/ReentrancyGuard.sol\":1701:1702  1 */\n      0x01\n        /* \"@openzeppelin/contracts/security/ReentrancyGuard.sol\":2628:2635  _status */\n      0x00\n        /* \"@openzeppelin/contracts/security/ReentrancyGuard.sol\":2628:2650  _status = _NOT_ENTERED */\n      dup2\n      swap1\n      sstore\n      pop\n        /* \"contracts/MultiSigWallet.sol\":2659:3558  function makeDecision(uint256 orderId, uint256 decision)... */\n      pop\n      pop\n      jump\t// out\n        /* \"contracts/MultiSigWallet.sol\":1921:2063  function addMembers(address[] memory members) public onlyOwner {... */\n    tag_32:\n        /* \"contracts/MultiSigWallet.sol\":1319:1324  owner */\n      0x01\n      0x00\n      swap1\n      sload\n      swap1\n      0x0100\n      exp\n      swap1\n      div\n      0xffffffffffffffffffffffffffffffffffffffff\n      and\n        /* \"contracts/MultiSigWallet.sol\":1305:1324  msg.sender == owner */\n      0xffffffffffffffffffffffffffffffffffffffff\n      and\n        /* \"contracts/MultiSigWallet.sol\":1305:1315  msg.sender */\n      caller\n        /* \"contracts/MultiSigWallet.sol\":1305:1324  msg.sender == owner */\n      0xffffffffffffffffffffffffffffffffffffffff\n      and\n      eq\n        /* \"contracts/MultiSigWallet.sol\":1297:1346  require(msg.sender == owner, \"Only owner method\") */\n      tag_90\n      jumpi\n      mload(0x40)\n      0x08c379a000000000000000000000000000000000000000000000000000000000\n      dup2\n      mstore\n      0x04\n      add\n      tag_91\n      swap1\n      tag_92\n      jump\t// in\n    tag_91:\n      mload(0x40)\n      dup1\n      swap2\n      sub\n      swap1\n      revert\n    tag_90:\n        /* \"contracts/MultiSigWallet.sol\":1999:2008  uint256 i */\n      0x00\n        /* \"contracts/MultiSigWallet.sol\":1994:2056  for (uint256 i; i < members.length; i++) addMember(members[i]) */\n    tag_94:\n        /* \"contracts/MultiSigWallet.sol\":2014:2021  members */\n      dup2\n        /* \"contracts/MultiSigWallet.sol\":2014:2028  members.length */\n      mload\n        /* \"contracts/MultiSigWallet.sol\":2010:2011  i */\n      dup2\n        /* \"contracts/MultiSigWallet.sol\":2010:2028  i < members.length */\n      lt\n        /* \"contracts/MultiSigWallet.sol\":1994:2056  for (uint256 i; i < members.length; i++) addMember(members[i]) */\n      iszero\n      tag_95\n      jumpi\n        /* \"contracts/MultiSigWallet.sol\":2035:2056  addMember(members[i]) */\n      tag_97\n        /* \"contracts/MultiSigWallet.sol\":2045:2052  members */\n      dup3\n        /* \"contracts/MultiSigWallet.sol\":2053:2054  i */\n      dup3\n        /* \"contracts/MultiSigWallet.sol\":2045:2055  members[i] */\n      dup2\n      mload\n      dup2\n      lt\n      tag_98\n      jumpi\n      mstore(0x00, 0x4e487b7100000000000000000000000000000000000000000000000000000000)\n      mstore(0x04, 0x32)\n      revert(0x00, 0x24)\n    tag_98:\n      0x20\n      mul\n      0x20\n      add\n      add\n      mload\n        /* \"contracts/MultiSigWallet.sol\":2035:2044  addMember */\n      tag_99\n        /* \"contracts/MultiSigWallet.sol\":2035:2056  addMember(members[i]) */\n      jump\t// in\n    tag_97:\n        /* \"contracts/MultiSigWallet.sol\":2030:2033  i++ */\n      dup1\n      dup1\n      tag_100\n      swap1\n      tag_82\n      jump\t// in\n    tag_100:\n      swap2\n      pop\n      pop\n        /* \"contracts/MultiSigWallet.sol\":1994:2056  for (uint256 i; i < members.length; i++) addMember(members[i]) */\n      jump(tag_94)\n    tag_95:\n      pop\n        /* \"contracts/MultiSigWallet.sol\":1921:2063  function addMembers(address[] memory members) public onlyOwner {... */\n      pop\n      jump\t// out\n        /* \"contracts/MultiSigWallet.sol\":1477:1626  function balanceOf(address tokenAddress) public view returns(uint256 balance){... */\n    tag_36:\n        /* \"contracts/MultiSigWallet.sol\":1538:1553  uint256 balance */\n      0x00\n        /* \"contracts/MultiSigWallet.sol\":1581:1593  tokenAddress */\n      dup2\n        /* \"contracts/MultiSigWallet.sol\":1574:1604  IERC20(tokenAddress).balanceOf */\n      0xffffffffffffffffffffffffffffffffffffffff\n      and\n      0x70a08231\n        /* \"contracts/MultiSigWallet.sol\":1613:1617  this */\n      address\n        /* \"contracts/MultiSigWallet.sol\":1574:1619  IERC20(tokenAddress).balanceOf(address(this)) */\n      mload(0x40)\n      dup3\n      0xffffffff\n      and\n      0xe0\n      shl\n      dup2\n      mstore\n      0x04\n      add\n      tag_102\n      swap2\n      swap1\n      tag_41\n      jump\t// in\n    tag_102:\n      0x20\n      mload(0x40)\n      dup1\n      dup4\n      sub\n      dup2\n      dup7\n      dup1\n      extcodesize\n      iszero\n      dup1\n      iszero\n      tag_103\n      jumpi\n      0x00\n      dup1\n      revert\n    tag_103:\n      pop\n      gas\n      staticcall\n      iszero\n      dup1\n      iszero\n      tag_105\n      jumpi\n      returndatasize\n      0x00\n      dup1\n      returndatacopy\n      revert(0x00, returndatasize)\n    tag_105:\n      pop\n      pop\n      pop\n      pop\n      mload(0x40)\n      returndatasize\n      not(0x1f)\n      0x1f\n      dup3\n      add\n      and\n      dup3\n      add\n      dup1\n      0x40\n      mstore\n      pop\n      dup2\n      add\n      swap1\n      tag_106\n      swap2\n      swap1\n      tag_107\n      jump\t// in\n    tag_106:\n        /* \"contracts/MultiSigWallet.sol\":1564:1619  balance = IERC20(tokenAddress).balanceOf(address(this)) */\n      swap1\n      pop\n        /* \"contracts/MultiSigWallet.sol\":1477:1626  function balanceOf(address tokenAddress) public view returns(uint256 balance){... */\n      swap2\n      swap1\n      pop\n      jump\t// out\n        /* \"contracts/MultiSigWallet.sol\":278:298  address public owner */\n    tag_39:\n      0x01\n      0x00\n      swap1\n      sload\n      swap1\n      0x0100\n      exp\n      swap1\n      div\n      0xffffffffffffffffffffffffffffffffffffffff\n      and\n      dup2\n      jump\t// out\n        /* \"contracts/MultiSigWallet.sol\":2069:2599  function createOrder(... */\n    tag_45:\n        /* \"contracts/MultiSigWallet.sol\":1410:1418  isMember */\n      0x07\n        /* \"contracts/MultiSigWallet.sol\":1410:1430  isMember[msg.sender] */\n      0x00\n        /* \"contracts/MultiSigWallet.sol\":1419:1429  msg.sender */\n      caller\n        /* \"contracts/MultiSigWallet.sol\":1410:1430  isMember[msg.sender] */\n      0xffffffffffffffffffffffffffffffffffffffff\n      and\n      0xffffffffffffffffffffffffffffffffffffffff\n      and\n      dup2\n      mstore\n      0x20\n      add\n      swap1\n      dup2\n      mstore\n      0x20\n      add\n      0x00\n      keccak256\n      0x00\n      swap1\n      sload\n      swap1\n      0x0100\n      exp\n      swap1\n      div\n      0xff\n      and\n        /* \"contracts/MultiSigWallet.sol\":1402:1453  require(isMember[msg.sender], \"Only member method\") */\n      tag_109\n      jumpi\n      mload(0x40)\n      0x08c379a000000000000000000000000000000000000000000000000000000000\n      dup2\n      mstore\n      0x04\n      add\n      tag_110\n      swap1\n      tag_111\n      jump\t// in\n    tag_110:\n      mload(0x40)\n      dup1\n      swap2\n      sub\n      swap1\n      revert\n    tag_109:\n        /* \"contracts/MultiSigWallet.sol\":2239:2568  Order({... */\n      mload(0x40)\n      dup1\n      0x0100\n      add\n      0x40\n      mstore\n      dup1\n        /* \"contracts/MultiSigWallet.sol\":2273:2288  block.timestamp */\n      timestamp\n        /* \"contracts/MultiSigWallet.sol\":2239:2568  Order({... */\n      dup2\n      mstore\n      0x20\n      add\n        /* \"contracts/MultiSigWallet.sol\":2316:2329  _tokenAddress */\n      dup5\n        /* \"contracts/MultiSigWallet.sol\":2239:2568  Order({... */\n      0xffffffffffffffffffffffffffffffffffffffff\n      and\n      dup2\n      mstore\n      0x20\n      add\n        /* \"contracts/MultiSigWallet.sol\":2354:2364  _toAddress */\n      dup4\n        /* \"contracts/MultiSigWallet.sol\":2239:2568  Order({... */\n      0xffffffffffffffffffffffffffffffffffffffff\n      and\n      dup2\n      mstore\n      0x20\n      add\n        /* \"contracts/MultiSigWallet.sol\":2386:2393  _amount */\n      dup3\n        /* \"contracts/MultiSigWallet.sol\":2239:2568  Order({... */\n      dup2\n      mstore\n      0x20\n      add\n        /* \"contracts/MultiSigWallet.sol\":2427:2428  0 */\n      0x00\n        /* \"contracts/MultiSigWallet.sol\":2239:2568  Order({... */\n      dup2\n      mstore\n      0x20\n      add\n        /* \"contracts/MultiSigWallet.sol\":2462:2463  0 */\n      0x00\n        /* \"contracts/MultiSigWallet.sol\":2239:2568  Order({... */\n      dup2\n      mstore\n      0x20\n      add\n        /* \"contracts/MultiSigWallet.sol\":2526:2527  2 */\n      0x02\n        /* \"contracts/MultiSigWallet.sol\":2512:2523  memberCount */\n      sload(0x05)\n        /* \"contracts/MultiSigWallet.sol\":2512:2527  memberCount / 2 */\n      tag_113\n      swap2\n      swap1\n      tag_114\n      jump\t// in\n    tag_113:\n        /* \"contracts/MultiSigWallet.sol\":2498:2509  memberCount */\n      sload(0x05)\n        /* \"contracts/MultiSigWallet.sol\":2498:2527  memberCount - memberCount / 2 */\n      tag_115\n      swap2\n      swap1\n      tag_116\n      jump\t// in\n    tag_115:\n        /* \"contracts/MultiSigWallet.sol\":2239:2568  Order({... */\n      dup2\n      mstore\n      0x20\n      add\n        /* \"contracts/MultiSigWallet.sol\":2556:2557  0 */\n      0x00\n        /* \"contracts/MultiSigWallet.sol\":2239:2568  Order({... */\n      dup2\n      mstore\n      pop\n        /* \"contracts/MultiSigWallet.sol\":2208:2222  orderIdToOrder */\n      0x08\n        /* \"contracts/MultiSigWallet.sol\":2208:2236  orderIdToOrder[orderCounter] */\n      0x00\n        /* \"contracts/MultiSigWallet.sol\":2223:2235  orderCounter */\n      sload(0x02)\n        /* \"contracts/MultiSigWallet.sol\":2208:2236  orderIdToOrder[orderCounter] */\n      dup2\n      mstore\n      0x20\n      add\n      swap1\n      dup2\n      mstore\n      0x20\n      add\n      0x00\n      keccak256\n        /* \"contracts/MultiSigWallet.sol\":2208:2568  orderIdToOrder[orderCounter] = Order({... */\n      0x00\n      dup3\n      add\n      mload\n      dup2\n      0x00\n      add\n      sstore\n      0x20\n      dup3\n      add\n      mload\n      dup2\n      0x01\n      add\n      exp(0x0100, 0x00)\n      dup2\n      sload\n      dup2\n      0xffffffffffffffffffffffffffffffffffffffff\n      mul\n      not\n      and\n      swap1\n      dup4\n      0xffffffffffffffffffffffffffffffffffffffff\n      and\n      mul\n      or\n      swap1\n      sstore\n      pop\n      0x40\n      dup3\n      add\n      mload\n      dup2\n      0x02\n      add\n      exp(0x0100, 0x00)\n      dup2\n      sload\n      dup2\n      0xffffffffffffffffffffffffffffffffffffffff\n      mul\n      not\n      and\n      swap1\n      dup4\n      0xffffffffffffffffffffffffffffffffffffffff\n      and\n      mul\n      or\n      swap1\n      sstore\n      pop\n      0x60\n      dup3\n      add\n      mload\n      dup2\n      0x03\n      add\n      sstore\n      0x80\n      dup3\n      add\n      mload\n      dup2\n      0x04\n      add\n      sstore\n      0xa0\n      dup3\n      add\n      mload\n      dup2\n      0x05\n      add\n      sstore\n      0xc0\n      dup3\n      add\n      mload\n      dup2\n      0x06\n      add\n      sstore\n      0xe0\n      dup3\n      add\n      mload\n      dup2\n      0x07\n      add\n      sstore\n      swap1\n      pop\n      pop\n        /* \"contracts/MultiSigWallet.sol\":2578:2590  orderCounter */\n      0x02\n      0x00\n        /* \"contracts/MultiSigWallet.sol\":2578:2592  orderCounter++ */\n      dup2\n      sload\n      dup1\n      swap3\n      swap2\n      swap1\n      tag_117\n      swap1\n      tag_82\n      jump\t// in\n    tag_117:\n      swap2\n      swap1\n      pop\n      sstore\n      pop\n        /* \"contracts/MultiSigWallet.sol\":2069:2599  function createOrder(... */\n      pop\n      pop\n      pop\n      jump\t// out\n        /* \"contracts/MultiSigWallet.sol\":854:894  mapping(address => bool) public isMember */\n    tag_48:\n      mstore(0x20, 0x07)\n      dup1\n      0x00\n      mstore\n      keccak256(0x00, 0x40)\n      0x00\n      swap2\n      pop\n      sload\n      swap1\n      0x0100\n      exp\n      swap1\n      div\n      0xff\n      and\n      dup2\n      jump\t// out\n        /* \"contracts/MultiSigWallet.sol\":799:848  mapping(address => Member) public addressToMember */\n    tag_53:\n      mstore(0x20, 0x06)\n      dup1\n      0x00\n      mstore\n      keccak256(0x00, 0x40)\n      0x00\n      swap2\n      pop\n      swap1\n      pop\n      dup1\n      0x00\n      add\n      sload\n      swap1\n      dup1\n      0x01\n      add\n      0x00\n      swap1\n      sload\n      swap1\n      0x0100\n      exp\n      swap1\n      div\n      0xffffffffffffffffffffffffffffffffffffffff\n      and\n      swap1\n      pop\n      dup3\n      jump\t// out\n        /* \"contracts/MultiSigWallet.sol\":304:331  uint256 public orderCounter */\n    tag_57:\n      sload(0x02)\n      dup2\n      jump\t// out\n        /* \"contracts/MultiSigWallet.sol\":337:360  uint256 public walletId */\n    tag_60:\n      sload(0x03)\n      dup2\n      jump\t// out\n        /* \"contracts/MultiSigWallet.sol\":3564:3874  function finalizeOrder(Order storage o) internal {... */\n    tag_88:\n        /* \"contracts/MultiSigWallet.sol\":3651:3652  o */\n      dup1\n        /* \"contracts/MultiSigWallet.sol\":3651:3672  o.minRequiredDecision */\n      0x06\n      add\n      sload\n        /* \"contracts/MultiSigWallet.sol\":3627:3628  o */\n      dup2\n        /* \"contracts/MultiSigWallet.sol\":3627:3647  o.numberOfAcceptance */\n      0x04\n      add\n      sload\n        /* \"contracts/MultiSigWallet.sol\":3627:3672  o.numberOfAcceptance >= o.minRequiredDecision */\n      lt\n        /* \"contracts/MultiSigWallet.sol\":3623:3867  if (o.numberOfAcceptance >= o.minRequiredDecision) {... */\n      tag_119\n      jumpi\n        /* \"contracts/MultiSigWallet.sol\":3688:3735  transfer(o.tokenAddress, o.toAddress, o.amount) */\n      tag_120\n        /* \"contracts/MultiSigWallet.sol\":3697:3698  o */\n      dup2\n        /* \"contracts/MultiSigWallet.sol\":3697:3711  o.tokenAddress */\n      0x01\n      add\n      0x00\n      swap1\n      sload\n      swap1\n      0x0100\n      exp\n      swap1\n      div\n      0xffffffffffffffffffffffffffffffffffffffff\n      and\n        /* \"contracts/MultiSigWallet.sol\":3713:3714  o */\n      dup3\n        /* \"contracts/MultiSigWallet.sol\":3713:3724  o.toAddress */\n      0x02\n      add\n      0x00\n      swap1\n      sload\n      swap1\n      0x0100\n      exp\n      swap1\n      div\n      0xffffffffffffffffffffffffffffffffffffffff\n      and\n        /* \"contracts/MultiSigWallet.sol\":3726:3727  o */\n      dup4\n        /* \"contracts/MultiSigWallet.sol\":3726:3734  o.amount */\n      0x03\n      add\n      sload\n        /* \"contracts/MultiSigWallet.sol\":3688:3696  transfer */\n      tag_121\n        /* \"contracts/MultiSigWallet.sol\":3688:3735  transfer(o.tokenAddress, o.toAddress, o.amount) */\n      jump\t// in\n    tag_120:\n        /* \"contracts/MultiSigWallet.sol\":3767:3768  1 */\n      0x01\n        /* \"contracts/MultiSigWallet.sol\":3749:3750  o */\n      dup2\n        /* \"contracts/MultiSigWallet.sol\":3749:3764  o.finalDecision */\n      0x07\n      add\n        /* \"contracts/MultiSigWallet.sol\":3749:3768  o.finalDecision = 1 */\n      dup2\n      swap1\n      sstore\n      pop\n        /* \"contracts/MultiSigWallet.sol\":3623:3867  if (o.numberOfAcceptance >= o.minRequiredDecision) {... */\n      jump(tag_122)\n    tag_119:\n        /* \"contracts/MultiSigWallet.sol\":3813:3814  o */\n      dup1\n        /* \"contracts/MultiSigWallet.sol\":3813:3834  o.minRequiredDecision */\n      0x06\n      add\n      sload\n        /* \"contracts/MultiSigWallet.sol\":3789:3790  o */\n      dup2\n        /* \"contracts/MultiSigWallet.sol\":3789:3809  o.numberOfRejections */\n      0x05\n      add\n      sload\n        /* \"contracts/MultiSigWallet.sol\":3789:3834  o.numberOfRejections >= o.minRequiredDecision */\n      lt\n        /* \"contracts/MultiSigWallet.sol\":3785:3867  if (o.numberOfRejections >= o.minRequiredDecision)... */\n      tag_123\n      jumpi\n        /* \"contracts/MultiSigWallet.sol\":3866:3867  2 */\n      0x02\n        /* \"contracts/MultiSigWallet.sol\":3848:3849  o */\n      dup2\n        /* \"contracts/MultiSigWallet.sol\":3848:3863  o.finalDecision */\n      0x07\n      add\n        /* \"contracts/MultiSigWallet.sol\":3848:3867  o.finalDecision = 2 */\n      dup2\n      swap1\n      sstore\n      pop\n        /* \"contracts/MultiSigWallet.sol\":3785:3867  if (o.numberOfRejections >= o.minRequiredDecision)... */\n    tag_123:\n        /* \"contracts/MultiSigWallet.sol\":3623:3867  if (o.numberOfAcceptance >= o.minRequiredDecision) {... */\n    tag_122:\n        /* \"contracts/MultiSigWallet.sol\":3564:3874  function finalizeOrder(Order storage o) internal {... */\n      pop\n      jump\t// out\n        /* \"contracts/MultiSigWallet.sol\":1632:1915  function addMember(address member) internal {... */\n    tag_99:\n        /* \"contracts/MultiSigWallet.sol\":1695:1703  isMember */\n      0x07\n        /* \"contracts/MultiSigWallet.sol\":1695:1711  isMember[member] */\n      0x00\n        /* \"contracts/MultiSigWallet.sol\":1704:1710  member */\n      dup3\n        /* \"contracts/MultiSigWallet.sol\":1695:1711  isMember[member] */\n      0xffffffffffffffffffffffffffffffffffffffff\n      and\n      0xffffffffffffffffffffffffffffffffffffffff\n      and\n      dup2\n      mstore\n      0x20\n      add\n      swap1\n      dup2\n      mstore\n      0x20\n      add\n      0x00\n      keccak256\n      0x00\n      swap1\n      sload\n      swap1\n      0x0100\n      exp\n      swap1\n      div\n      0xff\n      and\n        /* \"contracts/MultiSigWallet.sol\":1694:1711  !isMember[member] */\n      iszero\n        /* \"contracts/MultiSigWallet.sol\":1686:1732  require(!isMember[member], \"Already a member\") */\n      tag_125\n      jumpi\n      mload(0x40)\n      0x08c379a000000000000000000000000000000000000000000000000000000000\n      dup2\n      mstore\n      0x04\n      add\n      tag_126\n      swap1\n      tag_127\n      jump\t// in\n    tag_126:\n      mload(0x40)\n      dup1\n      swap2\n      sub\n      swap1\n      revert\n    tag_125:\n        /* \"contracts/MultiSigWallet.sol\":1768:1799  Member(block.timestamp, member) */\n      mload(0x40)\n      dup1\n      0x40\n      add\n      0x40\n      mstore\n      dup1\n        /* \"contracts/MultiSigWallet.sol\":1775:1790  block.timestamp */\n      timestamp\n        /* \"contracts/MultiSigWallet.sol\":1768:1799  Member(block.timestamp, member) */\n      dup2\n      mstore\n      0x20\n      add\n        /* \"contracts/MultiSigWallet.sol\":1792:1798  member */\n      dup3\n        /* \"contracts/MultiSigWallet.sol\":1768:1799  Member(block.timestamp, member) */\n      0xffffffffffffffffffffffffffffffffffffffff\n      and\n      dup2\n      mstore\n      pop\n        /* \"contracts/MultiSigWallet.sol\":1742:1757  addressToMember */\n      0x06\n        /* \"contracts/MultiSigWallet.sol\":1742:1765  addressToMember[member] */\n      0x00\n        /* \"contracts/MultiSigWallet.sol\":1758:1764  member */\n      dup4\n        /* \"contracts/MultiSigWallet.sol\":1742:1765  addressToMember[member] */\n      0xffffffffffffffffffffffffffffffffffffffff\n      and\n      0xffffffffffffffffffffffffffffffffffffffff\n      and\n      dup2\n      mstore\n      0x20\n      add\n      swap1\n      dup2\n      mstore\n      0x20\n      add\n      0x00\n      keccak256\n        /* \"contracts/MultiSigWallet.sol\":1742:1799  addressToMember[member] = Member(block.timestamp, member) */\n      0x00\n      dup3\n      add\n      mload\n      dup2\n      0x00\n      add\n      sstore\n      0x20\n      dup3\n      add\n      mload\n      dup2\n      0x01\n      add\n      exp(0x0100, 0x00)\n      dup2\n      sload\n      dup2\n      0xffffffffffffffffffffffffffffffffffffffff\n      mul\n      not\n      and\n      swap1\n      dup4\n      0xffffffffffffffffffffffffffffffffffffffff\n      and\n      mul\n      or\n      swap1\n      sstore\n      pop\n      swap1\n      pop\n      pop\n        /* \"contracts/MultiSigWallet.sol\":1828:1832  true */\n      0x01\n        /* \"contracts/MultiSigWallet.sol\":1809:1817  isMember */\n      0x07\n        /* \"contracts/MultiSigWallet.sol\":1809:1825  isMember[member] */\n      0x00\n        /* \"contracts/MultiSigWallet.sol\":1818:1824  member */\n      dup4\n        /* \"contracts/MultiSigWallet.sol\":1809:1825  isMember[member] */\n      0xffffffffffffffffffffffffffffffffffffffff\n      and\n      0xffffffffffffffffffffffffffffffffffffffff\n      and\n      dup2\n      mstore\n      0x20\n      add\n      swap1\n      dup2\n      mstore\n      0x20\n      add\n      0x00\n      keccak256\n      0x00\n        /* \"contracts/MultiSigWallet.sol\":1809:1832  isMember[member] = true */\n      0x0100\n      exp\n      dup2\n      sload\n      dup2\n      0xff\n      mul\n      not\n      and\n      swap1\n      dup4\n      iszero\n      iszero\n      mul\n      or\n      swap1\n      sstore\n      pop\n        /* \"contracts/MultiSigWallet.sol\":1842:1857  multiSigFactory */\n      0x04\n      0x00\n      swap1\n      sload\n      swap1\n      0x0100\n      exp\n      swap1\n      div\n      0xffffffffffffffffffffffffffffffffffffffff\n      and\n        /* \"contracts/MultiSigWallet.sol\":1842:1867  multiSigFactory.addMember */\n      0xffffffffffffffffffffffffffffffffffffffff\n      and\n      0x74d0a676\n        /* \"contracts/MultiSigWallet.sol\":1868:1876  walletId */\n      sload(0x03)\n        /* \"contracts/MultiSigWallet.sol\":1878:1884  member */\n      dup4\n        /* \"contracts/MultiSigWallet.sol\":1842:1885  multiSigFactory.addMember(walletId, member) */\n      mload(0x40)\n      dup4\n      0xffffffff\n      and\n      0xe0\n      shl\n      dup2\n      mstore\n      0x04\n      add\n      tag_128\n      swap3\n      swap2\n      swap1\n      tag_55\n      jump\t// in\n    tag_128:\n      0x00\n      mload(0x40)\n      dup1\n      dup4\n      sub\n      dup2\n      0x00\n      dup8\n      dup1\n      extcodesize\n      iszero\n      dup1\n      iszero\n      tag_129\n      jumpi\n      0x00\n      dup1\n      revert\n    tag_129:\n      pop\n      gas\n      call\n      iszero\n      dup1\n      iszero\n      tag_131\n      jumpi\n      returndatasize\n      0x00\n      dup1\n      returndatacopy\n      revert(0x00, returndatasize)\n    tag_131:\n      pop\n      pop\n      pop\n      pop\n        /* \"contracts/MultiSigWallet.sol\":1895:1906  memberCount */\n      0x05\n      0x00\n        /* \"contracts/MultiSigWallet.sol\":1895:1908  memberCount++ */\n      dup2\n      sload\n      dup1\n      swap3\n      swap2\n      swap1\n      tag_132\n      swap1\n      tag_82\n      jump\t// in\n    tag_132:\n      swap2\n      swap1\n      pop\n      sstore\n      pop\n        /* \"contracts/MultiSigWallet.sol\":1632:1915  function addMember(address member) internal {... */\n      pop\n      jump\t// out\n        /* \"contracts/MultiSigWallet.sol\":3880:4073  function transfer(... */\n    tag_121:\n        /* \"contracts/MultiSigWallet.sol\":4012:4024  tokenAddress */\n      dup3\n        /* \"contracts/MultiSigWallet.sol\":4005:4034  IERC20(tokenAddress).transfer */\n      0xffffffffffffffffffffffffffffffffffffffff\n      and\n      0xa9059cbb\n        /* \"contracts/MultiSigWallet.sol\":4035:4037  to */\n      dup4\n        /* \"contracts/MultiSigWallet.sol\":4039:4045  amount */\n      dup4\n        /* \"contracts/MultiSigWallet.sol\":4005:4046  IERC20(tokenAddress).transfer(to, amount) */\n      mload(0x40)\n      dup4\n      0xffffffff\n      and\n      0xe0\n      shl\n      dup2\n      mstore\n      0x04\n      add\n      tag_134\n      swap3\n      swap2\n      swap1\n      tag_135\n      jump\t// in\n    tag_134:\n      0x20\n      mload(0x40)\n      dup1\n      dup4\n      sub\n      dup2\n      0x00\n      dup8\n      dup1\n      extcodesize\n      iszero\n      dup1\n      iszero\n      tag_136\n      jumpi\n      0x00\n      dup1\n      revert\n    tag_136:\n      pop\n      gas\n      call\n      iszero\n      dup1\n      iszero\n      tag_138\n      jumpi\n      returndatasize\n      0x00\n      dup1\n      returndatacopy\n      revert(0x00, returndatasize)\n    tag_138:\n      pop\n      pop\n      pop\n      pop\n      mload(0x40)\n      returndatasize\n      not(0x1f)\n      0x1f\n      dup3\n      add\n      and\n      dup3\n      add\n      dup1\n      0x40\n      mstore\n      pop\n      dup2\n      add\n      swap1\n      tag_139\n      swap2\n      swap1\n      tag_140\n      jump\t// in\n    tag_139:\n        /* \"contracts/MultiSigWallet.sol\":3997:4066  require(IERC20(tokenAddress).transfer(to, amount), \"Transfer failed\") */\n      tag_141\n      jumpi\n      mload(0x40)\n      0x08c379a000000000000000000000000000000000000000000000000000000000\n      dup2\n      mstore\n      0x04\n      add\n      tag_142\n      swap1\n      tag_143\n      jump\t// in\n    tag_142:\n      mload(0x40)\n      dup1\n      swap2\n      sub\n      swap1\n      revert\n    tag_141:\n        /* \"contracts/MultiSigWallet.sol\":3880:4073  function transfer(... */\n      pop\n      pop\n      pop\n      jump\t// out\n        /* \"#utility.yul\":24:646   */\n    tag_145:\n      0x00\n        /* \"#utility.yul\":145:225   */\n      tag_147\n        /* \"#utility.yul\":160:224   */\n      tag_148\n        /* \"#utility.yul\":217:223   */\n      dup5\n        /* \"#utility.yul\":160:224   */\n      tag_149\n      jump\t// in\n    tag_148:\n        /* \"#utility.yul\":145:225   */\n      tag_150\n      jump\t// in\n    tag_147:\n        /* \"#utility.yul\":136:225   */\n      swap1\n      pop\n        /* \"#utility.yul\":245:250   */\n      dup1\n        /* \"#utility.yul\":273:279   */\n      dup4\n        /* \"#utility.yul\":266:271   */\n      dup3\n        /* \"#utility.yul\":259:280   */\n      mstore\n        /* \"#utility.yul\":299:303   */\n      0x20\n        /* \"#utility.yul\":292:297   */\n      dup3\n        /* \"#utility.yul\":288:304   */\n      add\n        /* \"#utility.yul\":281:304   */\n      swap1\n      pop\n        /* \"#utility.yul\":324:330   */\n      dup3\n        /* \"#utility.yul\":374:377   */\n      dup6\n        /* \"#utility.yul\":366:370   */\n      0x20\n        /* \"#utility.yul\":358:364   */\n      dup7\n        /* \"#utility.yul\":354:371   */\n      mul\n        /* \"#utility.yul\":349:352   */\n      dup3\n        /* \"#utility.yul\":345:372   */\n      add\n        /* \"#utility.yul\":342:378   */\n      gt\n        /* \"#utility.yul\":339:341   */\n      iszero\n      tag_151\n      jumpi\n        /* \"#utility.yul\":391:392   */\n      0x00\n        /* \"#utility.yul\":388:389   */\n      dup1\n        /* \"#utility.yul\":381:393   */\n      revert\n        /* \"#utility.yul\":339:341   */\n    tag_151:\n        /* \"#utility.yul\":419:420   */\n      0x00\n        /* \"#utility.yul\":404:640   */\n    tag_152:\n        /* \"#utility.yul\":429:435   */\n      dup6\n        /* \"#utility.yul\":426:427   */\n      dup2\n        /* \"#utility.yul\":423:436   */\n      lt\n        /* \"#utility.yul\":404:640   */\n      iszero\n      tag_154\n      jumpi\n        /* \"#utility.yul\":496:499   */\n      dup2\n        /* \"#utility.yul\":524:561   */\n      tag_155\n        /* \"#utility.yul\":557:560   */\n      dup9\n        /* \"#utility.yul\":545:555   */\n      dup3\n        /* \"#utility.yul\":524:561   */\n      tag_156\n      jump\t// in\n    tag_155:\n        /* \"#utility.yul\":519:522   */\n      dup5\n        /* \"#utility.yul\":512:562   */\n      mstore\n        /* \"#utility.yul\":591:595   */\n      0x20\n        /* \"#utility.yul\":586:589   */\n      dup5\n        /* \"#utility.yul\":582:596   */\n      add\n        /* \"#utility.yul\":575:596   */\n      swap4\n      pop\n        /* \"#utility.yul\":625:629   */\n      0x20\n        /* \"#utility.yul\":620:623   */\n      dup4\n        /* \"#utility.yul\":616:630   */\n      add\n        /* \"#utility.yul\":609:630   */\n      swap3\n      pop\n        /* \"#utility.yul\":464:640   */\n      pop\n        /* \"#utility.yul\":451:452   */\n      0x01\n        /* \"#utility.yul\":448:449   */\n      dup2\n        /* \"#utility.yul\":444:453   */\n      add\n        /* \"#utility.yul\":439:453   */\n      swap1\n      pop\n        /* \"#utility.yul\":404:640   */\n      jump(tag_152)\n    tag_154:\n        /* \"#utility.yul\":408:422   */\n      pop\n        /* \"#utility.yul\":126:646   */\n      pop\n      pop\n      swap4\n      swap3\n      pop\n      pop\n      pop\n      jump\t// out\n        /* \"#utility.yul\":652:791   */\n    tag_156:\n      0x00\n        /* \"#utility.yul\":736:742   */\n      dup2\n        /* \"#utility.yul\":723:743   */\n      calldataload\n        /* \"#utility.yul\":714:743   */\n      swap1\n      pop\n        /* \"#utility.yul\":752:785   */\n      tag_158\n        /* \"#utility.yul\":779:784   */\n      dup2\n        /* \"#utility.yul\":752:785   */\n      tag_159\n      jump\t// in\n    tag_158:\n        /* \"#utility.yul\":704:791   */\n      swap3\n      swap2\n      pop\n      pop\n      jump\t// out\n        /* \"#utility.yul\":814:1117   */\n    tag_160:\n      0x00\n        /* \"#utility.yul\":934:937   */\n      dup3\n        /* \"#utility.yul\":927:931   */\n      0x1f\n        /* \"#utility.yul\":919:925   */\n      dup4\n        /* \"#utility.yul\":915:932   */\n      add\n        /* \"#utility.yul\":911:938   */\n      slt\n        /* \"#utility.yul\":901:903   */\n      tag_162\n      jumpi\n        /* \"#utility.yul\":952:953   */\n      0x00\n        /* \"#utility.yul\":949:950   */\n      dup1\n        /* \"#utility.yul\":942:954   */\n      revert\n        /* \"#utility.yul\":901:903   */\n    tag_162:\n        /* \"#utility.yul\":992:998   */\n      dup2\n        /* \"#utility.yul\":979:999   */\n      calldataload\n        /* \"#utility.yul\":1017:1111   */\n      tag_163\n        /* \"#utility.yul\":1107:1110   */\n      dup5\n        /* \"#utility.yul\":1099:1105   */\n      dup3\n        /* \"#utility.yul\":1092:1096   */\n      0x20\n        /* \"#utility.yul\":1084:1090   */\n      dup7\n        /* \"#utility.yul\":1080:1097   */\n      add\n        /* \"#utility.yul\":1017:1111   */\n      tag_145\n      jump\t// in\n    tag_163:\n        /* \"#utility.yul\":1008:1111   */\n      swap2\n      pop\n        /* \"#utility.yul\":891:1117   */\n      pop\n      swap3\n      swap2\n      pop\n      pop\n      jump\t// out\n        /* \"#utility.yul\":1123:1260   */\n    tag_164:\n      0x00\n        /* \"#utility.yul\":1208:1214   */\n      dup2\n        /* \"#utility.yul\":1202:1215   */\n      mload\n        /* \"#utility.yul\":1193:1215   */\n      swap1\n      pop\n        /* \"#utility.yul\":1224:1254   */\n      tag_166\n        /* \"#utility.yul\":1248:1253   */\n      dup2\n        /* \"#utility.yul\":1224:1254   */\n      tag_167\n      jump\t// in\n    tag_166:\n        /* \"#utility.yul\":1183:1260   */\n      swap3\n      swap2\n      pop\n      pop\n      jump\t// out\n        /* \"#utility.yul\":1266:1405   */\n    tag_168:\n      0x00\n        /* \"#utility.yul\":1350:1356   */\n      dup2\n        /* \"#utility.yul\":1337:1357   */\n      calldataload\n        /* \"#utility.yul\":1328:1357   */\n      swap1\n      pop\n        /* \"#utility.yul\":1366:1399   */\n      tag_170\n        /* \"#utility.yul\":1393:1398   */\n      dup2\n        /* \"#utility.yul\":1366:1399   */\n      tag_171\n      jump\t// in\n    tag_170:\n        /* \"#utility.yul\":1318:1405   */\n      swap3\n      swap2\n      pop\n      pop\n      jump\t// out\n        /* \"#utility.yul\":1411:1554   */\n    tag_172:\n      0x00\n        /* \"#utility.yul\":1499:1505   */\n      dup2\n        /* \"#utility.yul\":1493:1506   */\n      mload\n        /* \"#utility.yul\":1484:1506   */\n      swap1\n      pop\n        /* \"#utility.yul\":1515:1548   */\n      tag_174\n        /* \"#utility.yul\":1542:1547   */\n      dup2\n        /* \"#utility.yul\":1515:1548   */\n      tag_171\n      jump\t// in\n    tag_174:\n        /* \"#utility.yul\":1474:1554   */\n      swap3\n      swap2\n      pop\n      pop\n      jump\t// out\n        /* \"#utility.yul\":1560:1822   */\n    tag_35:\n      0x00\n        /* \"#utility.yul\":1668:1670   */\n      0x20\n        /* \"#utility.yul\":1656:1665   */\n      dup3\n        /* \"#utility.yul\":1647:1654   */\n      dup5\n        /* \"#utility.yul\":1643:1666   */\n      sub\n        /* \"#utility.yul\":1639:1671   */\n      slt\n        /* \"#utility.yul\":1636:1638   */\n      iszero\n      tag_176\n      jumpi\n        /* \"#utility.yul\":1684:1685   */\n      0x00\n        /* \"#utility.yul\":1681:1682   */\n      dup1\n        /* \"#utility.yul\":1674:1686   */\n      revert\n        /* \"#utility.yul\":1636:1638   */\n    tag_176:\n        /* \"#utility.yul\":1727:1728   */\n      0x00\n        /* \"#utility.yul\":1752:1805   */\n      tag_177\n        /* \"#utility.yul\":1797:1804   */\n      dup5\n        /* \"#utility.yul\":1788:1794   */\n      dup3\n        /* \"#utility.yul\":1777:1786   */\n      dup6\n        /* \"#utility.yul\":1773:1795   */\n      add\n        /* \"#utility.yul\":1752:1805   */\n      tag_156\n      jump\t// in\n    tag_177:\n        /* \"#utility.yul\":1742:1805   */\n      swap2\n      pop\n        /* \"#utility.yul\":1698:1815   */\n      pop\n        /* \"#utility.yul\":1626:1822   */\n      swap3\n      swap2\n      pop\n      pop\n      jump\t// out\n        /* \"#utility.yul\":1828:2380   */\n    tag_44:\n      0x00\n      dup1\n      0x00\n        /* \"#utility.yul\":1970:1972   */\n      0x60\n        /* \"#utility.yul\":1958:1967   */\n      dup5\n        /* \"#utility.yul\":1949:1956   */\n      dup7\n        /* \"#utility.yul\":1945:1968   */\n      sub\n        /* \"#utility.yul\":1941:1973   */\n      slt\n        /* \"#utility.yul\":1938:1940   */\n      iszero\n      tag_179\n      jumpi\n        /* \"#utility.yul\":1986:1987   */\n      0x00\n        /* \"#utility.yul\":1983:1984   */\n      dup1\n        /* \"#utility.yul\":1976:1988   */\n      revert\n        /* \"#utility.yul\":1938:1940   */\n    tag_179:\n        /* \"#utility.yul\":2029:2030   */\n      0x00\n        /* \"#utility.yul\":2054:2107   */\n      tag_180\n        /* \"#utility.yul\":2099:2106   */\n      dup7\n        /* \"#utility.yul\":2090:2096   */\n      dup3\n        /* \"#utility.yul\":2079:2088   */\n      dup8\n        /* \"#utility.yul\":2075:2097   */\n      add\n        /* \"#utility.yul\":2054:2107   */\n      tag_156\n      jump\t// in\n    tag_180:\n        /* \"#utility.yul\":2044:2107   */\n      swap4\n      pop\n        /* \"#utility.yul\":2000:2117   */\n      pop\n        /* \"#utility.yul\":2156:2158   */\n      0x20\n        /* \"#utility.yul\":2182:2235   */\n      tag_181\n        /* \"#utility.yul\":2227:2234   */\n      dup7\n        /* \"#utility.yul\":2218:2224   */\n      dup3\n        /* \"#utility.yul\":2207:2216   */\n      dup8\n        /* \"#utility.yul\":2203:2225   */\n      add\n        /* \"#utility.yul\":2182:2235   */\n      tag_156\n      jump\t// in\n    tag_181:\n        /* \"#utility.yul\":2172:2235   */\n      swap3\n      pop\n        /* \"#utility.yul\":2127:2245   */\n      pop\n        /* \"#utility.yul\":2284:2286   */\n      0x40\n        /* \"#utility.yul\":2310:2363   */\n      tag_182\n        /* \"#utility.yul\":2355:2362   */\n      dup7\n        /* \"#utility.yul\":2346:2352   */\n      dup3\n        /* \"#utility.yul\":2335:2344   */\n      dup8\n        /* \"#utility.yul\":2331:2353   */\n      add\n        /* \"#utility.yul\":2310:2363   */\n      tag_168\n      jump\t// in\n    tag_182:\n        /* \"#utility.yul\":2300:2363   */\n      swap2\n      pop\n        /* \"#utility.yul\":2255:2373   */\n      pop\n        /* \"#utility.yul\":1928:2380   */\n      swap3\n      pop\n      swap3\n      pop\n      swap3\n      jump\t// out\n        /* \"#utility.yul\":2386:2791   */\n    tag_31:\n      0x00\n        /* \"#utility.yul\":2519:2521   */\n      0x20\n        /* \"#utility.yul\":2507:2516   */\n      dup3\n        /* \"#utility.yul\":2498:2505   */\n      dup5\n        /* \"#utility.yul\":2494:2517   */\n      sub\n        /* \"#utility.yul\":2490:2522   */\n      slt\n        /* \"#utility.yul\":2487:2489   */\n      iszero\n      tag_184\n      jumpi\n        /* \"#utility.yul\":2535:2536   */\n      0x00\n        /* \"#utility.yul\":2532:2533   */\n      dup1\n        /* \"#utility.yul\":2525:2537   */\n      revert\n        /* \"#utility.yul\":2487:2489   */\n    tag_184:\n        /* \"#utility.yul\":2606:2607   */\n      0x00\n        /* \"#utility.yul\":2595:2604   */\n      dup3\n        /* \"#utility.yul\":2591:2608   */\n      add\n        /* \"#utility.yul\":2578:2609   */\n      calldataload\n        /* \"#utility.yul\":2636:2654   */\n      0xffffffffffffffff\n        /* \"#utility.yul\":2628:2634   */\n      dup2\n        /* \"#utility.yul\":2625:2655   */\n      gt\n        /* \"#utility.yul\":2622:2624   */\n      iszero\n      tag_185\n      jumpi\n        /* \"#utility.yul\":2668:2669   */\n      0x00\n        /* \"#utility.yul\":2665:2666   */\n      dup1\n        /* \"#utility.yul\":2658:2670   */\n      revert\n        /* \"#utility.yul\":2622:2624   */\n    tag_185:\n        /* \"#utility.yul\":2696:2774   */\n      tag_186\n        /* \"#utility.yul\":2766:2773   */\n      dup5\n        /* \"#utility.yul\":2757:2763   */\n      dup3\n        /* \"#utility.yul\":2746:2755   */\n      dup6\n        /* \"#utility.yul\":2742:2764   */\n      add\n        /* \"#utility.yul\":2696:2774   */\n      tag_160\n      jump\t// in\n    tag_186:\n        /* \"#utility.yul\":2686:2774   */\n      swap2\n      pop\n        /* \"#utility.yul\":2549:2784   */\n      pop\n        /* \"#utility.yul\":2477:2791   */\n      swap3\n      swap2\n      pop\n      pop\n      jump\t// out\n        /* \"#utility.yul\":2797:3075   */\n    tag_140:\n      0x00\n        /* \"#utility.yul\":2913:2915   */\n      0x20\n        /* \"#utility.yul\":2901:2910   */\n      dup3\n        /* \"#utility.yul\":2892:2899   */\n      dup5\n        /* \"#utility.yul\":2888:2911   */\n      sub\n        /* \"#utility.yul\":2884:2916   */\n      slt\n        /* \"#utility.yul\":2881:2883   */\n      iszero\n      tag_188\n      jumpi\n        /* \"#utility.yul\":2929:2930   */\n      0x00\n        /* \"#utility.yul\":2926:2927   */\n      dup1\n        /* \"#utility.yul\":2919:2931   */\n      revert\n        /* \"#utility.yul\":2881:2883   */\n    tag_188:\n        /* \"#utility.yul\":2972:2973   */\n      0x00\n        /* \"#utility.yul\":2997:3058   */\n      tag_189\n        /* \"#utility.yul\":3050:3057   */\n      dup5\n        /* \"#utility.yul\":3041:3047   */\n      dup3\n        /* \"#utility.yul\":3030:3039   */\n      dup6\n        /* \"#utility.yul\":3026:3048   */\n      add\n        /* \"#utility.yul\":2997:3058   */\n      tag_164\n      jump\t// in\n    tag_189:\n        /* \"#utility.yul\":2987:3058   */\n      swap2\n      pop\n        /* \"#utility.yul\":2943:3068   */\n      pop\n        /* \"#utility.yul\":2871:3075   */\n      swap3\n      swap2\n      pop\n      pop\n      jump\t// out\n        /* \"#utility.yul\":3081:3343   */\n    tag_17:\n      0x00\n        /* \"#utility.yul\":3189:3191   */\n      0x20\n        /* \"#utility.yul\":3177:3186   */\n      dup3\n        /* \"#utility.yul\":3168:3175   */\n      dup5\n        /* \"#utility.yul\":3164:3187   */\n      sub\n        /* \"#utility.yul\":3160:3192   */\n      slt\n        /* \"#utility.yul\":3157:3159   */\n      iszero\n      tag_191\n      jumpi\n        /* \"#utility.yul\":3205:3206   */\n      0x00\n        /* \"#utility.yul\":3202:3203   */\n      dup1\n        /* \"#utility.yul\":3195:3207   */\n      revert\n        /* \"#utility.yul\":3157:3159   */\n    tag_191:\n        /* \"#utility.yul\":3248:3249   */\n      0x00\n        /* \"#utility.yul\":3273:3326   */\n      tag_192\n        /* \"#utility.yul\":3318:3325   */\n      dup5\n        /* \"#utility.yul\":3309:3315   */\n      dup3\n        /* \"#utility.yul\":3298:3307   */\n      dup6\n        /* \"#utility.yul\":3294:3316   */\n      add\n        /* \"#utility.yul\":3273:3326   */\n      tag_168\n      jump\t// in\n    tag_192:\n        /* \"#utility.yul\":3263:3326   */\n      swap2\n      pop\n        /* \"#utility.yul\":3219:3336   */\n      pop\n        /* \"#utility.yul\":3147:3343   */\n      swap3\n      swap2\n      pop\n      pop\n      jump\t// out\n        /* \"#utility.yul\":3349:3633   */\n    tag_107:\n      0x00\n        /* \"#utility.yul\":3468:3470   */\n      0x20\n        /* \"#utility.yul\":3456:3465   */\n      dup3\n        /* \"#utility.yul\":3447:3454   */\n      dup5\n        /* \"#utility.yul\":3443:3466   */\n      sub\n        /* \"#utility.yul\":3439:3471   */\n      slt\n        /* \"#utility.yul\":3436:3438   */\n      iszero\n      tag_194\n      jumpi\n        /* \"#utility.yul\":3484:3485   */\n      0x00\n        /* \"#utility.yul\":3481:3482   */\n      dup1\n        /* \"#utility.yul\":3474:3486   */\n      revert\n        /* \"#utility.yul\":3436:3438   */\n    tag_194:\n        /* \"#utility.yul\":3527:3528   */\n      0x00\n        /* \"#utility.yul\":3552:3616   */\n      tag_195\n        /* \"#utility.yul\":3608:3615   */\n      dup5\n        /* \"#utility.yul\":3599:3605   */\n      dup3\n        /* \"#utility.yul\":3588:3597   */\n      dup6\n        /* \"#utility.yul\":3584:3606   */\n      add\n        /* \"#utility.yul\":3552:3616   */\n      tag_172\n      jump\t// in\n    tag_195:\n        /* \"#utility.yul\":3542:3616   */\n      swap2\n      pop\n        /* \"#utility.yul\":3498:3626   */\n      pop\n        /* \"#utility.yul\":3426:3633   */\n      swap3\n      swap2\n      pop\n      pop\n      jump\t// out\n        /* \"#utility.yul\":3639:4046   */\n    tag_27:\n      0x00\n      dup1\n        /* \"#utility.yul\":3764:3766   */\n      0x40\n        /* \"#utility.yul\":3752:3761   */\n      dup4\n        /* \"#utility.yul\":3743:3750   */\n      dup6\n        /* \"#utility.yul\":3739:3762   */\n      sub\n        /* \"#utility.yul\":3735:3767   */\n      slt\n        /* \"#utility.yul\":3732:3734   */\n      iszero\n      tag_197\n      jumpi\n        /* \"#utility.yul\":3780:3781   */\n      0x00\n        /* \"#utility.yul\":3777:3778   */\n      dup1\n        /* \"#utility.yul\":3770:3782   */\n      revert\n        /* \"#utility.yul\":3732:3734   */\n    tag_197:\n        /* \"#utility.yul\":3823:3824   */\n      0x00\n        /* \"#utility.yul\":3848:3901   */\n      tag_198\n        /* \"#utility.yul\":3893:3900   */\n      dup6\n        /* \"#utility.yul\":3884:3890   */\n      dup3\n        /* \"#utility.yul\":3873:3882   */\n      dup7\n        /* \"#utility.yul\":3869:3891   */\n      add\n        /* \"#utility.yul\":3848:3901   */\n      tag_168\n      jump\t// in\n    tag_198:\n        /* \"#utility.yul\":3838:3901   */\n      swap3\n      pop\n        /* \"#utility.yul\":3794:3911   */\n      pop\n        /* \"#utility.yul\":3950:3952   */\n      0x20\n        /* \"#utility.yul\":3976:4029   */\n      tag_199\n        /* \"#utility.yul\":4021:4028   */\n      dup6\n        /* \"#utility.yul\":4012:4018   */\n      dup3\n        /* \"#utility.yul\":4001:4010   */\n      dup7\n        /* \"#utility.yul\":3997:4019   */\n      add\n        /* \"#utility.yul\":3976:4029   */\n      tag_168\n      jump\t// in\n    tag_199:\n        /* \"#utility.yul\":3966:4029   */\n      swap2\n      pop\n        /* \"#utility.yul\":3921:4039   */\n      pop\n        /* \"#utility.yul\":3722:4046   */\n      swap3\n      pop\n      swap3\n      swap1\n      pop\n      jump\t// out\n        /* \"#utility.yul\":4052:4170   */\n    tag_200:\n        /* \"#utility.yul\":4139:4163   */\n      tag_202\n        /* \"#utility.yul\":4157:4162   */\n      dup2\n        /* \"#utility.yul\":4139:4163   */\n      tag_203\n      jump\t// in\n    tag_202:\n        /* \"#utility.yul\":4134:4137   */\n      dup3\n        /* \"#utility.yul\":4127:4164   */\n      mstore\n        /* \"#utility.yul\":4117:4170   */\n      pop\n      pop\n      jump\t// out\n        /* \"#utility.yul\":4176:4285   */\n    tag_204:\n        /* \"#utility.yul\":4257:4278   */\n      tag_206\n        /* \"#utility.yul\":4272:4277   */\n      dup2\n        /* \"#utility.yul\":4257:4278   */\n      tag_207\n      jump\t// in\n    tag_206:\n        /* \"#utility.yul\":4252:4255   */\n      dup3\n        /* \"#utility.yul\":4245:4279   */\n      mstore\n        /* \"#utility.yul\":4235:4285   */\n      pop\n      pop\n      jump\t// out\n        /* \"#utility.yul\":4291:4607   */\n    tag_208:\n      0x00\n        /* \"#utility.yul\":4454:4521   */\n      tag_210\n        /* \"#utility.yul\":4518:4520   */\n      0x12\n        /* \"#utility.yul\":4513:4516   */\n      dup4\n        /* \"#utility.yul\":4454:4521   */\n      tag_211\n      jump\t// in\n    tag_210:\n        /* \"#utility.yul\":4447:4521   */\n      swap2\n      pop\n        /* \"#utility.yul\":4551:4571   */\n      0x4f6e6c79206d656d626572206d6574686f640000000000000000000000000000\n        /* \"#utility.yul\":4547:4548   */\n      0x00\n        /* \"#utility.yul\":4542:4545   */\n      dup4\n        /* \"#utility.yul\":4538:4549   */\n      add\n        /* \"#utility.yul\":4531:4572   */\n      mstore\n        /* \"#utility.yul\":4598:4600   */\n      0x20\n        /* \"#utility.yul\":4593:4596   */\n      dup3\n        /* \"#utility.yul\":4589:4601   */\n      add\n        /* \"#utility.yul\":4582:4601   */\n      swap1\n      pop\n        /* \"#utility.yul\":4437:4607   */\n      swap2\n      swap1\n      pop\n      jump\t// out\n        /* \"#utility.yul\":4613:4926   */\n    tag_212:\n      0x00\n        /* \"#utility.yul\":4776:4843   */\n      tag_214\n        /* \"#utility.yul\":4840:4842   */\n      0x0f\n        /* \"#utility.yul\":4835:4838   */\n      dup4\n        /* \"#utility.yul\":4776:4843   */\n      tag_211\n      jump\t// in\n    tag_214:\n        /* \"#utility.yul\":4769:4843   */\n      swap2\n      pop\n        /* \"#utility.yul\":4873:4890   */\n      0x5472616e73666572206661696c65640000000000000000000000000000000000\n        /* \"#utility.yul\":4869:4870   */\n      0x00\n        /* \"#utility.yul\":4864:4867   */\n      dup4\n        /* \"#utility.yul\":4860:4871   */\n      add\n        /* \"#utility.yul\":4853:4891   */\n      mstore\n        /* \"#utility.yul\":4917:4919   */\n      0x20\n        /* \"#utility.yul\":4912:4915   */\n      dup3\n        /* \"#utility.yul\":4908:4920   */\n      add\n        /* \"#utility.yul\":4901:4920   */\n      swap1\n      pop\n        /* \"#utility.yul\":4759:4926   */\n      swap2\n      swap1\n      pop\n      jump\t// out\n        /* \"#utility.yul\":4932:5308   */\n    tag_215:\n      0x00\n        /* \"#utility.yul\":5095:5162   */\n      tag_217\n        /* \"#utility.yul\":5159:5161   */\n      0x2c\n        /* \"#utility.yul\":5154:5157   */\n      dup4\n        /* \"#utility.yul\":5095:5162   */\n      tag_211\n      jump\t// in\n    tag_217:\n        /* \"#utility.yul\":5088:5162   */\n      swap2\n      pop\n        /* \"#utility.yul\":5192:5226   */\n      0x55736572207761736e27742061206d656d626572206174207468652074696d65\n        /* \"#utility.yul\":5188:5189   */\n      0x00\n        /* \"#utility.yul\":5183:5186   */\n      dup4\n        /* \"#utility.yul\":5179:5190   */\n      add\n        /* \"#utility.yul\":5172:5227   */\n      mstore\n        /* \"#utility.yul\":5258:5272   */\n      0x206f66206f72646572696e670000000000000000000000000000000000000000\n        /* \"#utility.yul\":5253:5255   */\n      0x20\n        /* \"#utility.yul\":5248:5251   */\n      dup4\n        /* \"#utility.yul\":5244:5256   */\n      add\n        /* \"#utility.yul\":5237:5273   */\n      mstore\n        /* \"#utility.yul\":5299:5301   */\n      0x40\n        /* \"#utility.yul\":5294:5297   */\n      dup3\n        /* \"#utility.yul\":5290:5302   */\n      add\n        /* \"#utility.yul\":5283:5302   */\n      swap1\n      pop\n        /* \"#utility.yul\":5078:5308   */\n      swap2\n      swap1\n      pop\n      jump\t// out\n        /* \"#utility.yul\":5314:5628   */\n    tag_218:\n      0x00\n        /* \"#utility.yul\":5477:5544   */\n      tag_220\n        /* \"#utility.yul\":5541:5543   */\n      0x10\n        /* \"#utility.yul\":5536:5539   */\n      dup4\n        /* \"#utility.yul\":5477:5544   */\n      tag_211\n      jump\t// in\n    tag_220:\n        /* \"#utility.yul\":5470:5544   */\n      swap2\n      pop\n        /* \"#utility.yul\":5574:5592   */\n      0x416c726561647920657865637574656400000000000000000000000000000000\n        /* \"#utility.yul\":5570:5571   */\n      0x00\n        /* \"#utility.yul\":5565:5568   */\n      dup4\n        /* \"#utility.yul\":5561:5572   */\n      add\n        /* \"#utility.yul\":5554:5593   */\n      mstore\n        /* \"#utility.yul\":5619:5621   */\n      0x20\n        /* \"#utility.yul\":5614:5617   */\n      dup3\n        /* \"#utility.yul\":5610:5622   */\n      add\n        /* \"#utility.yul\":5603:5622   */\n      swap1\n      pop\n        /* \"#utility.yul\":5460:5628   */\n      swap2\n      swap1\n      pop\n      jump\t// out\n        /* \"#utility.yul\":5634:5952   */\n    tag_221:\n      0x00\n        /* \"#utility.yul\":5797:5864   */\n      tag_223\n        /* \"#utility.yul\":5861:5863   */\n      0x14\n        /* \"#utility.yul\":5856:5859   */\n      dup4\n        /* \"#utility.yul\":5797:5864   */\n      tag_211\n      jump\t// in\n    tag_223:\n        /* \"#utility.yul\":5790:5864   */\n      swap2\n      pop\n        /* \"#utility.yul\":5894:5916   */\n      0x4e6f7420612076616c6964206465636973696f6e000000000000000000000000\n        /* \"#utility.yul\":5890:5891   */\n      0x00\n        /* \"#utility.yul\":5885:5888   */\n      dup4\n        /* \"#utility.yul\":5881:5892   */\n      add\n        /* \"#utility.yul\":5874:5917   */\n      mstore\n        /* \"#utility.yul\":5943:5945   */\n      0x20\n        /* \"#utility.yul\":5938:5941   */\n      dup3\n        /* \"#utility.yul\":5934:5946   */\n      add\n        /* \"#utility.yul\":5927:5946   */\n      swap1\n      pop\n        /* \"#utility.yul\":5780:5952   */\n      swap2\n      swap1\n      pop\n      jump\t// out\n        /* \"#utility.yul\":5958:6279   */\n    tag_224:\n      0x00\n        /* \"#utility.yul\":6121:6188   */\n      tag_226\n        /* \"#utility.yul\":6185:6187   */\n      0x17\n        /* \"#utility.yul\":6180:6183   */\n      dup4\n        /* \"#utility.yul\":6121:6188   */\n      tag_211\n      jump\t// in\n    tag_226:\n        /* \"#utility.yul\":6114:6188   */\n      swap2\n      pop\n        /* \"#utility.yul\":6218:6243   */\n      0x416c7265616479206d6164652061206465636973696f6e000000000000000000\n        /* \"#utility.yul\":6214:6215   */\n      0x00\n        /* \"#utility.yul\":6209:6212   */\n      dup4\n        /* \"#utility.yul\":6205:6216   */\n      add\n        /* \"#utility.yul\":6198:6244   */\n      mstore\n        /* \"#utility.yul\":6270:6272   */\n      0x20\n        /* \"#utility.yul\":6265:6268   */\n      dup3\n        /* \"#utility.yul\":6261:6273   */\n      add\n        /* \"#utility.yul\":6254:6273   */\n      swap1\n      pop\n        /* \"#utility.yul\":6104:6279   */\n      swap2\n      swap1\n      pop\n      jump\t// out\n        /* \"#utility.yul\":6285:6600   */\n    tag_227:\n      0x00\n        /* \"#utility.yul\":6448:6515   */\n      tag_229\n        /* \"#utility.yul\":6512:6514   */\n      0x11\n        /* \"#utility.yul\":6507:6510   */\n      dup4\n        /* \"#utility.yul\":6448:6515   */\n      tag_211\n      jump\t// in\n    tag_229:\n        /* \"#utility.yul\":6441:6515   */\n      swap2\n      pop\n        /* \"#utility.yul\":6545:6564   */\n      0x4f6e6c79206f776e6572206d6574686f64000000000000000000000000000000\n        /* \"#utility.yul\":6541:6542   */\n      0x00\n        /* \"#utility.yul\":6536:6539   */\n      dup4\n        /* \"#utility.yul\":6532:6543   */\n      add\n        /* \"#utility.yul\":6525:6565   */\n      mstore\n        /* \"#utility.yul\":6591:6593   */\n      0x20\n        /* \"#utility.yul\":6586:6589   */\n      dup3\n        /* \"#utility.yul\":6582:6594   */\n      add\n        /* \"#utility.yul\":6575:6594   */\n      swap1\n      pop\n        /* \"#utility.yul\":6431:6600   */\n      swap2\n      swap1\n      pop\n      jump\t// out\n        /* \"#utility.yul\":6606:6920   */\n    tag_230:\n      0x00\n        /* \"#utility.yul\":6769:6836   */\n      tag_232\n        /* \"#utility.yul\":6833:6835   */\n      0x10\n        /* \"#utility.yul\":6828:6831   */\n      dup4\n        /* \"#utility.yul\":6769:6836   */\n      tag_211\n      jump\t// in\n    tag_232:\n        /* \"#utility.yul\":6762:6836   */\n      swap2\n      pop\n        /* \"#utility.yul\":6866:6884   */\n      0x416c72656164792061206d656d62657200000000000000000000000000000000\n        /* \"#utility.yul\":6862:6863   */\n      0x00\n        /* \"#utility.yul\":6857:6860   */\n      dup4\n        /* \"#utility.yul\":6853:6864   */\n      add\n        /* \"#utility.yul\":6846:6885   */\n      mstore\n        /* \"#utility.yul\":6911:6913   */\n      0x20\n        /* \"#utility.yul\":6906:6909   */\n      dup3\n        /* \"#utility.yul\":6902:6914   */\n      add\n        /* \"#utility.yul\":6895:6914   */\n      swap1\n      pop\n        /* \"#utility.yul\":6752:6920   */\n      swap2\n      swap1\n      pop\n      jump\t// out\n        /* \"#utility.yul\":6926:7255   */\n    tag_233:\n      0x00\n        /* \"#utility.yul\":7089:7156   */\n      tag_235\n        /* \"#utility.yul\":7153:7155   */\n      0x1f\n        /* \"#utility.yul\":7148:7151   */\n      dup4\n        /* \"#utility.yul\":7089:7156   */\n      tag_211\n      jump\t// in\n    tag_235:\n        /* \"#utility.yul\":7082:7156   */\n      swap2\n      pop\n        /* \"#utility.yul\":7186:7219   */\n      0x5265656e7472616e637947756172643a207265656e7472616e742063616c6c00\n        /* \"#utility.yul\":7182:7183   */\n      0x00\n        /* \"#utility.yul\":7177:7180   */\n      dup4\n        /* \"#utility.yul\":7173:7184   */\n      add\n        /* \"#utility.yul\":7166:7220   */\n      mstore\n        /* \"#utility.yul\":7246:7248   */\n      0x20\n        /* \"#utility.yul\":7241:7244   */\n      dup3\n        /* \"#utility.yul\":7237:7249   */\n      add\n        /* \"#utility.yul\":7230:7249   */\n      swap1\n      pop\n        /* \"#utility.yul\":7072:7255   */\n      swap2\n      swap1\n      pop\n      jump\t// out\n        /* \"#utility.yul\":7261:7379   */\n    tag_236:\n        /* \"#utility.yul\":7348:7372   */\n      tag_238\n        /* \"#utility.yul\":7366:7371   */\n      dup2\n        /* \"#utility.yul\":7348:7372   */\n      tag_239\n      jump\t// in\n    tag_238:\n        /* \"#utility.yul\":7343:7346   */\n      dup3\n        /* \"#utility.yul\":7336:7373   */\n      mstore\n        /* \"#utility.yul\":7326:7379   */\n      pop\n      pop\n      jump\t// out\n        /* \"#utility.yul\":7385:7607   */\n    tag_41:\n      0x00\n        /* \"#utility.yul\":7516:7518   */\n      0x20\n        /* \"#utility.yul\":7505:7514   */\n      dup3\n        /* \"#utility.yul\":7501:7519   */\n      add\n        /* \"#utility.yul\":7493:7519   */\n      swap1\n      pop\n        /* \"#utility.yul\":7529:7600   */\n      tag_241\n        /* \"#utility.yul\":7597:7598   */\n      0x00\n        /* \"#utility.yul\":7586:7595   */\n      dup4\n        /* \"#utility.yul\":7582:7599   */\n      add\n        /* \"#utility.yul\":7573:7579   */\n      dup5\n        /* \"#utility.yul\":7529:7600   */\n      tag_200\n      jump\t// in\n    tag_241:\n        /* \"#utility.yul\":7483:7607   */\n      swap3\n      swap2\n      pop\n      pop\n      jump\t// out\n        /* \"#utility.yul\":7613:7945   */\n    tag_135:\n      0x00\n        /* \"#utility.yul\":7772:7774   */\n      0x40\n        /* \"#utility.yul\":7761:7770   */\n      dup3\n        /* \"#utility.yul\":7757:7775   */\n      add\n        /* \"#utility.yul\":7749:7775   */\n      swap1\n      pop\n        /* \"#utility.yul\":7785:7856   */\n      tag_243\n        /* \"#utility.yul\":7853:7854   */\n      0x00\n        /* \"#utility.yul\":7842:7851   */\n      dup4\n        /* \"#utility.yul\":7838:7855   */\n      add\n        /* \"#utility.yul\":7829:7835   */\n      dup6\n        /* \"#utility.yul\":7785:7856   */\n      tag_200\n      jump\t// in\n    tag_243:\n        /* \"#utility.yul\":7866:7938   */\n      tag_244\n        /* \"#utility.yul\":7934:7936   */\n      0x20\n        /* \"#utility.yul\":7923:7932   */\n      dup4\n        /* \"#utility.yul\":7919:7937   */\n      add\n        /* \"#utility.yul\":7910:7916   */\n      dup5\n        /* \"#utility.yul\":7866:7938   */\n      tag_236\n      jump\t// in\n    tag_244:\n        /* \"#utility.yul\":7739:7945   */\n      swap4\n      swap3\n      pop\n      pop\n      pop\n      jump\t// out\n        /* \"#utility.yul\":7951:8161   */\n    tag_50:\n      0x00\n        /* \"#utility.yul\":8076:8078   */\n      0x20\n        /* \"#utility.yul\":8065:8074   */\n      dup3\n        /* \"#utility.yul\":8061:8079   */\n      add\n        /* \"#utility.yul\":8053:8079   */\n      swap1\n      pop\n        /* \"#utility.yul\":8089:8154   */\n      tag_246\n        /* \"#utility.yul\":8151:8152   */\n      0x00\n        /* \"#utility.yul\":8140:8149   */\n      dup4\n        /* \"#utility.yul\":8136:8153   */\n      add\n        /* \"#utility.yul\":8127:8133   */\n      dup5\n        /* \"#utility.yul\":8089:8154   */\n      tag_204\n      jump\t// in\n    tag_246:\n        /* \"#utility.yul\":8043:8161   */\n      swap3\n      swap2\n      pop\n      pop\n      jump\t// out\n        /* \"#utility.yul\":8167:8586   */\n    tag_111:\n      0x00\n        /* \"#utility.yul\":8371:8373   */\n      0x20\n        /* \"#utility.yul\":8360:8369   */\n      dup3\n        /* \"#utility.yul\":8356:8374   */\n      add\n        /* \"#utility.yul\":8348:8374   */\n      swap1\n      pop\n        /* \"#utility.yul\":8420:8429   */\n      dup2\n        /* \"#utility.yul\":8414:8418   */\n      dup2\n        /* \"#utility.yul\":8410:8430   */\n      sub\n        /* \"#utility.yul\":8406:8407   */\n      0x00\n        /* \"#utility.yul\":8395:8404   */\n      dup4\n        /* \"#utility.yul\":8391:8408   */\n      add\n        /* \"#utility.yul\":8384:8431   */\n      mstore\n        /* \"#utility.yul\":8448:8579   */\n      tag_248\n        /* \"#utility.yul\":8574:8578   */\n      dup2\n        /* \"#utility.yul\":8448:8579   */\n      tag_208\n      jump\t// in\n    tag_248:\n        /* \"#utility.yul\":8440:8579   */\n      swap1\n      pop\n        /* \"#utility.yul\":8338:8586   */\n      swap2\n      swap1\n      pop\n      jump\t// out\n        /* \"#utility.yul\":8592:9011   */\n    tag_143:\n      0x00\n        /* \"#utility.yul\":8796:8798   */\n      0x20\n        /* \"#utility.yul\":8785:8794   */\n      dup3\n        /* \"#utility.yul\":8781:8799   */\n      add\n        /* \"#utility.yul\":8773:8799   */\n      swap1\n      pop\n        /* \"#utility.yul\":8845:8854   */\n      dup2\n        /* \"#utility.yul\":8839:8843   */\n      dup2\n        /* \"#utility.yul\":8835:8855   */\n      sub\n        /* \"#utility.yul\":8831:8832   */\n      0x00\n        /* \"#utility.yul\":8820:8829   */\n      dup4\n        /* \"#utility.yul\":8816:8833   */\n      add\n        /* \"#utility.yul\":8809:8856   */\n      mstore\n        /* \"#utility.yul\":8873:9004   */\n      tag_250\n        /* \"#utility.yul\":8999:9003   */\n      dup2\n        /* \"#utility.yul\":8873:9004   */\n      tag_212\n      jump\t// in\n    tag_250:\n        /* \"#utility.yul\":8865:9004   */\n      swap1\n      pop\n        /* \"#utility.yul\":8763:9011   */\n      swap2\n      swap1\n      pop\n      jump\t// out\n        /* \"#utility.yul\":9017:9436   */\n    tag_76:\n      0x00\n        /* \"#utility.yul\":9221:9223   */\n      0x20\n        /* \"#utility.yul\":9210:9219   */\n      dup3\n        /* \"#utility.yul\":9206:9224   */\n      add\n        /* \"#utility.yul\":9198:9224   */\n      swap1\n      pop\n        /* \"#utility.yul\":9270:9279   */\n      dup2\n        /* \"#utility.yul\":9264:9268   */\n      dup2\n        /* \"#utility.yul\":9260:9280   */\n      sub\n        /* \"#utility.yul\":9256:9257   */\n      0x00\n        /* \"#utility.yul\":9245:9254   */\n      dup4\n        /* \"#utility.yul\":9241:9258   */\n      add\n        /* \"#utility.yul\":9234:9281   */\n      mstore\n        /* \"#utility.yul\":9298:9429   */\n      tag_252\n        /* \"#utility.yul\":9424:9428   */\n      dup2\n        /* \"#utility.yul\":9298:9429   */\n      tag_215\n      jump\t// in\n    tag_252:\n        /* \"#utility.yul\":9290:9429   */\n      swap1\n      pop\n        /* \"#utility.yul\":9188:9436   */\n      swap2\n      swap1\n      pop\n      jump\t// out\n        /* \"#utility.yul\":9442:9861   */\n    tag_73:\n      0x00\n        /* \"#utility.yul\":9646:9648   */\n      0x20\n        /* \"#utility.yul\":9635:9644   */\n      dup3\n        /* \"#utility.yul\":9631:9649   */\n      add\n        /* \"#utility.yul\":9623:9649   */\n      swap1\n      pop\n        /* \"#utility.yul\":9695:9704   */\n      dup2\n        /* \"#utility.yul\":9689:9693   */\n      dup2\n        /* \"#utility.yul\":9685:9705   */\n      sub\n        /* \"#utility.yul\":9681:9682   */\n      0x00\n        /* \"#utility.yul\":9670:9679   */\n      dup4\n        /* \"#utility.yul\":9666:9683   */\n      add\n        /* \"#utility.yul\":9659:9706   */\n      mstore\n        /* \"#utility.yul\":9723:9854   */\n      tag_254\n        /* \"#utility.yul\":9849:9853   */\n      dup2\n        /* \"#utility.yul\":9723:9854   */\n      tag_218\n      jump\t// in\n    tag_254:\n        /* \"#utility.yul\":9715:9854   */\n      swap1\n      pop\n        /* \"#utility.yul\":9613:9861   */\n      swap2\n      swap1\n      pop\n      jump\t// out\n        /* \"#utility.yul\":9867:10286   */\n    tag_70:\n      0x00\n        /* \"#utility.yul\":10071:10073   */\n      0x20\n        /* \"#utility.yul\":10060:10069   */\n      dup3\n        /* \"#utility.yul\":10056:10074   */\n      add\n        /* \"#utility.yul\":10048:10074   */\n      swap1\n      pop\n        /* \"#utility.yul\":10120:10129   */\n      dup2\n        /* \"#utility.yul\":10114:10118   */\n      dup2\n        /* \"#utility.yul\":10110:10130   */\n      sub\n        /* \"#utility.yul\":10106:10107   */\n      0x00\n        /* \"#utility.yul\":10095:10104   */\n      dup4\n        /* \"#utility.yul\":10091:10108   */\n      add\n        /* \"#utility.yul\":10084:10131   */\n      mstore\n        /* \"#utility.yul\":10148:10279   */\n      tag_256\n        /* \"#utility.yul\":10274:10278   */\n      dup2\n        /* \"#utility.yul\":10148:10279   */\n      tag_221\n      jump\t// in\n    tag_256:\n        /* \"#utility.yul\":10140:10279   */\n      swap1\n      pop\n        /* \"#utility.yul\":10038:10286   */\n      swap2\n      swap1\n      pop\n      jump\t// out\n        /* \"#utility.yul\":10292:10711   */\n    tag_79:\n      0x00\n        /* \"#utility.yul\":10496:10498   */\n      0x20\n        /* \"#utility.yul\":10485:10494   */\n      dup3\n        /* \"#utility.yul\":10481:10499   */\n      add\n        /* \"#utility.yul\":10473:10499   */\n      swap1\n      pop\n        /* \"#utility.yul\":10545:10554   */\n      dup2\n        /* \"#utility.yul\":10539:10543   */\n      dup2\n        /* \"#utility.yul\":10535:10555   */\n      sub\n        /* \"#utility.yul\":10531:10532   */\n      0x00\n        /* \"#utility.yul\":10520:10529   */\n      dup4\n        /* \"#utility.yul\":10516:10533   */\n      add\n        /* \"#utility.yul\":10509:10556   */\n      mstore\n        /* \"#utility.yul\":10573:10704   */\n      tag_258\n        /* \"#utility.yul\":10699:10703   */\n      dup2\n        /* \"#utility.yul\":10573:10704   */\n      tag_224\n      jump\t// in\n    tag_258:\n        /* \"#utility.yul\":10565:10704   */\n      swap1\n      pop\n        /* \"#utility.yul\":10463:10711   */\n      swap2\n      swap1\n      pop\n      jump\t// out\n        /* \"#utility.yul\":10717:11136   */\n    tag_92:\n      0x00\n        /* \"#utility.yul\":10921:10923   */\n      0x20\n        /* \"#utility.yul\":10910:10919   */\n      dup3\n        /* \"#utility.yul\":10906:10924   */\n      add\n        /* \"#utility.yul\":10898:10924   */\n      swap1\n      pop\n        /* \"#utility.yul\":10970:10979   */\n      dup2\n        /* \"#utility.yul\":10964:10968   */\n      dup2\n        /* \"#utility.yul\":10960:10980   */\n      sub\n        /* \"#utility.yul\":10956:10957   */\n      0x00\n        /* \"#utility.yul\":10945:10954   */\n      dup4\n        /* \"#utility.yul\":10941:10958   */\n      add\n        /* \"#utility.yul\":10934:10981   */\n      mstore\n        /* \"#utility.yul\":10998:11129   */\n      tag_260\n        /* \"#utility.yul\":11124:11128   */\n      dup2\n        /* \"#utility.yul\":10998:11129   */\n      tag_227\n      jump\t// in\n    tag_260:\n        /* \"#utility.yul\":10990:11129   */\n      swap1\n      pop\n        /* \"#utility.yul\":10888:11136   */\n      swap2\n      swap1\n      pop\n      jump\t// out\n        /* \"#utility.yul\":11142:11561   */\n    tag_127:\n      0x00\n        /* \"#utility.yul\":11346:11348   */\n      0x20\n        /* \"#utility.yul\":11335:11344   */\n      dup3\n        /* \"#utility.yul\":11331:11349   */\n      add\n        /* \"#utility.yul\":11323:11349   */\n      swap1\n      pop\n        /* \"#utility.yul\":11395:11404   */\n      dup2\n        /* \"#utility.yul\":11389:11393   */\n      dup2\n        /* \"#utility.yul\":11385:11405   */\n      sub\n        /* \"#utility.yul\":11381:11382   */\n      0x00\n        /* \"#utility.yul\":11370:11379   */\n      dup4\n        /* \"#utility.yul\":11366:11383   */\n      add\n        /* \"#utility.yul\":11359:11406   */\n      mstore\n        /* \"#utility.yul\":11423:11554   */\n      tag_262\n        /* \"#utility.yul\":11549:11553   */\n      dup2\n        /* \"#utility.yul\":11423:11554   */\n      tag_230\n      jump\t// in\n    tag_262:\n        /* \"#utility.yul\":11415:11554   */\n      swap1\n      pop\n        /* \"#utility.yul\":11313:11561   */\n      swap2\n      swap1\n      pop\n      jump\t// out\n        /* \"#utility.yul\":11567:11986   */\n    tag_65:\n      0x00\n        /* \"#utility.yul\":11771:11773   */\n      0x20\n        /* \"#utility.yul\":11760:11769   */\n      dup3\n        /* \"#utility.yul\":11756:11774   */\n      add\n        /* \"#utility.yul\":11748:11774   */\n      swap1\n      pop\n        /* \"#utility.yul\":11820:11829   */\n      dup2\n        /* \"#utility.yul\":11814:11818   */\n      dup2\n        /* \"#utility.yul\":11810:11830   */\n      sub\n        /* \"#utility.yul\":11806:11807   */\n      0x00\n        /* \"#utility.yul\":11795:11804   */\n      dup4\n        /* \"#utility.yul\":11791:11808   */\n      add\n        /* \"#utility.yul\":11784:11831   */\n      mstore\n        /* \"#utility.yul\":11848:11979   */\n      tag_264\n        /* \"#utility.yul\":11974:11978   */\n      dup2\n        /* \"#utility.yul\":11848:11979   */\n      tag_233\n      jump\t// in\n    tag_264:\n        /* \"#utility.yul\":11840:11979   */\n      swap1\n      pop\n        /* \"#utility.yul\":11738:11986   */\n      swap2\n      swap1\n      pop\n      jump\t// out\n        /* \"#utility.yul\":11992:12214   */\n    tag_24:\n      0x00\n        /* \"#utility.yul\":12123:12125   */\n      0x20\n        /* \"#utility.yul\":12112:12121   */\n      dup3\n        /* \"#utility.yul\":12108:12126   */\n      add\n        /* \"#utility.yul\":12100:12126   */\n      swap1\n      pop\n        /* \"#utility.yul\":12136:12207   */\n      tag_266\n        /* \"#utility.yul\":12204:12205   */\n      0x00\n        /* \"#utility.yul\":12193:12202   */\n      dup4\n        /* \"#utility.yul\":12189:12206   */\n      add\n        /* \"#utility.yul\":12180:12186   */\n      dup5\n        /* \"#utility.yul\":12136:12207   */\n      tag_236\n      jump\t// in\n    tag_266:\n        /* \"#utility.yul\":12090:12214   */\n      swap3\n      swap2\n      pop\n      pop\n      jump\t// out\n        /* \"#utility.yul\":12220:12552   */\n    tag_55:\n      0x00\n        /* \"#utility.yul\":12379:12381   */\n      0x40\n        /* \"#utility.yul\":12368:12377   */\n      dup3\n        /* \"#utility.yul\":12364:12382   */\n      add\n        /* \"#utility.yul\":12356:12382   */\n      swap1\n      pop\n        /* \"#utility.yul\":12392:12463   */\n      tag_268\n        /* \"#utility.yul\":12460:12461   */\n      0x00\n        /* \"#utility.yul\":12449:12458   */\n      dup4\n        /* \"#utility.yul\":12445:12462   */\n      add\n        /* \"#utility.yul\":12436:12442   */\n      dup6\n        /* \"#utility.yul\":12392:12463   */\n      tag_236\n      jump\t// in\n    tag_268:\n        /* \"#utility.yul\":12473:12545   */\n      tag_269\n        /* \"#utility.yul\":12541:12543   */\n      0x20\n        /* \"#utility.yul\":12530:12539   */\n      dup4\n        /* \"#utility.yul\":12526:12544   */\n      add\n        /* \"#utility.yul\":12517:12523   */\n      dup5\n        /* \"#utility.yul\":12473:12545   */\n      tag_200\n      jump\t// in\n    tag_269:\n        /* \"#utility.yul\":12346:12552   */\n      swap4\n      swap3\n      pop\n      pop\n      pop\n      jump\t// out\n        /* \"#utility.yul\":12558:13555   */\n    tag_20:\n      0x00\n        /* \"#utility.yul\":12885:12888   */\n      0x0100\n        /* \"#utility.yul\":12874:12883   */\n      dup3\n        /* \"#utility.yul\":12870:12889   */\n      add\n        /* \"#utility.yul\":12862:12889   */\n      swap1\n      pop\n        /* \"#utility.yul\":12899:12970   */\n      tag_271\n        /* \"#utility.yul\":12967:12968   */\n      0x00\n        /* \"#utility.yul\":12956:12965   */\n      dup4\n        /* \"#utility.yul\":12952:12969   */\n      add\n        /* \"#utility.yul\":12943:12949   */\n      dup12\n        /* \"#utility.yul\":12899:12970   */\n      tag_236\n      jump\t// in\n    tag_271:\n        /* \"#utility.yul\":12980:13052   */\n      tag_272\n        /* \"#utility.yul\":13048:13050   */\n      0x20\n        /* \"#utility.yul\":13037:13046   */\n      dup4\n        /* \"#utility.yul\":13033:13051   */\n      add\n        /* \"#utility.yul\":13024:13030   */\n      dup11\n        /* \"#utility.yul\":12980:13052   */\n      tag_200\n      jump\t// in\n    tag_272:\n        /* \"#utility.yul\":13062:13134   */\n      tag_273\n        /* \"#utility.yul\":13130:13132   */\n      0x40\n        /* \"#utility.yul\":13119:13128   */\n      dup4\n        /* \"#utility.yul\":13115:13133   */\n      add\n        /* \"#utility.yul\":13106:13112   */\n      dup10\n        /* \"#utility.yul\":13062:13134   */\n      tag_200\n      jump\t// in\n    tag_273:\n        /* \"#utility.yul\":13144:13216   */\n      tag_274\n        /* \"#utility.yul\":13212:13214   */\n      0x60\n        /* \"#utility.yul\":13201:13210   */\n      dup4\n        /* \"#utility.yul\":13197:13215   */\n      add\n        /* \"#utility.yul\":13188:13194   */\n      dup9\n        /* \"#utility.yul\":13144:13216   */\n      tag_236\n      jump\t// in\n    tag_274:\n        /* \"#utility.yul\":13226:13299   */\n      tag_275\n        /* \"#utility.yul\":13294:13297   */\n      0x80\n        /* \"#utility.yul\":13283:13292   */\n      dup4\n        /* \"#utility.yul\":13279:13298   */\n      add\n        /* \"#utility.yul\":13270:13276   */\n      dup8\n        /* \"#utility.yul\":13226:13299   */\n      tag_236\n      jump\t// in\n    tag_275:\n        /* \"#utility.yul\":13309:13382   */\n      tag_276\n        /* \"#utility.yul\":13377:13380   */\n      0xa0\n        /* \"#utility.yul\":13366:13375   */\n      dup4\n        /* \"#utility.yul\":13362:13381   */\n      add\n        /* \"#utility.yul\":13353:13359   */\n      dup7\n        /* \"#utility.yul\":13309:13382   */\n      tag_236\n      jump\t// in\n    tag_276:\n        /* \"#utility.yul\":13392:13465   */\n      tag_277\n        /* \"#utility.yul\":13460:13463   */\n      0xc0\n        /* \"#utility.yul\":13449:13458   */\n      dup4\n        /* \"#utility.yul\":13445:13464   */\n      add\n        /* \"#utility.yul\":13436:13442   */\n      dup6\n        /* \"#utility.yul\":13392:13465   */\n      tag_236\n      jump\t// in\n    tag_277:\n        /* \"#utility.yul\":13475:13548   */\n      tag_278\n        /* \"#utility.yul\":13543:13546   */\n      0xe0\n        /* \"#utility.yul\":13532:13541   */\n      dup4\n        /* \"#utility.yul\":13528:13547   */\n      add\n        /* \"#utility.yul\":13519:13525   */\n      dup5\n        /* \"#utility.yul\":13475:13548   */\n      tag_236\n      jump\t// in\n    tag_278:\n        /* \"#utility.yul\":12852:13555   */\n      swap10\n      swap9\n      pop\n      pop\n      pop\n      pop\n      pop\n      pop\n      pop\n      pop\n      pop\n      jump\t// out\n        /* \"#utility.yul\":13561:13844   */\n    tag_150:\n      0x00\n        /* \"#utility.yul\":13627:13629   */\n      0x40\n        /* \"#utility.yul\":13621:13630   */\n      mload\n        /* \"#utility.yul\":13611:13630   */\n      swap1\n      pop\n        /* \"#utility.yul\":13669:13673   */\n      dup2\n        /* \"#utility.yul\":13661:13667   */\n      dup2\n        /* \"#utility.yul\":13657:13674   */\n      add\n        /* \"#utility.yul\":13776:13782   */\n      dup2\n        /* \"#utility.yul\":13764:13774   */\n      dup2\n        /* \"#utility.yul\":13761:13783   */\n      lt\n        /* \"#utility.yul\":13740:13758   */\n      0xffffffffffffffff\n        /* \"#utility.yul\":13728:13738   */\n      dup3\n        /* \"#utility.yul\":13725:13759   */\n      gt\n        /* \"#utility.yul\":13722:13784   */\n      or\n        /* \"#utility.yul\":13719:13721   */\n      iszero\n      tag_280\n      jumpi\n        /* \"#utility.yul\":13787:13805   */\n      tag_281\n      tag_282\n      jump\t// in\n    tag_281:\n        /* \"#utility.yul\":13719:13721   */\n    tag_280:\n        /* \"#utility.yul\":13827:13837   */\n      dup1\n        /* \"#utility.yul\":13823:13825   */\n      0x40\n        /* \"#utility.yul\":13816:13838   */\n      mstore\n        /* \"#utility.yul\":13601:13844   */\n      pop\n      swap2\n      swap1\n      pop\n      jump\t// out\n        /* \"#utility.yul\":13850:14161   */\n    tag_149:\n      0x00\n        /* \"#utility.yul\":14017:14035   */\n      0xffffffffffffffff\n        /* \"#utility.yul\":14009:14015   */\n      dup3\n        /* \"#utility.yul\":14006:14036   */\n      gt\n        /* \"#utility.yul\":14003:14005   */\n      iszero\n      tag_284\n      jumpi\n        /* \"#utility.yul\":14039:14057   */\n      tag_285\n      tag_282\n      jump\t// in\n    tag_285:\n        /* \"#utility.yul\":14003:14005   */\n    tag_284:\n        /* \"#utility.yul\":14089:14093   */\n      0x20\n        /* \"#utility.yul\":14081:14087   */\n      dup3\n        /* \"#utility.yul\":14077:14094   */\n      mul\n        /* \"#utility.yul\":14069:14094   */\n      swap1\n      pop\n        /* \"#utility.yul\":14149:14153   */\n      0x20\n        /* \"#utility.yul\":14143:14147   */\n      dup2\n        /* \"#utility.yul\":14139:14154   */\n      add\n        /* \"#utility.yul\":14131:14154   */\n      swap1\n      pop\n        /* \"#utility.yul\":13932:14161   */\n      swap2\n      swap1\n      pop\n      jump\t// out\n        /* \"#utility.yul\":14167:14336   */\n    tag_211:\n      0x00\n        /* \"#utility.yul\":14285:14291   */\n      dup3\n        /* \"#utility.yul\":14280:14283   */\n      dup3\n        /* \"#utility.yul\":14273:14292   */\n      mstore\n        /* \"#utility.yul\":14325:14329   */\n      0x20\n        /* \"#utility.yul\":14320:14323   */\n      dup3\n        /* \"#utility.yul\":14316:14330   */\n      add\n        /* \"#utility.yul\":14301:14330   */\n      swap1\n      pop\n        /* \"#utility.yul\":14263:14336   */\n      swap3\n      swap2\n      pop\n      pop\n      jump\t// out\n        /* \"#utility.yul\":14342:14527   */\n    tag_114:\n      0x00\n        /* \"#utility.yul\":14399:14419   */\n      tag_288\n        /* \"#utility.yul\":14417:14418   */\n      dup3\n        /* \"#utility.yul\":14399:14419   */\n      tag_239\n      jump\t// in\n    tag_288:\n        /* \"#utility.yul\":14394:14419   */\n      swap2\n      pop\n        /* \"#utility.yul\":14433:14453   */\n      tag_289\n        /* \"#utility.yul\":14451:14452   */\n      dup4\n        /* \"#utility.yul\":14433:14453   */\n      tag_239\n      jump\t// in\n    tag_289:\n        /* \"#utility.yul\":14428:14453   */\n      swap3\n      pop\n        /* \"#utility.yul\":14472:14473   */\n      dup3\n        /* \"#utility.yul\":14462:14464   */\n      tag_290\n      jumpi\n        /* \"#utility.yul\":14477:14495   */\n      tag_291\n      tag_292\n      jump\t// in\n    tag_291:\n        /* \"#utility.yul\":14462:14464   */\n    tag_290:\n        /* \"#utility.yul\":14519:14520   */\n      dup3\n        /* \"#utility.yul\":14516:14517   */\n      dup3\n        /* \"#utility.yul\":14512:14521   */\n      div\n        /* \"#utility.yul\":14507:14521   */\n      swap1\n      pop\n        /* \"#utility.yul\":14384:14527   */\n      swap3\n      swap2\n      pop\n      pop\n      jump\t// out\n        /* \"#utility.yul\":14533:14724   */\n    tag_116:\n      0x00\n        /* \"#utility.yul\":14593:14613   */\n      tag_294\n        /* \"#utility.yul\":14611:14612   */\n      dup3\n        /* \"#utility.yul\":14593:14613   */\n      tag_239\n      jump\t// in\n    tag_294:\n        /* \"#utility.yul\":14588:14613   */\n      swap2\n      pop\n        /* \"#utility.yul\":14627:14647   */\n      tag_295\n        /* \"#utility.yul\":14645:14646   */\n      dup4\n        /* \"#utility.yul\":14627:14647   */\n      tag_239\n      jump\t// in\n    tag_295:\n        /* \"#utility.yul\":14622:14647   */\n      swap3\n      pop\n        /* \"#utility.yul\":14666:14667   */\n      dup3\n        /* \"#utility.yul\":14663:14664   */\n      dup3\n        /* \"#utility.yul\":14660:14668   */\n      lt\n        /* \"#utility.yul\":14657:14659   */\n      iszero\n      tag_296\n      jumpi\n        /* \"#utility.yul\":14671:14689   */\n      tag_297\n      tag_298\n      jump\t// in\n    tag_297:\n        /* \"#utility.yul\":14657:14659   */\n    tag_296:\n        /* \"#utility.yul\":14716:14717   */\n      dup3\n        /* \"#utility.yul\":14713:14714   */\n      dup3\n        /* \"#utility.yul\":14709:14718   */\n      sub\n        /* \"#utility.yul\":14701:14718   */\n      swap1\n      pop\n        /* \"#utility.yul\":14578:14724   */\n      swap3\n      swap2\n      pop\n      pop\n      jump\t// out\n        /* \"#utility.yul\":14730:14826   */\n    tag_203:\n      0x00\n        /* \"#utility.yul\":14796:14820   */\n      tag_300\n        /* \"#utility.yul\":14814:14819   */\n      dup3\n        /* \"#utility.yul\":14796:14820   */\n      tag_301\n      jump\t// in\n    tag_300:\n        /* \"#utility.yul\":14785:14820   */\n      swap1\n      pop\n        /* \"#utility.yul\":14775:14826   */\n      swap2\n      swap1\n      pop\n      jump\t// out\n        /* \"#utility.yul\":14832:14922   */\n    tag_207:\n      0x00\n        /* \"#utility.yul\":14909:14914   */\n      dup2\n        /* \"#utility.yul\":14902:14915   */\n      iszero\n        /* \"#utility.yul\":14895:14916   */\n      iszero\n        /* \"#utility.yul\":14884:14916   */\n      swap1\n      pop\n        /* \"#utility.yul\":14874:14922   */\n      swap2\n      swap1\n      pop\n      jump\t// out\n        /* \"#utility.yul\":14928:15054   */\n    tag_301:\n      0x00\n        /* \"#utility.yul\":15005:15047   */\n      0xffffffffffffffffffffffffffffffffffffffff\n        /* \"#utility.yul\":14998:15003   */\n      dup3\n        /* \"#utility.yul\":14994:15048   */\n      and\n        /* \"#utility.yul\":14983:15048   */\n      swap1\n      pop\n        /* \"#utility.yul\":14973:15054   */\n      swap2\n      swap1\n      pop\n      jump\t// out\n        /* \"#utility.yul\":15060:15137   */\n    tag_239:\n      0x00\n        /* \"#utility.yul\":15126:15131   */\n      dup2\n        /* \"#utility.yul\":15115:15131   */\n      swap1\n      pop\n        /* \"#utility.yul\":15105:15137   */\n      swap2\n      swap1\n      pop\n      jump\t// out\n        /* \"#utility.yul\":15143:15376   */\n    tag_82:\n      0x00\n        /* \"#utility.yul\":15205:15229   */\n      tag_306\n        /* \"#utility.yul\":15223:15228   */\n      dup3\n        /* \"#utility.yul\":15205:15229   */\n      tag_239\n      jump\t// in\n    tag_306:\n        /* \"#utility.yul\":15196:15229   */\n      swap2\n      pop\n        /* \"#utility.yul\":15251:15317   */\n      0xffffffffffffffffffffffffffffffffffffffffffffffffffffffffffffffff\n        /* \"#utility.yul\":15244:15249   */\n      dup3\n        /* \"#utility.yul\":15241:15318   */\n      eq\n        /* \"#utility.yul\":15238:15240   */\n      iszero\n      tag_307\n      jumpi\n        /* \"#utility.yul\":15321:15339   */\n      tag_308\n      tag_298\n      jump\t// in\n    tag_308:\n        /* \"#utility.yul\":15238:15240   */\n    tag_307:\n        /* \"#utility.yul\":15368:15369   */\n      0x01\n        /* \"#utility.yul\":15361:15366   */\n      dup3\n        /* \"#utility.yul\":15357:15370   */\n      add\n        /* \"#utility.yul\":15350:15370   */\n      swap1\n      pop\n        /* \"#utility.yul\":15186:15376   */\n      swap2\n      swap1\n      pop\n      jump\t// out\n        /* \"#utility.yul\":15382:15562   */\n    tag_298:\n        /* \"#utility.yul\":15430:15507   */\n      0x4e487b7100000000000000000000000000000000000000000000000000000000\n        /* \"#utility.yul\":15427:15428   */\n      0x00\n        /* \"#utility.yul\":15420:15508   */\n      mstore\n        /* \"#utility.yul\":15527:15531   */\n      0x11\n        /* \"#utility.yul\":15524:15525   */\n      0x04\n        /* \"#utility.yul\":15517:15532   */\n      mstore\n        /* \"#utility.yul\":15551:15555   */\n      0x24\n        /* \"#utility.yul\":15548:15549   */\n      0x00\n        /* \"#utility.yul\":15541:15556   */\n      revert\n        /* \"#utility.yul\":15568:15748   */\n    tag_292:\n        /* \"#utility.yul\":15616:15693   */\n      0x4e487b7100000000000000000000000000000000000000000000000000000000\n        /* \"#utility.yul\":15613:15614   */\n      0x00\n        /* \"#utility.yul\":15606:15694   */\n      mstore\n        /* \"#utility.yul\":15713:15717   */\n      0x12\n        /* \"#utility.yul\":15710:15711   */\n      0x04\n        /* \"#utility.yul\":15703:15718   */\n      mstore\n        /* \"#utility.yul\":15737:15741   */\n      0x24\n        /* \"#utility.yul\":15734:15735   */\n      0x00\n        /* \"#utility.yul\":15727:15742   */\n      revert\n        /* \"#utility.yul\":15754:15934   */\n    tag_282:\n        /* \"#utility.yul\":15802:15879   */\n      0x4e487b7100000000000000000000000000000000000000000000000000000000\n        /* \"#utility.yul\":15799:15800   */\n      0x00\n        /* \"#utility.yul\":15792:15880   */\n      mstore\n        /* \"#utility.yul\":15899:15903   */\n      0x41\n        /* \"#utility.yul\":15896:15897   */\n      0x04\n        /* \"#utility.yul\":15889:15904   */\n      mstore\n        /* \"#utility.yul\":15923:15927   */\n      0x24\n        /* \"#utility.yul\":15920:15921   */\n      0x00\n        /* \"#utility.yul\":15913:15928   */\n      revert\n        /* \"#utility.yul\":15940:16062   */\n    tag_159:\n        /* \"#utility.yul\":16013:16037   */\n      tag_313\n        /* \"#utility.yul\":16031:16036   */\n      dup2\n        /* \"#utility.yul\":16013:16037   */\n      tag_203\n      jump\t// in\n    tag_313:\n        /* \"#utility.yul\":16006:16011   */\n      dup2\n        /* \"#utility.yul\":16003:16038   */\n      eq\n        /* \"#utility.yul\":15993:15995   */\n      tag_314\n      jumpi\n        /* \"#utility.yul\":16052:16053   */\n      0x00\n        /* \"#utility.yul\":16049:16050   */\n      dup1\n        /* \"#utility.yul\":16042:16054   */\n      revert\n        /* \"#utility.yul\":15993:15995   */\n    tag_314:\n        /* \"#utility.yul\":15983:16062   */\n      pop\n      jump\t// out\n        /* \"#utility.yul\":16068:16184   */\n    tag_167:\n        /* \"#utility.yul\":16138:16159   */\n      tag_316\n        /* \"#utility.yul\":16153:16158   */\n      dup2\n        /* \"#utility.yul\":16138:16159   */\n      tag_207\n      jump\t// in\n    tag_316:\n        /* \"#utility.yul\":16131:16136   */\n      dup2\n        /* \"#utility.yul\":16128:16160   */\n      eq\n        /* \"#utility.yul\":16118:16120   */\n      tag_317\n      jumpi\n        /* \"#utility.yul\":16174:16175   */\n      0x00\n        /* \"#utility.yul\":16171:16172   */\n      dup1\n        /* \"#utility.yul\":16164:16176   */\n      revert\n        /* \"#utility.yul\":16118:16120   */\n    tag_317:\n        /* \"#utility.yul\":16108:16184   */\n      pop\n      jump\t// out\n        /* \"#utility.yul\":16190:16312   */\n    tag_171:\n        /* \"#utility.yul\":16263:16287   */\n      tag_319\n        /* \"#utility.yul\":16281:16286   */\n      dup2\n        /* \"#utility.yul\":16263:16287   */\n      tag_239\n      jump\t// in\n    tag_319:\n        /* \"#utility.yul\":16256:16261   */\n      dup2\n        /* \"#utility.yul\":16253:16288   */\n      eq\n        /* \"#utility.yul\":16243:16245   */\n      tag_320\n      jumpi\n        /* \"#utility.yul\":16302:16303   */\n      0x00\n        /* \"#utility.yul\":16299:16300   */\n      dup1\n        /* \"#utility.yul\":16292:16304   */\n      revert\n        /* \"#utility.yul\":16243:16245   */\n    tag_320:\n        /* \"#utility.yul\":16233:16312   */\n      pop\n      jump\t// out\n\n    auxdata: 0xa26469706673582212201f1660a011a4bcfcfdf9fc46cdd6a042f61789a6e481ce33f10fc15350ba1b0464736f6c63430008000033\n}\n",
				"bytecode": {
					"linkReferences": {},
					"object": "60806040523480156200001157600080fd5b5060405162001911380380620019118339818101604052810190620000379190620000ff565b600160008190555082600160006101000a81548173ffffffffffffffffffffffffffffffffffffffff021916908373ffffffffffffffffffffffffffffffffffffffff16021790555081600460006101000a81548173ffffffffffffffffffffffffffffffffffffffff021916908373ffffffffffffffffffffffffffffffffffffffff16021790555080600381905550505050620001c7565b600081519050620000e28162000193565b92915050565b600081519050620000f981620001ad565b92915050565b6000806000606084860312156200011557600080fd5b60006200012586828701620000d1565b93505060206200013886828701620000d1565b92505060406200014b86828701620000e8565b9150509250925092565b6000620001628262000169565b9050919050565b600073ffffffffffffffffffffffffffffffffffffffff82169050919050565b6000819050919050565b6200019e8162000155565b8114620001aa57600080fd5b50565b620001b88162000189565b8114620001c457600080fd5b50565b61173a80620001d76000396000f3fe608060405234801561001057600080fd5b50600436106100a95760003560e01c80638da5cb5b116100715780638da5cb5b1461016b5780639a5d6a4a14610189578063a230c524146101a5578063a4b08872146101d5578063b789bf5214610206578063c162ba2f14610224576100a9565b8063039935ff146100ae57806311aee380146100e55780633ee79599146101035780636f4d469b1461011f57806370a082311461013b575b600080fd5b6100c860048036038101906100c39190610f6c565b610242565b6040516100dc989796959493929190611450565b60405180910390f35b6100ed6102ca565b6040516100fa919061140c565b60405180910390f35b61011d60048036038101906101189190610fbe565b6102d0565b005b61013960048036038101906101349190610f02565b6105ba565b005b61015560048036038101906101509190610e8a565b6106b6565b604051610162919061140c565b60405180910390f35b610173610748565b604051610180919061128d565b60405180910390f35b6101a3600480360381019061019e9190610eb3565b61076e565b005b6101bf60048036038101906101ba9190610e8a565b61097d565b6040516101cc91906112d1565b60405180910390f35b6101ef60048036038101906101ea9190610e8a565b61099d565b6040516101fd929190611427565b60405180910390f35b61020e6109e1565b60405161021b919061140c565b60405180910390f35b61022c6109e7565b604051610239919061140c565b60405180910390f35b60086020528060005260406000206000915090508060000154908060010160009054906101000a900473ffffffffffffffffffffffffffffffffffffffff16908060020160009054906101000a900473ffffffffffffffffffffffffffffffffffffffff16908060030154908060040154908060050154908060060154908060070154905088565b60055481565b60026000541415610316576040517f08c379a000000000000000000000000000000000000000000000000000000000815260040161030d906113ec565b60405180910390fd5b6002600081905550600181148061032d5750600281145b61036c576040517f08c379a00000000000000000000000000000000000000000000000000000000081526004016103639061136c565b60405180910390fd5b60006008600084815260200190815260200160002090506000816007015414156103cb576040517f08c379a00000000000000000000000000000000000000000000000000000000081526004016103c29061134c565b60405180910390fd5b8060000154600660003373ffffffffffffffffffffffffffffffffffffffff1673ffffffffffffffffffffffffffffffffffffffff168152602001908152602001600020600001541115610454576040517f08c379a000000000000000000000000000000000000000000000000000000000815260040161044b9061132c565b60405180910390fd5b60006009600085815260200190815260200160002060003373ffffffffffffffffffffffffffffffffffffffff1673ffffffffffffffffffffffffffffffffffffffff16815260200190815260200160002054146104e7576040517f08c379a00000000000000000000000000000000000000000000000000000000081526004016104de9061138c565b60405180910390fd5b816009600085815260200190815260200160002060003373ffffffffffffffffffffffffffffffffffffffff1673ffffffffffffffffffffffffffffffffffffffff1681526020019081526020016000208190555060018214156105645780600401600081548092919061055a906115e9565b919050555061057f565b806005016000815480929190610579906115e9565b91905055505b8060060154816004015410158061059e57508060060154816005015410155b156105ad576105ac816109ed565b5b5060016000819055505050565b600160009054906101000a900473ffffffffffffffffffffffffffffffffffffffff1673ffffffffffffffffffffffffffffffffffffffff163373ffffffffffffffffffffffffffffffffffffffff161461064a576040517f08c379a0000000000000000000000000000000000000000000000000000000008152600401610641906113ac565b60405180910390fd5b60005b81518110156106b25761069f828281518110610692577f4e487b7100000000000000000000000000000000000000000000000000000000600052603260045260246000fd5b6020026020010151610a80565b80806106aa906115e9565b91505061064d565b5050565b60008173ffffffffffffffffffffffffffffffffffffffff166370a08231306040518263ffffffff1660e01b81526004016106f1919061128d565b60206040518083038186803b15801561070957600080fd5b505afa15801561071d573d6000803e3d6000fd5b505050506040513d601f19601f820116820180604052508101906107419190610f95565b9050919050565b600160009054906101000a900473ffffffffffffffffffffffffffffffffffffffff1681565b600760003373ffffffffffffffffffffffffffffffffffffffff1673ffffffffffffffffffffffffffffffffffffffff16815260200190815260200160002060009054906101000a900460ff166107fa576040517f08c379a00000000000000000000000000000000000000000000000000000000081526004016107f1906112ec565b60405180910390fd5b6040518061010001604052804281526020018473ffffffffffffffffffffffffffffffffffffffff1681526020018373ffffffffffffffffffffffffffffffffffffffff16815260200182815260200160008152602001600081526020016002600554610867919061153c565b600554610874919061156d565b815260200160008152506008600060025481526020019081526020016000206000820151816000015560208201518160010160006101000a81548173ffffffffffffffffffffffffffffffffffffffff021916908373ffffffffffffffffffffffffffffffffffffffff16021790555060408201518160020160006101000a81548173ffffffffffffffffffffffffffffffffffffffff021916908373ffffffffffffffffffffffffffffffffffffffff160217905550606082015181600301556080820151816004015560a0820151816005015560c0820151816006015560e0820151816007015590505060026000815480929190610973906115e9565b9190505550505050565b60076020528060005260406000206000915054906101000a900460ff1681565b60066020528060005260406000206000915090508060000154908060010160009054906101000a900473ffffffffffffffffffffffffffffffffffffffff16905082565b60025481565b60035481565b8060060154816004015410610a6257610a538160010160009054906101000a900473ffffffffffffffffffffffffffffffffffffffff168260020160009054906101000a900473ffffffffffffffffffffffffffffffffffffffff168360030154610ccf565b60018160070181905550610a7d565b8060060154816005015410610a7c57600281600701819055505b5b50565b600760008273ffffffffffffffffffffffffffffffffffffffff1673ffffffffffffffffffffffffffffffffffffffff16815260200190815260200160002060009054906101000a900460ff1615610b0d576040517f08c379a0000000000000000000000000000000000000000000000000000000008152600401610b04906113cc565b60405180910390fd5b60405180604001604052804281526020018273ffffffffffffffffffffffffffffffffffffffff16815250600660008373ffffffffffffffffffffffffffffffffffffffff1673ffffffffffffffffffffffffffffffffffffffff1681526020019081526020016000206000820151816000015560208201518160010160006101000a81548173ffffffffffffffffffffffffffffffffffffffff021916908373ffffffffffffffffffffffffffffffffffffffff1602179055509050506001600760008373ffffffffffffffffffffffffffffffffffffffff1673ffffffffffffffffffffffffffffffffffffffff16815260200190815260200160002060006101000a81548160ff021916908315150217905550600460009054906101000a900473ffffffffffffffffffffffffffffffffffffffff1673ffffffffffffffffffffffffffffffffffffffff166374d0a676600354836040518363ffffffff1660e01b8152600401610c82929190611427565b600060405180830381600087803b158015610c9c57600080fd5b505af1158015610cb0573d6000803e3d6000fd5b5050505060056000815480929190610cc7906115e9565b919050555050565b8273ffffffffffffffffffffffffffffffffffffffff1663a9059cbb83836040518363ffffffff1660e01b8152600401610d0a9291906112a8565b602060405180830381600087803b158015610d2457600080fd5b505af1158015610d38573d6000803e3d6000fd5b505050506040513d601f19601f82011682018060405250810190610d5c9190610f43565b610d9b576040517f08c379a0000000000000000000000000000000000000000000000000000000008152600401610d929061130c565b60405180910390fd5b505050565b6000610db3610dae846114ff565b6114ce565b90508083825260208201905082856020860282011115610dd257600080fd5b60005b85811015610e025781610de88882610e0c565b845260208401935060208301925050600181019050610dd5565b5050509392505050565b600081359050610e1b816116bf565b92915050565b600082601f830112610e3257600080fd5b8135610e42848260208601610da0565b91505092915050565b600081519050610e5a816116d6565b92915050565b600081359050610e6f816116ed565b92915050565b600081519050610e84816116ed565b92915050565b600060208284031215610e9c57600080fd5b6000610eaa84828501610e0c565b91505092915050565b600080600060608486031215610ec857600080fd5b6000610ed686828701610e0c565b9350506020610ee786828701610e0c565b9250506040610ef886828701610e60565b9150509250925092565b600060208284031215610f1457600080fd5b600082013567ffffffffffffffff811115610f2e57600080fd5b610f3a84828501610e21565b91505092915050565b600060208284031215610f5557600080fd5b6000610f6384828501610e4b565b91505092915050565b600060208284031215610f7e57600080fd5b6000610f8c84828501610e60565b91505092915050565b600060208284031215610fa757600080fd5b6000610fb584828501610e75565b91505092915050565b60008060408385031215610fd157600080fd5b6000610fdf85828601610e60565b9250506020610ff085828601610e60565b9150509250929050565b611003816115a1565b82525050565b611012816115b3565b82525050565b600061102560128361152b565b91507f4f6e6c79206d656d626572206d6574686f6400000000000000000000000000006000830152602082019050919050565b6000611065600f8361152b565b91507f5472616e73666572206661696c656400000000000000000000000000000000006000830152602082019050919050565b60006110a5602c8361152b565b91507f55736572207761736e27742061206d656d626572206174207468652074696d6560008301527f206f66206f72646572696e6700000000000000000000000000000000000000006020830152604082019050919050565b600061110b60108361152b565b91507f416c7265616479206578656375746564000000000000000000000000000000006000830152602082019050919050565b600061114b60148361152b565b91507f4e6f7420612076616c6964206465636973696f6e0000000000000000000000006000830152602082019050919050565b600061118b60178361152b565b91507f416c7265616479206d6164652061206465636973696f6e0000000000000000006000830152602082019050919050565b60006111cb60118361152b565b91507f4f6e6c79206f776e6572206d6574686f640000000000000000000000000000006000830152602082019050919050565b600061120b60108361152b565b91507f416c72656164792061206d656d626572000000000000000000000000000000006000830152602082019050919050565b600061124b601f8361152b565b91507f5265656e7472616e637947756172643a207265656e7472616e742063616c6c006000830152602082019050919050565b611287816115df565b82525050565b60006020820190506112a26000830184610ffa565b92915050565b60006040820190506112bd6000830185610ffa565b6112ca602083018461127e565b9392505050565b60006020820190506112e66000830184611009565b92915050565b6000602082019050818103600083015261130581611018565b9050919050565b6000602082019050818103600083015261132581611058565b9050919050565b6000602082019050818103600083015261134581611098565b9050919050565b60006020820190508181036000830152611365816110fe565b9050919050565b600060208201905081810360008301526113858161113e565b9050919050565b600060208201905081810360008301526113a58161117e565b9050919050565b600060208201905081810360008301526113c5816111be565b9050919050565b600060208201905081810360008301526113e5816111fe565b9050919050565b600060208201905081810360008301526114058161123e565b9050919050565b6000602082019050611421600083018461127e565b92915050565b600060408201905061143c600083018561127e565b6114496020830184610ffa565b9392505050565b600061010082019050611466600083018b61127e565b611473602083018a610ffa565b6114806040830189610ffa565b61148d606083018861127e565b61149a608083018761127e565b6114a760a083018661127e565b6114b460c083018561127e565b6114c160e083018461127e565b9998505050505050505050565b6000604051905081810181811067ffffffffffffffff821117156114f5576114f4611690565b5b8060405250919050565b600067ffffffffffffffff82111561151a57611519611690565b5b602082029050602081019050919050565b600082825260208201905092915050565b6000611547826115df565b9150611552836115df565b92508261156257611561611661565b5b828204905092915050565b6000611578826115df565b9150611583836115df565b92508282101561159657611595611632565b5b828203905092915050565b60006115ac826115bf565b9050919050565b60008115159050919050565b600073ffffffffffffffffffffffffffffffffffffffff82169050919050565b6000819050919050565b60006115f4826115df565b91507fffffffffffffffffffffffffffffffffffffffffffffffffffffffffffffffff82141561162757611626611632565b5b600182019050919050565b7f4e487b7100000000000000000000000000000000000000000000000000000000600052601160045260246000fd5b7f4e487b7100000000000000000000000000000000000000000000000000000000600052601260045260246000fd5b7f4e487b7100000000000000000000000000000000000000000000000000000000600052604160045260246000fd5b6116c8816115a1565b81146116d357600080fd5b50565b6116df816115b3565b81146116ea57600080fd5b50565b6116f6816115df565b811461170157600080fd5b5056fea26469706673582212201f1660a011a4bcfcfdf9fc46cdd6a042f61789a6e481ce33f10fc15350ba1b0464736f6c63430008000033",
					"opcodes": "PUSH1 0x80 PUSH1 0x40 MSTORE CALLVALUE DUP1 ISZERO PUSH3 0x11 JUMPI PUSH1 0x0 DUP1 REVERT JUMPDEST POP PUSH1 0x40 MLOAD PUSH3 0x1911 CODESIZE SUB DUP1 PUSH3 0x1911 DUP4 CODECOPY DUP2 DUP2 ADD PUSH1 0x40 MSTORE DUP2 ADD SWAP1 PUSH3 0x37 SWAP2 SWAP1 PUSH3 0xFF JUMP JUMPDEST PUSH1 0x1 PUSH1 0x0 DUP2 SWAP1 SSTORE POP DUP3 PUSH1 0x1 PUSH1 0x0 PUSH2 0x100 EXP DUP2 SLOAD DUP2 PUSH20 0xFFFFFFFFFFFFFFFFFFFFFFFFFFFFFFFFFFFFFFFF MUL NOT AND SWAP1 DUP4 PUSH20 0xFFFFFFFFFFFFFFFFFFFFFFFFFFFFFFFFFFFFFFFF AND MUL OR SWAP1 SSTORE POP DUP2 PUSH1 0x4 PUSH1 0x0 PUSH2 0x100 EXP DUP2 SLOAD DUP2 PUSH20 0xFFFFFFFFFFFFFFFFFFFFFFFFFFFFFFFFFFFFFFFF MUL NOT AND SWAP1 DUP4 PUSH20 0xFFFFFFFFFFFFFFFFFFFFFFFFFFFFFFFFFFFFFFFF AND MUL OR SWAP1 SSTORE POP DUP1 PUSH1 0x3 DUP2 SWAP1 SSTORE POP POP POP POP PUSH3 0x1C7 JUMP JUMPDEST PUSH1 0x0 DUP2 MLOAD SWAP1 POP PUSH3 0xE2 DUP2 PUSH3 0x193 JUMP JUMPDEST SWAP3 SWAP2 POP POP JUMP JUMPDEST PUSH1 0x0 DUP2 MLOAD SWAP1 POP PUSH3 0xF9 DUP2 PUSH3 0x1AD JUMP JUMPDEST SWAP3 SWAP2 POP POP JUMP JUMPDEST PUSH1 0x0 DUP1 PUSH1 0x0 PUSH1 0x60 DUP5 DUP7 SUB SLT ISZERO PUSH3 0x115 JUMPI PUSH1 0x0 DUP1 REVERT JUMPDEST PUSH1 0x0 PUSH3 0x125 DUP7 DUP3 DUP8 ADD PUSH3 0xD1 JUMP JUMPDEST SWAP4 POP POP PUSH1 0x20 PUSH3 0x138 DUP7 DUP3 DUP8 ADD PUSH3 0xD1 JUMP JUMPDEST SWAP3 POP POP PUSH1 0x40 PUSH3 0x14B DUP7 DUP3 DUP8 ADD PUSH3 0xE8 JUMP JUMPDEST SWAP2 POP POP SWAP3 POP SWAP3 POP SWAP3 JUMP JUMPDEST PUSH1 0x0 PUSH3 0x162 DUP3 PUSH3 0x169 JUMP JUMPDEST SWAP1 POP SWAP2 SWAP1 POP JUMP JUMPDEST PUSH1 0x0 PUSH20 0xFFFFFFFFFFFFFFFFFFFFFFFFFFFFFFFFFFFFFFFF DUP3 AND SWAP1 POP SWAP2 SWAP1 POP JUMP JUMPDEST PUSH1 0x0 DUP2 SWAP1 POP SWAP2 SWAP1 POP JUMP JUMPDEST PUSH3 0x19E DUP2 PUSH3 0x155 JUMP JUMPDEST DUP2 EQ PUSH3 0x1AA JUMPI PUSH1 0x0 DUP1 REVERT JUMPDEST POP JUMP JUMPDEST PUSH3 0x1B8 DUP2 PUSH3 0x189 JUMP JUMPDEST DUP2 EQ PUSH3 0x1C4 JUMPI PUSH1 0x0 DUP1 REVERT JUMPDEST POP JUMP JUMPDEST PUSH2 0x173A DUP1 PUSH3 0x1D7 PUSH1 0x0 CODECOPY PUSH1 0x0 RETURN INVALID PUSH1 0x80 PUSH1 0x40 MSTORE CALLVALUE DUP1 ISZERO PUSH2 0x10 JUMPI PUSH1 0x0 DUP1 REVERT JUMPDEST POP PUSH1 0x4 CALLDATASIZE LT PUSH2 0xA9 JUMPI PUSH1 0x0 CALLDATALOAD PUSH1 0xE0 SHR DUP1 PUSH4 0x8DA5CB5B GT PUSH2 0x71 JUMPI DUP1 PUSH4 0x8DA5CB5B EQ PUSH2 0x16B JUMPI DUP1 PUSH4 0x9A5D6A4A EQ PUSH2 0x189 JUMPI DUP1 PUSH4 0xA230C524 EQ PUSH2 0x1A5 JUMPI DUP1 PUSH4 0xA4B08872 EQ PUSH2 0x1D5 JUMPI DUP1 PUSH4 0xB789BF52 EQ PUSH2 0x206 JUMPI DUP1 PUSH4 0xC162BA2F EQ PUSH2 0x224 JUMPI PUSH2 0xA9 JUMP JUMPDEST DUP1 PUSH4 0x39935FF EQ PUSH2 0xAE JUMPI DUP1 PUSH4 0x11AEE380 EQ PUSH2 0xE5 JUMPI DUP1 PUSH4 0x3EE79599 EQ PUSH2 0x103 JUMPI DUP1 PUSH4 0x6F4D469B EQ PUSH2 0x11F JUMPI DUP1 PUSH4 0x70A08231 EQ PUSH2 0x13B JUMPI JUMPDEST PUSH1 0x0 DUP1 REVERT JUMPDEST PUSH2 0xC8 PUSH1 0x4 DUP1 CALLDATASIZE SUB DUP2 ADD SWAP1 PUSH2 0xC3 SWAP2 SWAP1 PUSH2 0xF6C JUMP JUMPDEST PUSH2 0x242 JUMP JUMPDEST PUSH1 0x40 MLOAD PUSH2 0xDC SWAP9 SWAP8 SWAP7 SWAP6 SWAP5 SWAP4 SWAP3 SWAP2 SWAP1 PUSH2 0x1450 JUMP JUMPDEST PUSH1 0x40 MLOAD DUP1 SWAP2 SUB SWAP1 RETURN JUMPDEST PUSH2 0xED PUSH2 0x2CA JUMP JUMPDEST PUSH1 0x40 MLOAD PUSH2 0xFA SWAP2 SWAP1 PUSH2 0x140C JUMP JUMPDEST PUSH1 0x40 MLOAD DUP1 SWAP2 SUB SWAP1 RETURN JUMPDEST PUSH2 0x11D PUSH1 0x4 DUP1 CALLDATASIZE SUB DUP2 ADD SWAP1 PUSH2 0x118 SWAP2 SWAP1 PUSH2 0xFBE JUMP JUMPDEST PUSH2 0x2D0 JUMP JUMPDEST STOP JUMPDEST PUSH2 0x139 PUSH1 0x4 DUP1 CALLDATASIZE SUB DUP2 ADD SWAP1 PUSH2 0x134 SWAP2 SWAP1 PUSH2 0xF02 JUMP JUMPDEST PUSH2 0x5BA JUMP JUMPDEST STOP JUMPDEST PUSH2 0x155 PUSH1 0x4 DUP1 CALLDATASIZE SUB DUP2 ADD SWAP1 PUSH2 0x150 SWAP2 SWAP1 PUSH2 0xE8A JUMP JUMPDEST PUSH2 0x6B6 JUMP JUMPDEST PUSH1 0x40 MLOAD PUSH2 0x162 SWAP2 SWAP1 PUSH2 0x140C JUMP JUMPDEST PUSH1 0x40 MLOAD DUP1 SWAP2 SUB SWAP1 RETURN JUMPDEST PUSH2 0x173 PUSH2 0x748 JUMP JUMPDEST PUSH1 0x40 MLOAD PUSH2 0x180 SWAP2 SWAP1 PUSH2 0x128D JUMP JUMPDEST PUSH1 0x40 MLOAD DUP1 SWAP2 SUB SWAP1 RETURN JUMPDEST PUSH2 0x1A3 PUSH1 0x4 DUP1 CALLDATASIZE SUB DUP2 ADD SWAP1 PUSH2 0x19E SWAP2 SWAP1 PUSH2 0xEB3 JUMP JUMPDEST PUSH2 0x76E JUMP JUMPDEST STOP JUMPDEST PUSH2 0x1BF PUSH1 0x4 DUP1 CALLDATASIZE SUB DUP2 ADD SWAP1 PUSH2 0x1BA SWAP2 SWAP1 PUSH2 0xE8A JUMP JUMPDEST PUSH2 0x97D JUMP JUMPDEST PUSH1 0x40 MLOAD PUSH2 0x1CC SWAP2 SWAP1 PUSH2 0x12D1 JUMP JUMPDEST PUSH1 0x40 MLOAD DUP1 SWAP2 SUB SWAP1 RETURN JUMPDEST PUSH2 0x1EF PUSH1 0x4 DUP1 CALLDATASIZE SUB DUP2 ADD SWAP1 PUSH2 0x1EA SWAP2 SWAP1 PUSH2 0xE8A JUMP JUMPDEST PUSH2 0x99D JUMP JUMPDEST PUSH1 0x40 MLOAD PUSH2 0x1FD SWAP3 SWAP2 SWAP1 PUSH2 0x1427 JUMP JUMPDEST PUSH1 0x40 MLOAD DUP1 SWAP2 SUB SWAP1 RETURN JUMPDEST PUSH2 0x20E PUSH2 0x9E1 JUMP JUMPDEST PUSH1 0x40 MLOAD PUSH2 0x21B SWAP2 SWAP1 PUSH2 0x140C JUMP JUMPDEST PUSH1 0x40 MLOAD DUP1 SWAP2 SUB SWAP1 RETURN JUMPDEST PUSH2 0x22C PUSH2 0x9E7 JUMP JUMPDEST PUSH1 0x40 MLOAD PUSH2 0x239 SWAP2 SWAP1 PUSH2 0x140C JUMP JUMPDEST PUSH1 0x40 MLOAD DUP1 SWAP2 SUB SWAP1 RETURN JUMPDEST PUSH1 0x8 PUSH1 0x20 MSTORE DUP1 PUSH1 0x0 MSTORE PUSH1 0x40 PUSH1 0x0 KECCAK256 PUSH1 0x0 SWAP2 POP SWAP1 POP DUP1 PUSH1 0x0 ADD SLOAD SWAP1 DUP1 PUSH1 0x1 ADD PUSH1 0x0 SWAP1 SLOAD SWAP1 PUSH2 0x100 EXP SWAP1 DIV PUSH20 0xFFFFFFFFFFFFFFFFFFFFFFFFFFFFFFFFFFFFFFFF AND SWAP1 DUP1 PUSH1 0x2 ADD PUSH1 0x0 SWAP1 SLOAD SWAP1 PUSH2 0x100 EXP SWAP1 DIV PUSH20 0xFFFFFFFFFFFFFFFFFFFFFFFFFFFFFFFFFFFFFFFF AND SWAP1 DUP1 PUSH1 0x3 ADD SLOAD SWAP1 DUP1 PUSH1 0x4 ADD SLOAD SWAP1 DUP1 PUSH1 0x5 ADD SLOAD SWAP1 DUP1 PUSH1 0x6 ADD SLOAD SWAP1 DUP1 PUSH1 0x7 ADD SLOAD SWAP1 POP DUP9 JUMP JUMPDEST PUSH1 0x5 SLOAD DUP2 JUMP JUMPDEST PUSH1 0x2 PUSH1 0x0 SLOAD EQ ISZERO PUSH2 0x316 JUMPI PUSH1 0x40 MLOAD PUSH32 0x8C379A000000000000000000000000000000000000000000000000000000000 DUP2 MSTORE PUSH1 0x4 ADD PUSH2 0x30D SWAP1 PUSH2 0x13EC JUMP JUMPDEST PUSH1 0x40 MLOAD DUP1 SWAP2 SUB SWAP1 REVERT JUMPDEST PUSH1 0x2 PUSH1 0x0 DUP2 SWAP1 SSTORE POP PUSH1 0x1 DUP2 EQ DUP1 PUSH2 0x32D JUMPI POP PUSH1 0x2 DUP2 EQ JUMPDEST PUSH2 0x36C JUMPI PUSH1 0x40 MLOAD PUSH32 0x8C379A000000000000000000000000000000000000000000000000000000000 DUP2 MSTORE PUSH1 0x4 ADD PUSH2 0x363 SWAP1 PUSH2 0x136C JUMP JUMPDEST PUSH1 0x40 MLOAD DUP1 SWAP2 SUB SWAP1 REVERT JUMPDEST PUSH1 0x0 PUSH1 0x8 PUSH1 0x0 DUP5 DUP2 MSTORE PUSH1 0x20 ADD SWAP1 DUP2 MSTORE PUSH1 0x20 ADD PUSH1 0x0 KECCAK256 SWAP1 POP PUSH1 0x0 DUP2 PUSH1 0x7 ADD SLOAD EQ ISZERO PUSH2 0x3CB JUMPI PUSH1 0x40 MLOAD PUSH32 0x8C379A000000000000000000000000000000000000000000000000000000000 DUP2 MSTORE PUSH1 0x4 ADD PUSH2 0x3C2 SWAP1 PUSH2 0x134C JUMP JUMPDEST PUSH1 0x40 MLOAD DUP1 SWAP2 SUB SWAP1 REVERT JUMPDEST DUP1 PUSH1 0x0 ADD SLOAD PUSH1 0x6 PUSH1 0x0 CALLER PUSH20 0xFFFFFFFFFFFFFFFFFFFFFFFFFFFFFFFFFFFFFFFF AND PUSH20 0xFFFFFFFFFFFFFFFFFFFFFFFFFFFFFFFFFFFFFFFF AND DUP2 MSTORE PUSH1 0x20 ADD SWAP1 DUP2 MSTORE PUSH1 0x20 ADD PUSH1 0x0 KECCAK256 PUSH1 0x0 ADD SLOAD GT ISZERO PUSH2 0x454 JUMPI PUSH1 0x40 MLOAD PUSH32 0x8C379A000000000000000000000000000000000000000000000000000000000 DUP2 MSTORE PUSH1 0x4 ADD PUSH2 0x44B SWAP1 PUSH2 0x132C JUMP JUMPDEST PUSH1 0x40 MLOAD DUP1 SWAP2 SUB SWAP1 REVERT JUMPDEST PUSH1 0x0 PUSH1 0x9 PUSH1 0x0 DUP6 DUP2 MSTORE PUSH1 0x20 ADD SWAP1 DUP2 MSTORE PUSH1 0x20 ADD PUSH1 0x0 KECCAK256 PUSH1 0x0 CALLER PUSH20 0xFFFFFFFFFFFFFFFFFFFFFFFFFFFFFFFFFFFFFFFF AND PUSH20 0xFFFFFFFFFFFFFFFFFFFFFFFFFFFFFFFFFFFFFFFF AND DUP2 MSTORE PUSH1 0x20 ADD SWAP1 DUP2 MSTORE PUSH1 0x20 ADD PUSH1 0x0 KECCAK256 SLOAD EQ PUSH2 0x4E7 JUMPI PUSH1 0x40 MLOAD PUSH32 0x8C379A000000000000000000000000000000000000000000000000000000000 DUP2 MSTORE PUSH1 0x4 ADD PUSH2 0x4DE SWAP1 PUSH2 0x138C JUMP JUMPDEST PUSH1 0x40 MLOAD DUP1 SWAP2 SUB SWAP1 REVERT JUMPDEST DUP2 PUSH1 0x9 PUSH1 0x0 DUP6 DUP2 MSTORE PUSH1 0x20 ADD SWAP1 DUP2 MSTORE PUSH1 0x20 ADD PUSH1 0x0 KECCAK256 PUSH1 0x0 CALLER PUSH20 0xFFFFFFFFFFFFFFFFFFFFFFFFFFFFFFFFFFFFFFFF AND PUSH20 0xFFFFFFFFFFFFFFFFFFFFFFFFFFFFFFFFFFFFFFFF AND DUP2 MSTORE PUSH1 0x20 ADD SWAP1 DUP2 MSTORE PUSH1 0x20 ADD PUSH1 0x0 KECCAK256 DUP2 SWAP1 SSTORE POP PUSH1 0x1 DUP3 EQ ISZERO PUSH2 0x564 JUMPI DUP1 PUSH1 0x4 ADD PUSH1 0x0 DUP2 SLOAD DUP1 SWAP3 SWAP2 SWAP1 PUSH2 0x55A SWAP1 PUSH2 0x15E9 JUMP JUMPDEST SWAP2 SWAP1 POP SSTORE POP PUSH2 0x57F JUMP JUMPDEST DUP1 PUSH1 0x5 ADD PUSH1 0x0 DUP2 SLOAD DUP1 SWAP3 SWAP2 SWAP1 PUSH2 0x579 SWAP1 PUSH2 0x15E9 JUMP JUMPDEST SWAP2 SWAP1 POP SSTORE POP JUMPDEST DUP1 PUSH1 0x6 ADD SLOAD DUP2 PUSH1 0x4 ADD SLOAD LT ISZERO DUP1 PUSH2 0x59E JUMPI POP DUP1 PUSH1 0x6 ADD SLOAD DUP2 PUSH1 0x5 ADD SLOAD LT ISZERO JUMPDEST ISZERO PUSH2 0x5AD JUMPI PUSH2 0x5AC DUP2 PUSH2 0x9ED JUMP JUMPDEST JUMPDEST POP PUSH1 0x1 PUSH1 0x0 DUP2 SWAP1 SSTORE POP POP POP JUMP JUMPDEST PUSH1 0x1 PUSH1 0x0 SWAP1 SLOAD SWAP1 PUSH2 0x100 EXP SWAP1 DIV PUSH20 0xFFFFFFFFFFFFFFFFFFFFFFFFFFFFFFFFFFFFFFFF AND PUSH20 0xFFFFFFFFFFFFFFFFFFFFFFFFFFFFFFFFFFFFFFFF AND CALLER PUSH20 0xFFFFFFFFFFFFFFFFFFFFFFFFFFFFFFFFFFFFFFFF AND EQ PUSH2 0x64A JUMPI PUSH1 0x40 MLOAD PUSH32 0x8C379A000000000000000000000000000000000000000000000000000000000 DUP2 MSTORE PUSH1 0x4 ADD PUSH2 0x641 SWAP1 PUSH2 0x13AC JUMP JUMPDEST PUSH1 0x40 MLOAD DUP1 SWAP2 SUB SWAP1 REVERT JUMPDEST PUSH1 0x0 JUMPDEST DUP2 MLOAD DUP2 LT ISZERO PUSH2 0x6B2 JUMPI PUSH2 0x69F DUP3 DUP3 DUP2 MLOAD DUP2 LT PUSH2 0x692 JUMPI PUSH32 0x4E487B7100000000000000000000000000000000000000000000000000000000 PUSH1 0x0 MSTORE PUSH1 0x32 PUSH1 0x4 MSTORE PUSH1 0x24 PUSH1 0x0 REVERT JUMPDEST PUSH1 0x20 MUL PUSH1 0x20 ADD ADD MLOAD PUSH2 0xA80 JUMP JUMPDEST DUP1 DUP1 PUSH2 0x6AA SWAP1 PUSH2 0x15E9 JUMP JUMPDEST SWAP2 POP POP PUSH2 0x64D JUMP JUMPDEST POP POP JUMP JUMPDEST PUSH1 0x0 DUP2 PUSH20 0xFFFFFFFFFFFFFFFFFFFFFFFFFFFFFFFFFFFFFFFF AND PUSH4 0x70A08231 ADDRESS PUSH1 0x40 MLOAD DUP3 PUSH4 0xFFFFFFFF AND PUSH1 0xE0 SHL DUP2 MSTORE PUSH1 0x4 ADD PUSH2 0x6F1 SWAP2 SWAP1 PUSH2 0x128D JUMP JUMPDEST PUSH1 0x20 PUSH1 0x40 MLOAD DUP1 DUP4 SUB DUP2 DUP7 DUP1 EXTCODESIZE ISZERO DUP1 ISZERO PUSH2 0x709 JUMPI PUSH1 0x0 DUP1 REVERT JUMPDEST POP GAS STATICCALL ISZERO DUP1 ISZERO PUSH2 0x71D JUMPI RETURNDATASIZE PUSH1 0x0 DUP1 RETURNDATACOPY RETURNDATASIZE PUSH1 0x0 REVERT JUMPDEST POP POP POP POP PUSH1 0x40 MLOAD RETURNDATASIZE PUSH1 0x1F NOT PUSH1 0x1F DUP3 ADD AND DUP3 ADD DUP1 PUSH1 0x40 MSTORE POP DUP2 ADD SWAP1 PUSH2 0x741 SWAP2 SWAP1 PUSH2 0xF95 JUMP JUMPDEST SWAP1 POP SWAP2 SWAP1 POP JUMP JUMPDEST PUSH1 0x1 PUSH1 0x0 SWAP1 SLOAD SWAP1 PUSH2 0x100 EXP SWAP1 DIV PUSH20 0xFFFFFFFFFFFFFFFFFFFFFFFFFFFFFFFFFFFFFFFF AND DUP2 JUMP JUMPDEST PUSH1 0x7 PUSH1 0x0 CALLER PUSH20 0xFFFFFFFFFFFFFFFFFFFFFFFFFFFFFFFFFFFFFFFF AND PUSH20 0xFFFFFFFFFFFFFFFFFFFFFFFFFFFFFFFFFFFFFFFF AND DUP2 MSTORE PUSH1 0x20 ADD SWAP1 DUP2 MSTORE PUSH1 0x20 ADD PUSH1 0x0 KECCAK256 PUSH1 0x0 SWAP1 SLOAD SWAP1 PUSH2 0x100 EXP SWAP1 DIV PUSH1 0xFF AND PUSH2 0x7FA JUMPI PUSH1 0x40 MLOAD PUSH32 0x8C379A000000000000000000000000000000000000000000000000000000000 DUP2 MSTORE PUSH1 0x4 ADD PUSH2 0x7F1 SWAP1 PUSH2 0x12EC JUMP JUMPDEST PUSH1 0x40 MLOAD DUP1 SWAP2 SUB SWAP1 REVERT JUMPDEST PUSH1 0x40 MLOAD DUP1 PUSH2 0x100 ADD PUSH1 0x40 MSTORE DUP1 TIMESTAMP DUP2 MSTORE PUSH1 0x20 ADD DUP5 PUSH20 0xFFFFFFFFFFFFFFFFFFFFFFFFFFFFFFFFFFFFFFFF AND DUP2 MSTORE PUSH1 0x20 ADD DUP4 PUSH20 0xFFFFFFFFFFFFFFFFFFFFFFFFFFFFFFFFFFFFFFFF AND DUP2 MSTORE PUSH1 0x20 ADD DUP3 DUP2 MSTORE PUSH1 0x20 ADD PUSH1 0x0 DUP2 MSTORE PUSH1 0x20 ADD PUSH1 0x0 DUP2 MSTORE PUSH1 0x20 ADD PUSH1 0x2 PUSH1 0x5 SLOAD PUSH2 0x867 SWAP2 SWAP1 PUSH2 0x153C JUMP JUMPDEST PUSH1 0x5 SLOAD PUSH2 0x874 SWAP2 SWAP1 PUSH2 0x156D JUMP JUMPDEST DUP2 MSTORE PUSH1 0x20 ADD PUSH1 0x0 DUP2 MSTORE POP PUSH1 0x8 PUSH1 0x0 PUSH1 0x2 SLOAD DUP2 MSTORE PUSH1 0x20 ADD SWAP1 DUP2 MSTORE PUSH1 0x20 ADD PUSH1 0x0 KECCAK256 PUSH1 0x0 DUP3 ADD MLOAD DUP2 PUSH1 0x0 ADD SSTORE PUSH1 0x20 DUP3 ADD MLOAD DUP2 PUSH1 0x1 ADD PUSH1 0x0 PUSH2 0x100 EXP DUP2 SLOAD DUP2 PUSH20 0xFFFFFFFFFFFFFFFFFFFFFFFFFFFFFFFFFFFFFFFF MUL NOT AND SWAP1 DUP4 PUSH20 0xFFFFFFFFFFFFFFFFFFFFFFFFFFFFFFFFFFFFFFFF AND MUL OR SWAP1 SSTORE POP PUSH1 0x40 DUP3 ADD MLOAD DUP2 PUSH1 0x2 ADD PUSH1 0x0 PUSH2 0x100 EXP DUP2 SLOAD DUP2 PUSH20 0xFFFFFFFFFFFFFFFFFFFFFFFFFFFFFFFFFFFFFFFF MUL NOT AND SWAP1 DUP4 PUSH20 0xFFFFFFFFFFFFFFFFFFFFFFFFFFFFFFFFFFFFFFFF AND MUL OR SWAP1 SSTORE POP PUSH1 0x60 DUP3 ADD MLOAD DUP2 PUSH1 0x3 ADD SSTORE PUSH1 0x80 DUP3 ADD MLOAD DUP2 PUSH1 0x4 ADD SSTORE PUSH1 0xA0 DUP3 ADD MLOAD DUP2 PUSH1 0x5 ADD SSTORE PUSH1 0xC0 DUP3 ADD MLOAD DUP2 PUSH1 0x6 ADD SSTORE PUSH1 0xE0 DUP3 ADD MLOAD DUP2 PUSH1 0x7 ADD SSTORE SWAP1 POP POP PUSH1 0x2 PUSH1 0x0 DUP2 SLOAD DUP1 SWAP3 SWAP2 SWAP1 PUSH2 0x973 SWAP1 PUSH2 0x15E9 JUMP JUMPDEST SWAP2 SWAP1 POP SSTORE POP POP POP POP JUMP JUMPDEST PUSH1 0x7 PUSH1 0x20 MSTORE DUP1 PUSH1 0x0 MSTORE PUSH1 0x40 PUSH1 0x0 KECCAK256 PUSH1 0x0 SWAP2 POP SLOAD SWAP1 PUSH2 0x100 EXP SWAP1 DIV PUSH1 0xFF AND DUP2 JUMP JUMPDEST PUSH1 0x6 PUSH1 0x20 MSTORE DUP1 PUSH1 0x0 MSTORE PUSH1 0x40 PUSH1 0x0 KECCAK256 PUSH1 0x0 SWAP2 POP SWAP1 POP DUP1 PUSH1 0x0 ADD SLOAD SWAP1 DUP1 PUSH1 0x1 ADD PUSH1 0x0 SWAP1 SLOAD SWAP1 PUSH2 0x100 EXP SWAP1 DIV PUSH20 0xFFFFFFFFFFFFFFFFFFFFFFFFFFFFFFFFFFFFFFFF AND SWAP1 POP DUP3 JUMP JUMPDEST PUSH1 0x2 SLOAD DUP2 JUMP JUMPDEST PUSH1 0x3 SLOAD DUP2 JUMP JUMPDEST DUP1 PUSH1 0x6 ADD SLOAD DUP2 PUSH1 0x4 ADD SLOAD LT PUSH2 0xA62 JUMPI PUSH2 0xA53 DUP2 PUSH1 0x1 ADD PUSH1 0x0 SWAP1 SLOAD SWAP1 PUSH2 0x100 EXP SWAP1 DIV PUSH20 0xFFFFFFFFFFFFFFFFFFFFFFFFFFFFFFFFFFFFFFFF AND DUP3 PUSH1 0x2 ADD PUSH1 0x0 SWAP1 SLOAD SWAP1 PUSH2 0x100 EXP SWAP1 DIV PUSH20 0xFFFFFFFFFFFFFFFFFFFFFFFFFFFFFFFFFFFFFFFF AND DUP4 PUSH1 0x3 ADD SLOAD PUSH2 0xCCF JUMP JUMPDEST PUSH1 0x1 DUP2 PUSH1 0x7 ADD DUP2 SWAP1 SSTORE POP PUSH2 0xA7D JUMP JUMPDEST DUP1 PUSH1 0x6 ADD SLOAD DUP2 PUSH1 0x5 ADD SLOAD LT PUSH2 0xA7C JUMPI PUSH1 0x2 DUP2 PUSH1 0x7 ADD DUP2 SWAP1 SSTORE POP JUMPDEST JUMPDEST POP JUMP JUMPDEST PUSH1 0x7 PUSH1 0x0 DUP3 PUSH20 0xFFFFFFFFFFFFFFFFFFFFFFFFFFFFFFFFFFFFFFFF AND PUSH20 0xFFFFFFFFFFFFFFFFFFFFFFFFFFFFFFFFFFFFFFFF AND DUP2 MSTORE PUSH1 0x20 ADD SWAP1 DUP2 MSTORE PUSH1 0x20 ADD PUSH1 0x0 KECCAK256 PUSH1 0x0 SWAP1 SLOAD SWAP1 PUSH2 0x100 EXP SWAP1 DIV PUSH1 0xFF AND ISZERO PUSH2 0xB0D JUMPI PUSH1 0x40 MLOAD PUSH32 0x8C379A000000000000000000000000000000000000000000000000000000000 DUP2 MSTORE PUSH1 0x4 ADD PUSH2 0xB04 SWAP1 PUSH2 0x13CC JUMP JUMPDEST PUSH1 0x40 MLOAD DUP1 SWAP2 SUB SWAP1 REVERT JUMPDEST PUSH1 0x40 MLOAD DUP1 PUSH1 0x40 ADD PUSH1 0x40 MSTORE DUP1 TIMESTAMP DUP2 MSTORE PUSH1 0x20 ADD DUP3 PUSH20 0xFFFFFFFFFFFFFFFFFFFFFFFFFFFFFFFFFFFFFFFF AND DUP2 MSTORE POP PUSH1 0x6 PUSH1 0x0 DUP4 PUSH20 0xFFFFFFFFFFFFFFFFFFFFFFFFFFFFFFFFFFFFFFFF AND PUSH20 0xFFFFFFFFFFFFFFFFFFFFFFFFFFFFFFFFFFFFFFFF AND DUP2 MSTORE PUSH1 0x20 ADD SWAP1 DUP2 MSTORE PUSH1 0x20 ADD PUSH1 0x0 KECCAK256 PUSH1 0x0 DUP3 ADD MLOAD DUP2 PUSH1 0x0 ADD SSTORE PUSH1 0x20 DUP3 ADD MLOAD DUP2 PUSH1 0x1 ADD PUSH1 0x0 PUSH2 0x100 EXP DUP2 SLOAD DUP2 PUSH20 0xFFFFFFFFFFFFFFFFFFFFFFFFFFFFFFFFFFFFFFFF MUL NOT AND SWAP1 DUP4 PUSH20 0xFFFFFFFFFFFFFFFFFFFFFFFFFFFFFFFFFFFFFFFF AND MUL OR SWAP1 SSTORE POP SWAP1 POP POP PUSH1 0x1 PUSH1 0x7 PUSH1 0x0 DUP4 PUSH20 0xFFFFFFFFFFFFFFFFFFFFFFFFFFFFFFFFFFFFFFFF AND PUSH20 0xFFFFFFFFFFFFFFFFFFFFFFFFFFFFFFFFFFFFFFFF AND DUP2 MSTORE PUSH1 0x20 ADD SWAP1 DUP2 MSTORE PUSH1 0x20 ADD PUSH1 0x0 KECCAK256 PUSH1 0x0 PUSH2 0x100 EXP DUP2 SLOAD DUP2 PUSH1 0xFF MUL NOT AND SWAP1 DUP4 ISZERO ISZERO MUL OR SWAP1 SSTORE POP PUSH1 0x4 PUSH1 0x0 SWAP1 SLOAD SWAP1 PUSH2 0x100 EXP SWAP1 DIV PUSH20 0xFFFFFFFFFFFFFFFFFFFFFFFFFFFFFFFFFFFFFFFF AND PUSH20 0xFFFFFFFFFFFFFFFFFFFFFFFFFFFFFFFFFFFFFFFF AND PUSH4 0x74D0A676 PUSH1 0x3 SLOAD DUP4 PUSH1 0x40 MLOAD DUP4 PUSH4 0xFFFFFFFF AND PUSH1 0xE0 SHL DUP2 MSTORE PUSH1 0x4 ADD PUSH2 0xC82 SWAP3 SWAP2 SWAP1 PUSH2 0x1427 JUMP JUMPDEST PUSH1 0x0 PUSH1 0x40 MLOAD DUP1 DUP4 SUB DUP2 PUSH1 0x0 DUP8 DUP1 EXTCODESIZE ISZERO DUP1 ISZERO PUSH2 0xC9C JUMPI PUSH1 0x0 DUP1 REVERT JUMPDEST POP GAS CALL ISZERO DUP1 ISZERO PUSH2 0xCB0 JUMPI RETURNDATASIZE PUSH1 0x0 DUP1 RETURNDATACOPY RETURNDATASIZE PUSH1 0x0 REVERT JUMPDEST POP POP POP POP PUSH1 0x5 PUSH1 0x0 DUP2 SLOAD DUP1 SWAP3 SWAP2 SWAP1 PUSH2 0xCC7 SWAP1 PUSH2 0x15E9 JUMP JUMPDEST SWAP2 SWAP1 POP SSTORE POP POP JUMP JUMPDEST DUP3 PUSH20 0xFFFFFFFFFFFFFFFFFFFFFFFFFFFFFFFFFFFFFFFF AND PUSH4 0xA9059CBB DUP4 DUP4 PUSH1 0x40 MLOAD DUP4 PUSH4 0xFFFFFFFF AND PUSH1 0xE0 SHL DUP2 MSTORE PUSH1 0x4 ADD PUSH2 0xD0A SWAP3 SWAP2 SWAP1 PUSH2 0x12A8 JUMP JUMPDEST PUSH1 0x20 PUSH1 0x40 MLOAD DUP1 DUP4 SUB DUP2 PUSH1 0x0 DUP8 DUP1 EXTCODESIZE ISZERO DUP1 ISZERO PUSH2 0xD24 JUMPI PUSH1 0x0 DUP1 REVERT JUMPDEST POP GAS CALL ISZERO DUP1 ISZERO PUSH2 0xD38 JUMPI RETURNDATASIZE PUSH1 0x0 DUP1 RETURNDATACOPY RETURNDATASIZE PUSH1 0x0 REVERT JUMPDEST POP POP POP POP PUSH1 0x40 MLOAD RETURNDATASIZE PUSH1 0x1F NOT PUSH1 0x1F DUP3 ADD AND DUP3 ADD DUP1 PUSH1 0x40 MSTORE POP DUP2 ADD SWAP1 PUSH2 0xD5C SWAP2 SWAP1 PUSH2 0xF43 JUMP JUMPDEST PUSH2 0xD9B JUMPI PUSH1 0x40 MLOAD PUSH32 0x8C379A000000000000000000000000000000000000000000000000000000000 DUP2 MSTORE PUSH1 0x4 ADD PUSH2 0xD92 SWAP1 PUSH2 0x130C JUMP JUMPDEST PUSH1 0x40 MLOAD DUP1 SWAP2 SUB SWAP1 REVERT JUMPDEST POP POP POP JUMP JUMPDEST PUSH1 0x0 PUSH2 0xDB3 PUSH2 0xDAE DUP5 PUSH2 0x14FF JUMP JUMPDEST PUSH2 0x14CE JUMP JUMPDEST SWAP1 POP DUP1 DUP4 DUP3 MSTORE PUSH1 0x20 DUP3 ADD SWAP1 POP DUP3 DUP6 PUSH1 0x20 DUP7 MUL DUP3 ADD GT ISZERO PUSH2 0xDD2 JUMPI PUSH1 0x0 DUP1 REVERT JUMPDEST PUSH1 0x0 JUMPDEST DUP6 DUP2 LT ISZERO PUSH2 0xE02 JUMPI DUP2 PUSH2 0xDE8 DUP9 DUP3 PUSH2 0xE0C JUMP JUMPDEST DUP5 MSTORE PUSH1 0x20 DUP5 ADD SWAP4 POP PUSH1 0x20 DUP4 ADD SWAP3 POP POP PUSH1 0x1 DUP2 ADD SWAP1 POP PUSH2 0xDD5 JUMP JUMPDEST POP POP POP SWAP4 SWAP3 POP POP POP JUMP JUMPDEST PUSH1 0x0 DUP2 CALLDATALOAD SWAP1 POP PUSH2 0xE1B DUP2 PUSH2 0x16BF JUMP JUMPDEST SWAP3 SWAP2 POP POP JUMP JUMPDEST PUSH1 0x0 DUP3 PUSH1 0x1F DUP4 ADD SLT PUSH2 0xE32 JUMPI PUSH1 0x0 DUP1 REVERT JUMPDEST DUP2 CALLDATALOAD PUSH2 0xE42 DUP5 DUP3 PUSH1 0x20 DUP7 ADD PUSH2 0xDA0 JUMP JUMPDEST SWAP2 POP POP SWAP3 SWAP2 POP POP JUMP JUMPDEST PUSH1 0x0 DUP2 MLOAD SWAP1 POP PUSH2 0xE5A DUP2 PUSH2 0x16D6 JUMP JUMPDEST SWAP3 SWAP2 POP POP JUMP JUMPDEST PUSH1 0x0 DUP2 CALLDATALOAD SWAP1 POP PUSH2 0xE6F DUP2 PUSH2 0x16ED JUMP JUMPDEST SWAP3 SWAP2 POP POP JUMP JUMPDEST PUSH1 0x0 DUP2 MLOAD SWAP1 POP PUSH2 0xE84 DUP2 PUSH2 0x16ED JUMP JUMPDEST SWAP3 SWAP2 POP POP JUMP JUMPDEST PUSH1 0x0 PUSH1 0x20 DUP3 DUP5 SUB SLT ISZERO PUSH2 0xE9C JUMPI PUSH1 0x0 DUP1 REVERT JUMPDEST PUSH1 0x0 PUSH2 0xEAA DUP5 DUP3 DUP6 ADD PUSH2 0xE0C JUMP JUMPDEST SWAP2 POP POP SWAP3 SWAP2 POP POP JUMP JUMPDEST PUSH1 0x0 DUP1 PUSH1 0x0 PUSH1 0x60 DUP5 DUP7 SUB SLT ISZERO PUSH2 0xEC8 JUMPI PUSH1 0x0 DUP1 REVERT JUMPDEST PUSH1 0x0 PUSH2 0xED6 DUP7 DUP3 DUP8 ADD PUSH2 0xE0C JUMP JUMPDEST SWAP4 POP POP PUSH1 0x20 PUSH2 0xEE7 DUP7 DUP3 DUP8 ADD PUSH2 0xE0C JUMP JUMPDEST SWAP3 POP POP PUSH1 0x40 PUSH2 0xEF8 DUP7 DUP3 DUP8 ADD PUSH2 0xE60 JUMP JUMPDEST SWAP2 POP POP SWAP3 POP SWAP3 POP SWAP3 JUMP JUMPDEST PUSH1 0x0 PUSH1 0x20 DUP3 DUP5 SUB SLT ISZERO PUSH2 0xF14 JUMPI PUSH1 0x0 DUP1 REVERT JUMPDEST PUSH1 0x0 DUP3 ADD CALLDATALOAD PUSH8 0xFFFFFFFFFFFFFFFF DUP2 GT ISZERO PUSH2 0xF2E JUMPI PUSH1 0x0 DUP1 REVERT JUMPDEST PUSH2 0xF3A DUP5 DUP3 DUP6 ADD PUSH2 0xE21 JUMP JUMPDEST SWAP2 POP POP SWAP3 SWAP2 POP POP JUMP JUMPDEST PUSH1 0x0 PUSH1 0x20 DUP3 DUP5 SUB SLT ISZERO PUSH2 0xF55 JUMPI PUSH1 0x0 DUP1 REVERT JUMPDEST PUSH1 0x0 PUSH2 0xF63 DUP5 DUP3 DUP6 ADD PUSH2 0xE4B JUMP JUMPDEST SWAP2 POP POP SWAP3 SWAP2 POP POP JUMP JUMPDEST PUSH1 0x0 PUSH1 0x20 DUP3 DUP5 SUB SLT ISZERO PUSH2 0xF7E JUMPI PUSH1 0x0 DUP1 REVERT JUMPDEST PUSH1 0x0 PUSH2 0xF8C DUP5 DUP3 DUP6 ADD PUSH2 0xE60 JUMP JUMPDEST SWAP2 POP POP SWAP3 SWAP2 POP POP JUMP JUMPDEST PUSH1 0x0 PUSH1 0x20 DUP3 DUP5 SUB SLT ISZERO PUSH2 0xFA7 JUMPI PUSH1 0x0 DUP1 REVERT JUMPDEST PUSH1 0x0 PUSH2 0xFB5 DUP5 DUP3 DUP6 ADD PUSH2 0xE75 JUMP JUMPDEST SWAP2 POP POP SWAP3 SWAP2 POP POP JUMP JUMPDEST PUSH1 0x0 DUP1 PUSH1 0x40 DUP4 DUP6 SUB SLT ISZERO PUSH2 0xFD1 JUMPI PUSH1 0x0 DUP1 REVERT JUMPDEST PUSH1 0x0 PUSH2 0xFDF DUP6 DUP3 DUP7 ADD PUSH2 0xE60 JUMP JUMPDEST SWAP3 POP POP PUSH1 0x20 PUSH2 0xFF0 DUP6 DUP3 DUP7 ADD PUSH2 0xE60 JUMP JUMPDEST SWAP2 POP POP SWAP3 POP SWAP3 SWAP1 POP JUMP JUMPDEST PUSH2 0x1003 DUP2 PUSH2 0x15A1 JUMP JUMPDEST DUP3 MSTORE POP POP JUMP JUMPDEST PUSH2 0x1012 DUP2 PUSH2 0x15B3 JUMP JUMPDEST DUP3 MSTORE POP POP JUMP JUMPDEST PUSH1 0x0 PUSH2 0x1025 PUSH1 0x12 DUP4 PUSH2 0x152B JUMP JUMPDEST SWAP2 POP PUSH32 0x4F6E6C79206D656D626572206D6574686F640000000000000000000000000000 PUSH1 0x0 DUP4 ADD MSTORE PUSH1 0x20 DUP3 ADD SWAP1 POP SWAP2 SWAP1 POP JUMP JUMPDEST PUSH1 0x0 PUSH2 0x1065 PUSH1 0xF DUP4 PUSH2 0x152B JUMP JUMPDEST SWAP2 POP PUSH32 0x5472616E73666572206661696C65640000000000000000000000000000000000 PUSH1 0x0 DUP4 ADD MSTORE PUSH1 0x20 DUP3 ADD SWAP1 POP SWAP2 SWAP1 POP JUMP JUMPDEST PUSH1 0x0 PUSH2 0x10A5 PUSH1 0x2C DUP4 PUSH2 0x152B JUMP JUMPDEST SWAP2 POP PUSH32 0x55736572207761736E27742061206D656D626572206174207468652074696D65 PUSH1 0x0 DUP4 ADD MSTORE PUSH32 0x206F66206F72646572696E670000000000000000000000000000000000000000 PUSH1 0x20 DUP4 ADD MSTORE PUSH1 0x40 DUP3 ADD SWAP1 POP SWAP2 SWAP1 POP JUMP JUMPDEST PUSH1 0x0 PUSH2 0x110B PUSH1 0x10 DUP4 PUSH2 0x152B JUMP JUMPDEST SWAP2 POP PUSH32 0x416C726561647920657865637574656400000000000000000000000000000000 PUSH1 0x0 DUP4 ADD MSTORE PUSH1 0x20 DUP3 ADD SWAP1 POP SWAP2 SWAP1 POP JUMP JUMPDEST PUSH1 0x0 PUSH2 0x114B PUSH1 0x14 DUP4 PUSH2 0x152B JUMP JUMPDEST SWAP2 POP PUSH32 0x4E6F7420612076616C6964206465636973696F6E000000000000000000000000 PUSH1 0x0 DUP4 ADD MSTORE PUSH1 0x20 DUP3 ADD SWAP1 POP SWAP2 SWAP1 POP JUMP JUMPDEST PUSH1 0x0 PUSH2 0x118B PUSH1 0x17 DUP4 PUSH2 0x152B JUMP JUMPDEST SWAP2 POP PUSH32 0x416C7265616479206D6164652061206465636973696F6E000000000000000000 PUSH1 0x0 DUP4 ADD MSTORE PUSH1 0x20 DUP3 ADD SWAP1 POP SWAP2 SWAP1 POP JUMP JUMPDEST PUSH1 0x0 PUSH2 0x11CB PUSH1 0x11 DUP4 PUSH2 0x152B JUMP JUMPDEST SWAP2 POP PUSH32 0x4F6E6C79206F776E6572206D6574686F64000000000000000000000000000000 PUSH1 0x0 DUP4 ADD MSTORE PUSH1 0x20 DUP3 ADD SWAP1 POP SWAP2 SWAP1 POP JUMP JUMPDEST PUSH1 0x0 PUSH2 0x120B PUSH1 0x10 DUP4 PUSH2 0x152B JUMP JUMPDEST SWAP2 POP PUSH32 0x416C72656164792061206D656D62657200000000000000000000000000000000 PUSH1 0x0 DUP4 ADD MSTORE PUSH1 0x20 DUP3 ADD SWAP1 POP SWAP2 SWAP1 POP JUMP JUMPDEST PUSH1 0x0 PUSH2 0x124B PUSH1 0x1F DUP4 PUSH2 0x152B JUMP JUMPDEST SWAP2 POP PUSH32 0x5265656E7472616E637947756172643A207265656E7472616E742063616C6C00 PUSH1 0x0 DUP4 ADD MSTORE PUSH1 0x20 DUP3 ADD SWAP1 POP SWAP2 SWAP1 POP JUMP JUMPDEST PUSH2 0x1287 DUP2 PUSH2 0x15DF JUMP JUMPDEST DUP3 MSTORE POP POP JUMP JUMPDEST PUSH1 0x0 PUSH1 0x20 DUP3 ADD SWAP1 POP PUSH2 0x12A2 PUSH1 0x0 DUP4 ADD DUP5 PUSH2 0xFFA JUMP JUMPDEST SWAP3 SWAP2 POP POP JUMP JUMPDEST PUSH1 0x0 PUSH1 0x40 DUP3 ADD SWAP1 POP PUSH2 0x12BD PUSH1 0x0 DUP4 ADD DUP6 PUSH2 0xFFA JUMP JUMPDEST PUSH2 0x12CA PUSH1 0x20 DUP4 ADD DUP5 PUSH2 0x127E JUMP JUMPDEST SWAP4 SWAP3 POP POP POP JUMP JUMPDEST PUSH1 0x0 PUSH1 0x20 DUP3 ADD SWAP1 POP PUSH2 0x12E6 PUSH1 0x0 DUP4 ADD DUP5 PUSH2 0x1009 JUMP JUMPDEST SWAP3 SWAP2 POP POP JUMP JUMPDEST PUSH1 0x0 PUSH1 0x20 DUP3 ADD SWAP1 POP DUP2 DUP2 SUB PUSH1 0x0 DUP4 ADD MSTORE PUSH2 0x1305 DUP2 PUSH2 0x1018 JUMP JUMPDEST SWAP1 POP SWAP2 SWAP1 POP JUMP JUMPDEST PUSH1 0x0 PUSH1 0x20 DUP3 ADD SWAP1 POP DUP2 DUP2 SUB PUSH1 0x0 DUP4 ADD MSTORE PUSH2 0x1325 DUP2 PUSH2 0x1058 JUMP JUMPDEST SWAP1 POP SWAP2 SWAP1 POP JUMP JUMPDEST PUSH1 0x0 PUSH1 0x20 DUP3 ADD SWAP1 POP DUP2 DUP2 SUB PUSH1 0x0 DUP4 ADD MSTORE PUSH2 0x1345 DUP2 PUSH2 0x1098 JUMP JUMPDEST SWAP1 POP SWAP2 SWAP1 POP JUMP JUMPDEST PUSH1 0x0 PUSH1 0x20 DUP3 ADD SWAP1 POP DUP2 DUP2 SUB PUSH1 0x0 DUP4 ADD MSTORE PUSH2 0x1365 DUP2 PUSH2 0x10FE JUMP JUMPDEST SWAP1 POP SWAP2 SWAP1 POP JUMP JUMPDEST PUSH1 0x0 PUSH1 0x20 DUP3 ADD SWAP1 POP DUP2 DUP2 SUB PUSH1 0x0 DUP4 ADD MSTORE PUSH2 0x1385 DUP2 PUSH2 0x113E JUMP JUMPDEST SWAP1 POP SWAP2 SWAP1 POP JUMP JUMPDEST PUSH1 0x0 PUSH1 0x20 DUP3 ADD SWAP1 POP DUP2 DUP2 SUB PUSH1 0x0 DUP4 ADD MSTORE PUSH2 0x13A5 DUP2 PUSH2 0x117E JUMP JUMPDEST SWAP1 POP SWAP2 SWAP1 POP JUMP JUMPDEST PUSH1 0x0 PUSH1 0x20 DUP3 ADD SWAP1 POP DUP2 DUP2 SUB PUSH1 0x0 DUP4 ADD MSTORE PUSH2 0x13C5 DUP2 PUSH2 0x11BE JUMP JUMPDEST SWAP1 POP SWAP2 SWAP1 POP JUMP JUMPDEST PUSH1 0x0 PUSH1 0x20 DUP3 ADD SWAP1 POP DUP2 DUP2 SUB PUSH1 0x0 DUP4 ADD MSTORE PUSH2 0x13E5 DUP2 PUSH2 0x11FE JUMP JUMPDEST SWAP1 POP SWAP2 SWAP1 POP JUMP JUMPDEST PUSH1 0x0 PUSH1 0x20 DUP3 ADD SWAP1 POP DUP2 DUP2 SUB PUSH1 0x0 DUP4 ADD MSTORE PUSH2 0x1405 DUP2 PUSH2 0x123E JUMP JUMPDEST SWAP1 POP SWAP2 SWAP1 POP JUMP JUMPDEST PUSH1 0x0 PUSH1 0x20 DUP3 ADD SWAP1 POP PUSH2 0x1421 PUSH1 0x0 DUP4 ADD DUP5 PUSH2 0x127E JUMP JUMPDEST SWAP3 SWAP2 POP POP JUMP JUMPDEST PUSH1 0x0 PUSH1 0x40 DUP3 ADD SWAP1 POP PUSH2 0x143C PUSH1 0x0 DUP4 ADD DUP6 PUSH2 0x127E JUMP JUMPDEST PUSH2 0x1449 PUSH1 0x20 DUP4 ADD DUP5 PUSH2 0xFFA JUMP JUMPDEST SWAP4 SWAP3 POP POP POP JUMP JUMPDEST PUSH1 0x0 PUSH2 0x100 DUP3 ADD SWAP1 POP PUSH2 0x1466 PUSH1 0x0 DUP4 ADD DUP12 PUSH2 0x127E JUMP JUMPDEST PUSH2 0x1473 PUSH1 0x20 DUP4 ADD DUP11 PUSH2 0xFFA JUMP JUMPDEST PUSH2 0x1480 PUSH1 0x40 DUP4 ADD DUP10 PUSH2 0xFFA JUMP JUMPDEST PUSH2 0x148D PUSH1 0x60 DUP4 ADD DUP9 PUSH2 0x127E JUMP JUMPDEST PUSH2 0x149A PUSH1 0x80 DUP4 ADD DUP8 PUSH2 0x127E JUMP JUMPDEST PUSH2 0x14A7 PUSH1 0xA0 DUP4 ADD DUP7 PUSH2 0x127E JUMP JUMPDEST PUSH2 0x14B4 PUSH1 0xC0 DUP4 ADD DUP6 PUSH2 0x127E JUMP JUMPDEST PUSH2 0x14C1 PUSH1 0xE0 DUP4 ADD DUP5 PUSH2 0x127E JUMP JUMPDEST SWAP10 SWAP9 POP POP POP POP POP POP POP POP POP JUMP JUMPDEST PUSH1 0x0 PUSH1 0x40 MLOAD SWAP1 POP DUP2 DUP2 ADD DUP2 DUP2 LT PUSH8 0xFFFFFFFFFFFFFFFF DUP3 GT OR ISZERO PUSH2 0x14F5 JUMPI PUSH2 0x14F4 PUSH2 0x1690 JUMP JUMPDEST JUMPDEST DUP1 PUSH1 0x40 MSTORE POP SWAP2 SWAP1 POP JUMP JUMPDEST PUSH1 0x0 PUSH8 0xFFFFFFFFFFFFFFFF DUP3 GT ISZERO PUSH2 0x151A JUMPI PUSH2 0x1519 PUSH2 0x1690 JUMP JUMPDEST JUMPDEST PUSH1 0x20 DUP3 MUL SWAP1 POP PUSH1 0x20 DUP2 ADD SWAP1 POP SWAP2 SWAP1 POP JUMP JUMPDEST PUSH1 0x0 DUP3 DUP3 MSTORE PUSH1 0x20 DUP3 ADD SWAP1 POP SWAP3 SWAP2 POP POP JUMP JUMPDEST PUSH1 0x0 PUSH2 0x1547 DUP3 PUSH2 0x15DF JUMP JUMPDEST SWAP2 POP PUSH2 0x1552 DUP4 PUSH2 0x15DF JUMP JUMPDEST SWAP3 POP DUP3 PUSH2 0x1562 JUMPI PUSH2 0x1561 PUSH2 0x1661 JUMP JUMPDEST JUMPDEST DUP3 DUP3 DIV SWAP1 POP SWAP3 SWAP2 POP POP JUMP JUMPDEST PUSH1 0x0 PUSH2 0x1578 DUP3 PUSH2 0x15DF JUMP JUMPDEST SWAP2 POP PUSH2 0x1583 DUP4 PUSH2 0x15DF JUMP JUMPDEST SWAP3 POP DUP3 DUP3 LT ISZERO PUSH2 0x1596 JUMPI PUSH2 0x1595 PUSH2 0x1632 JUMP JUMPDEST JUMPDEST DUP3 DUP3 SUB SWAP1 POP SWAP3 SWAP2 POP POP JUMP JUMPDEST PUSH1 0x0 PUSH2 0x15AC DUP3 PUSH2 0x15BF JUMP JUMPDEST SWAP1 POP SWAP2 SWAP1 POP JUMP JUMPDEST PUSH1 0x0 DUP2 ISZERO ISZERO SWAP1 POP SWAP2 SWAP1 POP JUMP JUMPDEST PUSH1 0x0 PUSH20 0xFFFFFFFFFFFFFFFFFFFFFFFFFFFFFFFFFFFFFFFF DUP3 AND SWAP1 POP SWAP2 SWAP1 POP JUMP JUMPDEST PUSH1 0x0 DUP2 SWAP1 POP SWAP2 SWAP1 POP JUMP JUMPDEST PUSH1 0x0 PUSH2 0x15F4 DUP3 PUSH2 0x15DF JUMP JUMPDEST SWAP2 POP PUSH32 0xFFFFFFFFFFFFFFFFFFFFFFFFFFFFFFFFFFFFFFFFFFFFFFFFFFFFFFFFFFFFFFFF DUP3 EQ ISZERO PUSH2 0x1627 JUMPI PUSH2 0x1626 PUSH2 0x1632 JUMP JUMPDEST JUMPDEST PUSH1 0x1 DUP3 ADD SWAP1 POP SWAP2 SWAP1 POP JUMP JUMPDEST PUSH32 0x4E487B7100000000000000000000000000000000000000000000000000000000 PUSH1 0x0 MSTORE PUSH1 0x11 PUSH1 0x4 MSTORE PUSH1 0x24 PUSH1 0x0 REVERT JUMPDEST PUSH32 0x4E487B7100000000000000000000000000000000000000000000000000000000 PUSH1 0x0 MSTORE PUSH1 0x12 PUSH1 0x4 MSTORE PUSH1 0x24 PUSH1 0x0 REVERT JUMPDEST PUSH32 0x4E487B7100000000000000000000000000000000000000000000000000000000 PUSH1 0x0 MSTORE PUSH1 0x41 PUSH1 0x4 MSTORE PUSH1 0x24 PUSH1 0x0 REVERT JUMPDEST PUSH2 0x16C8 DUP2 PUSH2 0x15A1 JUMP JUMPDEST DUP2 EQ PUSH2 0x16D3 JUMPI PUSH1 0x0 DUP1 REVERT JUMPDEST POP JUMP JUMPDEST PUSH2 0x16DF DUP2 PUSH2 0x15B3 JUMP JUMPDEST DUP2 EQ PUSH2 0x16EA JUMPI PUSH1 0x0 DUP1 REVERT JUMPDEST POP JUMP JUMPDEST PUSH2 0x16F6 DUP2 PUSH2 0x15DF JUMP JUMPDEST DUP2 EQ PUSH2 0x1701 JUMPI PUSH1 0x0 DUP1 REVERT JUMPDEST POP JUMP INVALID LOG2 PUSH5 0x6970667358 0x22 SLT KECCAK256 0x1F AND PUSH1 0xA0 GT LOG4 0xBC 0xFC REVERT 0xF9 0xFC CHAINID 0xCD 0xD6 LOG0 TIMESTAMP 0xF6 OR DUP10 0xA6 0xE4 DUP2 0xCE CALLER CALL 0xF 0xC1 MSTORE8 POP 0xBA SHL DIV PUSH5 0x736F6C6343 STOP ADDMOD STOP STOP CALLER "
				},
				"gasEstimates": {
					"creation": {
						"codeDepositCost": "1189200",
						"executionCost": "infinite",
						"totalCost": "infinite"
					},
					"external": {
						"addMembers(address[])": "infinite",
						"addressToMember(address)": "infinite",
						"balanceOf(address)": "infinite",
						"createOrder(address,address,uint256)": "infinite",
						"isMember(address)": "1589",
						"makeDecision(uint256,uint256)": "infinite",
						"memberCount()": "1152",
						"orderCounter()": "1217",
						"orderIdToOrder(uint256)": "infinite",
						"owner()": "1214",
						"walletId()": "1239"
					},
					"internal": {
						"addMember(address)": "infinite",
						"finalizeOrder(struct MultiSigWallet.Order storage pointer)": "infinite",
						"transfer(address,address,uint256)": "infinite"
					}
				},
				"methodIdentifiers": {
					"addMembers(address[])": "6f4d469b",
					"addressToMember(address)": "a4b08872",
					"balanceOf(address)": "70a08231",
					"createOrder(address,address,uint256)": "9a5d6a4a",
					"isMember(address)": "a230c524",
					"makeDecision(uint256,uint256)": "3ee79599",
					"memberCount()": "11aee380",
					"orderCounter()": "b789bf52",
					"orderIdToOrder(uint256)": "039935ff",
					"owner()": "8da5cb5b",
					"walletId()": "c162ba2f"
				}
			},
			"storageLayout": {
				"storage": [
					{
						"astId": 10,
						"contract": "contracts/MultiSigWallet.sol:MultiSigWallet",
						"label": "_status",
						"offset": 0,
						"slot": "0",
						"type": "t_uint256"
					},
					{
						"astId": 136,
						"contract": "contracts/MultiSigWallet.sol:MultiSigWallet",
						"label": "owner",
						"offset": 0,
						"slot": "1",
						"type": "t_address"
					},
					{
						"astId": 138,
						"contract": "contracts/MultiSigWallet.sol:MultiSigWallet",
						"label": "orderCounter",
						"offset": 0,
						"slot": "2",
						"type": "t_uint256"
					},
					{
						"astId": 140,
						"contract": "contracts/MultiSigWallet.sol:MultiSigWallet",
						"label": "walletId",
						"offset": 0,
						"slot": "3",
						"type": "t_uint256"
					},
					{
						"astId": 143,
						"contract": "contracts/MultiSigWallet.sol:MultiSigWallet",
						"label": "multiSigFactory",
						"offset": 0,
						"slot": "4",
						"type": "t_contract(IMultiSigFactory)127"
					},
					{
						"astId": 167,
						"contract": "contracts/MultiSigWallet.sol:MultiSigWallet",
						"label": "memberCount",
						"offset": 0,
						"slot": "5",
						"type": "t_uint256"
					},
					{
						"astId": 172,
						"contract": "contracts/MultiSigWallet.sol:MultiSigWallet",
						"label": "addressToMember",
						"offset": 0,
						"slot": "6",
						"type": "t_mapping(t_address,t_struct(Member)148_storage)"
					},
					{
						"astId": 176,
						"contract": "contracts/MultiSigWallet.sol:MultiSigWallet",
						"label": "isMember",
						"offset": 0,
						"slot": "7",
						"type": "t_mapping(t_address,t_bool)"
					},
					{
						"astId": 181,
						"contract": "contracts/MultiSigWallet.sol:MultiSigWallet",
						"label": "orderIdToOrder",
						"offset": 0,
						"slot": "8",
						"type": "t_mapping(t_uint256,t_struct(Order)165_storage)"
					},
					{
						"astId": 187,
						"contract": "contracts/MultiSigWallet.sol:MultiSigWallet",
						"label": "orderIdToAddressToDecision",
						"offset": 0,
						"slot": "9",
						"type": "t_mapping(t_uint256,t_mapping(t_address,t_uint256))"
					}
				],
				"types": {
					"t_address": {
						"encoding": "inplace",
						"label": "address",
						"numberOfBytes": "20"
					},
					"t_bool": {
						"encoding": "inplace",
						"label": "bool",
						"numberOfBytes": "1"
					},
					"t_contract(IMultiSigFactory)127": {
						"encoding": "inplace",
						"label": "contract IMultiSigFactory",
						"numberOfBytes": "20"
					},
					"t_mapping(t_address,t_bool)": {
						"encoding": "mapping",
						"key": "t_address",
						"label": "mapping(address => bool)",
						"numberOfBytes": "32",
						"value": "t_bool"
					},
					"t_mapping(t_address,t_struct(Member)148_storage)": {
						"encoding": "mapping",
						"key": "t_address",
						"label": "mapping(address => struct MultiSigWallet.Member)",
						"numberOfBytes": "32",
						"value": "t_struct(Member)148_storage"
					},
					"t_mapping(t_address,t_uint256)": {
						"encoding": "mapping",
						"key": "t_address",
						"label": "mapping(address => uint256)",
						"numberOfBytes": "32",
						"value": "t_uint256"
					},
					"t_mapping(t_uint256,t_mapping(t_address,t_uint256))": {
						"encoding": "mapping",
						"key": "t_uint256",
						"label": "mapping(uint256 => mapping(address => uint256))",
						"numberOfBytes": "32",
						"value": "t_mapping(t_address,t_uint256)"
					},
					"t_mapping(t_uint256,t_struct(Order)165_storage)": {
						"encoding": "mapping",
						"key": "t_uint256",
						"label": "mapping(uint256 => struct MultiSigWallet.Order)",
						"numberOfBytes": "32",
						"value": "t_struct(Order)165_storage"
					},
					"t_struct(Member)148_storage": {
						"encoding": "inplace",
						"label": "struct MultiSigWallet.Member",
						"members": [
							{
								"astId": 145,
								"contract": "contracts/MultiSigWallet.sol:MultiSigWallet",
								"label": "timeAdded",
								"offset": 0,
								"slot": "0",
								"type": "t_uint256"
							},
							{
								"astId": 147,
								"contract": "contracts/MultiSigWallet.sol:MultiSigWallet",
								"label": "walletAddress",
								"offset": 0,
								"slot": "1",
								"type": "t_address"
							}
						],
						"numberOfBytes": "64"
					},
					"t_struct(Order)165_storage": {
						"encoding": "inplace",
						"label": "struct MultiSigWallet.Order",
						"members": [
							{
								"astId": 150,
								"contract": "contracts/MultiSigWallet.sol:MultiSigWallet",
								"label": "creationTime",
								"offset": 0,
								"slot": "0",
								"type": "t_uint256"
							},
							{
								"astId": 152,
								"contract": "contracts/MultiSigWallet.sol:MultiSigWallet",
								"label": "tokenAddress",
								"offset": 0,
								"slot": "1",
								"type": "t_address"
							},
							{
								"astId": 154,
								"contract": "contracts/MultiSigWallet.sol:MultiSigWallet",
								"label": "toAddress",
								"offset": 0,
								"slot": "2",
								"type": "t_address"
							},
							{
								"astId": 156,
								"contract": "contracts/MultiSigWallet.sol:MultiSigWallet",
								"label": "amount",
								"offset": 0,
								"slot": "3",
								"type": "t_uint256"
							},
							{
								"astId": 158,
								"contract": "contracts/MultiSigWallet.sol:MultiSigWallet",
								"label": "numberOfAcceptance",
								"offset": 0,
								"slot": "4",
								"type": "t_uint256"
							},
							{
								"astId": 160,
								"contract": "contracts/MultiSigWallet.sol:MultiSigWallet",
								"label": "numberOfRejections",
								"offset": 0,
								"slot": "5",
								"type": "t_uint256"
							},
							{
								"astId": 162,
								"contract": "contracts/MultiSigWallet.sol:MultiSigWallet",
								"label": "minRequiredDecision",
								"offset": 0,
								"slot": "6",
								"type": "t_uint256"
							},
							{
								"astId": 164,
								"contract": "contracts/MultiSigWallet.sol:MultiSigWallet",
								"label": "finalDecision",
								"offset": 0,
								"slot": "7",
								"type": "t_uint256"
							}
						],
						"numberOfBytes": "256"
					},
					"t_uint256": {
						"encoding": "inplace",
						"label": "uint256",
						"numberOfBytes": "32"
					}
				}
			},
			"userdoc": {
				"kind": "user",
				"methods": {},
				"version": 1
			}
		}
	}
}