{
	"contracts/MultiSigFactory.sol": {
		"MultiSigFactory": {
			"abi": [
				{
					"inputs": [
						{
							"internalType": "uint256",
							"name": "_price",
							"type": "uint256"
						}
					],
					"stateMutability": "nonpayable",
					"type": "constructor"
				},
				{
					"inputs": [
						{
							"internalType": "uint256",
							"name": "walletId",
							"type": "uint256"
						},
						{
							"internalType": "address",
							"name": "member",
							"type": "address"
						}
					],
					"name": "addMember",
					"outputs": [],
					"stateMutability": "nonpayable",
					"type": "function"
				},
				{
					"inputs": [],
					"name": "createWallet",
					"outputs": [
						{
							"internalType": "uint256",
							"name": "walletId",
							"type": "uint256"
						}
					],
					"stateMutability": "payable",
					"type": "function"
				},
				{
					"inputs": [
						{
							"internalType": "address",
							"name": "",
							"type": "address"
						},
						{
							"internalType": "uint256",
							"name": "",
							"type": "uint256"
						}
					],
					"name": "memberToWalletIds",
					"outputs": [
						{
							"internalType": "uint256",
							"name": "",
							"type": "uint256"
						}
					],
					"stateMutability": "view",
					"type": "function"
				},
				{
					"inputs": [],
					"name": "owner",
					"outputs": [
						{
							"internalType": "address",
							"name": "",
							"type": "address"
						}
					],
					"stateMutability": "view",
					"type": "function"
				},
				{
					"inputs": [
						{
							"internalType": "uint256",
							"name": "",
							"type": "uint256"
						}
					],
					"name": "ownerOf",
					"outputs": [
						{
							"internalType": "address",
							"name": "",
							"type": "address"
						}
					],
					"stateMutability": "view",
					"type": "function"
				},
				{
					"inputs": [],
					"name": "price",
					"outputs": [
						{
							"internalType": "uint256",
							"name": "",
							"type": "uint256"
						}
					],
					"stateMutability": "view",
					"type": "function"
				},
				{
					"inputs": [
						{
							"internalType": "uint256",
							"name": "_price",
							"type": "uint256"
						}
					],
					"name": "setPrice",
					"outputs": [],
					"stateMutability": "nonpayable",
					"type": "function"
				},
				{
					"inputs": [],
					"name": "walletIdCounter",
					"outputs": [
						{
							"internalType": "uint256",
							"name": "",
							"type": "uint256"
						}
					],
					"stateMutability": "view",
					"type": "function"
				},
				{
					"inputs": [
						{
							"internalType": "uint256",
							"name": "",
							"type": "uint256"
						}
					],
					"name": "walletIdToWalletAddress",
					"outputs": [
						{
							"internalType": "address",
							"name": "",
							"type": "address"
						}
					],
					"stateMutability": "view",
					"type": "function"
				}
			],
			"devdoc": {
				"kind": "dev",
				"methods": {},
				"version": 1
			},
			"evm": {
				"assembly": "    /* \"contracts/MultiSigFactory.sol\":96:1404  contract MultiSigFactory {... */\n  mstore(0x40, 0x80)\n    /* \"contracts/MultiSigFactory.sol\":216:303  constructor(uint256 _price) {... */\n  callvalue\n  dup1\n  iszero\n  tag_1\n  jumpi\n  0x00\n  dup1\n  revert\ntag_1:\n  pop\n  mload(0x40)\n  sub(codesize, bytecodeSize)\n  dup1\n  bytecodeSize\n  dup4\n  codecopy\n  dup2\n  dup2\n  add\n  0x40\n  mstore\n  dup2\n  add\n  swap1\n  tag_2\n  swap2\n  swap1\n  tag_3\n  jump\t// in\ntag_2:\n    /* \"contracts/MultiSigFactory.sol\":262:272  msg.sender */\n  caller\n    /* \"contracts/MultiSigFactory.sol\":254:259  owner */\n  0x00\n  dup1\n    /* \"contracts/MultiSigFactory.sol\":254:272  owner = msg.sender */\n  0x0100\n  exp\n  dup2\n  sload\n  dup2\n  0xffffffffffffffffffffffffffffffffffffffff\n  mul\n  not\n  and\n  swap1\n  dup4\n  0xffffffffffffffffffffffffffffffffffffffff\n  and\n  mul\n  or\n  swap1\n  sstore\n  pop\n    /* \"contracts/MultiSigFactory.sol\":290:296  _price */\n  dup1\n    /* \"contracts/MultiSigFactory.sol\":282:287  price */\n  0x02\n    /* \"contracts/MultiSigFactory.sol\":282:296  price = _price */\n  dup2\n  swap1\n  sstore\n  pop\n    /* \"contracts/MultiSigFactory.sol\":216:303  constructor(uint256 _price) {... */\n  pop\n    /* \"contracts/MultiSigFactory.sol\":96:1404  contract MultiSigFactory {... */\n  jump(tag_6)\n    /* \"#utility.yul\":7:150   */\ntag_8:\n  0x00\n    /* \"#utility.yul\":95:101   */\n  dup2\n    /* \"#utility.yul\":89:102   */\n  mload\n    /* \"#utility.yul\":80:102   */\n  swap1\n  pop\n    /* \"#utility.yul\":111:144   */\n  tag_10\n    /* \"#utility.yul\":138:143   */\n  dup2\n    /* \"#utility.yul\":111:144   */\n  tag_11\n  jump\t// in\ntag_10:\n    /* \"#utility.yul\":70:150   */\n  swap3\n  swap2\n  pop\n  pop\n  jump\t// out\n    /* \"#utility.yul\":156:440   */\ntag_3:\n  0x00\n    /* \"#utility.yul\":275:277   */\n  0x20\n    /* \"#utility.yul\":263:272   */\n  dup3\n    /* \"#utility.yul\":254:261   */\n  dup5\n    /* \"#utility.yul\":250:273   */\n  sub\n    /* \"#utility.yul\":246:278   */\n  slt\n    /* \"#utility.yul\":243:245   */\n  iszero\n  tag_13\n  jumpi\n    /* \"#utility.yul\":291:292   */\n  0x00\n    /* \"#utility.yul\":288:289   */\n  dup1\n    /* \"#utility.yul\":281:293   */\n  revert\n    /* \"#utility.yul\":243:245   */\ntag_13:\n    /* \"#utility.yul\":334:335   */\n  0x00\n    /* \"#utility.yul\":359:423   */\n  tag_14\n    /* \"#utility.yul\":415:422   */\n  dup5\n    /* \"#utility.yul\":406:412   */\n  dup3\n    /* \"#utility.yul\":395:404   */\n  dup6\n    /* \"#utility.yul\":391:413   */\n  add\n    /* \"#utility.yul\":359:423   */\n  tag_8\n  jump\t// in\ntag_14:\n    /* \"#utility.yul\":349:423   */\n  swap2\n  pop\n    /* \"#utility.yul\":305:433   */\n  pop\n    /* \"#utility.yul\":233:440   */\n  swap3\n  swap2\n  pop\n  pop\n  jump\t// out\n    /* \"#utility.yul\":446:523   */\ntag_15:\n  0x00\n    /* \"#utility.yul\":512:517   */\n  dup2\n    /* \"#utility.yul\":501:517   */\n  swap1\n  pop\n    /* \"#utility.yul\":491:523   */\n  swap2\n  swap1\n  pop\n  jump\t// out\n    /* \"#utility.yul\":529:651   */\ntag_11:\n    /* \"#utility.yul\":602:626   */\n  tag_18\n    /* \"#utility.yul\":620:625   */\n  dup2\n    /* \"#utility.yul\":602:626   */\n  tag_15\n  jump\t// in\ntag_18:\n    /* \"#utility.yul\":595:600   */\n  dup2\n    /* \"#utility.yul\":592:627   */\n  eq\n    /* \"#utility.yul\":582:584   */\n  tag_19\n  jumpi\n    /* \"#utility.yul\":641:642   */\n  0x00\n    /* \"#utility.yul\":638:639   */\n  dup1\n    /* \"#utility.yul\":631:643   */\n  revert\n    /* \"#utility.yul\":582:584   */\ntag_19:\n    /* \"#utility.yul\":572:651   */\n  pop\n  jump\t// out\n    /* \"contracts/MultiSigFactory.sol\":96:1404  contract MultiSigFactory {... */\ntag_6:\n  dataSize(sub_0)\n  dup1\n  dataOffset(sub_0)\n  0x00\n  codecopy\n  0x00\n  return\nstop\n\nsub_0: assembly {\n        /* \"contracts/MultiSigFactory.sol\":96:1404  contract MultiSigFactory {... */\n      mstore(0x40, 0x80)\n      jumpi(tag_1, lt(calldatasize, 0x04))\n      shr(0xe0, calldataload(0x00))\n      dup1\n      0x74d0a676\n      gt\n      tag_11\n      jumpi\n      dup1\n      0x74d0a676\n      eq\n      tag_6\n      jumpi\n      dup1\n      0x7a1a6231\n      eq\n      tag_7\n      jumpi\n      dup1\n      0x8da5cb5b\n      eq\n      tag_8\n      jumpi\n      dup1\n      0x91b7f5ed\n      eq\n      tag_9\n      jumpi\n      dup1\n      0xa035b1fe\n      eq\n      tag_10\n      jumpi\n      jump(tag_1)\n    tag_11:\n      dup1\n      0x11ebbf24\n      eq\n      tag_2\n      jumpi\n      dup1\n      0x28403760\n      eq\n      tag_3\n      jumpi\n      dup1\n      0x3e5f5c86\n      eq\n      tag_4\n      jumpi\n      dup1\n      0x6352211e\n      eq\n      tag_5\n      jumpi\n    tag_1:\n      0x00\n      dup1\n      revert\n        /* \"contracts/MultiSigFactory.sol\":674:1157  function createWallet() public payable returns (uint256 walletId) {... */\n    tag_2:\n      tag_12\n      tag_13\n      jump\t// in\n    tag_12:\n      mload(0x40)\n      tag_14\n      swap2\n      swap1\n      tag_15\n      jump\t// in\n    tag_14:\n      mload(0x40)\n      dup1\n      swap2\n      sub\n      swap1\n      return\n        /* \"contracts/MultiSigFactory.sol\":413:471  mapping(uint256 => address) public walletIdToWalletAddress */\n    tag_3:\n      callvalue\n      dup1\n      iszero\n      tag_16\n      jumpi\n      0x00\n      dup1\n      revert\n    tag_16:\n      pop\n      tag_17\n      0x04\n      dup1\n      calldatasize\n      sub\n      dup2\n      add\n      swap1\n      tag_18\n      swap2\n      swap1\n      tag_19\n      jump\t// in\n    tag_18:\n      tag_20\n      jump\t// in\n    tag_17:\n      mload(0x40)\n      tag_21\n      swap2\n      swap1\n      tag_22\n      jump\t// in\n    tag_21:\n      mload(0x40)\n      dup1\n      swap2\n      sub\n      swap1\n      return\n        /* \"contracts/MultiSigFactory.sol\":525:579  mapping(address => uint256[]) public memberToWalletIds */\n    tag_4:\n      callvalue\n      dup1\n      iszero\n      tag_23\n      jumpi\n      0x00\n      dup1\n      revert\n    tag_23:\n      pop\n      tag_24\n      0x04\n      dup1\n      calldatasize\n      sub\n      dup2\n      add\n      swap1\n      tag_25\n      swap2\n      swap1\n      tag_26\n      jump\t// in\n    tag_25:\n      tag_27\n      jump\t// in\n    tag_24:\n      mload(0x40)\n      tag_28\n      swap2\n      swap1\n      tag_15\n      jump\t// in\n    tag_28:\n      mload(0x40)\n      dup1\n      swap2\n      sub\n      swap1\n      return\n        /* \"contracts/MultiSigFactory.sol\":477:519  mapping(uint256 => address) public ownerOf */\n    tag_5:\n      callvalue\n      dup1\n      iszero\n      tag_29\n      jumpi\n      0x00\n      dup1\n      revert\n    tag_29:\n      pop\n      tag_30\n      0x04\n      dup1\n      calldatasize\n      sub\n      dup2\n      add\n      swap1\n      tag_31\n      swap2\n      swap1\n      tag_19\n      jump\t// in\n    tag_31:\n      tag_32\n      jump\t// in\n    tag_30:\n      mload(0x40)\n      tag_33\n      swap2\n      swap1\n      tag_22\n      jump\t// in\n    tag_33:\n      mload(0x40)\n      dup1\n      swap2\n      sub\n      swap1\n      return\n        /* \"contracts/MultiSigFactory.sol\":1163:1402  function addMember(uint256 walletId, address member) public {... */\n    tag_6:\n      callvalue\n      dup1\n      iszero\n      tag_34\n      jumpi\n      0x00\n      dup1\n      revert\n    tag_34:\n      pop\n      tag_35\n      0x04\n      dup1\n      calldatasize\n      sub\n      dup2\n      add\n      swap1\n      tag_36\n      swap2\n      swap1\n      tag_37\n      jump\t// in\n    tag_36:\n      tag_38\n      jump\t// in\n    tag_35:\n      stop\n        /* \"contracts/MultiSigFactory.sol\":153:183  uint256 public walletIdCounter */\n    tag_7:\n      callvalue\n      dup1\n      iszero\n      tag_39\n      jumpi\n      0x00\n      dup1\n      revert\n    tag_39:\n      pop\n      tag_40\n      tag_41\n      jump\t// in\n    tag_40:\n      mload(0x40)\n      tag_42\n      swap2\n      swap1\n      tag_15\n      jump\t// in\n    tag_42:\n      mload(0x40)\n      dup1\n      swap2\n      sub\n      swap1\n      return\n        /* \"contracts/MultiSigFactory.sol\":127:147  address public owner */\n    tag_8:\n      callvalue\n      dup1\n      iszero\n      tag_43\n      jumpi\n      0x00\n      dup1\n      revert\n    tag_43:\n      pop\n      tag_44\n      tag_45\n      jump\t// in\n    tag_44:\n      mload(0x40)\n      tag_46\n      swap2\n      swap1\n      tag_22\n      jump\t// in\n    tag_46:\n      mload(0x40)\n      dup1\n      swap2\n      sub\n      swap1\n      return\n        /* \"contracts/MultiSigFactory.sol\":586:668  function setPrice(uint256 _price) public onlyOwner {... */\n    tag_9:\n      callvalue\n      dup1\n      iszero\n      tag_47\n      jumpi\n      0x00\n      dup1\n      revert\n    tag_47:\n      pop\n      tag_48\n      0x04\n      dup1\n      calldatasize\n      sub\n      dup2\n      add\n      swap1\n      tag_49\n      swap2\n      swap1\n      tag_19\n      jump\t// in\n    tag_49:\n      tag_50\n      jump\t// in\n    tag_48:\n      stop\n        /* \"contracts/MultiSigFactory.sol\":189:209  uint256 public price */\n    tag_10:\n      callvalue\n      dup1\n      iszero\n      tag_51\n      jumpi\n      0x00\n      dup1\n      revert\n    tag_51:\n      pop\n      tag_52\n      tag_53\n      jump\t// in\n    tag_52:\n      mload(0x40)\n      tag_54\n      swap2\n      swap1\n      tag_15\n      jump\t// in\n    tag_54:\n      mload(0x40)\n      dup1\n      swap2\n      sub\n      swap1\n      return\n        /* \"contracts/MultiSigFactory.sol\":674:1157  function createWallet() public payable returns (uint256 walletId) {... */\n    tag_13:\n        /* \"contracts/MultiSigFactory.sol\":722:738  uint256 walletId */\n      0x00\n        /* \"contracts/MultiSigFactory.sol\":771:776  price */\n      sload(0x02)\n        /* \"contracts/MultiSigFactory.sol\":758:767  msg.value */\n      callvalue\n        /* \"contracts/MultiSigFactory.sol\":758:776  msg.value == price */\n      eq\n        /* \"contracts/MultiSigFactory.sol\":750:808  require(msg.value == price, \"Insufficient payment amount\") */\n      tag_56\n      jumpi\n      mload(0x40)\n      0x08c379a000000000000000000000000000000000000000000000000000000000\n      dup2\n      mstore\n      0x04\n      add\n      tag_57\n      swap1\n      tag_58\n      jump\t// in\n    tag_57:\n      mload(0x40)\n      dup1\n      swap2\n      sub\n      swap1\n      revert\n    tag_56:\n        /* \"contracts/MultiSigFactory.sol\":818:833  walletIdCounter */\n      0x01\n      0x00\n        /* \"contracts/MultiSigFactory.sol\":818:835  walletIdCounter++ */\n      dup2\n      sload\n      dup1\n      swap3\n      swap2\n      swap1\n      tag_59\n      swap1\n      tag_60\n      jump\t// in\n    tag_59:\n      swap2\n      swap1\n      pop\n      sstore\n      pop\n        /* \"contracts/MultiSigFactory.sol\":845:877  MultiSigWallet newMultiSigWallet */\n      0x00\n        /* \"contracts/MultiSigFactory.sol\":912:922  msg.sender */\n      caller\n        /* \"contracts/MultiSigFactory.sol\":944:948  this */\n      address\n        /* \"contracts/MultiSigFactory.sol\":963:978  walletIdCounter */\n      sload(0x01)\n        /* \"contracts/MultiSigFactory.sol\":880:988  new MultiSigWallet(... */\n      mload(0x40)\n      tag_61\n      swap1\n      tag_62\n      jump\t// in\n    tag_61:\n      tag_63\n      swap4\n      swap3\n      swap2\n      swap1\n      tag_64\n      jump\t// in\n    tag_63:\n      mload(0x40)\n      dup1\n      swap2\n      sub\n      swap1\n      0x00\n      create\n      dup1\n      iszero\n      dup1\n      iszero\n      tag_65\n      jumpi\n      returndatasize\n      0x00\n      dup1\n      returndatacopy\n      revert(0x00, returndatasize)\n    tag_65:\n      pop\n        /* \"contracts/MultiSigFactory.sol\":845:988  MultiSigWallet newMultiSigWallet = new MultiSigWallet(... */\n      swap1\n      pop\n        /* \"contracts/MultiSigFactory.sol\":1049:1066  newMultiSigWallet */\n      dup1\n        /* \"contracts/MultiSigFactory.sol\":998:1021  walletIdToWalletAddress */\n      0x03\n        /* \"contracts/MultiSigFactory.sol\":998:1038  walletIdToWalletAddress[walletIdCounter] */\n      0x00\n        /* \"contracts/MultiSigFactory.sol\":1022:1037  walletIdCounter */\n      sload(0x01)\n        /* \"contracts/MultiSigFactory.sol\":998:1038  walletIdToWalletAddress[walletIdCounter] */\n      dup2\n      mstore\n      0x20\n      add\n      swap1\n      dup2\n      mstore\n      0x20\n      add\n      0x00\n      keccak256\n      0x00\n        /* \"contracts/MultiSigFactory.sol\":998:1067  walletIdToWalletAddress[walletIdCounter] = address(newMultiSigWallet) */\n      0x0100\n      exp\n      dup2\n      sload\n      dup2\n      0xffffffffffffffffffffffffffffffffffffffff\n      mul\n      not\n      and\n      swap1\n      dup4\n      0xffffffffffffffffffffffffffffffffffffffff\n      and\n      mul\n      or\n      swap1\n      sstore\n      pop\n        /* \"contracts/MultiSigFactory.sol\":1104:1114  msg.sender */\n      caller\n        /* \"contracts/MultiSigFactory.sol\":1077:1084  ownerOf */\n      0x04\n        /* \"contracts/MultiSigFactory.sol\":1077:1101  ownerOf[walletIdCounter] */\n      0x00\n        /* \"contracts/MultiSigFactory.sol\":1085:1100  walletIdCounter */\n      sload(0x01)\n        /* \"contracts/MultiSigFactory.sol\":1077:1101  ownerOf[walletIdCounter] */\n      dup2\n      mstore\n      0x20\n      add\n      swap1\n      dup2\n      mstore\n      0x20\n      add\n      0x00\n      keccak256\n      0x00\n        /* \"contracts/MultiSigFactory.sol\":1077:1114  ownerOf[walletIdCounter] = msg.sender */\n      0x0100\n      exp\n      dup2\n      sload\n      dup2\n      0xffffffffffffffffffffffffffffffffffffffff\n      mul\n      not\n      and\n      swap1\n      dup4\n      0xffffffffffffffffffffffffffffffffffffffff\n      and\n      mul\n      or\n      swap1\n      sstore\n      pop\n        /* \"contracts/MultiSigFactory.sol\":1135:1150  walletIdCounter */\n      sload(0x01)\n        /* \"contracts/MultiSigFactory.sol\":1124:1150  walletId = walletIdCounter */\n      swap2\n      pop\n        /* \"contracts/MultiSigFactory.sol\":674:1157  function createWallet() public payable returns (uint256 walletId) {... */\n      pop\n      swap1\n      jump\t// out\n        /* \"contracts/MultiSigFactory.sol\":413:471  mapping(uint256 => address) public walletIdToWalletAddress */\n    tag_20:\n      mstore(0x20, 0x03)\n      dup1\n      0x00\n      mstore\n      keccak256(0x00, 0x40)\n      0x00\n      swap2\n      pop\n      sload\n      swap1\n      0x0100\n      exp\n      swap1\n      div\n      0xffffffffffffffffffffffffffffffffffffffff\n      and\n      dup2\n      jump\t// out\n        /* \"contracts/MultiSigFactory.sol\":525:579  mapping(address => uint256[]) public memberToWalletIds */\n    tag_27:\n      mstore(0x20, 0x05)\n      dup2\n      0x00\n      mstore\n      keccak256(0x00, 0x40)\n      dup2\n      dup2\n      sload\n      dup2\n      lt\n      tag_66\n      jumpi\n      0x00\n      dup1\n      revert\n    tag_66:\n      swap1\n      0x00\n      mstore\n      keccak256(0x00, 0x20)\n      add\n      0x00\n      swap2\n      pop\n      swap2\n      pop\n      pop\n      sload\n      dup2\n      jump\t// out\n        /* \"contracts/MultiSigFactory.sol\":477:519  mapping(uint256 => address) public ownerOf */\n    tag_32:\n      mstore(0x20, 0x04)\n      dup1\n      0x00\n      mstore\n      keccak256(0x00, 0x40)\n      0x00\n      swap2\n      pop\n      sload\n      swap1\n      0x0100\n      exp\n      swap1\n      div\n      0xffffffffffffffffffffffffffffffffffffffff\n      and\n      dup2\n      jump\t// out\n        /* \"contracts/MultiSigFactory.sol\":1163:1402  function addMember(uint256 walletId, address member) public {... */\n    tag_38:\n        /* \"contracts/MultiSigFactory.sol\":1291:1301  msg.sender */\n      caller\n        /* \"contracts/MultiSigFactory.sol\":1254:1301  walletIdToWalletAddress[walletId] == msg.sender */\n      0xffffffffffffffffffffffffffffffffffffffff\n      and\n        /* \"contracts/MultiSigFactory.sol\":1254:1277  walletIdToWalletAddress */\n      0x03\n        /* \"contracts/MultiSigFactory.sol\":1254:1287  walletIdToWalletAddress[walletId] */\n      0x00\n        /* \"contracts/MultiSigFactory.sol\":1278:1286  walletId */\n      dup5\n        /* \"contracts/MultiSigFactory.sol\":1254:1287  walletIdToWalletAddress[walletId] */\n      dup2\n      mstore\n      0x20\n      add\n      swap1\n      dup2\n      mstore\n      0x20\n      add\n      0x00\n      keccak256\n      0x00\n      swap1\n      sload\n      swap1\n      0x0100\n      exp\n      swap1\n      div\n      0xffffffffffffffffffffffffffffffffffffffff\n      and\n        /* \"contracts/MultiSigFactory.sol\":1254:1301  walletIdToWalletAddress[walletId] == msg.sender */\n      0xffffffffffffffffffffffffffffffffffffffff\n      and\n      eq\n        /* \"contracts/MultiSigFactory.sol\":1233:1345  require(... */\n      tag_69\n      jumpi\n      mload(0x40)\n      0x08c379a000000000000000000000000000000000000000000000000000000000\n      dup2\n      mstore\n      0x04\n      add\n      tag_70\n      swap1\n      tag_71\n      jump\t// in\n    tag_70:\n      mload(0x40)\n      dup1\n      swap2\n      sub\n      swap1\n      revert\n    tag_69:\n        /* \"contracts/MultiSigFactory.sol\":1355:1372  memberToWalletIds */\n      0x05\n        /* \"contracts/MultiSigFactory.sol\":1355:1380  memberToWalletIds[member] */\n      0x00\n        /* \"contracts/MultiSigFactory.sol\":1373:1379  member */\n      dup3\n        /* \"contracts/MultiSigFactory.sol\":1355:1380  memberToWalletIds[member] */\n      0xffffffffffffffffffffffffffffffffffffffff\n      and\n      0xffffffffffffffffffffffffffffffffffffffff\n      and\n      dup2\n      mstore\n      0x20\n      add\n      swap1\n      dup2\n      mstore\n      0x20\n      add\n      0x00\n      keccak256\n        /* \"contracts/MultiSigFactory.sol\":1386:1394  walletId */\n      dup3\n        /* \"contracts/MultiSigFactory.sol\":1355:1395  memberToWalletIds[member].push(walletId) */\n      swap1\n      dup1\n      0x01\n      dup2\n      sload\n      add\n      dup1\n      dup3\n      sstore\n      dup1\n      swap2\n      pop\n      pop\n      0x01\n      swap1\n      sub\n      swap1\n      0x00\n      mstore\n      keccak256(0x00, 0x20)\n      add\n      0x00\n      swap1\n      swap2\n      swap1\n      swap2\n      swap1\n      swap2\n      pop\n      sstore\n        /* \"contracts/MultiSigFactory.sol\":1163:1402  function addMember(uint256 walletId, address member) public {... */\n      pop\n      pop\n      jump\t// out\n        /* \"contracts/MultiSigFactory.sol\":153:183  uint256 public walletIdCounter */\n    tag_41:\n      sload(0x01)\n      dup2\n      jump\t// out\n        /* \"contracts/MultiSigFactory.sol\":127:147  address public owner */\n    tag_45:\n      0x00\n      dup1\n      sload\n      swap1\n      0x0100\n      exp\n      swap1\n      div\n      0xffffffffffffffffffffffffffffffffffffffff\n      and\n      dup2\n      jump\t// out\n        /* \"contracts/MultiSigFactory.sol\":586:668  function setPrice(uint256 _price) public onlyOwner {... */\n    tag_50:\n        /* \"contracts/MultiSigFactory.sol\":357:367  msg.sender */\n      caller\n        /* \"contracts/MultiSigFactory.sol\":348:367  owner == msg.sender */\n      0xffffffffffffffffffffffffffffffffffffffff\n      and\n        /* \"contracts/MultiSigFactory.sol\":348:353  owner */\n      0x00\n      dup1\n      sload\n      swap1\n      0x0100\n      exp\n      swap1\n      div\n      0xffffffffffffffffffffffffffffffffffffffff\n      and\n        /* \"contracts/MultiSigFactory.sol\":348:367  owner == msg.sender */\n      0xffffffffffffffffffffffffffffffffffffffff\n      and\n      eq\n        /* \"contracts/MultiSigFactory.sol\":340:389  require(owner == msg.sender, \"Only owner method\") */\n      tag_74\n      jumpi\n      mload(0x40)\n      0x08c379a000000000000000000000000000000000000000000000000000000000\n      dup2\n      mstore\n      0x04\n      add\n      tag_75\n      swap1\n      tag_76\n      jump\t// in\n    tag_75:\n      mload(0x40)\n      dup1\n      swap2\n      sub\n      swap1\n      revert\n    tag_74:\n        /* \"contracts/MultiSigFactory.sol\":655:661  _price */\n      dup1\n        /* \"contracts/MultiSigFactory.sol\":647:652  price */\n      0x02\n        /* \"contracts/MultiSigFactory.sol\":647:661  price = _price */\n      dup2\n      swap1\n      sstore\n      pop\n        /* \"contracts/MultiSigFactory.sol\":586:668  function setPrice(uint256 _price) public onlyOwner {... */\n      pop\n      jump\t// out\n        /* \"contracts/MultiSigFactory.sol\":189:209  uint256 public price */\n    tag_53:\n      sload(0x02)\n      dup2\n      jump\t// out\n    tag_62:\n      dataSize(sub_0)\n      dup1\n      dataOffset(sub_0)\n      dup4\n      codecopy\n      add\n      swap1\n      jump\t// out\n        /* \"#utility.yul\":7:146   */\n    tag_79:\n      0x00\n        /* \"#utility.yul\":91:97   */\n      dup2\n        /* \"#utility.yul\":78:98   */\n      calldataload\n        /* \"#utility.yul\":69:98   */\n      swap1\n      pop\n        /* \"#utility.yul\":107:140   */\n      tag_81\n        /* \"#utility.yul\":134:139   */\n      dup2\n        /* \"#utility.yul\":107:140   */\n      tag_82\n      jump\t// in\n    tag_81:\n        /* \"#utility.yul\":59:146   */\n      swap3\n      swap2\n      pop\n      pop\n      jump\t// out\n        /* \"#utility.yul\":152:291   */\n    tag_83:\n      0x00\n        /* \"#utility.yul\":236:242   */\n      dup2\n        /* \"#utility.yul\":223:243   */\n      calldataload\n        /* \"#utility.yul\":214:243   */\n      swap1\n      pop\n        /* \"#utility.yul\":252:285   */\n      tag_85\n        /* \"#utility.yul\":279:284   */\n      dup2\n        /* \"#utility.yul\":252:285   */\n      tag_86\n      jump\t// in\n    tag_85:\n        /* \"#utility.yul\":204:291   */\n      swap3\n      swap2\n      pop\n      pop\n      jump\t// out\n        /* \"#utility.yul\":297:704   */\n    tag_26:\n      0x00\n      dup1\n        /* \"#utility.yul\":422:424   */\n      0x40\n        /* \"#utility.yul\":410:419   */\n      dup4\n        /* \"#utility.yul\":401:408   */\n      dup6\n        /* \"#utility.yul\":397:420   */\n      sub\n        /* \"#utility.yul\":393:425   */\n      slt\n        /* \"#utility.yul\":390:392   */\n      iszero\n      tag_88\n      jumpi\n        /* \"#utility.yul\":438:439   */\n      0x00\n        /* \"#utility.yul\":435:436   */\n      dup1\n        /* \"#utility.yul\":428:440   */\n      revert\n        /* \"#utility.yul\":390:392   */\n    tag_88:\n        /* \"#utility.yul\":481:482   */\n      0x00\n        /* \"#utility.yul\":506:559   */\n      tag_89\n        /* \"#utility.yul\":551:558   */\n      dup6\n        /* \"#utility.yul\":542:548   */\n      dup3\n        /* \"#utility.yul\":531:540   */\n      dup7\n        /* \"#utility.yul\":527:549   */\n      add\n        /* \"#utility.yul\":506:559   */\n      tag_79\n      jump\t// in\n    tag_89:\n        /* \"#utility.yul\":496:559   */\n      swap3\n      pop\n        /* \"#utility.yul\":452:569   */\n      pop\n        /* \"#utility.yul\":608:610   */\n      0x20\n        /* \"#utility.yul\":634:687   */\n      tag_90\n        /* \"#utility.yul\":679:686   */\n      dup6\n        /* \"#utility.yul\":670:676   */\n      dup3\n        /* \"#utility.yul\":659:668   */\n      dup7\n        /* \"#utility.yul\":655:677   */\n      add\n        /* \"#utility.yul\":634:687   */\n      tag_83\n      jump\t// in\n    tag_90:\n        /* \"#utility.yul\":624:687   */\n      swap2\n      pop\n        /* \"#utility.yul\":579:697   */\n      pop\n        /* \"#utility.yul\":380:704   */\n      swap3\n      pop\n      swap3\n      swap1\n      pop\n      jump\t// out\n        /* \"#utility.yul\":710:972   */\n    tag_19:\n      0x00\n        /* \"#utility.yul\":818:820   */\n      0x20\n        /* \"#utility.yul\":806:815   */\n      dup3\n        /* \"#utility.yul\":797:804   */\n      dup5\n        /* \"#utility.yul\":793:816   */\n      sub\n        /* \"#utility.yul\":789:821   */\n      slt\n        /* \"#utility.yul\":786:788   */\n      iszero\n      tag_92\n      jumpi\n        /* \"#utility.yul\":834:835   */\n      0x00\n        /* \"#utility.yul\":831:832   */\n      dup1\n        /* \"#utility.yul\":824:836   */\n      revert\n        /* \"#utility.yul\":786:788   */\n    tag_92:\n        /* \"#utility.yul\":877:878   */\n      0x00\n        /* \"#utility.yul\":902:955   */\n      tag_93\n        /* \"#utility.yul\":947:954   */\n      dup5\n        /* \"#utility.yul\":938:944   */\n      dup3\n        /* \"#utility.yul\":927:936   */\n      dup6\n        /* \"#utility.yul\":923:945   */\n      add\n        /* \"#utility.yul\":902:955   */\n      tag_83\n      jump\t// in\n    tag_93:\n        /* \"#utility.yul\":892:955   */\n      swap2\n      pop\n        /* \"#utility.yul\":848:965   */\n      pop\n        /* \"#utility.yul\":776:972   */\n      swap3\n      swap2\n      pop\n      pop\n      jump\t// out\n        /* \"#utility.yul\":978:1385   */\n    tag_37:\n      0x00\n      dup1\n        /* \"#utility.yul\":1103:1105   */\n      0x40\n        /* \"#utility.yul\":1091:1100   */\n      dup4\n        /* \"#utility.yul\":1082:1089   */\n      dup6\n        /* \"#utility.yul\":1078:1101   */\n      sub\n        /* \"#utility.yul\":1074:1106   */\n      slt\n        /* \"#utility.yul\":1071:1073   */\n      iszero\n      tag_95\n      jumpi\n        /* \"#utility.yul\":1119:1120   */\n      0x00\n        /* \"#utility.yul\":1116:1117   */\n      dup1\n        /* \"#utility.yul\":1109:1121   */\n      revert\n        /* \"#utility.yul\":1071:1073   */\n    tag_95:\n        /* \"#utility.yul\":1162:1163   */\n      0x00\n        /* \"#utility.yul\":1187:1240   */\n      tag_96\n        /* \"#utility.yul\":1232:1239   */\n      dup6\n        /* \"#utility.yul\":1223:1229   */\n      dup3\n        /* \"#utility.yul\":1212:1221   */\n      dup7\n        /* \"#utility.yul\":1208:1230   */\n      add\n        /* \"#utility.yul\":1187:1240   */\n      tag_83\n      jump\t// in\n    tag_96:\n        /* \"#utility.yul\":1177:1240   */\n      swap3\n      pop\n        /* \"#utility.yul\":1133:1250   */\n      pop\n        /* \"#utility.yul\":1289:1291   */\n      0x20\n        /* \"#utility.yul\":1315:1368   */\n      tag_97\n        /* \"#utility.yul\":1360:1367   */\n      dup6\n        /* \"#utility.yul\":1351:1357   */\n      dup3\n        /* \"#utility.yul\":1340:1349   */\n      dup7\n        /* \"#utility.yul\":1336:1358   */\n      add\n        /* \"#utility.yul\":1315:1368   */\n      tag_79\n      jump\t// in\n    tag_97:\n        /* \"#utility.yul\":1305:1368   */\n      swap2\n      pop\n        /* \"#utility.yul\":1260:1378   */\n      pop\n        /* \"#utility.yul\":1061:1385   */\n      swap3\n      pop\n      swap3\n      swap1\n      pop\n      jump\t// out\n        /* \"#utility.yul\":1391:1509   */\n    tag_98:\n        /* \"#utility.yul\":1478:1502   */\n      tag_100\n        /* \"#utility.yul\":1496:1501   */\n      dup2\n        /* \"#utility.yul\":1478:1502   */\n      tag_101\n      jump\t// in\n    tag_100:\n        /* \"#utility.yul\":1473:1476   */\n      dup3\n        /* \"#utility.yul\":1466:1503   */\n      mstore\n        /* \"#utility.yul\":1456:1509   */\n      pop\n      pop\n      jump\t// out\n        /* \"#utility.yul\":1515:1831   */\n    tag_102:\n      0x00\n        /* \"#utility.yul\":1678:1745   */\n      tag_104\n        /* \"#utility.yul\":1742:1744   */\n      0x12\n        /* \"#utility.yul\":1737:1740   */\n      dup4\n        /* \"#utility.yul\":1678:1745   */\n      tag_105\n      jump\t// in\n    tag_104:\n        /* \"#utility.yul\":1671:1745   */\n      swap2\n      pop\n        /* \"#utility.yul\":1775:1795   */\n      0x4f6e6c792077616c6c6574206d6574686f640000000000000000000000000000\n        /* \"#utility.yul\":1771:1772   */\n      0x00\n        /* \"#utility.yul\":1766:1769   */\n      dup4\n        /* \"#utility.yul\":1762:1773   */\n      add\n        /* \"#utility.yul\":1755:1796   */\n      mstore\n        /* \"#utility.yul\":1822:1824   */\n      0x20\n        /* \"#utility.yul\":1817:1820   */\n      dup3\n        /* \"#utility.yul\":1813:1825   */\n      add\n        /* \"#utility.yul\":1806:1825   */\n      swap1\n      pop\n        /* \"#utility.yul\":1661:1831   */\n      swap2\n      swap1\n      pop\n      jump\t// out\n        /* \"#utility.yul\":1837:2152   */\n    tag_106:\n      0x00\n        /* \"#utility.yul\":2000:2067   */\n      tag_108\n        /* \"#utility.yul\":2064:2066   */\n      0x11\n        /* \"#utility.yul\":2059:2062   */\n      dup4\n        /* \"#utility.yul\":2000:2067   */\n      tag_105\n      jump\t// in\n    tag_108:\n        /* \"#utility.yul\":1993:2067   */\n      swap2\n      pop\n        /* \"#utility.yul\":2097:2116   */\n      0x4f6e6c79206f776e6572206d6574686f64000000000000000000000000000000\n        /* \"#utility.yul\":2093:2094   */\n      0x00\n        /* \"#utility.yul\":2088:2091   */\n      dup4\n        /* \"#utility.yul\":2084:2095   */\n      add\n        /* \"#utility.yul\":2077:2117   */\n      mstore\n        /* \"#utility.yul\":2143:2145   */\n      0x20\n        /* \"#utility.yul\":2138:2141   */\n      dup3\n        /* \"#utility.yul\":2134:2146   */\n      add\n        /* \"#utility.yul\":2127:2146   */\n      swap1\n      pop\n        /* \"#utility.yul\":1983:2152   */\n      swap2\n      swap1\n      pop\n      jump\t// out\n        /* \"#utility.yul\":2158:2483   */\n    tag_109:\n      0x00\n        /* \"#utility.yul\":2321:2388   */\n      tag_111\n        /* \"#utility.yul\":2385:2387   */\n      0x1b\n        /* \"#utility.yul\":2380:2383   */\n      dup4\n        /* \"#utility.yul\":2321:2388   */\n      tag_105\n      jump\t// in\n    tag_111:\n        /* \"#utility.yul\":2314:2388   */\n      swap2\n      pop\n        /* \"#utility.yul\":2418:2447   */\n      0x496e73756666696369656e74207061796d656e7420616d6f756e740000000000\n        /* \"#utility.yul\":2414:2415   */\n      0x00\n        /* \"#utility.yul\":2409:2412   */\n      dup4\n        /* \"#utility.yul\":2405:2416   */\n      add\n        /* \"#utility.yul\":2398:2448   */\n      mstore\n        /* \"#utility.yul\":2474:2476   */\n      0x20\n        /* \"#utility.yul\":2469:2472   */\n      dup3\n        /* \"#utility.yul\":2465:2477   */\n      add\n        /* \"#utility.yul\":2458:2477   */\n      swap1\n      pop\n        /* \"#utility.yul\":2304:2483   */\n      swap2\n      swap1\n      pop\n      jump\t// out\n        /* \"#utility.yul\":2489:2607   */\n    tag_112:\n        /* \"#utility.yul\":2576:2600   */\n      tag_114\n        /* \"#utility.yul\":2594:2599   */\n      dup2\n        /* \"#utility.yul\":2576:2600   */\n      tag_115\n      jump\t// in\n    tag_114:\n        /* \"#utility.yul\":2571:2574   */\n      dup3\n        /* \"#utility.yul\":2564:2601   */\n      mstore\n        /* \"#utility.yul\":2554:2607   */\n      pop\n      pop\n      jump\t// out\n        /* \"#utility.yul\":2613:2835   */\n    tag_22:\n      0x00\n        /* \"#utility.yul\":2744:2746   */\n      0x20\n        /* \"#utility.yul\":2733:2742   */\n      dup3\n        /* \"#utility.yul\":2729:2747   */\n      add\n        /* \"#utility.yul\":2721:2747   */\n      swap1\n      pop\n        /* \"#utility.yul\":2757:2828   */\n      tag_117\n        /* \"#utility.yul\":2825:2826   */\n      0x00\n        /* \"#utility.yul\":2814:2823   */\n      dup4\n        /* \"#utility.yul\":2810:2827   */\n      add\n        /* \"#utility.yul\":2801:2807   */\n      dup5\n        /* \"#utility.yul\":2757:2828   */\n      tag_98\n      jump\t// in\n    tag_117:\n        /* \"#utility.yul\":2711:2835   */\n      swap3\n      swap2\n      pop\n      pop\n      jump\t// out\n        /* \"#utility.yul\":2841:3283   */\n    tag_64:\n      0x00\n        /* \"#utility.yul\":3028:3030   */\n      0x60\n        /* \"#utility.yul\":3017:3026   */\n      dup3\n        /* \"#utility.yul\":3013:3031   */\n      add\n        /* \"#utility.yul\":3005:3031   */\n      swap1\n      pop\n        /* \"#utility.yul\":3041:3112   */\n      tag_119\n        /* \"#utility.yul\":3109:3110   */\n      0x00\n        /* \"#utility.yul\":3098:3107   */\n      dup4\n        /* \"#utility.yul\":3094:3111   */\n      add\n        /* \"#utility.yul\":3085:3091   */\n      dup7\n        /* \"#utility.yul\":3041:3112   */\n      tag_98\n      jump\t// in\n    tag_119:\n        /* \"#utility.yul\":3122:3194   */\n      tag_120\n        /* \"#utility.yul\":3190:3192   */\n      0x20\n        /* \"#utility.yul\":3179:3188   */\n      dup4\n        /* \"#utility.yul\":3175:3193   */\n      add\n        /* \"#utility.yul\":3166:3172   */\n      dup6\n        /* \"#utility.yul\":3122:3194   */\n      tag_98\n      jump\t// in\n    tag_120:\n        /* \"#utility.yul\":3204:3276   */\n      tag_121\n        /* \"#utility.yul\":3272:3274   */\n      0x40\n        /* \"#utility.yul\":3261:3270   */\n      dup4\n        /* \"#utility.yul\":3257:3275   */\n      add\n        /* \"#utility.yul\":3248:3254   */\n      dup5\n        /* \"#utility.yul\":3204:3276   */\n      tag_112\n      jump\t// in\n    tag_121:\n        /* \"#utility.yul\":2995:3283   */\n      swap5\n      swap4\n      pop\n      pop\n      pop\n      pop\n      jump\t// out\n        /* \"#utility.yul\":3289:3708   */\n    tag_71:\n      0x00\n        /* \"#utility.yul\":3493:3495   */\n      0x20\n        /* \"#utility.yul\":3482:3491   */\n      dup3\n        /* \"#utility.yul\":3478:3496   */\n      add\n        /* \"#utility.yul\":3470:3496   */\n      swap1\n      pop\n        /* \"#utility.yul\":3542:3551   */\n      dup2\n        /* \"#utility.yul\":3536:3540   */\n      dup2\n        /* \"#utility.yul\":3532:3552   */\n      sub\n        /* \"#utility.yul\":3528:3529   */\n      0x00\n        /* \"#utility.yul\":3517:3526   */\n      dup4\n        /* \"#utility.yul\":3513:3530   */\n      add\n        /* \"#utility.yul\":3506:3553   */\n      mstore\n        /* \"#utility.yul\":3570:3701   */\n      tag_123\n        /* \"#utility.yul\":3696:3700   */\n      dup2\n        /* \"#utility.yul\":3570:3701   */\n      tag_102\n      jump\t// in\n    tag_123:\n        /* \"#utility.yul\":3562:3701   */\n      swap1\n      pop\n        /* \"#utility.yul\":3460:3708   */\n      swap2\n      swap1\n      pop\n      jump\t// out\n        /* \"#utility.yul\":3714:4133   */\n    tag_76:\n      0x00\n        /* \"#utility.yul\":3918:3920   */\n      0x20\n        /* \"#utility.yul\":3907:3916   */\n      dup3\n        /* \"#utility.yul\":3903:3921   */\n      add\n        /* \"#utility.yul\":3895:3921   */\n      swap1\n      pop\n        /* \"#utility.yul\":3967:3976   */\n      dup2\n        /* \"#utility.yul\":3961:3965   */\n      dup2\n        /* \"#utility.yul\":3957:3977   */\n      sub\n        /* \"#utility.yul\":3953:3954   */\n      0x00\n        /* \"#utility.yul\":3942:3951   */\n      dup4\n        /* \"#utility.yul\":3938:3955   */\n      add\n        /* \"#utility.yul\":3931:3978   */\n      mstore\n        /* \"#utility.yul\":3995:4126   */\n      tag_125\n        /* \"#utility.yul\":4121:4125   */\n      dup2\n        /* \"#utility.yul\":3995:4126   */\n      tag_106\n      jump\t// in\n    tag_125:\n        /* \"#utility.yul\":3987:4126   */\n      swap1\n      pop\n        /* \"#utility.yul\":3885:4133   */\n      swap2\n      swap1\n      pop\n      jump\t// out\n        /* \"#utility.yul\":4139:4558   */\n    tag_58:\n      0x00\n        /* \"#utility.yul\":4343:4345   */\n      0x20\n        /* \"#utility.yul\":4332:4341   */\n      dup3\n        /* \"#utility.yul\":4328:4346   */\n      add\n        /* \"#utility.yul\":4320:4346   */\n      swap1\n      pop\n        /* \"#utility.yul\":4392:4401   */\n      dup2\n        /* \"#utility.yul\":4386:4390   */\n      dup2\n        /* \"#utility.yul\":4382:4402   */\n      sub\n        /* \"#utility.yul\":4378:4379   */\n      0x00\n        /* \"#utility.yul\":4367:4376   */\n      dup4\n        /* \"#utility.yul\":4363:4380   */\n      add\n        /* \"#utility.yul\":4356:4403   */\n      mstore\n        /* \"#utility.yul\":4420:4551   */\n      tag_127\n        /* \"#utility.yul\":4546:4550   */\n      dup2\n        /* \"#utility.yul\":4420:4551   */\n      tag_109\n      jump\t// in\n    tag_127:\n        /* \"#utility.yul\":4412:4551   */\n      swap1\n      pop\n        /* \"#utility.yul\":4310:4558   */\n      swap2\n      swap1\n      pop\n      jump\t// out\n        /* \"#utility.yul\":4564:4786   */\n    tag_15:\n      0x00\n        /* \"#utility.yul\":4695:4697   */\n      0x20\n        /* \"#utility.yul\":4684:4693   */\n      dup3\n        /* \"#utility.yul\":4680:4698   */\n      add\n        /* \"#utility.yul\":4672:4698   */\n      swap1\n      pop\n        /* \"#utility.yul\":4708:4779   */\n      tag_129\n        /* \"#utility.yul\":4776:4777   */\n      0x00\n        /* \"#utility.yul\":4765:4774   */\n      dup4\n        /* \"#utility.yul\":4761:4778   */\n      add\n        /* \"#utility.yul\":4752:4758   */\n      dup5\n        /* \"#utility.yul\":4708:4779   */\n      tag_112\n      jump\t// in\n    tag_129:\n        /* \"#utility.yul\":4662:4786   */\n      swap3\n      swap2\n      pop\n      pop\n      jump\t// out\n        /* \"#utility.yul\":4792:4961   */\n    tag_105:\n      0x00\n        /* \"#utility.yul\":4910:4916   */\n      dup3\n        /* \"#utility.yul\":4905:4908   */\n      dup3\n        /* \"#utility.yul\":4898:4917   */\n      mstore\n        /* \"#utility.yul\":4950:4954   */\n      0x20\n        /* \"#utility.yul\":4945:4948   */\n      dup3\n        /* \"#utility.yul\":4941:4955   */\n      add\n        /* \"#utility.yul\":4926:4955   */\n      swap1\n      pop\n        /* \"#utility.yul\":4888:4961   */\n      swap3\n      swap2\n      pop\n      pop\n      jump\t// out\n        /* \"#utility.yul\":4967:5063   */\n    tag_101:\n      0x00\n        /* \"#utility.yul\":5033:5057   */\n      tag_132\n        /* \"#utility.yul\":5051:5056   */\n      dup3\n        /* \"#utility.yul\":5033:5057   */\n      tag_133\n      jump\t// in\n    tag_132:\n        /* \"#utility.yul\":5022:5057   */\n      swap1\n      pop\n        /* \"#utility.yul\":5012:5063   */\n      swap2\n      swap1\n      pop\n      jump\t// out\n        /* \"#utility.yul\":5069:5195   */\n    tag_133:\n      0x00\n        /* \"#utility.yul\":5146:5188   */\n      0xffffffffffffffffffffffffffffffffffffffff\n        /* \"#utility.yul\":5139:5144   */\n      dup3\n        /* \"#utility.yul\":5135:5189   */\n      and\n        /* \"#utility.yul\":5124:5189   */\n      swap1\n      pop\n        /* \"#utility.yul\":5114:5195   */\n      swap2\n      swap1\n      pop\n      jump\t// out\n        /* \"#utility.yul\":5201:5278   */\n    tag_115:\n      0x00\n        /* \"#utility.yul\":5267:5272   */\n      dup2\n        /* \"#utility.yul\":5256:5272   */\n      swap1\n      pop\n        /* \"#utility.yul\":5246:5278   */\n      swap2\n      swap1\n      pop\n      jump\t// out\n        /* \"#utility.yul\":5284:5517   */\n    tag_60:\n      0x00\n        /* \"#utility.yul\":5346:5370   */\n      tag_137\n        /* \"#utility.yul\":5364:5369   */\n      dup3\n        /* \"#utility.yul\":5346:5370   */\n      tag_115\n      jump\t// in\n    tag_137:\n        /* \"#utility.yul\":5337:5370   */\n      swap2\n      pop\n        /* \"#utility.yul\":5392:5458   */\n      0xffffffffffffffffffffffffffffffffffffffffffffffffffffffffffffffff\n        /* \"#utility.yul\":5385:5390   */\n      dup3\n        /* \"#utility.yul\":5382:5459   */\n      eq\n        /* \"#utility.yul\":5379:5381   */\n      iszero\n      tag_138\n      jumpi\n        /* \"#utility.yul\":5462:5480   */\n      tag_139\n      tag_140\n      jump\t// in\n    tag_139:\n        /* \"#utility.yul\":5379:5381   */\n    tag_138:\n        /* \"#utility.yul\":5509:5510   */\n      0x01\n        /* \"#utility.yul\":5502:5507   */\n      dup3\n        /* \"#utility.yul\":5498:5511   */\n      add\n        /* \"#utility.yul\":5491:5511   */\n      swap1\n      pop\n        /* \"#utility.yul\":5327:5517   */\n      swap2\n      swap1\n      pop\n      jump\t// out\n        /* \"#utility.yul\":5523:5703   */\n    tag_140:\n        /* \"#utility.yul\":5571:5648   */\n      0x4e487b7100000000000000000000000000000000000000000000000000000000\n        /* \"#utility.yul\":5568:5569   */\n      0x00\n        /* \"#utility.yul\":5561:5649   */\n      mstore\n        /* \"#utility.yul\":5668:5672   */\n      0x11\n        /* \"#utility.yul\":5665:5666   */\n      0x04\n        /* \"#utility.yul\":5658:5673   */\n      mstore\n        /* \"#utility.yul\":5692:5696   */\n      0x24\n        /* \"#utility.yul\":5689:5690   */\n      0x00\n        /* \"#utility.yul\":5682:5697   */\n      revert\n        /* \"#utility.yul\":5709:5831   */\n    tag_82:\n        /* \"#utility.yul\":5782:5806   */\n      tag_143\n        /* \"#utility.yul\":5800:5805   */\n      dup2\n        /* \"#utility.yul\":5782:5806   */\n      tag_101\n      jump\t// in\n    tag_143:\n        /* \"#utility.yul\":5775:5780   */\n      dup2\n        /* \"#utility.yul\":5772:5807   */\n      eq\n        /* \"#utility.yul\":5762:5764   */\n      tag_144\n      jumpi\n        /* \"#utility.yul\":5821:5822   */\n      0x00\n        /* \"#utility.yul\":5818:5819   */\n      dup1\n        /* \"#utility.yul\":5811:5823   */\n      revert\n        /* \"#utility.yul\":5762:5764   */\n    tag_144:\n        /* \"#utility.yul\":5752:5831   */\n      pop\n      jump\t// out\n        /* \"#utility.yul\":5837:5959   */\n    tag_86:\n        /* \"#utility.yul\":5910:5934   */\n      tag_146\n        /* \"#utility.yul\":5928:5933   */\n      dup2\n        /* \"#utility.yul\":5910:5934   */\n      tag_115\n      jump\t// in\n    tag_146:\n        /* \"#utility.yul\":5903:5908   */\n      dup2\n        /* \"#utility.yul\":5900:5935   */\n      eq\n        /* \"#utility.yul\":5890:5892   */\n      tag_147\n      jumpi\n        /* \"#utility.yul\":5949:5950   */\n      0x00\n        /* \"#utility.yul\":5946:5947   */\n      dup1\n        /* \"#utility.yul\":5939:5951   */\n      revert\n        /* \"#utility.yul\":5890:5892   */\n    tag_147:\n        /* \"#utility.yul\":5880:5959   */\n      pop\n      jump\t// out\n    stop\n\n    sub_0: assembly {\n            /* \"contracts/MultiSigWallet.sol\":229:3969  contract MultiSigWallet is ReentrancyGuard {... */\n          mstore(0x40, 0x80)\n            /* \"contracts/MultiSigWallet.sol\":1085:1309  constructor(... */\n          callvalue\n          dup1\n          iszero\n          tag_1\n          jumpi\n          0x00\n          dup1\n          revert\n        tag_1:\n          pop\n          mload(0x40)\n          sub(codesize, bytecodeSize)\n          dup1\n          bytecodeSize\n          dup4\n          codecopy\n          dup2\n          dup2\n          add\n          0x40\n          mstore\n          dup2\n          add\n          swap1\n          tag_2\n          swap2\n          swap1\n          tag_3\n          jump\t// in\n        tag_2:\n            /* \"@openzeppelin/contracts/security/ReentrancyGuard.sol\":1701:1702  1 */\n          0x01\n            /* \"@openzeppelin/contracts/security/ReentrancyGuard.sol\":1806:1813  _status */\n          0x00\n            /* \"@openzeppelin/contracts/security/ReentrancyGuard.sol\":1806:1828  _status = _NOT_ENTERED */\n          dup2\n          swap1\n          sstore\n          pop\n            /* \"contracts/MultiSigWallet.sol\":1205:1211  _owner */\n          dup3\n            /* \"contracts/MultiSigWallet.sol\":1197:1202  owner */\n          0x01\n          0x00\n            /* \"contracts/MultiSigWallet.sol\":1197:1211  owner = _owner */\n          0x0100\n          exp\n          dup2\n          sload\n          dup2\n          0xffffffffffffffffffffffffffffffffffffffff\n          mul\n          not\n          and\n          swap1\n          dup4\n          0xffffffffffffffffffffffffffffffffffffffff\n          and\n          mul\n          or\n          swap1\n          sstore\n          pop\n            /* \"contracts/MultiSigWallet.sol\":1256:1271  _factoryAddress */\n          dup2\n            /* \"contracts/MultiSigWallet.sol\":1221:1236  multiSigFactory */\n          0x04\n          0x00\n            /* \"contracts/MultiSigWallet.sol\":1221:1272  multiSigFactory = IMultiSigFactory(_factoryAddress) */\n          0x0100\n          exp\n          dup2\n          sload\n          dup2\n          0xffffffffffffffffffffffffffffffffffffffff\n          mul\n          not\n          and\n          swap1\n          dup4\n          0xffffffffffffffffffffffffffffffffffffffff\n          and\n          mul\n          or\n          swap1\n          sstore\n          pop\n            /* \"contracts/MultiSigWallet.sol\":1293:1302  _walletId */\n          dup1\n            /* \"contracts/MultiSigWallet.sol\":1282:1290  walletId */\n          0x03\n            /* \"contracts/MultiSigWallet.sol\":1282:1302  walletId = _walletId */\n          dup2\n          swap1\n          sstore\n          pop\n            /* \"contracts/MultiSigWallet.sol\":1085:1309  constructor(... */\n          pop\n          pop\n          pop\n            /* \"contracts/MultiSigWallet.sol\":229:3969  contract MultiSigWallet is ReentrancyGuard {... */\n          jump(tag_8)\n            /* \"#utility.yul\":7:150   */\n        tag_10:\n          0x00\n            /* \"#utility.yul\":95:101   */\n          dup2\n            /* \"#utility.yul\":89:102   */\n          mload\n            /* \"#utility.yul\":80:102   */\n          swap1\n          pop\n            /* \"#utility.yul\":111:144   */\n          tag_12\n            /* \"#utility.yul\":138:143   */\n          dup2\n            /* \"#utility.yul\":111:144   */\n          tag_13\n          jump\t// in\n        tag_12:\n            /* \"#utility.yul\":70:150   */\n          swap3\n          swap2\n          pop\n          pop\n          jump\t// out\n            /* \"#utility.yul\":156:299   */\n        tag_14:\n          0x00\n            /* \"#utility.yul\":244:250   */\n          dup2\n            /* \"#utility.yul\":238:251   */\n          mload\n            /* \"#utility.yul\":229:251   */\n          swap1\n          pop\n            /* \"#utility.yul\":260:293   */\n          tag_16\n            /* \"#utility.yul\":287:292   */\n          dup2\n            /* \"#utility.yul\":260:293   */\n          tag_17\n          jump\t// in\n        tag_16:\n            /* \"#utility.yul\":219:299   */\n          swap3\n          swap2\n          pop\n          pop\n          jump\t// out\n            /* \"#utility.yul\":305:901   */\n        tag_3:\n          0x00\n          dup1\n          0x00\n            /* \"#utility.yul\":458:460   */\n          0x60\n            /* \"#utility.yul\":446:455   */\n          dup5\n            /* \"#utility.yul\":437:444   */\n          dup7\n            /* \"#utility.yul\":433:456   */\n          sub\n            /* \"#utility.yul\":429:461   */\n          slt\n            /* \"#utility.yul\":426:428   */\n          iszero\n          tag_19\n          jumpi\n            /* \"#utility.yul\":474:475   */\n          0x00\n            /* \"#utility.yul\":471:472   */\n          dup1\n            /* \"#utility.yul\":464:476   */\n          revert\n            /* \"#utility.yul\":426:428   */\n        tag_19:\n            /* \"#utility.yul\":517:518   */\n          0x00\n            /* \"#utility.yul\":542:606   */\n          tag_20\n            /* \"#utility.yul\":598:605   */\n          dup7\n            /* \"#utility.yul\":589:595   */\n          dup3\n            /* \"#utility.yul\":578:587   */\n          dup8\n            /* \"#utility.yul\":574:596   */\n          add\n            /* \"#utility.yul\":542:606   */\n          tag_10\n          jump\t// in\n        tag_20:\n            /* \"#utility.yul\":532:606   */\n          swap4\n          pop\n            /* \"#utility.yul\":488:616   */\n          pop\n            /* \"#utility.yul\":655:657   */\n          0x20\n            /* \"#utility.yul\":681:745   */\n          tag_21\n            /* \"#utility.yul\":737:744   */\n          dup7\n            /* \"#utility.yul\":728:734   */\n          dup3\n            /* \"#utility.yul\":717:726   */\n          dup8\n            /* \"#utility.yul\":713:735   */\n          add\n            /* \"#utility.yul\":681:745   */\n          tag_10\n          jump\t// in\n        tag_21:\n            /* \"#utility.yul\":671:745   */\n          swap3\n          pop\n            /* \"#utility.yul\":626:755   */\n          pop\n            /* \"#utility.yul\":794:796   */\n          0x40\n            /* \"#utility.yul\":820:884   */\n          tag_22\n            /* \"#utility.yul\":876:883   */\n          dup7\n            /* \"#utility.yul\":867:873   */\n          dup3\n            /* \"#utility.yul\":856:865   */\n          dup8\n            /* \"#utility.yul\":852:874   */\n          add\n            /* \"#utility.yul\":820:884   */\n          tag_14\n          jump\t// in\n        tag_22:\n            /* \"#utility.yul\":810:884   */\n          swap2\n          pop\n            /* \"#utility.yul\":765:894   */\n          pop\n            /* \"#utility.yul\":416:901   */\n          swap3\n          pop\n          swap3\n          pop\n          swap3\n          jump\t// out\n            /* \"#utility.yul\":907:1003   */\n        tag_23:\n          0x00\n            /* \"#utility.yul\":973:997   */\n          tag_25\n            /* \"#utility.yul\":991:996   */\n          dup3\n            /* \"#utility.yul\":973:997   */\n          tag_26\n          jump\t// in\n        tag_25:\n            /* \"#utility.yul\":962:997   */\n          swap1\n          pop\n            /* \"#utility.yul\":952:1003   */\n          swap2\n          swap1\n          pop\n          jump\t// out\n            /* \"#utility.yul\":1009:1135   */\n        tag_26:\n          0x00\n            /* \"#utility.yul\":1086:1128   */\n          0xffffffffffffffffffffffffffffffffffffffff\n            /* \"#utility.yul\":1079:1084   */\n          dup3\n            /* \"#utility.yul\":1075:1129   */\n          and\n            /* \"#utility.yul\":1064:1129   */\n          swap1\n          pop\n            /* \"#utility.yul\":1054:1135   */\n          swap2\n          swap1\n          pop\n          jump\t// out\n            /* \"#utility.yul\":1141:1218   */\n        tag_28:\n          0x00\n            /* \"#utility.yul\":1207:1212   */\n          dup2\n            /* \"#utility.yul\":1196:1212   */\n          swap1\n          pop\n            /* \"#utility.yul\":1186:1218   */\n          swap2\n          swap1\n          pop\n          jump\t// out\n            /* \"#utility.yul\":1224:1346   */\n        tag_13:\n            /* \"#utility.yul\":1297:1321   */\n          tag_31\n            /* \"#utility.yul\":1315:1320   */\n          dup2\n            /* \"#utility.yul\":1297:1321   */\n          tag_23\n          jump\t// in\n        tag_31:\n            /* \"#utility.yul\":1290:1295   */\n          dup2\n            /* \"#utility.yul\":1287:1322   */\n          eq\n            /* \"#utility.yul\":1277:1279   */\n          tag_32\n          jumpi\n            /* \"#utility.yul\":1336:1337   */\n          0x00\n            /* \"#utility.yul\":1333:1334   */\n          dup1\n            /* \"#utility.yul\":1326:1338   */\n          revert\n            /* \"#utility.yul\":1277:1279   */\n        tag_32:\n            /* \"#utility.yul\":1267:1346   */\n          pop\n          jump\t// out\n            /* \"#utility.yul\":1352:1474   */\n        tag_17:\n            /* \"#utility.yul\":1425:1449   */\n          tag_34\n            /* \"#utility.yul\":1443:1448   */\n          dup2\n            /* \"#utility.yul\":1425:1449   */\n          tag_28\n          jump\t// in\n        tag_34:\n            /* \"#utility.yul\":1418:1423   */\n          dup2\n            /* \"#utility.yul\":1415:1450   */\n          eq\n            /* \"#utility.yul\":1405:1407   */\n          tag_35\n          jumpi\n            /* \"#utility.yul\":1464:1465   */\n          0x00\n            /* \"#utility.yul\":1461:1462   */\n          dup1\n            /* \"#utility.yul\":1454:1466   */\n          revert\n            /* \"#utility.yul\":1405:1407   */\n        tag_35:\n            /* \"#utility.yul\":1395:1474   */\n          pop\n          jump\t// out\n            /* \"contracts/MultiSigWallet.sol\":229:3969  contract MultiSigWallet is ReentrancyGuard {... */\n        tag_8:\n          dataSize(sub_0)\n          dup1\n          dataOffset(sub_0)\n          0x00\n          codecopy\n          0x00\n          return\n        stop\n\n        sub_0: assembly {\n                /* \"contracts/MultiSigWallet.sol\":229:3969  contract MultiSigWallet is ReentrancyGuard {... */\n              mstore(0x40, 0x80)\n              callvalue\n              dup1\n              iszero\n              tag_1\n              jumpi\n              0x00\n              dup1\n              revert\n            tag_1:\n              pop\n              jumpi(tag_2, lt(calldatasize, 0x04))\n              shr(0xe0, calldataload(0x00))\n              dup1\n              0x8da5cb5b\n              gt\n              tag_14\n              jumpi\n              dup1\n              0x8da5cb5b\n              eq\n              tag_8\n              jumpi\n              dup1\n              0x9a5d6a4a\n              eq\n              tag_9\n              jumpi\n              dup1\n              0xa230c524\n              eq\n              tag_10\n              jumpi\n              dup1\n              0xa4b08872\n              eq\n              tag_11\n              jumpi\n              dup1\n              0xb789bf52\n              eq\n              tag_12\n              jumpi\n              dup1\n              0xc162ba2f\n              eq\n              tag_13\n              jumpi\n              jump(tag_2)\n            tag_14:\n              dup1\n              0x039935ff\n              eq\n              tag_3\n              jumpi\n              dup1\n              0x11aee380\n              eq\n              tag_4\n              jumpi\n              dup1\n              0x3ee79599\n              eq\n              tag_5\n              jumpi\n              dup1\n              0x6f4d469b\n              eq\n              tag_6\n              jumpi\n              dup1\n              0x70a08231\n              eq\n              tag_7\n              jumpi\n            tag_2:\n              0x00\n              dup1\n              revert\n                /* \"contracts/MultiSigWallet.sol\":951:998  mapping(uint256 => Order) public orderIdToOrder */\n            tag_3:\n              tag_15\n              0x04\n              dup1\n              calldatasize\n              sub\n              dup2\n              add\n              swap1\n              tag_16\n              swap2\n              swap1\n              tag_17\n              jump\t// in\n            tag_16:\n              tag_18\n              jump\t// in\n            tag_15:\n              mload(0x40)\n              tag_19\n              swap9\n              swap8\n              swap7\n              swap6\n              swap5\n              swap4\n              swap3\n              swap2\n              swap1\n              tag_20\n              jump\t// in\n            tag_19:\n              mload(0x40)\n              dup1\n              swap2\n              sub\n              swap1\n              return\n                /* \"contracts/MultiSigWallet.sol\":767:793  uint256 public memberCount */\n            tag_4:\n              tag_21\n              tag_22\n              jump\t// in\n            tag_21:\n              mload(0x40)\n              tag_23\n              swap2\n              swap1\n              tag_24\n              jump\t// in\n            tag_23:\n              mload(0x40)\n              dup1\n              swap2\n              sub\n              swap1\n              return\n                /* \"contracts/MultiSigWallet.sol\":2553:3452  function makeDecision(uint256 orderId, uint256 decision)... */\n            tag_5:\n              tag_25\n              0x04\n              dup1\n              calldatasize\n              sub\n              dup2\n              add\n              swap1\n              tag_26\n              swap2\n              swap1\n              tag_27\n              jump\t// in\n            tag_26:\n              tag_28\n              jump\t// in\n            tag_25:\n              stop\n                /* \"contracts/MultiSigWallet.sol\":1815:1957  function addMembers(address[] memory members) public onlyOwner {... */\n            tag_6:\n              tag_29\n              0x04\n              dup1\n              calldatasize\n              sub\n              dup2\n              add\n              swap1\n              tag_30\n              swap2\n              swap1\n              tag_31\n              jump\t// in\n            tag_30:\n              tag_32\n              jump\t// in\n            tag_29:\n              stop\n                /* \"contracts/MultiSigWallet.sol\":900:944  mapping(address => uint256) public balanceOf */\n            tag_7:\n              tag_33\n              0x04\n              dup1\n              calldatasize\n              sub\n              dup2\n              add\n              swap1\n              tag_34\n              swap2\n              swap1\n              tag_35\n              jump\t// in\n            tag_34:\n              tag_36\n              jump\t// in\n            tag_33:\n              mload(0x40)\n              tag_37\n              swap2\n              swap1\n              tag_24\n              jump\t// in\n            tag_37:\n              mload(0x40)\n              dup1\n              swap2\n              sub\n              swap1\n              return\n                /* \"contracts/MultiSigWallet.sol\":278:298  address public owner */\n            tag_8:\n              tag_38\n              tag_39\n              jump\t// in\n            tag_38:\n              mload(0x40)\n              tag_40\n              swap2\n              swap1\n              tag_41\n              jump\t// in\n            tag_40:\n              mload(0x40)\n              dup1\n              swap2\n              sub\n              swap1\n              return\n                /* \"contracts/MultiSigWallet.sol\":1963:2493  function createOrder(... */\n            tag_9:\n              tag_42\n              0x04\n              dup1\n              calldatasize\n              sub\n              dup2\n              add\n              swap1\n              tag_43\n              swap2\n              swap1\n              tag_44\n              jump\t// in\n            tag_43:\n              tag_45\n              jump\t// in\n            tag_42:\n              stop\n                /* \"contracts/MultiSigWallet.sol\":854:894  mapping(address => bool) public isMember */\n            tag_10:\n              tag_46\n              0x04\n              dup1\n              calldatasize\n              sub\n              dup2\n              add\n              swap1\n              tag_47\n              swap2\n              swap1\n              tag_35\n              jump\t// in\n            tag_47:\n              tag_48\n              jump\t// in\n            tag_46:\n              mload(0x40)\n              tag_49\n              swap2\n              swap1\n              tag_50\n              jump\t// in\n            tag_49:\n              mload(0x40)\n              dup1\n              swap2\n              sub\n              swap1\n              return\n                /* \"contracts/MultiSigWallet.sol\":799:848  mapping(address => Member) public addressToMember */\n            tag_11:\n              tag_51\n              0x04\n              dup1\n              calldatasize\n              sub\n              dup2\n              add\n              swap1\n              tag_52\n              swap2\n              swap1\n              tag_35\n              jump\t// in\n            tag_52:\n              tag_53\n              jump\t// in\n            tag_51:\n              mload(0x40)\n              tag_54\n              swap3\n              swap2\n              swap1\n              tag_55\n              jump\t// in\n            tag_54:\n              mload(0x40)\n              dup1\n              swap2\n              sub\n              swap1\n              return\n                /* \"contracts/MultiSigWallet.sol\":304:331  uint256 public orderCounter */\n            tag_12:\n              tag_56\n              tag_57\n              jump\t// in\n            tag_56:\n              mload(0x40)\n              tag_58\n              swap2\n              swap1\n              tag_24\n              jump\t// in\n            tag_58:\n              mload(0x40)\n              dup1\n              swap2\n              sub\n              swap1\n              return\n                /* \"contracts/MultiSigWallet.sol\":337:360  uint256 public walletId */\n            tag_13:\n              tag_59\n              tag_60\n              jump\t// in\n            tag_59:\n              mload(0x40)\n              tag_61\n              swap2\n              swap1\n              tag_24\n              jump\t// in\n            tag_61:\n              mload(0x40)\n              dup1\n              swap2\n              sub\n              swap1\n              return\n                /* \"contracts/MultiSigWallet.sol\":951:998  mapping(uint256 => Order) public orderIdToOrder */\n            tag_18:\n              mstore(0x20, 0x09)\n              dup1\n              0x00\n              mstore\n              keccak256(0x00, 0x40)\n              0x00\n              swap2\n              pop\n              swap1\n              pop\n              dup1\n              0x00\n              add\n              sload\n              swap1\n              dup1\n              0x01\n              add\n              0x00\n              swap1\n              sload\n              swap1\n              0x0100\n              exp\n              swap1\n              div\n              0xffffffffffffffffffffffffffffffffffffffff\n              and\n              swap1\n              dup1\n              0x02\n              add\n              0x00\n              swap1\n              sload\n              swap1\n              0x0100\n              exp\n              swap1\n              div\n              0xffffffffffffffffffffffffffffffffffffffff\n              and\n              swap1\n              dup1\n              0x03\n              add\n              sload\n              swap1\n              dup1\n              0x04\n              add\n              sload\n              swap1\n              dup1\n              0x05\n              add\n              sload\n              swap1\n              dup1\n              0x06\n              add\n              sload\n              swap1\n              dup1\n              0x07\n              add\n              sload\n              swap1\n              pop\n              dup9\n              jump\t// out\n                /* \"contracts/MultiSigWallet.sol\":767:793  uint256 public memberCount */\n            tag_22:\n              sload(0x05)\n              dup2\n              jump\t// out\n                /* \"contracts/MultiSigWallet.sol\":2553:3452  function makeDecision(uint256 orderId, uint256 decision)... */\n            tag_28:\n                /* \"@openzeppelin/contracts/security/ReentrancyGuard.sol\":1744:1745  2 */\n              0x02\n                /* \"@openzeppelin/contracts/security/ReentrancyGuard.sol\":2325:2332  _status */\n              sload(0x00)\n                /* \"@openzeppelin/contracts/security/ReentrancyGuard.sol\":2325:2344  _status != _ENTERED */\n              eq\n              iszero\n                /* \"@openzeppelin/contracts/security/ReentrancyGuard.sol\":2317:2380  require(_status != _ENTERED, \"ReentrancyGuard: reentrant call\") */\n              tag_63\n              jumpi\n              mload(0x40)\n              0x08c379a000000000000000000000000000000000000000000000000000000000\n              dup2\n              mstore\n              0x04\n              add\n              tag_64\n              swap1\n              tag_65\n              jump\t// in\n            tag_64:\n              mload(0x40)\n              dup1\n              swap2\n              sub\n              swap1\n              revert\n            tag_63:\n                /* \"@openzeppelin/contracts/security/ReentrancyGuard.sol\":1744:1745  2 */\n              0x02\n                /* \"@openzeppelin/contracts/security/ReentrancyGuard.sol\":2455:2462  _status */\n              0x00\n                /* \"@openzeppelin/contracts/security/ReentrancyGuard.sol\":2455:2473  _status = _ENTERED */\n              dup2\n              swap1\n              sstore\n              pop\n                /* \"contracts/MultiSigWallet.sol\":2681:2682  1 */\n              0x01\n                /* \"contracts/MultiSigWallet.sol\":2669:2677  decision */\n              dup2\n                /* \"contracts/MultiSigWallet.sol\":2669:2682  decision == 1 */\n              eq\n                /* \"contracts/MultiSigWallet.sol\":2668:2702  (decision == 1) || (decision == 2) */\n              dup1\n              tag_67\n              jumpi\n              pop\n                /* \"contracts/MultiSigWallet.sol\":2700:2701  2 */\n              0x02\n                /* \"contracts/MultiSigWallet.sol\":2688:2696  decision */\n              dup2\n                /* \"contracts/MultiSigWallet.sol\":2688:2701  decision == 2 */\n              eq\n                /* \"contracts/MultiSigWallet.sol\":2668:2702  (decision == 1) || (decision == 2) */\n            tag_67:\n                /* \"contracts/MultiSigWallet.sol\":2660:2727  require((decision == 1) || (decision == 2), \"Not a valid decision\") */\n              tag_68\n              jumpi\n              mload(0x40)\n              0x08c379a000000000000000000000000000000000000000000000000000000000\n              dup2\n              mstore\n              0x04\n              add\n              tag_69\n              swap1\n              tag_70\n              jump\t// in\n            tag_69:\n              mload(0x40)\n              dup1\n              swap2\n              sub\n              swap1\n              revert\n            tag_68:\n                /* \"contracts/MultiSigWallet.sol\":2737:2752  Order storage o */\n              0x00\n                /* \"contracts/MultiSigWallet.sol\":2755:2769  orderIdToOrder */\n              0x09\n                /* \"contracts/MultiSigWallet.sol\":2755:2778  orderIdToOrder[orderId] */\n              0x00\n                /* \"contracts/MultiSigWallet.sol\":2770:2777  orderId */\n              dup5\n                /* \"contracts/MultiSigWallet.sol\":2755:2778  orderIdToOrder[orderId] */\n              dup2\n              mstore\n              0x20\n              add\n              swap1\n              dup2\n              mstore\n              0x20\n              add\n              0x00\n              keccak256\n                /* \"contracts/MultiSigWallet.sol\":2737:2778  Order storage o = orderIdToOrder[orderId] */\n              swap1\n              pop\n                /* \"contracts/MultiSigWallet.sol\":2815:2816  0 */\n              0x00\n                /* \"contracts/MultiSigWallet.sol\":2796:2797  o */\n              dup2\n                /* \"contracts/MultiSigWallet.sol\":2796:2811  o.finalDecision */\n              0x07\n              add\n              sload\n                /* \"contracts/MultiSigWallet.sol\":2796:2816  o.finalDecision != 0 */\n              eq\n              iszero\n                /* \"contracts/MultiSigWallet.sol\":2788:2837  require(o.finalDecision != 0, \"Already executed\") */\n              tag_71\n              jumpi\n              mload(0x40)\n              0x08c379a000000000000000000000000000000000000000000000000000000000\n              dup2\n              mstore\n              0x04\n              add\n              tag_72\n              swap1\n              tag_73\n              jump\t// in\n            tag_72:\n              mload(0x40)\n              dup1\n              swap2\n              sub\n              swap1\n              revert\n            tag_71:\n                /* \"contracts/MultiSigWallet.sol\":2909:2910  o */\n              dup1\n                /* \"contracts/MultiSigWallet.sol\":2909:2923  o.creationTime */\n              0x00\n              add\n              sload\n                /* \"contracts/MultiSigWallet.sol\":2868:2883  addressToMember */\n              0x06\n                /* \"contracts/MultiSigWallet.sol\":2868:2895  addressToMember[msg.sender] */\n              0x00\n                /* \"contracts/MultiSigWallet.sol\":2884:2894  msg.sender */\n              caller\n                /* \"contracts/MultiSigWallet.sol\":2868:2895  addressToMember[msg.sender] */\n              0xffffffffffffffffffffffffffffffffffffffff\n              and\n              0xffffffffffffffffffffffffffffffffffffffff\n              and\n              dup2\n              mstore\n              0x20\n              add\n              swap1\n              dup2\n              mstore\n              0x20\n              add\n              0x00\n              keccak256\n                /* \"contracts/MultiSigWallet.sol\":2868:2905  addressToMember[msg.sender].timeAdded */\n              0x00\n              add\n              sload\n                /* \"contracts/MultiSigWallet.sol\":2868:2923  addressToMember[msg.sender].timeAdded <= o.creationTime */\n              gt\n              iszero\n                /* \"contracts/MultiSigWallet.sol\":2847:2993  require(... */\n              tag_74\n              jumpi\n              mload(0x40)\n              0x08c379a000000000000000000000000000000000000000000000000000000000\n              dup2\n              mstore\n              0x04\n              add\n              tag_75\n              swap1\n              tag_76\n              jump\t// in\n            tag_75:\n              mload(0x40)\n              dup1\n              swap2\n              sub\n              swap1\n              revert\n            tag_74:\n                /* \"contracts/MultiSigWallet.sol\":3075:3076  0 */\n              0x00\n                /* \"contracts/MultiSigWallet.sol\":3024:3050  orderIdToAddressToDecision */\n              0x0a\n                /* \"contracts/MultiSigWallet.sol\":3024:3059  orderIdToAddressToDecision[orderId] */\n              0x00\n                /* \"contracts/MultiSigWallet.sol\":3051:3058  orderId */\n              dup6\n                /* \"contracts/MultiSigWallet.sol\":3024:3059  orderIdToAddressToDecision[orderId] */\n              dup2\n              mstore\n              0x20\n              add\n              swap1\n              dup2\n              mstore\n              0x20\n              add\n              0x00\n              keccak256\n                /* \"contracts/MultiSigWallet.sol\":3024:3071  orderIdToAddressToDecision[orderId][msg.sender] */\n              0x00\n                /* \"contracts/MultiSigWallet.sol\":3060:3070  msg.sender */\n              caller\n                /* \"contracts/MultiSigWallet.sol\":3024:3071  orderIdToAddressToDecision[orderId][msg.sender] */\n              0xffffffffffffffffffffffffffffffffffffffff\n              and\n              0xffffffffffffffffffffffffffffffffffffffff\n              and\n              dup2\n              mstore\n              0x20\n              add\n              swap1\n              dup2\n              mstore\n              0x20\n              add\n              0x00\n              keccak256\n              sload\n                /* \"contracts/MultiSigWallet.sol\":3024:3076  orderIdToAddressToDecision[orderId][msg.sender] == 0 */\n              eq\n                /* \"contracts/MultiSigWallet.sol\":3003:3125  require(... */\n              tag_77\n              jumpi\n              mload(0x40)\n              0x08c379a000000000000000000000000000000000000000000000000000000000\n              dup2\n              mstore\n              0x04\n              add\n              tag_78\n              swap1\n              tag_79\n              jump\t// in\n            tag_78:\n              mload(0x40)\n              dup1\n              swap2\n              sub\n              swap1\n              revert\n            tag_77:\n                /* \"contracts/MultiSigWallet.sol\":3185:3193  decision */\n              dup2\n                /* \"contracts/MultiSigWallet.sol\":3135:3161  orderIdToAddressToDecision */\n              0x0a\n                /* \"contracts/MultiSigWallet.sol\":3135:3170  orderIdToAddressToDecision[orderId] */\n              0x00\n                /* \"contracts/MultiSigWallet.sol\":3162:3169  orderId */\n              dup6\n                /* \"contracts/MultiSigWallet.sol\":3135:3170  orderIdToAddressToDecision[orderId] */\n              dup2\n              mstore\n              0x20\n              add\n              swap1\n              dup2\n              mstore\n              0x20\n              add\n              0x00\n              keccak256\n                /* \"contracts/MultiSigWallet.sol\":3135:3182  orderIdToAddressToDecision[orderId][msg.sender] */\n              0x00\n                /* \"contracts/MultiSigWallet.sol\":3171:3181  msg.sender */\n              caller\n                /* \"contracts/MultiSigWallet.sol\":3135:3182  orderIdToAddressToDecision[orderId][msg.sender] */\n              0xffffffffffffffffffffffffffffffffffffffff\n              and\n              0xffffffffffffffffffffffffffffffffffffffff\n              and\n              dup2\n              mstore\n              0x20\n              add\n              swap1\n              dup2\n              mstore\n              0x20\n              add\n              0x00\n              keccak256\n                /* \"contracts/MultiSigWallet.sol\":3135:3193  orderIdToAddressToDecision[orderId][msg.sender] = decision */\n              dup2\n              swap1\n              sstore\n              pop\n                /* \"contracts/MultiSigWallet.sol\":3219:3220  1 */\n              0x01\n                /* \"contracts/MultiSigWallet.sol\":3207:3215  decision */\n              dup3\n                /* \"contracts/MultiSigWallet.sol\":3207:3220  decision == 1 */\n              eq\n                /* \"contracts/MultiSigWallet.sol\":3203:3281  if (decision == 1) o.numberOfAcceptance++;... */\n              iszero\n              tag_80\n              jumpi\n                /* \"contracts/MultiSigWallet.sol\":3222:3223  o */\n              dup1\n                /* \"contracts/MultiSigWallet.sol\":3222:3242  o.numberOfAcceptance */\n              0x04\n              add\n              0x00\n                /* \"contracts/MultiSigWallet.sol\":3222:3244  o.numberOfAcceptance++ */\n              dup2\n              sload\n              dup1\n              swap3\n              swap2\n              swap1\n              tag_81\n              swap1\n              tag_82\n              jump\t// in\n            tag_81:\n              swap2\n              swap1\n              pop\n              sstore\n              pop\n                /* \"contracts/MultiSigWallet.sol\":3203:3281  if (decision == 1) o.numberOfAcceptance++;... */\n              jump(tag_83)\n            tag_80:\n                /* \"contracts/MultiSigWallet.sol\":3259:3260  o */\n              dup1\n                /* \"contracts/MultiSigWallet.sol\":3259:3279  o.numberOfRejections */\n              0x05\n              add\n              0x00\n                /* \"contracts/MultiSigWallet.sol\":3259:3281  o.numberOfRejections++ */\n              dup2\n              sload\n              dup1\n              swap3\n              swap2\n              swap1\n              tag_84\n              swap1\n              tag_82\n              jump\t// in\n            tag_84:\n              swap2\n              swap1\n              pop\n              sstore\n              pop\n                /* \"contracts/MultiSigWallet.sol\":3203:3281  if (decision == 1) o.numberOfAcceptance++;... */\n            tag_83:\n                /* \"contracts/MultiSigWallet.sol\":3333:3334  o */\n              dup1\n                /* \"contracts/MultiSigWallet.sol\":3333:3354  o.minRequiredDecision */\n              0x06\n              add\n              sload\n                /* \"contracts/MultiSigWallet.sol\":3309:3310  o */\n              dup2\n                /* \"contracts/MultiSigWallet.sol\":3309:3329  o.numberOfAcceptance */\n              0x04\n              add\n              sload\n                /* \"contracts/MultiSigWallet.sol\":3309:3354  o.numberOfAcceptance >= o.minRequiredDecision */\n              lt\n              iszero\n                /* \"contracts/MultiSigWallet.sol\":3308:3418  (o.numberOfAcceptance >= o.minRequiredDecision) ||... */\n              dup1\n              tag_85\n              jumpi\n              pop\n                /* \"contracts/MultiSigWallet.sol\":3396:3397  o */\n              dup1\n                /* \"contracts/MultiSigWallet.sol\":3396:3417  o.minRequiredDecision */\n              0x06\n              add\n              sload\n                /* \"contracts/MultiSigWallet.sol\":3372:3373  o */\n              dup2\n                /* \"contracts/MultiSigWallet.sol\":3372:3392  o.numberOfRejections */\n              0x05\n              add\n              sload\n                /* \"contracts/MultiSigWallet.sol\":3372:3417  o.numberOfRejections >= o.minRequiredDecision */\n              lt\n              iszero\n                /* \"contracts/MultiSigWallet.sol\":3308:3418  (o.numberOfAcceptance >= o.minRequiredDecision) ||... */\n            tag_85:\n                /* \"contracts/MultiSigWallet.sol\":3291:3445  if (... */\n              iszero\n              tag_86\n              jumpi\n                /* \"contracts/MultiSigWallet.sol\":3429:3445  finalizeOrder(o) */\n              tag_87\n                /* \"contracts/MultiSigWallet.sol\":3443:3444  o */\n              dup2\n                /* \"contracts/MultiSigWallet.sol\":3429:3442  finalizeOrder */\n              tag_88\n                /* \"contracts/MultiSigWallet.sol\":3429:3445  finalizeOrder(o) */\n              jump\t// in\n            tag_87:\n                /* \"contracts/MultiSigWallet.sol\":3291:3445  if (... */\n            tag_86:\n                /* \"@openzeppelin/contracts/security/ReentrancyGuard.sol\":2484:2485  _ */\n              pop\n                /* \"@openzeppelin/contracts/security/ReentrancyGuard.sol\":1701:1702  1 */\n              0x01\n                /* \"@openzeppelin/contracts/security/ReentrancyGuard.sol\":2628:2635  _status */\n              0x00\n                /* \"@openzeppelin/contracts/security/ReentrancyGuard.sol\":2628:2650  _status = _NOT_ENTERED */\n              dup2\n              swap1\n              sstore\n              pop\n                /* \"contracts/MultiSigWallet.sol\":2553:3452  function makeDecision(uint256 orderId, uint256 decision)... */\n              pop\n              pop\n              jump\t// out\n                /* \"contracts/MultiSigWallet.sol\":1815:1957  function addMembers(address[] memory members) public onlyOwner {... */\n            tag_32:\n                /* \"contracts/MultiSigWallet.sol\":1368:1373  owner */\n              0x01\n              0x00\n              swap1\n              sload\n              swap1\n              0x0100\n              exp\n              swap1\n              div\n              0xffffffffffffffffffffffffffffffffffffffff\n              and\n                /* \"contracts/MultiSigWallet.sol\":1354:1373  msg.sender == owner */\n              0xffffffffffffffffffffffffffffffffffffffff\n              and\n                /* \"contracts/MultiSigWallet.sol\":1354:1364  msg.sender */\n              caller\n                /* \"contracts/MultiSigWallet.sol\":1354:1373  msg.sender == owner */\n              0xffffffffffffffffffffffffffffffffffffffff\n              and\n              eq\n                /* \"contracts/MultiSigWallet.sol\":1346:1395  require(msg.sender == owner, \"Only owner method\") */\n              tag_90\n              jumpi\n              mload(0x40)\n              0x08c379a000000000000000000000000000000000000000000000000000000000\n              dup2\n              mstore\n              0x04\n              add\n              tag_91\n              swap1\n              tag_92\n              jump\t// in\n            tag_91:\n              mload(0x40)\n              dup1\n              swap2\n              sub\n              swap1\n              revert\n            tag_90:\n                /* \"contracts/MultiSigWallet.sol\":1893:1902  uint256 i */\n              0x00\n                /* \"contracts/MultiSigWallet.sol\":1888:1950  for (uint256 i; i < members.length; i++) addMember(members[i]) */\n            tag_94:\n                /* \"contracts/MultiSigWallet.sol\":1908:1915  members */\n              dup2\n                /* \"contracts/MultiSigWallet.sol\":1908:1922  members.length */\n              mload\n                /* \"contracts/MultiSigWallet.sol\":1904:1905  i */\n              dup2\n                /* \"contracts/MultiSigWallet.sol\":1904:1922  i < members.length */\n              lt\n                /* \"contracts/MultiSigWallet.sol\":1888:1950  for (uint256 i; i < members.length; i++) addMember(members[i]) */\n              iszero\n              tag_95\n              jumpi\n                /* \"contracts/MultiSigWallet.sol\":1929:1950  addMember(members[i]) */\n              tag_97\n                /* \"contracts/MultiSigWallet.sol\":1939:1946  members */\n              dup3\n                /* \"contracts/MultiSigWallet.sol\":1947:1948  i */\n              dup3\n                /* \"contracts/MultiSigWallet.sol\":1939:1949  members[i] */\n              dup2\n              mload\n              dup2\n              lt\n              tag_98\n              jumpi\n              mstore(0x00, 0x4e487b7100000000000000000000000000000000000000000000000000000000)\n              mstore(0x04, 0x32)\n              revert(0x00, 0x24)\n            tag_98:\n              0x20\n              mul\n              0x20\n              add\n              add\n              mload\n                /* \"contracts/MultiSigWallet.sol\":1929:1938  addMember */\n              tag_99\n                /* \"contracts/MultiSigWallet.sol\":1929:1950  addMember(members[i]) */\n              jump\t// in\n            tag_97:\n                /* \"contracts/MultiSigWallet.sol\":1924:1927  i++ */\n              dup1\n              dup1\n              tag_100\n              swap1\n              tag_82\n              jump\t// in\n            tag_100:\n              swap2\n              pop\n              pop\n                /* \"contracts/MultiSigWallet.sol\":1888:1950  for (uint256 i; i < members.length; i++) addMember(members[i]) */\n              jump(tag_94)\n            tag_95:\n              pop\n                /* \"contracts/MultiSigWallet.sol\":1815:1957  function addMembers(address[] memory members) public onlyOwner {... */\n              pop\n              jump\t// out\n                /* \"contracts/MultiSigWallet.sol\":900:944  mapping(address => uint256) public balanceOf */\n            tag_36:\n              mstore(0x20, 0x08)\n              dup1\n              0x00\n              mstore\n              keccak256(0x00, 0x40)\n              0x00\n              swap2\n              pop\n              swap1\n              pop\n              sload\n              dup2\n              jump\t// out\n                /* \"contracts/MultiSigWallet.sol\":278:298  address public owner */\n            tag_39:\n              0x01\n              0x00\n              swap1\n              sload\n              swap1\n              0x0100\n              exp\n              swap1\n              div\n              0xffffffffffffffffffffffffffffffffffffffff\n              and\n              dup2\n              jump\t// out\n                /* \"contracts/MultiSigWallet.sol\":1963:2493  function createOrder(... */\n            tag_45:\n                /* \"contracts/MultiSigWallet.sol\":1459:1467  isMember */\n              0x07\n                /* \"contracts/MultiSigWallet.sol\":1459:1479  isMember[msg.sender] */\n              0x00\n                /* \"contracts/MultiSigWallet.sol\":1468:1478  msg.sender */\n              caller\n                /* \"contracts/MultiSigWallet.sol\":1459:1479  isMember[msg.sender] */\n              0xffffffffffffffffffffffffffffffffffffffff\n              and\n              0xffffffffffffffffffffffffffffffffffffffff\n              and\n              dup2\n              mstore\n              0x20\n              add\n              swap1\n              dup2\n              mstore\n              0x20\n              add\n              0x00\n              keccak256\n              0x00\n              swap1\n              sload\n              swap1\n              0x0100\n              exp\n              swap1\n              div\n              0xff\n              and\n                /* \"contracts/MultiSigWallet.sol\":1451:1502  require(isMember[msg.sender], \"Only member method\") */\n              tag_102\n              jumpi\n              mload(0x40)\n              0x08c379a000000000000000000000000000000000000000000000000000000000\n              dup2\n              mstore\n              0x04\n              add\n              tag_103\n              swap1\n              tag_104\n              jump\t// in\n            tag_103:\n              mload(0x40)\n              dup1\n              swap2\n              sub\n              swap1\n              revert\n            tag_102:\n                /* \"contracts/MultiSigWallet.sol\":2133:2462  Order({... */\n              mload(0x40)\n              dup1\n              0x0100\n              add\n              0x40\n              mstore\n              dup1\n                /* \"contracts/MultiSigWallet.sol\":2167:2182  block.timestamp */\n              timestamp\n                /* \"contracts/MultiSigWallet.sol\":2133:2462  Order({... */\n              dup2\n              mstore\n              0x20\n              add\n                /* \"contracts/MultiSigWallet.sol\":2210:2223  _tokenAddress */\n              dup5\n                /* \"contracts/MultiSigWallet.sol\":2133:2462  Order({... */\n              0xffffffffffffffffffffffffffffffffffffffff\n              and\n              dup2\n              mstore\n              0x20\n              add\n                /* \"contracts/MultiSigWallet.sol\":2248:2258  _toAddress */\n              dup4\n                /* \"contracts/MultiSigWallet.sol\":2133:2462  Order({... */\n              0xffffffffffffffffffffffffffffffffffffffff\n              and\n              dup2\n              mstore\n              0x20\n              add\n                /* \"contracts/MultiSigWallet.sol\":2280:2287  _amount */\n              dup3\n                /* \"contracts/MultiSigWallet.sol\":2133:2462  Order({... */\n              dup2\n              mstore\n              0x20\n              add\n                /* \"contracts/MultiSigWallet.sol\":2321:2322  0 */\n              0x00\n                /* \"contracts/MultiSigWallet.sol\":2133:2462  Order({... */\n              dup2\n              mstore\n              0x20\n              add\n                /* \"contracts/MultiSigWallet.sol\":2356:2357  0 */\n              0x00\n                /* \"contracts/MultiSigWallet.sol\":2133:2462  Order({... */\n              dup2\n              mstore\n              0x20\n              add\n                /* \"contracts/MultiSigWallet.sol\":2420:2421  2 */\n              0x02\n                /* \"contracts/MultiSigWallet.sol\":2406:2417  memberCount */\n              sload(0x05)\n                /* \"contracts/MultiSigWallet.sol\":2406:2421  memberCount / 2 */\n              tag_106\n              swap2\n              swap1\n              tag_107\n              jump\t// in\n            tag_106:\n                /* \"contracts/MultiSigWallet.sol\":2392:2403  memberCount */\n              sload(0x05)\n                /* \"contracts/MultiSigWallet.sol\":2392:2421  memberCount - memberCount / 2 */\n              tag_108\n              swap2\n              swap1\n              tag_109\n              jump\t// in\n            tag_108:\n                /* \"contracts/MultiSigWallet.sol\":2133:2462  Order({... */\n              dup2\n              mstore\n              0x20\n              add\n                /* \"contracts/MultiSigWallet.sol\":2450:2451  0 */\n              0x00\n                /* \"contracts/MultiSigWallet.sol\":2133:2462  Order({... */\n              dup2\n              mstore\n              pop\n                /* \"contracts/MultiSigWallet.sol\":2102:2116  orderIdToOrder */\n              0x09\n                /* \"contracts/MultiSigWallet.sol\":2102:2130  orderIdToOrder[orderCounter] */\n              0x00\n                /* \"contracts/MultiSigWallet.sol\":2117:2129  orderCounter */\n              sload(0x02)\n                /* \"contracts/MultiSigWallet.sol\":2102:2130  orderIdToOrder[orderCounter] */\n              dup2\n              mstore\n              0x20\n              add\n              swap1\n              dup2\n              mstore\n              0x20\n              add\n              0x00\n              keccak256\n                /* \"contracts/MultiSigWallet.sol\":2102:2462  orderIdToOrder[orderCounter] = Order({... */\n              0x00\n              dup3\n              add\n              mload\n              dup2\n              0x00\n              add\n              sstore\n              0x20\n              dup3\n              add\n              mload\n              dup2\n              0x01\n              add\n              exp(0x0100, 0x00)\n              dup2\n              sload\n              dup2\n              0xffffffffffffffffffffffffffffffffffffffff\n              mul\n              not\n              and\n              swap1\n              dup4\n              0xffffffffffffffffffffffffffffffffffffffff\n              and\n              mul\n              or\n              swap1\n              sstore\n              pop\n              0x40\n              dup3\n              add\n              mload\n              dup2\n              0x02\n              add\n              exp(0x0100, 0x00)\n              dup2\n              sload\n              dup2\n              0xffffffffffffffffffffffffffffffffffffffff\n              mul\n              not\n              and\n              swap1\n              dup4\n              0xffffffffffffffffffffffffffffffffffffffff\n              and\n              mul\n              or\n              swap1\n              sstore\n              pop\n              0x60\n              dup3\n              add\n              mload\n              dup2\n              0x03\n              add\n              sstore\n              0x80\n              dup3\n              add\n              mload\n              dup2\n              0x04\n              add\n              sstore\n              0xa0\n              dup3\n              add\n              mload\n              dup2\n              0x05\n              add\n              sstore\n              0xc0\n              dup3\n              add\n              mload\n              dup2\n              0x06\n              add\n              sstore\n              0xe0\n              dup3\n              add\n              mload\n              dup2\n              0x07\n              add\n              sstore\n              swap1\n              pop\n              pop\n                /* \"contracts/MultiSigWallet.sol\":2472:2484  orderCounter */\n              0x02\n              0x00\n                /* \"contracts/MultiSigWallet.sol\":2472:2486  orderCounter++ */\n              dup2\n              sload\n              dup1\n              swap3\n              swap2\n              swap1\n              tag_110\n              swap1\n              tag_82\n              jump\t// in\n            tag_110:\n              swap2\n              swap1\n              pop\n              sstore\n              pop\n                /* \"contracts/MultiSigWallet.sol\":1963:2493  function createOrder(... */\n              pop\n              pop\n              pop\n              jump\t// out\n                /* \"contracts/MultiSigWallet.sol\":854:894  mapping(address => bool) public isMember */\n            tag_48:\n              mstore(0x20, 0x07)\n              dup1\n              0x00\n              mstore\n              keccak256(0x00, 0x40)\n              0x00\n              swap2\n              pop\n              sload\n              swap1\n              0x0100\n              exp\n              swap1\n              div\n              0xff\n              and\n              dup2\n              jump\t// out\n                /* \"contracts/MultiSigWallet.sol\":799:848  mapping(address => Member) public addressToMember */\n            tag_53:\n              mstore(0x20, 0x06)\n              dup1\n              0x00\n              mstore\n              keccak256(0x00, 0x40)\n              0x00\n              swap2\n              pop\n              swap1\n              pop\n              dup1\n              0x00\n              add\n              sload\n              swap1\n              dup1\n              0x01\n              add\n              0x00\n              swap1\n              sload\n              swap1\n              0x0100\n              exp\n              swap1\n              div\n              0xffffffffffffffffffffffffffffffffffffffff\n              and\n              swap1\n              pop\n              dup3\n              jump\t// out\n                /* \"contracts/MultiSigWallet.sol\":304:331  uint256 public orderCounter */\n            tag_57:\n              sload(0x02)\n              dup2\n              jump\t// out\n                /* \"contracts/MultiSigWallet.sol\":337:360  uint256 public walletId */\n            tag_60:\n              sload(0x03)\n              dup2\n              jump\t// out\n                /* \"contracts/MultiSigWallet.sol\":3458:3768  function finalizeOrder(Order storage o) internal {... */\n            tag_88:\n                /* \"contracts/MultiSigWallet.sol\":3545:3546  o */\n              dup1\n                /* \"contracts/MultiSigWallet.sol\":3545:3566  o.minRequiredDecision */\n              0x06\n              add\n              sload\n                /* \"contracts/MultiSigWallet.sol\":3521:3522  o */\n              dup2\n                /* \"contracts/MultiSigWallet.sol\":3521:3541  o.numberOfAcceptance */\n              0x04\n              add\n              sload\n                /* \"contracts/MultiSigWallet.sol\":3521:3566  o.numberOfAcceptance >= o.minRequiredDecision */\n              lt\n                /* \"contracts/MultiSigWallet.sol\":3517:3761  if (o.numberOfAcceptance >= o.minRequiredDecision) {... */\n              tag_112\n              jumpi\n                /* \"contracts/MultiSigWallet.sol\":3582:3629  transfer(o.tokenAddress, o.toAddress, o.amount) */\n              tag_113\n                /* \"contracts/MultiSigWallet.sol\":3591:3592  o */\n              dup2\n                /* \"contracts/MultiSigWallet.sol\":3591:3605  o.tokenAddress */\n              0x01\n              add\n              0x00\n              swap1\n              sload\n              swap1\n              0x0100\n              exp\n              swap1\n              div\n              0xffffffffffffffffffffffffffffffffffffffff\n              and\n                /* \"contracts/MultiSigWallet.sol\":3607:3608  o */\n              dup3\n                /* \"contracts/MultiSigWallet.sol\":3607:3618  o.toAddress */\n              0x02\n              add\n              0x00\n              swap1\n              sload\n              swap1\n              0x0100\n              exp\n              swap1\n              div\n              0xffffffffffffffffffffffffffffffffffffffff\n              and\n                /* \"contracts/MultiSigWallet.sol\":3620:3621  o */\n              dup4\n                /* \"contracts/MultiSigWallet.sol\":3620:3628  o.amount */\n              0x03\n              add\n              sload\n                /* \"contracts/MultiSigWallet.sol\":3582:3590  transfer */\n              tag_114\n                /* \"contracts/MultiSigWallet.sol\":3582:3629  transfer(o.tokenAddress, o.toAddress, o.amount) */\n              jump\t// in\n            tag_113:\n                /* \"contracts/MultiSigWallet.sol\":3661:3662  1 */\n              0x01\n                /* \"contracts/MultiSigWallet.sol\":3643:3644  o */\n              dup2\n                /* \"contracts/MultiSigWallet.sol\":3643:3658  o.finalDecision */\n              0x07\n              add\n                /* \"contracts/MultiSigWallet.sol\":3643:3662  o.finalDecision = 1 */\n              dup2\n              swap1\n              sstore\n              pop\n                /* \"contracts/MultiSigWallet.sol\":3517:3761  if (o.numberOfAcceptance >= o.minRequiredDecision) {... */\n              jump(tag_115)\n            tag_112:\n                /* \"contracts/MultiSigWallet.sol\":3707:3708  o */\n              dup1\n                /* \"contracts/MultiSigWallet.sol\":3707:3728  o.minRequiredDecision */\n              0x06\n              add\n              sload\n                /* \"contracts/MultiSigWallet.sol\":3683:3684  o */\n              dup2\n                /* \"contracts/MultiSigWallet.sol\":3683:3703  o.numberOfRejections */\n              0x05\n              add\n              sload\n                /* \"contracts/MultiSigWallet.sol\":3683:3728  o.numberOfRejections >= o.minRequiredDecision */\n              lt\n                /* \"contracts/MultiSigWallet.sol\":3679:3761  if (o.numberOfRejections >= o.minRequiredDecision)... */\n              tag_116\n              jumpi\n                /* \"contracts/MultiSigWallet.sol\":3760:3761  2 */\n              0x02\n                /* \"contracts/MultiSigWallet.sol\":3742:3743  o */\n              dup2\n                /* \"contracts/MultiSigWallet.sol\":3742:3757  o.finalDecision */\n              0x07\n              add\n                /* \"contracts/MultiSigWallet.sol\":3742:3761  o.finalDecision = 2 */\n              dup2\n              swap1\n              sstore\n              pop\n                /* \"contracts/MultiSigWallet.sol\":3679:3761  if (o.numberOfRejections >= o.minRequiredDecision)... */\n            tag_116:\n                /* \"contracts/MultiSigWallet.sol\":3517:3761  if (o.numberOfAcceptance >= o.minRequiredDecision) {... */\n            tag_115:\n                /* \"contracts/MultiSigWallet.sol\":3458:3768  function finalizeOrder(Order storage o) internal {... */\n              pop\n              jump\t// out\n                /* \"contracts/MultiSigWallet.sol\":1526:1809  function addMember(address member) internal {... */\n            tag_99:\n                /* \"contracts/MultiSigWallet.sol\":1589:1597  isMember */\n              0x07\n                /* \"contracts/MultiSigWallet.sol\":1589:1605  isMember[member] */\n              0x00\n                /* \"contracts/MultiSigWallet.sol\":1598:1604  member */\n              dup3\n                /* \"contracts/MultiSigWallet.sol\":1589:1605  isMember[member] */\n              0xffffffffffffffffffffffffffffffffffffffff\n              and\n              0xffffffffffffffffffffffffffffffffffffffff\n              and\n              dup2\n              mstore\n              0x20\n              add\n              swap1\n              dup2\n              mstore\n              0x20\n              add\n              0x00\n              keccak256\n              0x00\n              swap1\n              sload\n              swap1\n              0x0100\n              exp\n              swap1\n              div\n              0xff\n              and\n                /* \"contracts/MultiSigWallet.sol\":1588:1605  !isMember[member] */\n              iszero\n                /* \"contracts/MultiSigWallet.sol\":1580:1626  require(!isMember[member], \"Already a member\") */\n              tag_118\n              jumpi\n              mload(0x40)\n              0x08c379a000000000000000000000000000000000000000000000000000000000\n              dup2\n              mstore\n              0x04\n              add\n              tag_119\n              swap1\n              tag_120\n              jump\t// in\n            tag_119:\n              mload(0x40)\n              dup1\n              swap2\n              sub\n              swap1\n              revert\n            tag_118:\n                /* \"contracts/MultiSigWallet.sol\":1662:1693  Member(block.timestamp, member) */\n              mload(0x40)\n              dup1\n              0x40\n              add\n              0x40\n              mstore\n              dup1\n                /* \"contracts/MultiSigWallet.sol\":1669:1684  block.timestamp */\n              timestamp\n                /* \"contracts/MultiSigWallet.sol\":1662:1693  Member(block.timestamp, member) */\n              dup2\n              mstore\n              0x20\n              add\n                /* \"contracts/MultiSigWallet.sol\":1686:1692  member */\n              dup3\n                /* \"contracts/MultiSigWallet.sol\":1662:1693  Member(block.timestamp, member) */\n              0xffffffffffffffffffffffffffffffffffffffff\n              and\n              dup2\n              mstore\n              pop\n                /* \"contracts/MultiSigWallet.sol\":1636:1651  addressToMember */\n              0x06\n                /* \"contracts/MultiSigWallet.sol\":1636:1659  addressToMember[member] */\n              0x00\n                /* \"contracts/MultiSigWallet.sol\":1652:1658  member */\n              dup4\n                /* \"contracts/MultiSigWallet.sol\":1636:1659  addressToMember[member] */\n              0xffffffffffffffffffffffffffffffffffffffff\n              and\n              0xffffffffffffffffffffffffffffffffffffffff\n              and\n              dup2\n              mstore\n              0x20\n              add\n              swap1\n              dup2\n              mstore\n              0x20\n              add\n              0x00\n              keccak256\n                /* \"contracts/MultiSigWallet.sol\":1636:1693  addressToMember[member] = Member(block.timestamp, member) */\n              0x00\n              dup3\n              add\n              mload\n              dup2\n              0x00\n              add\n              sstore\n              0x20\n              dup3\n              add\n              mload\n              dup2\n              0x01\n              add\n              exp(0x0100, 0x00)\n              dup2\n              sload\n              dup2\n              0xffffffffffffffffffffffffffffffffffffffff\n              mul\n              not\n              and\n              swap1\n              dup4\n              0xffffffffffffffffffffffffffffffffffffffff\n              and\n              mul\n              or\n              swap1\n              sstore\n              pop\n              swap1\n              pop\n              pop\n                /* \"contracts/MultiSigWallet.sol\":1722:1726  true */\n              0x01\n                /* \"contracts/MultiSigWallet.sol\":1703:1711  isMember */\n              0x07\n                /* \"contracts/MultiSigWallet.sol\":1703:1719  isMember[member] */\n              0x00\n                /* \"contracts/MultiSigWallet.sol\":1712:1718  member */\n              dup4\n                /* \"contracts/MultiSigWallet.sol\":1703:1719  isMember[member] */\n              0xffffffffffffffffffffffffffffffffffffffff\n              and\n              0xffffffffffffffffffffffffffffffffffffffff\n              and\n              dup2\n              mstore\n              0x20\n              add\n              swap1\n              dup2\n              mstore\n              0x20\n              add\n              0x00\n              keccak256\n              0x00\n                /* \"contracts/MultiSigWallet.sol\":1703:1726  isMember[member] = true */\n              0x0100\n              exp\n              dup2\n              sload\n              dup2\n              0xff\n              mul\n              not\n              and\n              swap1\n              dup4\n              iszero\n              iszero\n              mul\n              or\n              swap1\n              sstore\n              pop\n                /* \"contracts/MultiSigWallet.sol\":1736:1751  multiSigFactory */\n              0x04\n              0x00\n              swap1\n              sload\n              swap1\n              0x0100\n              exp\n              swap1\n              div\n              0xffffffffffffffffffffffffffffffffffffffff\n              and\n                /* \"contracts/MultiSigWallet.sol\":1736:1761  multiSigFactory.addMember */\n              0xffffffffffffffffffffffffffffffffffffffff\n              and\n              0x74d0a676\n                /* \"contracts/MultiSigWallet.sol\":1762:1770  walletId */\n              sload(0x03)\n                /* \"contracts/MultiSigWallet.sol\":1772:1778  member */\n              dup4\n                /* \"contracts/MultiSigWallet.sol\":1736:1779  multiSigFactory.addMember(walletId, member) */\n              mload(0x40)\n              dup4\n              0xffffffff\n              and\n              0xe0\n              shl\n              dup2\n              mstore\n              0x04\n              add\n              tag_121\n              swap3\n              swap2\n              swap1\n              tag_55\n              jump\t// in\n            tag_121:\n              0x00\n              mload(0x40)\n              dup1\n              dup4\n              sub\n              dup2\n              0x00\n              dup8\n              dup1\n              extcodesize\n              iszero\n              dup1\n              iszero\n              tag_122\n              jumpi\n              0x00\n              dup1\n              revert\n            tag_122:\n              pop\n              gas\n              call\n              iszero\n              dup1\n              iszero\n              tag_124\n              jumpi\n              returndatasize\n              0x00\n              dup1\n              returndatacopy\n              revert(0x00, returndatasize)\n            tag_124:\n              pop\n              pop\n              pop\n              pop\n                /* \"contracts/MultiSigWallet.sol\":1789:1800  memberCount */\n              0x05\n              0x00\n                /* \"contracts/MultiSigWallet.sol\":1789:1802  memberCount++ */\n              dup2\n              sload\n              dup1\n              swap3\n              swap2\n              swap1\n              tag_125\n              swap1\n              tag_82\n              jump\t// in\n            tag_125:\n              swap2\n              swap1\n              pop\n              sstore\n              pop\n                /* \"contracts/MultiSigWallet.sol\":1526:1809  function addMember(address member) internal {... */\n              pop\n              jump\t// out\n                /* \"contracts/MultiSigWallet.sol\":3774:3967  function transfer(... */\n            tag_114:\n                /* \"contracts/MultiSigWallet.sol\":3906:3918  tokenAddress */\n              dup3\n                /* \"contracts/MultiSigWallet.sol\":3899:3928  IERC20(tokenAddress).transfer */\n              0xffffffffffffffffffffffffffffffffffffffff\n              and\n              0xa9059cbb\n                /* \"contracts/MultiSigWallet.sol\":3929:3931  to */\n              dup4\n                /* \"contracts/MultiSigWallet.sol\":3933:3939  amount */\n              dup4\n                /* \"contracts/MultiSigWallet.sol\":3899:3940  IERC20(tokenAddress).transfer(to, amount) */\n              mload(0x40)\n              dup4\n              0xffffffff\n              and\n              0xe0\n              shl\n              dup2\n              mstore\n              0x04\n              add\n              tag_127\n              swap3\n              swap2\n              swap1\n              tag_128\n              jump\t// in\n            tag_127:\n              0x20\n              mload(0x40)\n              dup1\n              dup4\n              sub\n              dup2\n              0x00\n              dup8\n              dup1\n              extcodesize\n              iszero\n              dup1\n              iszero\n              tag_129\n              jumpi\n              0x00\n              dup1\n              revert\n            tag_129:\n              pop\n              gas\n              call\n              iszero\n              dup1\n              iszero\n              tag_131\n              jumpi\n              returndatasize\n              0x00\n              dup1\n              returndatacopy\n              revert(0x00, returndatasize)\n            tag_131:\n              pop\n              pop\n              pop\n              pop\n              mload(0x40)\n              returndatasize\n              not(0x1f)\n              0x1f\n              dup3\n              add\n              and\n              dup3\n              add\n              dup1\n              0x40\n              mstore\n              pop\n              dup2\n              add\n              swap1\n              tag_132\n              swap2\n              swap1\n              tag_133\n              jump\t// in\n            tag_132:\n                /* \"contracts/MultiSigWallet.sol\":3891:3960  require(IERC20(tokenAddress).transfer(to, amount), \"Transfer failed\") */\n              tag_134\n              jumpi\n              mload(0x40)\n              0x08c379a000000000000000000000000000000000000000000000000000000000\n              dup2\n              mstore\n              0x04\n              add\n              tag_135\n              swap1\n              tag_136\n              jump\t// in\n            tag_135:\n              mload(0x40)\n              dup1\n              swap2\n              sub\n              swap1\n              revert\n            tag_134:\n                /* \"contracts/MultiSigWallet.sol\":3774:3967  function transfer(... */\n              pop\n              pop\n              pop\n              jump\t// out\n                /* \"#utility.yul\":24:646   */\n            tag_138:\n              0x00\n                /* \"#utility.yul\":145:225   */\n              tag_140\n                /* \"#utility.yul\":160:224   */\n              tag_141\n                /* \"#utility.yul\":217:223   */\n              dup5\n                /* \"#utility.yul\":160:224   */\n              tag_142\n              jump\t// in\n            tag_141:\n                /* \"#utility.yul\":145:225   */\n              tag_143\n              jump\t// in\n            tag_140:\n                /* \"#utility.yul\":136:225   */\n              swap1\n              pop\n                /* \"#utility.yul\":245:250   */\n              dup1\n                /* \"#utility.yul\":273:279   */\n              dup4\n                /* \"#utility.yul\":266:271   */\n              dup3\n                /* \"#utility.yul\":259:280   */\n              mstore\n                /* \"#utility.yul\":299:303   */\n              0x20\n                /* \"#utility.yul\":292:297   */\n              dup3\n                /* \"#utility.yul\":288:304   */\n              add\n                /* \"#utility.yul\":281:304   */\n              swap1\n              pop\n                /* \"#utility.yul\":324:330   */\n              dup3\n                /* \"#utility.yul\":374:377   */\n              dup6\n                /* \"#utility.yul\":366:370   */\n              0x20\n                /* \"#utility.yul\":358:364   */\n              dup7\n                /* \"#utility.yul\":354:371   */\n              mul\n                /* \"#utility.yul\":349:352   */\n              dup3\n                /* \"#utility.yul\":345:372   */\n              add\n                /* \"#utility.yul\":342:378   */\n              gt\n                /* \"#utility.yul\":339:341   */\n              iszero\n              tag_144\n              jumpi\n                /* \"#utility.yul\":391:392   */\n              0x00\n                /* \"#utility.yul\":388:389   */\n              dup1\n                /* \"#utility.yul\":381:393   */\n              revert\n                /* \"#utility.yul\":339:341   */\n            tag_144:\n                /* \"#utility.yul\":419:420   */\n              0x00\n                /* \"#utility.yul\":404:640   */\n            tag_145:\n                /* \"#utility.yul\":429:435   */\n              dup6\n                /* \"#utility.yul\":426:427   */\n              dup2\n                /* \"#utility.yul\":423:436   */\n              lt\n                /* \"#utility.yul\":404:640   */\n              iszero\n              tag_147\n              jumpi\n                /* \"#utility.yul\":496:499   */\n              dup2\n                /* \"#utility.yul\":524:561   */\n              tag_148\n                /* \"#utility.yul\":557:560   */\n              dup9\n                /* \"#utility.yul\":545:555   */\n              dup3\n                /* \"#utility.yul\":524:561   */\n              tag_149\n              jump\t// in\n            tag_148:\n                /* \"#utility.yul\":519:522   */\n              dup5\n                /* \"#utility.yul\":512:562   */\n              mstore\n                /* \"#utility.yul\":591:595   */\n              0x20\n                /* \"#utility.yul\":586:589   */\n              dup5\n                /* \"#utility.yul\":582:596   */\n              add\n                /* \"#utility.yul\":575:596   */\n              swap4\n              pop\n                /* \"#utility.yul\":625:629   */\n              0x20\n                /* \"#utility.yul\":620:623   */\n              dup4\n                /* \"#utility.yul\":616:630   */\n              add\n                /* \"#utility.yul\":609:630   */\n              swap3\n              pop\n                /* \"#utility.yul\":464:640   */\n              pop\n                /* \"#utility.yul\":451:452   */\n              0x01\n                /* \"#utility.yul\":448:449   */\n              dup2\n                /* \"#utility.yul\":444:453   */\n              add\n                /* \"#utility.yul\":439:453   */\n              swap1\n              pop\n                /* \"#utility.yul\":404:640   */\n              jump(tag_145)\n            tag_147:\n                /* \"#utility.yul\":408:422   */\n              pop\n                /* \"#utility.yul\":126:646   */\n              pop\n              pop\n              swap4\n              swap3\n              pop\n              pop\n              pop\n              jump\t// out\n                /* \"#utility.yul\":652:791   */\n            tag_149:\n              0x00\n                /* \"#utility.yul\":736:742   */\n              dup2\n                /* \"#utility.yul\":723:743   */\n              calldataload\n                /* \"#utility.yul\":714:743   */\n              swap1\n              pop\n                /* \"#utility.yul\":752:785   */\n              tag_151\n                /* \"#utility.yul\":779:784   */\n              dup2\n                /* \"#utility.yul\":752:785   */\n              tag_152\n              jump\t// in\n            tag_151:\n                /* \"#utility.yul\":704:791   */\n              swap3\n              swap2\n              pop\n              pop\n              jump\t// out\n                /* \"#utility.yul\":814:1117   */\n            tag_153:\n              0x00\n                /* \"#utility.yul\":934:937   */\n              dup3\n                /* \"#utility.yul\":927:931   */\n              0x1f\n                /* \"#utility.yul\":919:925   */\n              dup4\n                /* \"#utility.yul\":915:932   */\n              add\n                /* \"#utility.yul\":911:938   */\n              slt\n                /* \"#utility.yul\":901:903   */\n              tag_155\n              jumpi\n                /* \"#utility.yul\":952:953   */\n              0x00\n                /* \"#utility.yul\":949:950   */\n              dup1\n                /* \"#utility.yul\":942:954   */\n              revert\n                /* \"#utility.yul\":901:903   */\n            tag_155:\n                /* \"#utility.yul\":992:998   */\n              dup2\n                /* \"#utility.yul\":979:999   */\n              calldataload\n                /* \"#utility.yul\":1017:1111   */\n              tag_156\n                /* \"#utility.yul\":1107:1110   */\n              dup5\n                /* \"#utility.yul\":1099:1105   */\n              dup3\n                /* \"#utility.yul\":1092:1096   */\n              0x20\n                /* \"#utility.yul\":1084:1090   */\n              dup7\n                /* \"#utility.yul\":1080:1097   */\n              add\n                /* \"#utility.yul\":1017:1111   */\n              tag_138\n              jump\t// in\n            tag_156:\n                /* \"#utility.yul\":1008:1111   */\n              swap2\n              pop\n                /* \"#utility.yul\":891:1117   */\n              pop\n              swap3\n              swap2\n              pop\n              pop\n              jump\t// out\n                /* \"#utility.yul\":1123:1260   */\n            tag_157:\n              0x00\n                /* \"#utility.yul\":1208:1214   */\n              dup2\n                /* \"#utility.yul\":1202:1215   */\n              mload\n                /* \"#utility.yul\":1193:1215   */\n              swap1\n              pop\n                /* \"#utility.yul\":1224:1254   */\n              tag_159\n                /* \"#utility.yul\":1248:1253   */\n              dup2\n                /* \"#utility.yul\":1224:1254   */\n              tag_160\n              jump\t// in\n            tag_159:\n                /* \"#utility.yul\":1183:1260   */\n              swap3\n              swap2\n              pop\n              pop\n              jump\t// out\n                /* \"#utility.yul\":1266:1405   */\n            tag_161:\n              0x00\n                /* \"#utility.yul\":1350:1356   */\n              dup2\n                /* \"#utility.yul\":1337:1357   */\n              calldataload\n                /* \"#utility.yul\":1328:1357   */\n              swap1\n              pop\n                /* \"#utility.yul\":1366:1399   */\n              tag_163\n                /* \"#utility.yul\":1393:1398   */\n              dup2\n                /* \"#utility.yul\":1366:1399   */\n              tag_164\n              jump\t// in\n            tag_163:\n                /* \"#utility.yul\":1318:1405   */\n              swap3\n              swap2\n              pop\n              pop\n              jump\t// out\n                /* \"#utility.yul\":1411:1673   */\n            tag_35:\n              0x00\n                /* \"#utility.yul\":1519:1521   */\n              0x20\n                /* \"#utility.yul\":1507:1516   */\n              dup3\n                /* \"#utility.yul\":1498:1505   */\n              dup5\n                /* \"#utility.yul\":1494:1517   */\n              sub\n                /* \"#utility.yul\":1490:1522   */\n              slt\n                /* \"#utility.yul\":1487:1489   */\n              iszero\n              tag_166\n              jumpi\n                /* \"#utility.yul\":1535:1536   */\n              0x00\n                /* \"#utility.yul\":1532:1533   */\n              dup1\n                /* \"#utility.yul\":1525:1537   */\n              revert\n                /* \"#utility.yul\":1487:1489   */\n            tag_166:\n                /* \"#utility.yul\":1578:1579   */\n              0x00\n                /* \"#utility.yul\":1603:1656   */\n              tag_167\n                /* \"#utility.yul\":1648:1655   */\n              dup5\n                /* \"#utility.yul\":1639:1645   */\n              dup3\n                /* \"#utility.yul\":1628:1637   */\n              dup6\n                /* \"#utility.yul\":1624:1646   */\n              add\n                /* \"#utility.yul\":1603:1656   */\n              tag_149\n              jump\t// in\n            tag_167:\n                /* \"#utility.yul\":1593:1656   */\n              swap2\n              pop\n                /* \"#utility.yul\":1549:1666   */\n              pop\n                /* \"#utility.yul\":1477:1673   */\n              swap3\n              swap2\n              pop\n              pop\n              jump\t// out\n                /* \"#utility.yul\":1679:2231   */\n            tag_44:\n              0x00\n              dup1\n              0x00\n                /* \"#utility.yul\":1821:1823   */\n              0x60\n                /* \"#utility.yul\":1809:1818   */\n              dup5\n                /* \"#utility.yul\":1800:1807   */\n              dup7\n                /* \"#utility.yul\":1796:1819   */\n              sub\n                /* \"#utility.yul\":1792:1824   */\n              slt\n                /* \"#utility.yul\":1789:1791   */\n              iszero\n              tag_169\n              jumpi\n                /* \"#utility.yul\":1837:1838   */\n              0x00\n                /* \"#utility.yul\":1834:1835   */\n              dup1\n                /* \"#utility.yul\":1827:1839   */\n              revert\n                /* \"#utility.yul\":1789:1791   */\n            tag_169:\n                /* \"#utility.yul\":1880:1881   */\n              0x00\n                /* \"#utility.yul\":1905:1958   */\n              tag_170\n                /* \"#utility.yul\":1950:1957   */\n              dup7\n                /* \"#utility.yul\":1941:1947   */\n              dup3\n                /* \"#utility.yul\":1930:1939   */\n              dup8\n                /* \"#utility.yul\":1926:1948   */\n              add\n                /* \"#utility.yul\":1905:1958   */\n              tag_149\n              jump\t// in\n            tag_170:\n                /* \"#utility.yul\":1895:1958   */\n              swap4\n              pop\n                /* \"#utility.yul\":1851:1968   */\n              pop\n                /* \"#utility.yul\":2007:2009   */\n              0x20\n                /* \"#utility.yul\":2033:2086   */\n              tag_171\n                /* \"#utility.yul\":2078:2085   */\n              dup7\n                /* \"#utility.yul\":2069:2075   */\n              dup3\n                /* \"#utility.yul\":2058:2067   */\n              dup8\n                /* \"#utility.yul\":2054:2076   */\n              add\n                /* \"#utility.yul\":2033:2086   */\n              tag_149\n              jump\t// in\n            tag_171:\n                /* \"#utility.yul\":2023:2086   */\n              swap3\n              pop\n                /* \"#utility.yul\":1978:2096   */\n              pop\n                /* \"#utility.yul\":2135:2137   */\n              0x40\n                /* \"#utility.yul\":2161:2214   */\n              tag_172\n                /* \"#utility.yul\":2206:2213   */\n              dup7\n                /* \"#utility.yul\":2197:2203   */\n              dup3\n                /* \"#utility.yul\":2186:2195   */\n              dup8\n                /* \"#utility.yul\":2182:2204   */\n              add\n                /* \"#utility.yul\":2161:2214   */\n              tag_161\n              jump\t// in\n            tag_172:\n                /* \"#utility.yul\":2151:2214   */\n              swap2\n              pop\n                /* \"#utility.yul\":2106:2224   */\n              pop\n                /* \"#utility.yul\":1779:2231   */\n              swap3\n              pop\n              swap3\n              pop\n              swap3\n              jump\t// out\n                /* \"#utility.yul\":2237:2642   */\n            tag_31:\n              0x00\n                /* \"#utility.yul\":2370:2372   */\n              0x20\n                /* \"#utility.yul\":2358:2367   */\n              dup3\n                /* \"#utility.yul\":2349:2356   */\n              dup5\n                /* \"#utility.yul\":2345:2368   */\n              sub\n                /* \"#utility.yul\":2341:2373   */\n              slt\n                /* \"#utility.yul\":2338:2340   */\n              iszero\n              tag_174\n              jumpi\n                /* \"#utility.yul\":2386:2387   */\n              0x00\n                /* \"#utility.yul\":2383:2384   */\n              dup1\n                /* \"#utility.yul\":2376:2388   */\n              revert\n                /* \"#utility.yul\":2338:2340   */\n            tag_174:\n                /* \"#utility.yul\":2457:2458   */\n              0x00\n                /* \"#utility.yul\":2446:2455   */\n              dup3\n                /* \"#utility.yul\":2442:2459   */\n              add\n                /* \"#utility.yul\":2429:2460   */\n              calldataload\n                /* \"#utility.yul\":2487:2505   */\n              0xffffffffffffffff\n                /* \"#utility.yul\":2479:2485   */\n              dup2\n                /* \"#utility.yul\":2476:2506   */\n              gt\n                /* \"#utility.yul\":2473:2475   */\n              iszero\n              tag_175\n              jumpi\n                /* \"#utility.yul\":2519:2520   */\n              0x00\n                /* \"#utility.yul\":2516:2517   */\n              dup1\n                /* \"#utility.yul\":2509:2521   */\n              revert\n                /* \"#utility.yul\":2473:2475   */\n            tag_175:\n                /* \"#utility.yul\":2547:2625   */\n              tag_176\n                /* \"#utility.yul\":2617:2624   */\n              dup5\n                /* \"#utility.yul\":2608:2614   */\n              dup3\n                /* \"#utility.yul\":2597:2606   */\n              dup6\n                /* \"#utility.yul\":2593:2615   */\n              add\n                /* \"#utility.yul\":2547:2625   */\n              tag_153\n              jump\t// in\n            tag_176:\n                /* \"#utility.yul\":2537:2625   */\n              swap2\n              pop\n                /* \"#utility.yul\":2400:2635   */\n              pop\n                /* \"#utility.yul\":2328:2642   */\n              swap3\n              swap2\n              pop\n              pop\n              jump\t// out\n                /* \"#utility.yul\":2648:2926   */\n            tag_133:\n              0x00\n                /* \"#utility.yul\":2764:2766   */\n              0x20\n                /* \"#utility.yul\":2752:2761   */\n              dup3\n                /* \"#utility.yul\":2743:2750   */\n              dup5\n                /* \"#utility.yul\":2739:2762   */\n              sub\n                /* \"#utility.yul\":2735:2767   */\n              slt\n                /* \"#utility.yul\":2732:2734   */\n              iszero\n              tag_178\n              jumpi\n                /* \"#utility.yul\":2780:2781   */\n              0x00\n                /* \"#utility.yul\":2777:2778   */\n              dup1\n                /* \"#utility.yul\":2770:2782   */\n              revert\n                /* \"#utility.yul\":2732:2734   */\n            tag_178:\n                /* \"#utility.yul\":2823:2824   */\n              0x00\n                /* \"#utility.yul\":2848:2909   */\n              tag_179\n                /* \"#utility.yul\":2901:2908   */\n              dup5\n                /* \"#utility.yul\":2892:2898   */\n              dup3\n                /* \"#utility.yul\":2881:2890   */\n              dup6\n                /* \"#utility.yul\":2877:2899   */\n              add\n                /* \"#utility.yul\":2848:2909   */\n              tag_157\n              jump\t// in\n            tag_179:\n                /* \"#utility.yul\":2838:2909   */\n              swap2\n              pop\n                /* \"#utility.yul\":2794:2919   */\n              pop\n                /* \"#utility.yul\":2722:2926   */\n              swap3\n              swap2\n              pop\n              pop\n              jump\t// out\n                /* \"#utility.yul\":2932:3194   */\n            tag_17:\n              0x00\n                /* \"#utility.yul\":3040:3042   */\n              0x20\n                /* \"#utility.yul\":3028:3037   */\n              dup3\n                /* \"#utility.yul\":3019:3026   */\n              dup5\n                /* \"#utility.yul\":3015:3038   */\n              sub\n                /* \"#utility.yul\":3011:3043   */\n              slt\n                /* \"#utility.yul\":3008:3010   */\n              iszero\n              tag_181\n              jumpi\n                /* \"#utility.yul\":3056:3057   */\n              0x00\n                /* \"#utility.yul\":3053:3054   */\n              dup1\n                /* \"#utility.yul\":3046:3058   */\n              revert\n                /* \"#utility.yul\":3008:3010   */\n            tag_181:\n                /* \"#utility.yul\":3099:3100   */\n              0x00\n                /* \"#utility.yul\":3124:3177   */\n              tag_182\n                /* \"#utility.yul\":3169:3176   */\n              dup5\n                /* \"#utility.yul\":3160:3166   */\n              dup3\n                /* \"#utility.yul\":3149:3158   */\n              dup6\n                /* \"#utility.yul\":3145:3167   */\n              add\n                /* \"#utility.yul\":3124:3177   */\n              tag_161\n              jump\t// in\n            tag_182:\n                /* \"#utility.yul\":3114:3177   */\n              swap2\n              pop\n                /* \"#utility.yul\":3070:3187   */\n              pop\n                /* \"#utility.yul\":2998:3194   */\n              swap3\n              swap2\n              pop\n              pop\n              jump\t// out\n                /* \"#utility.yul\":3200:3607   */\n            tag_27:\n              0x00\n              dup1\n                /* \"#utility.yul\":3325:3327   */\n              0x40\n                /* \"#utility.yul\":3313:3322   */\n              dup4\n                /* \"#utility.yul\":3304:3311   */\n              dup6\n                /* \"#utility.yul\":3300:3323   */\n              sub\n                /* \"#utility.yul\":3296:3328   */\n              slt\n                /* \"#utility.yul\":3293:3295   */\n              iszero\n              tag_184\n              jumpi\n                /* \"#utility.yul\":3341:3342   */\n              0x00\n                /* \"#utility.yul\":3338:3339   */\n              dup1\n                /* \"#utility.yul\":3331:3343   */\n              revert\n                /* \"#utility.yul\":3293:3295   */\n            tag_184:\n                /* \"#utility.yul\":3384:3385   */\n              0x00\n                /* \"#utility.yul\":3409:3462   */\n              tag_185\n                /* \"#utility.yul\":3454:3461   */\n              dup6\n                /* \"#utility.yul\":3445:3451   */\n              dup3\n                /* \"#utility.yul\":3434:3443   */\n              dup7\n                /* \"#utility.yul\":3430:3452   */\n              add\n                /* \"#utility.yul\":3409:3462   */\n              tag_161\n              jump\t// in\n            tag_185:\n                /* \"#utility.yul\":3399:3462   */\n              swap3\n              pop\n                /* \"#utility.yul\":3355:3472   */\n              pop\n                /* \"#utility.yul\":3511:3513   */\n              0x20\n                /* \"#utility.yul\":3537:3590   */\n              tag_186\n                /* \"#utility.yul\":3582:3589   */\n              dup6\n                /* \"#utility.yul\":3573:3579   */\n              dup3\n                /* \"#utility.yul\":3562:3571   */\n              dup7\n                /* \"#utility.yul\":3558:3580   */\n              add\n                /* \"#utility.yul\":3537:3590   */\n              tag_161\n              jump\t// in\n            tag_186:\n                /* \"#utility.yul\":3527:3590   */\n              swap2\n              pop\n                /* \"#utility.yul\":3482:3600   */\n              pop\n                /* \"#utility.yul\":3283:3607   */\n              swap3\n              pop\n              swap3\n              swap1\n              pop\n              jump\t// out\n                /* \"#utility.yul\":3613:3731   */\n            tag_187:\n                /* \"#utility.yul\":3700:3724   */\n              tag_189\n                /* \"#utility.yul\":3718:3723   */\n              dup2\n                /* \"#utility.yul\":3700:3724   */\n              tag_190\n              jump\t// in\n            tag_189:\n                /* \"#utility.yul\":3695:3698   */\n              dup3\n                /* \"#utility.yul\":3688:3725   */\n              mstore\n                /* \"#utility.yul\":3678:3731   */\n              pop\n              pop\n              jump\t// out\n                /* \"#utility.yul\":3737:3846   */\n            tag_191:\n                /* \"#utility.yul\":3818:3839   */\n              tag_193\n                /* \"#utility.yul\":3833:3838   */\n              dup2\n                /* \"#utility.yul\":3818:3839   */\n              tag_194\n              jump\t// in\n            tag_193:\n                /* \"#utility.yul\":3813:3816   */\n              dup3\n                /* \"#utility.yul\":3806:3840   */\n              mstore\n                /* \"#utility.yul\":3796:3846   */\n              pop\n              pop\n              jump\t// out\n                /* \"#utility.yul\":3852:4168   */\n            tag_195:\n              0x00\n                /* \"#utility.yul\":4015:4082   */\n              tag_197\n                /* \"#utility.yul\":4079:4081   */\n              0x12\n                /* \"#utility.yul\":4074:4077   */\n              dup4\n                /* \"#utility.yul\":4015:4082   */\n              tag_198\n              jump\t// in\n            tag_197:\n                /* \"#utility.yul\":4008:4082   */\n              swap2\n              pop\n                /* \"#utility.yul\":4112:4132   */\n              0x4f6e6c79206d656d626572206d6574686f640000000000000000000000000000\n                /* \"#utility.yul\":4108:4109   */\n              0x00\n                /* \"#utility.yul\":4103:4106   */\n              dup4\n                /* \"#utility.yul\":4099:4110   */\n              add\n                /* \"#utility.yul\":4092:4133   */\n              mstore\n                /* \"#utility.yul\":4159:4161   */\n              0x20\n                /* \"#utility.yul\":4154:4157   */\n              dup3\n                /* \"#utility.yul\":4150:4162   */\n              add\n                /* \"#utility.yul\":4143:4162   */\n              swap1\n              pop\n                /* \"#utility.yul\":3998:4168   */\n              swap2\n              swap1\n              pop\n              jump\t// out\n                /* \"#utility.yul\":4174:4487   */\n            tag_199:\n              0x00\n                /* \"#utility.yul\":4337:4404   */\n              tag_201\n                /* \"#utility.yul\":4401:4403   */\n              0x0f\n                /* \"#utility.yul\":4396:4399   */\n              dup4\n                /* \"#utility.yul\":4337:4404   */\n              tag_198\n              jump\t// in\n            tag_201:\n                /* \"#utility.yul\":4330:4404   */\n              swap2\n              pop\n                /* \"#utility.yul\":4434:4451   */\n              0x5472616e73666572206661696c65640000000000000000000000000000000000\n                /* \"#utility.yul\":4430:4431   */\n              0x00\n                /* \"#utility.yul\":4425:4428   */\n              dup4\n                /* \"#utility.yul\":4421:4432   */\n              add\n                /* \"#utility.yul\":4414:4452   */\n              mstore\n                /* \"#utility.yul\":4478:4480   */\n              0x20\n                /* \"#utility.yul\":4473:4476   */\n              dup3\n                /* \"#utility.yul\":4469:4481   */\n              add\n                /* \"#utility.yul\":4462:4481   */\n              swap1\n              pop\n                /* \"#utility.yul\":4320:4487   */\n              swap2\n              swap1\n              pop\n              jump\t// out\n                /* \"#utility.yul\":4493:4869   */\n            tag_202:\n              0x00\n                /* \"#utility.yul\":4656:4723   */\n              tag_204\n                /* \"#utility.yul\":4720:4722   */\n              0x2c\n                /* \"#utility.yul\":4715:4718   */\n              dup4\n                /* \"#utility.yul\":4656:4723   */\n              tag_198\n              jump\t// in\n            tag_204:\n                /* \"#utility.yul\":4649:4723   */\n              swap2\n              pop\n                /* \"#utility.yul\":4753:4787   */\n              0x55736572207761736e27742061206d656d626572206174207468652074696d65\n                /* \"#utility.yul\":4749:4750   */\n              0x00\n                /* \"#utility.yul\":4744:4747   */\n              dup4\n                /* \"#utility.yul\":4740:4751   */\n              add\n                /* \"#utility.yul\":4733:4788   */\n              mstore\n                /* \"#utility.yul\":4819:4833   */\n              0x206f66206f72646572696e670000000000000000000000000000000000000000\n                /* \"#utility.yul\":4814:4816   */\n              0x20\n                /* \"#utility.yul\":4809:4812   */\n              dup4\n                /* \"#utility.yul\":4805:4817   */\n              add\n                /* \"#utility.yul\":4798:4834   */\n              mstore\n                /* \"#utility.yul\":4860:4862   */\n              0x40\n                /* \"#utility.yul\":4855:4858   */\n              dup3\n                /* \"#utility.yul\":4851:4863   */\n              add\n                /* \"#utility.yul\":4844:4863   */\n              swap1\n              pop\n                /* \"#utility.yul\":4639:4869   */\n              swap2\n              swap1\n              pop\n              jump\t// out\n                /* \"#utility.yul\":4875:5189   */\n            tag_205:\n              0x00\n                /* \"#utility.yul\":5038:5105   */\n              tag_207\n                /* \"#utility.yul\":5102:5104   */\n              0x10\n                /* \"#utility.yul\":5097:5100   */\n              dup4\n                /* \"#utility.yul\":5038:5105   */\n              tag_198\n              jump\t// in\n            tag_207:\n                /* \"#utility.yul\":5031:5105   */\n              swap2\n              pop\n                /* \"#utility.yul\":5135:5153   */\n              0x416c726561647920657865637574656400000000000000000000000000000000\n                /* \"#utility.yul\":5131:5132   */\n              0x00\n                /* \"#utility.yul\":5126:5129   */\n              dup4\n                /* \"#utility.yul\":5122:5133   */\n              add\n                /* \"#utility.yul\":5115:5154   */\n              mstore\n                /* \"#utility.yul\":5180:5182   */\n              0x20\n                /* \"#utility.yul\":5175:5178   */\n              dup3\n                /* \"#utility.yul\":5171:5183   */\n              add\n                /* \"#utility.yul\":5164:5183   */\n              swap1\n              pop\n                /* \"#utility.yul\":5021:5189   */\n              swap2\n              swap1\n              pop\n              jump\t// out\n                /* \"#utility.yul\":5195:5513   */\n            tag_208:\n              0x00\n                /* \"#utility.yul\":5358:5425   */\n              tag_210\n                /* \"#utility.yul\":5422:5424   */\n              0x14\n                /* \"#utility.yul\":5417:5420   */\n              dup4\n                /* \"#utility.yul\":5358:5425   */\n              tag_198\n              jump\t// in\n            tag_210:\n                /* \"#utility.yul\":5351:5425   */\n              swap2\n              pop\n                /* \"#utility.yul\":5455:5477   */\n              0x4e6f7420612076616c6964206465636973696f6e000000000000000000000000\n                /* \"#utility.yul\":5451:5452   */\n              0x00\n                /* \"#utility.yul\":5446:5449   */\n              dup4\n                /* \"#utility.yul\":5442:5453   */\n              add\n                /* \"#utility.yul\":5435:5478   */\n              mstore\n                /* \"#utility.yul\":5504:5506   */\n              0x20\n                /* \"#utility.yul\":5499:5502   */\n              dup3\n                /* \"#utility.yul\":5495:5507   */\n              add\n                /* \"#utility.yul\":5488:5507   */\n              swap1\n              pop\n                /* \"#utility.yul\":5341:5513   */\n              swap2\n              swap1\n              pop\n              jump\t// out\n                /* \"#utility.yul\":5519:5840   */\n            tag_211:\n              0x00\n                /* \"#utility.yul\":5682:5749   */\n              tag_213\n                /* \"#utility.yul\":5746:5748   */\n              0x17\n                /* \"#utility.yul\":5741:5744   */\n              dup4\n                /* \"#utility.yul\":5682:5749   */\n              tag_198\n              jump\t// in\n            tag_213:\n                /* \"#utility.yul\":5675:5749   */\n              swap2\n              pop\n                /* \"#utility.yul\":5779:5804   */\n              0x416c7265616479206d6164652061206465636973696f6e000000000000000000\n                /* \"#utility.yul\":5775:5776   */\n              0x00\n                /* \"#utility.yul\":5770:5773   */\n              dup4\n                /* \"#utility.yul\":5766:5777   */\n              add\n                /* \"#utility.yul\":5759:5805   */\n              mstore\n                /* \"#utility.yul\":5831:5833   */\n              0x20\n                /* \"#utility.yul\":5826:5829   */\n              dup3\n                /* \"#utility.yul\":5822:5834   */\n              add\n                /* \"#utility.yul\":5815:5834   */\n              swap1\n              pop\n                /* \"#utility.yul\":5665:5840   */\n              swap2\n              swap1\n              pop\n              jump\t// out\n                /* \"#utility.yul\":5846:6161   */\n            tag_214:\n              0x00\n                /* \"#utility.yul\":6009:6076   */\n              tag_216\n                /* \"#utility.yul\":6073:6075   */\n              0x11\n                /* \"#utility.yul\":6068:6071   */\n              dup4\n                /* \"#utility.yul\":6009:6076   */\n              tag_198\n              jump\t// in\n            tag_216:\n                /* \"#utility.yul\":6002:6076   */\n              swap2\n              pop\n                /* \"#utility.yul\":6106:6125   */\n              0x4f6e6c79206f776e6572206d6574686f64000000000000000000000000000000\n                /* \"#utility.yul\":6102:6103   */\n              0x00\n                /* \"#utility.yul\":6097:6100   */\n              dup4\n                /* \"#utility.yul\":6093:6104   */\n              add\n                /* \"#utility.yul\":6086:6126   */\n              mstore\n                /* \"#utility.yul\":6152:6154   */\n              0x20\n                /* \"#utility.yul\":6147:6150   */\n              dup3\n                /* \"#utility.yul\":6143:6155   */\n              add\n                /* \"#utility.yul\":6136:6155   */\n              swap1\n              pop\n                /* \"#utility.yul\":5992:6161   */\n              swap2\n              swap1\n              pop\n              jump\t// out\n                /* \"#utility.yul\":6167:6481   */\n            tag_217:\n              0x00\n                /* \"#utility.yul\":6330:6397   */\n              tag_219\n                /* \"#utility.yul\":6394:6396   */\n              0x10\n                /* \"#utility.yul\":6389:6392   */\n              dup4\n                /* \"#utility.yul\":6330:6397   */\n              tag_198\n              jump\t// in\n            tag_219:\n                /* \"#utility.yul\":6323:6397   */\n              swap2\n              pop\n                /* \"#utility.yul\":6427:6445   */\n              0x416c72656164792061206d656d62657200000000000000000000000000000000\n                /* \"#utility.yul\":6423:6424   */\n              0x00\n                /* \"#utility.yul\":6418:6421   */\n              dup4\n                /* \"#utility.yul\":6414:6425   */\n              add\n                /* \"#utility.yul\":6407:6446   */\n              mstore\n                /* \"#utility.yul\":6472:6474   */\n              0x20\n                /* \"#utility.yul\":6467:6470   */\n              dup3\n                /* \"#utility.yul\":6463:6475   */\n              add\n                /* \"#utility.yul\":6456:6475   */\n              swap1\n              pop\n                /* \"#utility.yul\":6313:6481   */\n              swap2\n              swap1\n              pop\n              jump\t// out\n                /* \"#utility.yul\":6487:6816   */\n            tag_220:\n              0x00\n                /* \"#utility.yul\":6650:6717   */\n              tag_222\n                /* \"#utility.yul\":6714:6716   */\n              0x1f\n                /* \"#utility.yul\":6709:6712   */\n              dup4\n                /* \"#utility.yul\":6650:6717   */\n              tag_198\n              jump\t// in\n            tag_222:\n                /* \"#utility.yul\":6643:6717   */\n              swap2\n              pop\n                /* \"#utility.yul\":6747:6780   */\n              0x5265656e7472616e637947756172643a207265656e7472616e742063616c6c00\n                /* \"#utility.yul\":6743:6744   */\n              0x00\n                /* \"#utility.yul\":6738:6741   */\n              dup4\n                /* \"#utility.yul\":6734:6745   */\n              add\n                /* \"#utility.yul\":6727:6781   */\n              mstore\n                /* \"#utility.yul\":6807:6809   */\n              0x20\n                /* \"#utility.yul\":6802:6805   */\n              dup3\n                /* \"#utility.yul\":6798:6810   */\n              add\n                /* \"#utility.yul\":6791:6810   */\n              swap1\n              pop\n                /* \"#utility.yul\":6633:6816   */\n              swap2\n              swap1\n              pop\n              jump\t// out\n                /* \"#utility.yul\":6822:6940   */\n            tag_223:\n                /* \"#utility.yul\":6909:6933   */\n              tag_225\n                /* \"#utility.yul\":6927:6932   */\n              dup2\n                /* \"#utility.yul\":6909:6933   */\n              tag_226\n              jump\t// in\n            tag_225:\n                /* \"#utility.yul\":6904:6907   */\n              dup3\n                /* \"#utility.yul\":6897:6934   */\n              mstore\n                /* \"#utility.yul\":6887:6940   */\n              pop\n              pop\n              jump\t// out\n                /* \"#utility.yul\":6946:7168   */\n            tag_41:\n              0x00\n                /* \"#utility.yul\":7077:7079   */\n              0x20\n                /* \"#utility.yul\":7066:7075   */\n              dup3\n                /* \"#utility.yul\":7062:7080   */\n              add\n                /* \"#utility.yul\":7054:7080   */\n              swap1\n              pop\n                /* \"#utility.yul\":7090:7161   */\n              tag_228\n                /* \"#utility.yul\":7158:7159   */\n              0x00\n                /* \"#utility.yul\":7147:7156   */\n              dup4\n                /* \"#utility.yul\":7143:7160   */\n              add\n                /* \"#utility.yul\":7134:7140   */\n              dup5\n                /* \"#utility.yul\":7090:7161   */\n              tag_187\n              jump\t// in\n            tag_228:\n                /* \"#utility.yul\":7044:7168   */\n              swap3\n              swap2\n              pop\n              pop\n              jump\t// out\n                /* \"#utility.yul\":7174:7506   */\n            tag_128:\n              0x00\n                /* \"#utility.yul\":7333:7335   */\n              0x40\n                /* \"#utility.yul\":7322:7331   */\n              dup3\n                /* \"#utility.yul\":7318:7336   */\n              add\n                /* \"#utility.yul\":7310:7336   */\n              swap1\n              pop\n                /* \"#utility.yul\":7346:7417   */\n              tag_230\n                /* \"#utility.yul\":7414:7415   */\n              0x00\n                /* \"#utility.yul\":7403:7412   */\n              dup4\n                /* \"#utility.yul\":7399:7416   */\n              add\n                /* \"#utility.yul\":7390:7396   */\n              dup6\n                /* \"#utility.yul\":7346:7417   */\n              tag_187\n              jump\t// in\n            tag_230:\n                /* \"#utility.yul\":7427:7499   */\n              tag_231\n                /* \"#utility.yul\":7495:7497   */\n              0x20\n                /* \"#utility.yul\":7484:7493   */\n              dup4\n                /* \"#utility.yul\":7480:7498   */\n              add\n                /* \"#utility.yul\":7471:7477   */\n              dup5\n                /* \"#utility.yul\":7427:7499   */\n              tag_223\n              jump\t// in\n            tag_231:\n                /* \"#utility.yul\":7300:7506   */\n              swap4\n              swap3\n              pop\n              pop\n              pop\n              jump\t// out\n                /* \"#utility.yul\":7512:7722   */\n            tag_50:\n              0x00\n                /* \"#utility.yul\":7637:7639   */\n              0x20\n                /* \"#utility.yul\":7626:7635   */\n              dup3\n                /* \"#utility.yul\":7622:7640   */\n              add\n                /* \"#utility.yul\":7614:7640   */\n              swap1\n              pop\n                /* \"#utility.yul\":7650:7715   */\n              tag_233\n                /* \"#utility.yul\":7712:7713   */\n              0x00\n                /* \"#utility.yul\":7701:7710   */\n              dup4\n                /* \"#utility.yul\":7697:7714   */\n              add\n                /* \"#utility.yul\":7688:7694   */\n              dup5\n                /* \"#utility.yul\":7650:7715   */\n              tag_191\n              jump\t// in\n            tag_233:\n                /* \"#utility.yul\":7604:7722   */\n              swap3\n              swap2\n              pop\n              pop\n              jump\t// out\n                /* \"#utility.yul\":7728:8147   */\n            tag_104:\n              0x00\n                /* \"#utility.yul\":7932:7934   */\n              0x20\n                /* \"#utility.yul\":7921:7930   */\n              dup3\n                /* \"#utility.yul\":7917:7935   */\n              add\n                /* \"#utility.yul\":7909:7935   */\n              swap1\n              pop\n                /* \"#utility.yul\":7981:7990   */\n              dup2\n                /* \"#utility.yul\":7975:7979   */\n              dup2\n                /* \"#utility.yul\":7971:7991   */\n              sub\n                /* \"#utility.yul\":7967:7968   */\n              0x00\n                /* \"#utility.yul\":7956:7965   */\n              dup4\n                /* \"#utility.yul\":7952:7969   */\n              add\n                /* \"#utility.yul\":7945:7992   */\n              mstore\n                /* \"#utility.yul\":8009:8140   */\n              tag_235\n                /* \"#utility.yul\":8135:8139   */\n              dup2\n                /* \"#utility.yul\":8009:8140   */\n              tag_195\n              jump\t// in\n            tag_235:\n                /* \"#utility.yul\":8001:8140   */\n              swap1\n              pop\n                /* \"#utility.yul\":7899:8147   */\n              swap2\n              swap1\n              pop\n              jump\t// out\n                /* \"#utility.yul\":8153:8572   */\n            tag_136:\n              0x00\n                /* \"#utility.yul\":8357:8359   */\n              0x20\n                /* \"#utility.yul\":8346:8355   */\n              dup3\n                /* \"#utility.yul\":8342:8360   */\n              add\n                /* \"#utility.yul\":8334:8360   */\n              swap1\n              pop\n                /* \"#utility.yul\":8406:8415   */\n              dup2\n                /* \"#utility.yul\":8400:8404   */\n              dup2\n                /* \"#utility.yul\":8396:8416   */\n              sub\n                /* \"#utility.yul\":8392:8393   */\n              0x00\n                /* \"#utility.yul\":8381:8390   */\n              dup4\n                /* \"#utility.yul\":8377:8394   */\n              add\n                /* \"#utility.yul\":8370:8417   */\n              mstore\n                /* \"#utility.yul\":8434:8565   */\n              tag_237\n                /* \"#utility.yul\":8560:8564   */\n              dup2\n                /* \"#utility.yul\":8434:8565   */\n              tag_199\n              jump\t// in\n            tag_237:\n                /* \"#utility.yul\":8426:8565   */\n              swap1\n              pop\n                /* \"#utility.yul\":8324:8572   */\n              swap2\n              swap1\n              pop\n              jump\t// out\n                /* \"#utility.yul\":8578:8997   */\n            tag_76:\n              0x00\n                /* \"#utility.yul\":8782:8784   */\n              0x20\n                /* \"#utility.yul\":8771:8780   */\n              dup3\n                /* \"#utility.yul\":8767:8785   */\n              add\n                /* \"#utility.yul\":8759:8785   */\n              swap1\n              pop\n                /* \"#utility.yul\":8831:8840   */\n              dup2\n                /* \"#utility.yul\":8825:8829   */\n              dup2\n                /* \"#utility.yul\":8821:8841   */\n              sub\n                /* \"#utility.yul\":8817:8818   */\n              0x00\n                /* \"#utility.yul\":8806:8815   */\n              dup4\n                /* \"#utility.yul\":8802:8819   */\n              add\n                /* \"#utility.yul\":8795:8842   */\n              mstore\n                /* \"#utility.yul\":8859:8990   */\n              tag_239\n                /* \"#utility.yul\":8985:8989   */\n              dup2\n                /* \"#utility.yul\":8859:8990   */\n              tag_202\n              jump\t// in\n            tag_239:\n                /* \"#utility.yul\":8851:8990   */\n              swap1\n              pop\n                /* \"#utility.yul\":8749:8997   */\n              swap2\n              swap1\n              pop\n              jump\t// out\n                /* \"#utility.yul\":9003:9422   */\n            tag_73:\n              0x00\n                /* \"#utility.yul\":9207:9209   */\n              0x20\n                /* \"#utility.yul\":9196:9205   */\n              dup3\n                /* \"#utility.yul\":9192:9210   */\n              add\n                /* \"#utility.yul\":9184:9210   */\n              swap1\n              pop\n                /* \"#utility.yul\":9256:9265   */\n              dup2\n                /* \"#utility.yul\":9250:9254   */\n              dup2\n                /* \"#utility.yul\":9246:9266   */\n              sub\n                /* \"#utility.yul\":9242:9243   */\n              0x00\n                /* \"#utility.yul\":9231:9240   */\n              dup4\n                /* \"#utility.yul\":9227:9244   */\n              add\n                /* \"#utility.yul\":9220:9267   */\n              mstore\n                /* \"#utility.yul\":9284:9415   */\n              tag_241\n                /* \"#utility.yul\":9410:9414   */\n              dup2\n                /* \"#utility.yul\":9284:9415   */\n              tag_205\n              jump\t// in\n            tag_241:\n                /* \"#utility.yul\":9276:9415   */\n              swap1\n              pop\n                /* \"#utility.yul\":9174:9422   */\n              swap2\n              swap1\n              pop\n              jump\t// out\n                /* \"#utility.yul\":9428:9847   */\n            tag_70:\n              0x00\n                /* \"#utility.yul\":9632:9634   */\n              0x20\n                /* \"#utility.yul\":9621:9630   */\n              dup3\n                /* \"#utility.yul\":9617:9635   */\n              add\n                /* \"#utility.yul\":9609:9635   */\n              swap1\n              pop\n                /* \"#utility.yul\":9681:9690   */\n              dup2\n                /* \"#utility.yul\":9675:9679   */\n              dup2\n                /* \"#utility.yul\":9671:9691   */\n              sub\n                /* \"#utility.yul\":9667:9668   */\n              0x00\n                /* \"#utility.yul\":9656:9665   */\n              dup4\n                /* \"#utility.yul\":9652:9669   */\n              add\n                /* \"#utility.yul\":9645:9692   */\n              mstore\n                /* \"#utility.yul\":9709:9840   */\n              tag_243\n                /* \"#utility.yul\":9835:9839   */\n              dup2\n                /* \"#utility.yul\":9709:9840   */\n              tag_208\n              jump\t// in\n            tag_243:\n                /* \"#utility.yul\":9701:9840   */\n              swap1\n              pop\n                /* \"#utility.yul\":9599:9847   */\n              swap2\n              swap1\n              pop\n              jump\t// out\n                /* \"#utility.yul\":9853:10272   */\n            tag_79:\n              0x00\n                /* \"#utility.yul\":10057:10059   */\n              0x20\n                /* \"#utility.yul\":10046:10055   */\n              dup3\n                /* \"#utility.yul\":10042:10060   */\n              add\n                /* \"#utility.yul\":10034:10060   */\n              swap1\n              pop\n                /* \"#utility.yul\":10106:10115   */\n              dup2\n                /* \"#utility.yul\":10100:10104   */\n              dup2\n                /* \"#utility.yul\":10096:10116   */\n              sub\n                /* \"#utility.yul\":10092:10093   */\n              0x00\n                /* \"#utility.yul\":10081:10090   */\n              dup4\n                /* \"#utility.yul\":10077:10094   */\n              add\n                /* \"#utility.yul\":10070:10117   */\n              mstore\n                /* \"#utility.yul\":10134:10265   */\n              tag_245\n                /* \"#utility.yul\":10260:10264   */\n              dup2\n                /* \"#utility.yul\":10134:10265   */\n              tag_211\n              jump\t// in\n            tag_245:\n                /* \"#utility.yul\":10126:10265   */\n              swap1\n              pop\n                /* \"#utility.yul\":10024:10272   */\n              swap2\n              swap1\n              pop\n              jump\t// out\n                /* \"#utility.yul\":10278:10697   */\n            tag_92:\n              0x00\n                /* \"#utility.yul\":10482:10484   */\n              0x20\n                /* \"#utility.yul\":10471:10480   */\n              dup3\n                /* \"#utility.yul\":10467:10485   */\n              add\n                /* \"#utility.yul\":10459:10485   */\n              swap1\n              pop\n                /* \"#utility.yul\":10531:10540   */\n              dup2\n                /* \"#utility.yul\":10525:10529   */\n              dup2\n                /* \"#utility.yul\":10521:10541   */\n              sub\n                /* \"#utility.yul\":10517:10518   */\n              0x00\n                /* \"#utility.yul\":10506:10515   */\n              dup4\n                /* \"#utility.yul\":10502:10519   */\n              add\n                /* \"#utility.yul\":10495:10542   */\n              mstore\n                /* \"#utility.yul\":10559:10690   */\n              tag_247\n                /* \"#utility.yul\":10685:10689   */\n              dup2\n                /* \"#utility.yul\":10559:10690   */\n              tag_214\n              jump\t// in\n            tag_247:\n                /* \"#utility.yul\":10551:10690   */\n              swap1\n              pop\n                /* \"#utility.yul\":10449:10697   */\n              swap2\n              swap1\n              pop\n              jump\t// out\n                /* \"#utility.yul\":10703:11122   */\n            tag_120:\n              0x00\n                /* \"#utility.yul\":10907:10909   */\n              0x20\n                /* \"#utility.yul\":10896:10905   */\n              dup3\n                /* \"#utility.yul\":10892:10910   */\n              add\n                /* \"#utility.yul\":10884:10910   */\n              swap1\n              pop\n                /* \"#utility.yul\":10956:10965   */\n              dup2\n                /* \"#utility.yul\":10950:10954   */\n              dup2\n                /* \"#utility.yul\":10946:10966   */\n              sub\n                /* \"#utility.yul\":10942:10943   */\n              0x00\n                /* \"#utility.yul\":10931:10940   */\n              dup4\n                /* \"#utility.yul\":10927:10944   */\n              add\n                /* \"#utility.yul\":10920:10967   */\n              mstore\n                /* \"#utility.yul\":10984:11115   */\n              tag_249\n                /* \"#utility.yul\":11110:11114   */\n              dup2\n                /* \"#utility.yul\":10984:11115   */\n              tag_217\n              jump\t// in\n            tag_249:\n                /* \"#utility.yul\":10976:11115   */\n              swap1\n              pop\n                /* \"#utility.yul\":10874:11122   */\n              swap2\n              swap1\n              pop\n              jump\t// out\n                /* \"#utility.yul\":11128:11547   */\n            tag_65:\n              0x00\n                /* \"#utility.yul\":11332:11334   */\n              0x20\n                /* \"#utility.yul\":11321:11330   */\n              dup3\n                /* \"#utility.yul\":11317:11335   */\n              add\n                /* \"#utility.yul\":11309:11335   */\n              swap1\n              pop\n                /* \"#utility.yul\":11381:11390   */\n              dup2\n                /* \"#utility.yul\":11375:11379   */\n              dup2\n                /* \"#utility.yul\":11371:11391   */\n              sub\n                /* \"#utility.yul\":11367:11368   */\n              0x00\n                /* \"#utility.yul\":11356:11365   */\n              dup4\n                /* \"#utility.yul\":11352:11369   */\n              add\n                /* \"#utility.yul\":11345:11392   */\n              mstore\n                /* \"#utility.yul\":11409:11540   */\n              tag_251\n                /* \"#utility.yul\":11535:11539   */\n              dup2\n                /* \"#utility.yul\":11409:11540   */\n              tag_220\n              jump\t// in\n            tag_251:\n                /* \"#utility.yul\":11401:11540   */\n              swap1\n              pop\n                /* \"#utility.yul\":11299:11547   */\n              swap2\n              swap1\n              pop\n              jump\t// out\n                /* \"#utility.yul\":11553:11775   */\n            tag_24:\n              0x00\n                /* \"#utility.yul\":11684:11686   */\n              0x20\n                /* \"#utility.yul\":11673:11682   */\n              dup3\n                /* \"#utility.yul\":11669:11687   */\n              add\n                /* \"#utility.yul\":11661:11687   */\n              swap1\n              pop\n                /* \"#utility.yul\":11697:11768   */\n              tag_253\n                /* \"#utility.yul\":11765:11766   */\n              0x00\n                /* \"#utility.yul\":11754:11763   */\n              dup4\n                /* \"#utility.yul\":11750:11767   */\n              add\n                /* \"#utility.yul\":11741:11747   */\n              dup5\n                /* \"#utility.yul\":11697:11768   */\n              tag_223\n              jump\t// in\n            tag_253:\n                /* \"#utility.yul\":11651:11775   */\n              swap3\n              swap2\n              pop\n              pop\n              jump\t// out\n                /* \"#utility.yul\":11781:12113   */\n            tag_55:\n              0x00\n                /* \"#utility.yul\":11940:11942   */\n              0x40\n                /* \"#utility.yul\":11929:11938   */\n              dup3\n                /* \"#utility.yul\":11925:11943   */\n              add\n                /* \"#utility.yul\":11917:11943   */\n              swap1\n              pop\n                /* \"#utility.yul\":11953:12024   */\n              tag_255\n                /* \"#utility.yul\":12021:12022   */\n              0x00\n                /* \"#utility.yul\":12010:12019   */\n              dup4\n                /* \"#utility.yul\":12006:12023   */\n              add\n                /* \"#utility.yul\":11997:12003   */\n              dup6\n                /* \"#utility.yul\":11953:12024   */\n              tag_223\n              jump\t// in\n            tag_255:\n                /* \"#utility.yul\":12034:12106   */\n              tag_256\n                /* \"#utility.yul\":12102:12104   */\n              0x20\n                /* \"#utility.yul\":12091:12100   */\n              dup4\n                /* \"#utility.yul\":12087:12105   */\n              add\n                /* \"#utility.yul\":12078:12084   */\n              dup5\n                /* \"#utility.yul\":12034:12106   */\n              tag_187\n              jump\t// in\n            tag_256:\n                /* \"#utility.yul\":11907:12113   */\n              swap4\n              swap3\n              pop\n              pop\n              pop\n              jump\t// out\n                /* \"#utility.yul\":12119:13116   */\n            tag_20:\n              0x00\n                /* \"#utility.yul\":12446:12449   */\n              0x0100\n                /* \"#utility.yul\":12435:12444   */\n              dup3\n                /* \"#utility.yul\":12431:12450   */\n              add\n                /* \"#utility.yul\":12423:12450   */\n              swap1\n              pop\n                /* \"#utility.yul\":12460:12531   */\n              tag_258\n                /* \"#utility.yul\":12528:12529   */\n              0x00\n                /* \"#utility.yul\":12517:12526   */\n              dup4\n                /* \"#utility.yul\":12513:12530   */\n              add\n                /* \"#utility.yul\":12504:12510   */\n              dup12\n                /* \"#utility.yul\":12460:12531   */\n              tag_223\n              jump\t// in\n            tag_258:\n                /* \"#utility.yul\":12541:12613   */\n              tag_259\n                /* \"#utility.yul\":12609:12611   */\n              0x20\n                /* \"#utility.yul\":12598:12607   */\n              dup4\n                /* \"#utility.yul\":12594:12612   */\n              add\n                /* \"#utility.yul\":12585:12591   */\n              dup11\n                /* \"#utility.yul\":12541:12613   */\n              tag_187\n              jump\t// in\n            tag_259:\n                /* \"#utility.yul\":12623:12695   */\n              tag_260\n                /* \"#utility.yul\":12691:12693   */\n              0x40\n                /* \"#utility.yul\":12680:12689   */\n              dup4\n                /* \"#utility.yul\":12676:12694   */\n              add\n                /* \"#utility.yul\":12667:12673   */\n              dup10\n                /* \"#utility.yul\":12623:12695   */\n              tag_187\n              jump\t// in\n            tag_260:\n                /* \"#utility.yul\":12705:12777   */\n              tag_261\n                /* \"#utility.yul\":12773:12775   */\n              0x60\n                /* \"#utility.yul\":12762:12771   */\n              dup4\n                /* \"#utility.yul\":12758:12776   */\n              add\n                /* \"#utility.yul\":12749:12755   */\n              dup9\n                /* \"#utility.yul\":12705:12777   */\n              tag_223\n              jump\t// in\n            tag_261:\n                /* \"#utility.yul\":12787:12860   */\n              tag_262\n                /* \"#utility.yul\":12855:12858   */\n              0x80\n                /* \"#utility.yul\":12844:12853   */\n              dup4\n                /* \"#utility.yul\":12840:12859   */\n              add\n                /* \"#utility.yul\":12831:12837   */\n              dup8\n                /* \"#utility.yul\":12787:12860   */\n              tag_223\n              jump\t// in\n            tag_262:\n                /* \"#utility.yul\":12870:12943   */\n              tag_263\n                /* \"#utility.yul\":12938:12941   */\n              0xa0\n                /* \"#utility.yul\":12927:12936   */\n              dup4\n                /* \"#utility.yul\":12923:12942   */\n              add\n                /* \"#utility.yul\":12914:12920   */\n              dup7\n                /* \"#utility.yul\":12870:12943   */\n              tag_223\n              jump\t// in\n            tag_263:\n                /* \"#utility.yul\":12953:13026   */\n              tag_264\n                /* \"#utility.yul\":13021:13024   */\n              0xc0\n                /* \"#utility.yul\":13010:13019   */\n              dup4\n                /* \"#utility.yul\":13006:13025   */\n              add\n                /* \"#utility.yul\":12997:13003   */\n              dup6\n                /* \"#utility.yul\":12953:13026   */\n              tag_223\n              jump\t// in\n            tag_264:\n                /* \"#utility.yul\":13036:13109   */\n              tag_265\n                /* \"#utility.yul\":13104:13107   */\n              0xe0\n                /* \"#utility.yul\":13093:13102   */\n              dup4\n                /* \"#utility.yul\":13089:13108   */\n              add\n                /* \"#utility.yul\":13080:13086   */\n              dup5\n                /* \"#utility.yul\":13036:13109   */\n              tag_223\n              jump\t// in\n            tag_265:\n                /* \"#utility.yul\":12413:13116   */\n              swap10\n              swap9\n              pop\n              pop\n              pop\n              pop\n              pop\n              pop\n              pop\n              pop\n              pop\n              jump\t// out\n                /* \"#utility.yul\":13122:13405   */\n            tag_143:\n              0x00\n                /* \"#utility.yul\":13188:13190   */\n              0x40\n                /* \"#utility.yul\":13182:13191   */\n              mload\n                /* \"#utility.yul\":13172:13191   */\n              swap1\n              pop\n                /* \"#utility.yul\":13230:13234   */\n              dup2\n                /* \"#utility.yul\":13222:13228   */\n              dup2\n                /* \"#utility.yul\":13218:13235   */\n              add\n                /* \"#utility.yul\":13337:13343   */\n              dup2\n                /* \"#utility.yul\":13325:13335   */\n              dup2\n                /* \"#utility.yul\":13322:13344   */\n              lt\n                /* \"#utility.yul\":13301:13319   */\n              0xffffffffffffffff\n                /* \"#utility.yul\":13289:13299   */\n              dup3\n                /* \"#utility.yul\":13286:13320   */\n              gt\n                /* \"#utility.yul\":13283:13345   */\n              or\n                /* \"#utility.yul\":13280:13282   */\n              iszero\n              tag_267\n              jumpi\n                /* \"#utility.yul\":13348:13366   */\n              tag_268\n              tag_269\n              jump\t// in\n            tag_268:\n                /* \"#utility.yul\":13280:13282   */\n            tag_267:\n                /* \"#utility.yul\":13388:13398   */\n              dup1\n                /* \"#utility.yul\":13384:13386   */\n              0x40\n                /* \"#utility.yul\":13377:13399   */\n              mstore\n                /* \"#utility.yul\":13162:13405   */\n              pop\n              swap2\n              swap1\n              pop\n              jump\t// out\n                /* \"#utility.yul\":13411:13722   */\n            tag_142:\n              0x00\n                /* \"#utility.yul\":13578:13596   */\n              0xffffffffffffffff\n                /* \"#utility.yul\":13570:13576   */\n              dup3\n                /* \"#utility.yul\":13567:13597   */\n              gt\n                /* \"#utility.yul\":13564:13566   */\n              iszero\n              tag_271\n              jumpi\n                /* \"#utility.yul\":13600:13618   */\n              tag_272\n              tag_269\n              jump\t// in\n            tag_272:\n                /* \"#utility.yul\":13564:13566   */\n            tag_271:\n                /* \"#utility.yul\":13650:13654   */\n              0x20\n                /* \"#utility.yul\":13642:13648   */\n              dup3\n                /* \"#utility.yul\":13638:13655   */\n              mul\n                /* \"#utility.yul\":13630:13655   */\n              swap1\n              pop\n                /* \"#utility.yul\":13710:13714   */\n              0x20\n                /* \"#utility.yul\":13704:13708   */\n              dup2\n                /* \"#utility.yul\":13700:13715   */\n              add\n                /* \"#utility.yul\":13692:13715   */\n              swap1\n              pop\n                /* \"#utility.yul\":13493:13722   */\n              swap2\n              swap1\n              pop\n              jump\t// out\n                /* \"#utility.yul\":13728:13897   */\n            tag_198:\n              0x00\n                /* \"#utility.yul\":13846:13852   */\n              dup3\n                /* \"#utility.yul\":13841:13844   */\n              dup3\n                /* \"#utility.yul\":13834:13853   */\n              mstore\n                /* \"#utility.yul\":13886:13890   */\n              0x20\n                /* \"#utility.yul\":13881:13884   */\n              dup3\n                /* \"#utility.yul\":13877:13891   */\n              add\n                /* \"#utility.yul\":13862:13891   */\n              swap1\n              pop\n                /* \"#utility.yul\":13824:13897   */\n              swap3\n              swap2\n              pop\n              pop\n              jump\t// out\n                /* \"#utility.yul\":13903:14088   */\n            tag_107:\n              0x00\n                /* \"#utility.yul\":13960:13980   */\n              tag_275\n                /* \"#utility.yul\":13978:13979   */\n              dup3\n                /* \"#utility.yul\":13960:13980   */\n              tag_226\n              jump\t// in\n            tag_275:\n                /* \"#utility.yul\":13955:13980   */\n              swap2\n              pop\n                /* \"#utility.yul\":13994:14014   */\n              tag_276\n                /* \"#utility.yul\":14012:14013   */\n              dup4\n                /* \"#utility.yul\":13994:14014   */\n              tag_226\n              jump\t// in\n            tag_276:\n                /* \"#utility.yul\":13989:14014   */\n              swap3\n              pop\n                /* \"#utility.yul\":14033:14034   */\n              dup3\n                /* \"#utility.yul\":14023:14025   */\n              tag_277\n              jumpi\n                /* \"#utility.yul\":14038:14056   */\n              tag_278\n              tag_279\n              jump\t// in\n            tag_278:\n                /* \"#utility.yul\":14023:14025   */\n            tag_277:\n                /* \"#utility.yul\":14080:14081   */\n              dup3\n                /* \"#utility.yul\":14077:14078   */\n              dup3\n                /* \"#utility.yul\":14073:14082   */\n              div\n                /* \"#utility.yul\":14068:14082   */\n              swap1\n              pop\n                /* \"#utility.yul\":13945:14088   */\n              swap3\n              swap2\n              pop\n              pop\n              jump\t// out\n                /* \"#utility.yul\":14094:14285   */\n            tag_109:\n              0x00\n                /* \"#utility.yul\":14154:14174   */\n              tag_281\n                /* \"#utility.yul\":14172:14173   */\n              dup3\n                /* \"#utility.yul\":14154:14174   */\n              tag_226\n              jump\t// in\n            tag_281:\n                /* \"#utility.yul\":14149:14174   */\n              swap2\n              pop\n                /* \"#utility.yul\":14188:14208   */\n              tag_282\n                /* \"#utility.yul\":14206:14207   */\n              dup4\n                /* \"#utility.yul\":14188:14208   */\n              tag_226\n              jump\t// in\n            tag_282:\n                /* \"#utility.yul\":14183:14208   */\n              swap3\n              pop\n                /* \"#utility.yul\":14227:14228   */\n              dup3\n                /* \"#utility.yul\":14224:14225   */\n              dup3\n                /* \"#utility.yul\":14221:14229   */\n              lt\n                /* \"#utility.yul\":14218:14220   */\n              iszero\n              tag_283\n              jumpi\n                /* \"#utility.yul\":14232:14250   */\n              tag_284\n              tag_285\n              jump\t// in\n            tag_284:\n                /* \"#utility.yul\":14218:14220   */\n            tag_283:\n                /* \"#utility.yul\":14277:14278   */\n              dup3\n                /* \"#utility.yul\":14274:14275   */\n              dup3\n                /* \"#utility.yul\":14270:14279   */\n              sub\n                /* \"#utility.yul\":14262:14279   */\n              swap1\n              pop\n                /* \"#utility.yul\":14139:14285   */\n              swap3\n              swap2\n              pop\n              pop\n              jump\t// out\n                /* \"#utility.yul\":14291:14387   */\n            tag_190:\n              0x00\n                /* \"#utility.yul\":14357:14381   */\n              tag_287\n                /* \"#utility.yul\":14375:14380   */\n              dup3\n                /* \"#utility.yul\":14357:14381   */\n              tag_288\n              jump\t// in\n            tag_287:\n                /* \"#utility.yul\":14346:14381   */\n              swap1\n              pop\n                /* \"#utility.yul\":14336:14387   */\n              swap2\n              swap1\n              pop\n              jump\t// out\n                /* \"#utility.yul\":14393:14483   */\n            tag_194:\n              0x00\n                /* \"#utility.yul\":14470:14475   */\n              dup2\n                /* \"#utility.yul\":14463:14476   */\n              iszero\n                /* \"#utility.yul\":14456:14477   */\n              iszero\n                /* \"#utility.yul\":14445:14477   */\n              swap1\n              pop\n                /* \"#utility.yul\":14435:14483   */\n              swap2\n              swap1\n              pop\n              jump\t// out\n                /* \"#utility.yul\":14489:14615   */\n            tag_288:\n              0x00\n                /* \"#utility.yul\":14566:14608   */\n              0xffffffffffffffffffffffffffffffffffffffff\n                /* \"#utility.yul\":14559:14564   */\n              dup3\n                /* \"#utility.yul\":14555:14609   */\n              and\n                /* \"#utility.yul\":14544:14609   */\n              swap1\n              pop\n                /* \"#utility.yul\":14534:14615   */\n              swap2\n              swap1\n              pop\n              jump\t// out\n                /* \"#utility.yul\":14621:14698   */\n            tag_226:\n              0x00\n                /* \"#utility.yul\":14687:14692   */\n              dup2\n                /* \"#utility.yul\":14676:14692   */\n              swap1\n              pop\n                /* \"#utility.yul\":14666:14698   */\n              swap2\n              swap1\n              pop\n              jump\t// out\n                /* \"#utility.yul\":14704:14937   */\n            tag_82:\n              0x00\n                /* \"#utility.yul\":14766:14790   */\n              tag_293\n                /* \"#utility.yul\":14784:14789   */\n              dup3\n                /* \"#utility.yul\":14766:14790   */\n              tag_226\n              jump\t// in\n            tag_293:\n                /* \"#utility.yul\":14757:14790   */\n              swap2\n              pop\n                /* \"#utility.yul\":14812:14878   */\n              0xffffffffffffffffffffffffffffffffffffffffffffffffffffffffffffffff\n                /* \"#utility.yul\":14805:14810   */\n              dup3\n                /* \"#utility.yul\":14802:14879   */\n              eq\n                /* \"#utility.yul\":14799:14801   */\n              iszero\n              tag_294\n              jumpi\n                /* \"#utility.yul\":14882:14900   */\n              tag_295\n              tag_285\n              jump\t// in\n            tag_295:\n                /* \"#utility.yul\":14799:14801   */\n            tag_294:\n                /* \"#utility.yul\":14929:14930   */\n              0x01\n                /* \"#utility.yul\":14922:14927   */\n              dup3\n                /* \"#utility.yul\":14918:14931   */\n              add\n                /* \"#utility.yul\":14911:14931   */\n              swap1\n              pop\n                /* \"#utility.yul\":14747:14937   */\n              swap2\n              swap1\n              pop\n              jump\t// out\n                /* \"#utility.yul\":14943:15123   */\n            tag_285:\n                /* \"#utility.yul\":14991:15068   */\n              0x4e487b7100000000000000000000000000000000000000000000000000000000\n                /* \"#utility.yul\":14988:14989   */\n              0x00\n                /* \"#utility.yul\":14981:15069   */\n              mstore\n                /* \"#utility.yul\":15088:15092   */\n              0x11\n                /* \"#utility.yul\":15085:15086   */\n              0x04\n                /* \"#utility.yul\":15078:15093   */\n              mstore\n                /* \"#utility.yul\":15112:15116   */\n              0x24\n                /* \"#utility.yul\":15109:15110   */\n              0x00\n                /* \"#utility.yul\":15102:15117   */\n              revert\n                /* \"#utility.yul\":15129:15309   */\n            tag_279:\n                /* \"#utility.yul\":15177:15254   */\n              0x4e487b7100000000000000000000000000000000000000000000000000000000\n                /* \"#utility.yul\":15174:15175   */\n              0x00\n                /* \"#utility.yul\":15167:15255   */\n              mstore\n                /* \"#utility.yul\":15274:15278   */\n              0x12\n                /* \"#utility.yul\":15271:15272   */\n              0x04\n                /* \"#utility.yul\":15264:15279   */\n              mstore\n                /* \"#utility.yul\":15298:15302   */\n              0x24\n                /* \"#utility.yul\":15295:15296   */\n              0x00\n                /* \"#utility.yul\":15288:15303   */\n              revert\n                /* \"#utility.yul\":15315:15495   */\n            tag_269:\n                /* \"#utility.yul\":15363:15440   */\n              0x4e487b7100000000000000000000000000000000000000000000000000000000\n                /* \"#utility.yul\":15360:15361   */\n              0x00\n                /* \"#utility.yul\":15353:15441   */\n              mstore\n                /* \"#utility.yul\":15460:15464   */\n              0x41\n                /* \"#utility.yul\":15457:15458   */\n              0x04\n                /* \"#utility.yul\":15450:15465   */\n              mstore\n                /* \"#utility.yul\":15484:15488   */\n              0x24\n                /* \"#utility.yul\":15481:15482   */\n              0x00\n                /* \"#utility.yul\":15474:15489   */\n              revert\n                /* \"#utility.yul\":15501:15623   */\n            tag_152:\n                /* \"#utility.yul\":15574:15598   */\n              tag_300\n                /* \"#utility.yul\":15592:15597   */\n              dup2\n                /* \"#utility.yul\":15574:15598   */\n              tag_190\n              jump\t// in\n            tag_300:\n                /* \"#utility.yul\":15567:15572   */\n              dup2\n                /* \"#utility.yul\":15564:15599   */\n              eq\n                /* \"#utility.yul\":15554:15556   */\n              tag_301\n              jumpi\n                /* \"#utility.yul\":15613:15614   */\n              0x00\n                /* \"#utility.yul\":15610:15611   */\n              dup1\n                /* \"#utility.yul\":15603:15615   */\n              revert\n                /* \"#utility.yul\":15554:15556   */\n            tag_301:\n                /* \"#utility.yul\":15544:15623   */\n              pop\n              jump\t// out\n                /* \"#utility.yul\":15629:15745   */\n            tag_160:\n                /* \"#utility.yul\":15699:15720   */\n              tag_303\n                /* \"#utility.yul\":15714:15719   */\n              dup2\n                /* \"#utility.yul\":15699:15720   */\n              tag_194\n              jump\t// in\n            tag_303:\n                /* \"#utility.yul\":15692:15697   */\n              dup2\n                /* \"#utility.yul\":15689:15721   */\n              eq\n                /* \"#utility.yul\":15679:15681   */\n              tag_304\n              jumpi\n                /* \"#utility.yul\":15735:15736   */\n              0x00\n                /* \"#utility.yul\":15732:15733   */\n              dup1\n                /* \"#utility.yul\":15725:15737   */\n              revert\n                /* \"#utility.yul\":15679:15681   */\n            tag_304:\n                /* \"#utility.yul\":15669:15745   */\n              pop\n              jump\t// out\n                /* \"#utility.yul\":15751:15873   */\n            tag_164:\n                /* \"#utility.yul\":15824:15848   */\n              tag_306\n                /* \"#utility.yul\":15842:15847   */\n              dup2\n                /* \"#utility.yul\":15824:15848   */\n              tag_226\n              jump\t// in\n            tag_306:\n                /* \"#utility.yul\":15817:15822   */\n              dup2\n                /* \"#utility.yul\":15814:15849   */\n              eq\n                /* \"#utility.yul\":15804:15806   */\n              tag_307\n              jumpi\n                /* \"#utility.yul\":15863:15864   */\n              0x00\n                /* \"#utility.yul\":15860:15861   */\n              dup1\n                /* \"#utility.yul\":15853:15865   */\n              revert\n                /* \"#utility.yul\":15804:15806   */\n            tag_307:\n                /* \"#utility.yul\":15794:15873   */\n              pop\n              jump\t// out\n\n            auxdata: 0xa26469706673582212209fa798dfd5bc5be229873cfdf8cf472f260775187809dda398202062ffd5e5e764736f6c63430008000033\n        }\n    }\n\n    auxdata: 0xa264697066735822122063fdd1ddea73c16b77ecabd71fa2743d1f94a338e12c11394802855160a41a2d64736f6c63430008000033\n}\n",
				"bytecode": {
					"linkReferences": {},
					"object": "608060405234801561001057600080fd5b506040516122dd3803806122dd83398181016040528101906100329190610094565b336000806101000a81548173ffffffffffffffffffffffffffffffffffffffff021916908373ffffffffffffffffffffffffffffffffffffffff16021790555080600281905550506100de565b60008151905061008e816100c7565b92915050565b6000602082840312156100a657600080fd5b60006100b48482850161007f565b91505092915050565b6000819050919050565b6100d0816100bd565b81146100db57600080fd5b50565b6121f0806100ed6000396000f3fe6080604052600436106100865760003560e01c806374d0a6761161005957806374d0a676146101605780637a1a6231146101895780638da5cb5b146101b457806391b7f5ed146101df578063a035b1fe1461020857610086565b806311ebbf241461008b57806328403760146100a95780633e5f5c86146100e65780636352211e14610123575b600080fd5b610093610233565b6040516100a09190610853565b60405180910390f35b3480156100b557600080fd5b506100d060048036038101906100cb919061065e565b610380565b6040516100dd91906107a1565b60405180910390f35b3480156100f257600080fd5b5061010d60048036038101906101089190610622565b6103b3565b60405161011a9190610853565b60405180910390f35b34801561012f57600080fd5b5061014a6004803603810190610145919061065e565b6103e4565b60405161015791906107a1565b60405180910390f35b34801561016c57600080fd5b5061018760048036038101906101829190610687565b610417565b005b34801561019557600080fd5b5061019e610522565b6040516101ab9190610853565b60405180910390f35b3480156101c057600080fd5b506101c9610528565b6040516101d691906107a1565b60405180910390f35b3480156101eb57600080fd5b506102066004803603810190610201919061065e565b61054c565b005b34801561021457600080fd5b5061021d6105e4565b60405161022a9190610853565b60405180910390f35b60006002543414610279576040517f08c379a000000000000000000000000000000000000000000000000000000000815260040161027090610833565b60405180910390fd5b6001600081548092919061028c906108bb565b9190505550600033306001546040516102a4906105ea565b6102b0939291906107bc565b604051809103906000f0801580156102cc573d6000803e3d6000fd5b5090508060036000600154815260200190815260200160002060006101000a81548173ffffffffffffffffffffffffffffffffffffffff021916908373ffffffffffffffffffffffffffffffffffffffff1602179055503360046000600154815260200190815260200160002060006101000a81548173ffffffffffffffffffffffffffffffffffffffff021916908373ffffffffffffffffffffffffffffffffffffffff16021790555060015491505090565b60036020528060005260406000206000915054906101000a900473ffffffffffffffffffffffffffffffffffffffff1681565b600560205281600052604060002081815481106103cf57600080fd5b90600052602060002001600091509150505481565b60046020528060005260406000206000915054906101000a900473ffffffffffffffffffffffffffffffffffffffff1681565b3373ffffffffffffffffffffffffffffffffffffffff166003600084815260200190815260200160002060009054906101000a900473ffffffffffffffffffffffffffffffffffffffff1673ffffffffffffffffffffffffffffffffffffffff16146104b8576040517f08c379a00000000000000000000000000000000000000000000000000000000081526004016104af906107f3565b60405180910390fd5b600560008273ffffffffffffffffffffffffffffffffffffffff1673ffffffffffffffffffffffffffffffffffffffff1681526020019081526020016000208290806001815401808255809150506001900390600052602060002001600090919091909150555050565b60015481565b60008054906101000a900473ffffffffffffffffffffffffffffffffffffffff1681565b3373ffffffffffffffffffffffffffffffffffffffff1660008054906101000a900473ffffffffffffffffffffffffffffffffffffffff1673ffffffffffffffffffffffffffffffffffffffff16146105da576040517f08c379a00000000000000000000000000000000000000000000000000000000081526004016105d190610813565b60405180910390fd5b8060028190555050565b60025481565b611859806200096283390190565b60008135905061060781610933565b92915050565b60008135905061061c8161094a565b92915050565b6000806040838503121561063557600080fd5b6000610643858286016105f8565b92505060206106548582860161060d565b9150509250929050565b60006020828403121561067057600080fd5b600061067e8482850161060d565b91505092915050565b6000806040838503121561069a57600080fd5b60006106a88582860161060d565b92505060206106b9858286016105f8565b9150509250929050565b6106cc8161087f565b82525050565b60006106df60128361086e565b91507f4f6e6c792077616c6c6574206d6574686f6400000000000000000000000000006000830152602082019050919050565b600061071f60118361086e565b91507f4f6e6c79206f776e6572206d6574686f640000000000000000000000000000006000830152602082019050919050565b600061075f601b8361086e565b91507f496e73756666696369656e74207061796d656e7420616d6f756e7400000000006000830152602082019050919050565b61079b816108b1565b82525050565b60006020820190506107b660008301846106c3565b92915050565b60006060820190506107d160008301866106c3565b6107de60208301856106c3565b6107eb6040830184610792565b949350505050565b6000602082019050818103600083015261080c816106d2565b9050919050565b6000602082019050818103600083015261082c81610712565b9050919050565b6000602082019050818103600083015261084c81610752565b9050919050565b60006020820190506108686000830184610792565b92915050565b600082825260208201905092915050565b600061088a82610891565b9050919050565b600073ffffffffffffffffffffffffffffffffffffffff82169050919050565b6000819050919050565b60006108c6826108b1565b91507fffffffffffffffffffffffffffffffffffffffffffffffffffffffffffffffff8214156108f9576108f8610904565b5b600182019050919050565b7f4e487b7100000000000000000000000000000000000000000000000000000000600052601160045260246000fd5b61093c8161087f565b811461094757600080fd5b50565b610953816108b1565b811461095e57600080fd5b5056fe60806040523480156200001157600080fd5b5060405162001859380380620018598339818101604052810190620000379190620000ff565b600160008190555082600160006101000a81548173ffffffffffffffffffffffffffffffffffffffff021916908373ffffffffffffffffffffffffffffffffffffffff16021790555081600460006101000a81548173ffffffffffffffffffffffffffffffffffffffff021916908373ffffffffffffffffffffffffffffffffffffffff16021790555080600381905550505050620001c7565b600081519050620000e28162000193565b92915050565b600081519050620000f981620001ad565b92915050565b6000806000606084860312156200011557600080fd5b60006200012586828701620000d1565b93505060206200013886828701620000d1565b92505060406200014b86828701620000e8565b9150509250925092565b6000620001628262000169565b9050919050565b600073ffffffffffffffffffffffffffffffffffffffff82169050919050565b6000819050919050565b6200019e8162000155565b8114620001aa57600080fd5b50565b620001b88162000189565b8114620001c457600080fd5b50565b61168280620001d76000396000f3fe608060405234801561001057600080fd5b50600436106100a95760003560e01c80638da5cb5b116100715780638da5cb5b1461016b5780639a5d6a4a14610189578063a230c524146101a5578063a4b08872146101d5578063b789bf5214610206578063c162ba2f14610224576100a9565b8063039935ff146100ae57806311aee380146100e55780633ee79599146101035780636f4d469b1461011f57806370a082311461013b575b600080fd5b6100c860048036038101906100c39190610edd565b610242565b6040516100dc989796959493929190611398565b60405180910390f35b6100ed6102ca565b6040516100fa9190611354565b60405180910390f35b61011d60048036038101906101189190610f06565b6102d0565b005b61013960048036038101906101349190610e73565b6105ba565b005b61015560048036038101906101509190610dfb565b6106b6565b6040516101629190611354565b60405180910390f35b6101736106ce565b60405161018091906111d5565b60405180910390f35b6101a3600480360381019061019e9190610e24565b6106f4565b005b6101bf60048036038101906101ba9190610dfb565b610903565b6040516101cc9190611219565b60405180910390f35b6101ef60048036038101906101ea9190610dfb565b610923565b6040516101fd92919061136f565b60405180910390f35b61020e610967565b60405161021b9190611354565b60405180910390f35b61022c61096d565b6040516102399190611354565b60405180910390f35b60096020528060005260406000206000915090508060000154908060010160009054906101000a900473ffffffffffffffffffffffffffffffffffffffff16908060020160009054906101000a900473ffffffffffffffffffffffffffffffffffffffff16908060030154908060040154908060050154908060060154908060070154905088565b60055481565b60026000541415610316576040517f08c379a000000000000000000000000000000000000000000000000000000000815260040161030d90611334565b60405180910390fd5b6002600081905550600181148061032d5750600281145b61036c576040517f08c379a0000000000000000000000000000000000000000000000000000000008152600401610363906112b4565b60405180910390fd5b60006009600084815260200190815260200160002090506000816007015414156103cb576040517f08c379a00000000000000000000000000000000000000000000000000000000081526004016103c290611294565b60405180910390fd5b8060000154600660003373ffffffffffffffffffffffffffffffffffffffff1673ffffffffffffffffffffffffffffffffffffffff168152602001908152602001600020600001541115610454576040517f08c379a000000000000000000000000000000000000000000000000000000000815260040161044b90611274565b60405180910390fd5b6000600a600085815260200190815260200160002060003373ffffffffffffffffffffffffffffffffffffffff1673ffffffffffffffffffffffffffffffffffffffff16815260200190815260200160002054146104e7576040517f08c379a00000000000000000000000000000000000000000000000000000000081526004016104de906112d4565b60405180910390fd5b81600a600085815260200190815260200160002060003373ffffffffffffffffffffffffffffffffffffffff1673ffffffffffffffffffffffffffffffffffffffff1681526020019081526020016000208190555060018214156105645780600401600081548092919061055a90611531565b919050555061057f565b80600501600081548092919061057990611531565b91905055505b8060060154816004015410158061059e57508060060154816005015410155b156105ad576105ac81610973565b5b5060016000819055505050565b600160009054906101000a900473ffffffffffffffffffffffffffffffffffffffff1673ffffffffffffffffffffffffffffffffffffffff163373ffffffffffffffffffffffffffffffffffffffff161461064a576040517f08c379a0000000000000000000000000000000000000000000000000000000008152600401610641906112f4565b60405180910390fd5b60005b81518110156106b25761069f828281518110610692577f4e487b7100000000000000000000000000000000000000000000000000000000600052603260045260246000fd5b6020026020010151610a06565b80806106aa90611531565b91505061064d565b5050565b60086020528060005260406000206000915090505481565b600160009054906101000a900473ffffffffffffffffffffffffffffffffffffffff1681565b600760003373ffffffffffffffffffffffffffffffffffffffff1673ffffffffffffffffffffffffffffffffffffffff16815260200190815260200160002060009054906101000a900460ff16610780576040517f08c379a000000000000000000000000000000000000000000000000000000000815260040161077790611234565b60405180910390fd5b6040518061010001604052804281526020018473ffffffffffffffffffffffffffffffffffffffff1681526020018373ffffffffffffffffffffffffffffffffffffffff168152602001828152602001600081526020016000815260200160026005546107ed9190611484565b6005546107fa91906114b5565b815260200160008152506009600060025481526020019081526020016000206000820151816000015560208201518160010160006101000a81548173ffffffffffffffffffffffffffffffffffffffff021916908373ffffffffffffffffffffffffffffffffffffffff16021790555060408201518160020160006101000a81548173ffffffffffffffffffffffffffffffffffffffff021916908373ffffffffffffffffffffffffffffffffffffffff160217905550606082015181600301556080820151816004015560a0820151816005015560c0820151816006015560e08201518160070155905050600260008154809291906108f990611531565b9190505550505050565b60076020528060005260406000206000915054906101000a900460ff1681565b60066020528060005260406000206000915090508060000154908060010160009054906101000a900473ffffffffffffffffffffffffffffffffffffffff16905082565b60025481565b60035481565b80600601548160040154106109e8576109d98160010160009054906101000a900473ffffffffffffffffffffffffffffffffffffffff168260020160009054906101000a900473ffffffffffffffffffffffffffffffffffffffff168360030154610c55565b60018160070181905550610a03565b8060060154816005015410610a0257600281600701819055505b5b50565b600760008273ffffffffffffffffffffffffffffffffffffffff1673ffffffffffffffffffffffffffffffffffffffff16815260200190815260200160002060009054906101000a900460ff1615610a93576040517f08c379a0000000000000000000000000000000000000000000000000000000008152600401610a8a90611314565b60405180910390fd5b60405180604001604052804281526020018273ffffffffffffffffffffffffffffffffffffffff16815250600660008373ffffffffffffffffffffffffffffffffffffffff1673ffffffffffffffffffffffffffffffffffffffff1681526020019081526020016000206000820151816000015560208201518160010160006101000a81548173ffffffffffffffffffffffffffffffffffffffff021916908373ffffffffffffffffffffffffffffffffffffffff1602179055509050506001600760008373ffffffffffffffffffffffffffffffffffffffff1673ffffffffffffffffffffffffffffffffffffffff16815260200190815260200160002060006101000a81548160ff021916908315150217905550600460009054906101000a900473ffffffffffffffffffffffffffffffffffffffff1673ffffffffffffffffffffffffffffffffffffffff166374d0a676600354836040518363ffffffff1660e01b8152600401610c0892919061136f565b600060405180830381600087803b158015610c2257600080fd5b505af1158015610c36573d6000803e3d6000fd5b5050505060056000815480929190610c4d90611531565b919050555050565b8273ffffffffffffffffffffffffffffffffffffffff1663a9059cbb83836040518363ffffffff1660e01b8152600401610c909291906111f0565b602060405180830381600087803b158015610caa57600080fd5b505af1158015610cbe573d6000803e3d6000fd5b505050506040513d601f19601f82011682018060405250810190610ce29190610eb4565b610d21576040517f08c379a0000000000000000000000000000000000000000000000000000000008152600401610d1890611254565b60405180910390fd5b505050565b6000610d39610d3484611447565b611416565b90508083825260208201905082856020860282011115610d5857600080fd5b60005b85811015610d885781610d6e8882610d92565b845260208401935060208301925050600181019050610d5b565b5050509392505050565b600081359050610da181611607565b92915050565b600082601f830112610db857600080fd5b8135610dc8848260208601610d26565b91505092915050565b600081519050610de08161161e565b92915050565b600081359050610df581611635565b92915050565b600060208284031215610e0d57600080fd5b6000610e1b84828501610d92565b91505092915050565b600080600060608486031215610e3957600080fd5b6000610e4786828701610d92565b9350506020610e5886828701610d92565b9250506040610e6986828701610de6565b9150509250925092565b600060208284031215610e8557600080fd5b600082013567ffffffffffffffff811115610e9f57600080fd5b610eab84828501610da7565b91505092915050565b600060208284031215610ec657600080fd5b6000610ed484828501610dd1565b91505092915050565b600060208284031215610eef57600080fd5b6000610efd84828501610de6565b91505092915050565b60008060408385031215610f1957600080fd5b6000610f2785828601610de6565b9250506020610f3885828601610de6565b9150509250929050565b610f4b816114e9565b82525050565b610f5a816114fb565b82525050565b6000610f6d601283611473565b91507f4f6e6c79206d656d626572206d6574686f6400000000000000000000000000006000830152602082019050919050565b6000610fad600f83611473565b91507f5472616e73666572206661696c656400000000000000000000000000000000006000830152602082019050919050565b6000610fed602c83611473565b91507f55736572207761736e27742061206d656d626572206174207468652074696d6560008301527f206f66206f72646572696e6700000000000000000000000000000000000000006020830152604082019050919050565b6000611053601083611473565b91507f416c7265616479206578656375746564000000000000000000000000000000006000830152602082019050919050565b6000611093601483611473565b91507f4e6f7420612076616c6964206465636973696f6e0000000000000000000000006000830152602082019050919050565b60006110d3601783611473565b91507f416c7265616479206d6164652061206465636973696f6e0000000000000000006000830152602082019050919050565b6000611113601183611473565b91507f4f6e6c79206f776e6572206d6574686f640000000000000000000000000000006000830152602082019050919050565b6000611153601083611473565b91507f416c72656164792061206d656d626572000000000000000000000000000000006000830152602082019050919050565b6000611193601f83611473565b91507f5265656e7472616e637947756172643a207265656e7472616e742063616c6c006000830152602082019050919050565b6111cf81611527565b82525050565b60006020820190506111ea6000830184610f42565b92915050565b60006040820190506112056000830185610f42565b61121260208301846111c6565b9392505050565b600060208201905061122e6000830184610f51565b92915050565b6000602082019050818103600083015261124d81610f60565b9050919050565b6000602082019050818103600083015261126d81610fa0565b9050919050565b6000602082019050818103600083015261128d81610fe0565b9050919050565b600060208201905081810360008301526112ad81611046565b9050919050565b600060208201905081810360008301526112cd81611086565b9050919050565b600060208201905081810360008301526112ed816110c6565b9050919050565b6000602082019050818103600083015261130d81611106565b9050919050565b6000602082019050818103600083015261132d81611146565b9050919050565b6000602082019050818103600083015261134d81611186565b9050919050565b600060208201905061136960008301846111c6565b92915050565b600060408201905061138460008301856111c6565b6113916020830184610f42565b9392505050565b6000610100820190506113ae600083018b6111c6565b6113bb602083018a610f42565b6113c86040830189610f42565b6113d560608301886111c6565b6113e260808301876111c6565b6113ef60a08301866111c6565b6113fc60c08301856111c6565b61140960e08301846111c6565b9998505050505050505050565b6000604051905081810181811067ffffffffffffffff8211171561143d5761143c6115d8565b5b8060405250919050565b600067ffffffffffffffff821115611462576114616115d8565b5b602082029050602081019050919050565b600082825260208201905092915050565b600061148f82611527565b915061149a83611527565b9250826114aa576114a96115a9565b5b828204905092915050565b60006114c082611527565b91506114cb83611527565b9250828210156114de576114dd61157a565b5b828203905092915050565b60006114f482611507565b9050919050565b60008115159050919050565b600073ffffffffffffffffffffffffffffffffffffffff82169050919050565b6000819050919050565b600061153c82611527565b91507fffffffffffffffffffffffffffffffffffffffffffffffffffffffffffffffff82141561156f5761156e61157a565b5b600182019050919050565b7f4e487b7100000000000000000000000000000000000000000000000000000000600052601160045260246000fd5b7f4e487b7100000000000000000000000000000000000000000000000000000000600052601260045260246000fd5b7f4e487b7100000000000000000000000000000000000000000000000000000000600052604160045260246000fd5b611610816114e9565b811461161b57600080fd5b50565b611627816114fb565b811461163257600080fd5b50565b61163e81611527565b811461164957600080fd5b5056fea26469706673582212209fa798dfd5bc5be229873cfdf8cf472f260775187809dda398202062ffd5e5e764736f6c63430008000033a264697066735822122063fdd1ddea73c16b77ecabd71fa2743d1f94a338e12c11394802855160a41a2d64736f6c63430008000033",
					"opcodes": "PUSH1 0x80 PUSH1 0x40 MSTORE CALLVALUE DUP1 ISZERO PUSH2 0x10 JUMPI PUSH1 0x0 DUP1 REVERT JUMPDEST POP PUSH1 0x40 MLOAD PUSH2 0x22DD CODESIZE SUB DUP1 PUSH2 0x22DD DUP4 CODECOPY DUP2 DUP2 ADD PUSH1 0x40 MSTORE DUP2 ADD SWAP1 PUSH2 0x32 SWAP2 SWAP1 PUSH2 0x94 JUMP JUMPDEST CALLER PUSH1 0x0 DUP1 PUSH2 0x100 EXP DUP2 SLOAD DUP2 PUSH20 0xFFFFFFFFFFFFFFFFFFFFFFFFFFFFFFFFFFFFFFFF MUL NOT AND SWAP1 DUP4 PUSH20 0xFFFFFFFFFFFFFFFFFFFFFFFFFFFFFFFFFFFFFFFF AND MUL OR SWAP1 SSTORE POP DUP1 PUSH1 0x2 DUP2 SWAP1 SSTORE POP POP PUSH2 0xDE JUMP JUMPDEST PUSH1 0x0 DUP2 MLOAD SWAP1 POP PUSH2 0x8E DUP2 PUSH2 0xC7 JUMP JUMPDEST SWAP3 SWAP2 POP POP JUMP JUMPDEST PUSH1 0x0 PUSH1 0x20 DUP3 DUP5 SUB SLT ISZERO PUSH2 0xA6 JUMPI PUSH1 0x0 DUP1 REVERT JUMPDEST PUSH1 0x0 PUSH2 0xB4 DUP5 DUP3 DUP6 ADD PUSH2 0x7F JUMP JUMPDEST SWAP2 POP POP SWAP3 SWAP2 POP POP JUMP JUMPDEST PUSH1 0x0 DUP2 SWAP1 POP SWAP2 SWAP1 POP JUMP JUMPDEST PUSH2 0xD0 DUP2 PUSH2 0xBD JUMP JUMPDEST DUP2 EQ PUSH2 0xDB JUMPI PUSH1 0x0 DUP1 REVERT JUMPDEST POP JUMP JUMPDEST PUSH2 0x21F0 DUP1 PUSH2 0xED PUSH1 0x0 CODECOPY PUSH1 0x0 RETURN INVALID PUSH1 0x80 PUSH1 0x40 MSTORE PUSH1 0x4 CALLDATASIZE LT PUSH2 0x86 JUMPI PUSH1 0x0 CALLDATALOAD PUSH1 0xE0 SHR DUP1 PUSH4 0x74D0A676 GT PUSH2 0x59 JUMPI DUP1 PUSH4 0x74D0A676 EQ PUSH2 0x160 JUMPI DUP1 PUSH4 0x7A1A6231 EQ PUSH2 0x189 JUMPI DUP1 PUSH4 0x8DA5CB5B EQ PUSH2 0x1B4 JUMPI DUP1 PUSH4 0x91B7F5ED EQ PUSH2 0x1DF JUMPI DUP1 PUSH4 0xA035B1FE EQ PUSH2 0x208 JUMPI PUSH2 0x86 JUMP JUMPDEST DUP1 PUSH4 0x11EBBF24 EQ PUSH2 0x8B JUMPI DUP1 PUSH4 0x28403760 EQ PUSH2 0xA9 JUMPI DUP1 PUSH4 0x3E5F5C86 EQ PUSH2 0xE6 JUMPI DUP1 PUSH4 0x6352211E EQ PUSH2 0x123 JUMPI JUMPDEST PUSH1 0x0 DUP1 REVERT JUMPDEST PUSH2 0x93 PUSH2 0x233 JUMP JUMPDEST PUSH1 0x40 MLOAD PUSH2 0xA0 SWAP2 SWAP1 PUSH2 0x853 JUMP JUMPDEST PUSH1 0x40 MLOAD DUP1 SWAP2 SUB SWAP1 RETURN JUMPDEST CALLVALUE DUP1 ISZERO PUSH2 0xB5 JUMPI PUSH1 0x0 DUP1 REVERT JUMPDEST POP PUSH2 0xD0 PUSH1 0x4 DUP1 CALLDATASIZE SUB DUP2 ADD SWAP1 PUSH2 0xCB SWAP2 SWAP1 PUSH2 0x65E JUMP JUMPDEST PUSH2 0x380 JUMP JUMPDEST PUSH1 0x40 MLOAD PUSH2 0xDD SWAP2 SWAP1 PUSH2 0x7A1 JUMP JUMPDEST PUSH1 0x40 MLOAD DUP1 SWAP2 SUB SWAP1 RETURN JUMPDEST CALLVALUE DUP1 ISZERO PUSH2 0xF2 JUMPI PUSH1 0x0 DUP1 REVERT JUMPDEST POP PUSH2 0x10D PUSH1 0x4 DUP1 CALLDATASIZE SUB DUP2 ADD SWAP1 PUSH2 0x108 SWAP2 SWAP1 PUSH2 0x622 JUMP JUMPDEST PUSH2 0x3B3 JUMP JUMPDEST PUSH1 0x40 MLOAD PUSH2 0x11A SWAP2 SWAP1 PUSH2 0x853 JUMP JUMPDEST PUSH1 0x40 MLOAD DUP1 SWAP2 SUB SWAP1 RETURN JUMPDEST CALLVALUE DUP1 ISZERO PUSH2 0x12F JUMPI PUSH1 0x0 DUP1 REVERT JUMPDEST POP PUSH2 0x14A PUSH1 0x4 DUP1 CALLDATASIZE SUB DUP2 ADD SWAP1 PUSH2 0x145 SWAP2 SWAP1 PUSH2 0x65E JUMP JUMPDEST PUSH2 0x3E4 JUMP JUMPDEST PUSH1 0x40 MLOAD PUSH2 0x157 SWAP2 SWAP1 PUSH2 0x7A1 JUMP JUMPDEST PUSH1 0x40 MLOAD DUP1 SWAP2 SUB SWAP1 RETURN JUMPDEST CALLVALUE DUP1 ISZERO PUSH2 0x16C JUMPI PUSH1 0x0 DUP1 REVERT JUMPDEST POP PUSH2 0x187 PUSH1 0x4 DUP1 CALLDATASIZE SUB DUP2 ADD SWAP1 PUSH2 0x182 SWAP2 SWAP1 PUSH2 0x687 JUMP JUMPDEST PUSH2 0x417 JUMP JUMPDEST STOP JUMPDEST CALLVALUE DUP1 ISZERO PUSH2 0x195 JUMPI PUSH1 0x0 DUP1 REVERT JUMPDEST POP PUSH2 0x19E PUSH2 0x522 JUMP JUMPDEST PUSH1 0x40 MLOAD PUSH2 0x1AB SWAP2 SWAP1 PUSH2 0x853 JUMP JUMPDEST PUSH1 0x40 MLOAD DUP1 SWAP2 SUB SWAP1 RETURN JUMPDEST CALLVALUE DUP1 ISZERO PUSH2 0x1C0 JUMPI PUSH1 0x0 DUP1 REVERT JUMPDEST POP PUSH2 0x1C9 PUSH2 0x528 JUMP JUMPDEST PUSH1 0x40 MLOAD PUSH2 0x1D6 SWAP2 SWAP1 PUSH2 0x7A1 JUMP JUMPDEST PUSH1 0x40 MLOAD DUP1 SWAP2 SUB SWAP1 RETURN JUMPDEST CALLVALUE DUP1 ISZERO PUSH2 0x1EB JUMPI PUSH1 0x0 DUP1 REVERT JUMPDEST POP PUSH2 0x206 PUSH1 0x4 DUP1 CALLDATASIZE SUB DUP2 ADD SWAP1 PUSH2 0x201 SWAP2 SWAP1 PUSH2 0x65E JUMP JUMPDEST PUSH2 0x54C JUMP JUMPDEST STOP JUMPDEST CALLVALUE DUP1 ISZERO PUSH2 0x214 JUMPI PUSH1 0x0 DUP1 REVERT JUMPDEST POP PUSH2 0x21D PUSH2 0x5E4 JUMP JUMPDEST PUSH1 0x40 MLOAD PUSH2 0x22A SWAP2 SWAP1 PUSH2 0x853 JUMP JUMPDEST PUSH1 0x40 MLOAD DUP1 SWAP2 SUB SWAP1 RETURN JUMPDEST PUSH1 0x0 PUSH1 0x2 SLOAD CALLVALUE EQ PUSH2 0x279 JUMPI PUSH1 0x40 MLOAD PUSH32 0x8C379A000000000000000000000000000000000000000000000000000000000 DUP2 MSTORE PUSH1 0x4 ADD PUSH2 0x270 SWAP1 PUSH2 0x833 JUMP JUMPDEST PUSH1 0x40 MLOAD DUP1 SWAP2 SUB SWAP1 REVERT JUMPDEST PUSH1 0x1 PUSH1 0x0 DUP2 SLOAD DUP1 SWAP3 SWAP2 SWAP1 PUSH2 0x28C SWAP1 PUSH2 0x8BB JUMP JUMPDEST SWAP2 SWAP1 POP SSTORE POP PUSH1 0x0 CALLER ADDRESS PUSH1 0x1 SLOAD PUSH1 0x40 MLOAD PUSH2 0x2A4 SWAP1 PUSH2 0x5EA JUMP JUMPDEST PUSH2 0x2B0 SWAP4 SWAP3 SWAP2 SWAP1 PUSH2 0x7BC JUMP JUMPDEST PUSH1 0x40 MLOAD DUP1 SWAP2 SUB SWAP1 PUSH1 0x0 CREATE DUP1 ISZERO DUP1 ISZERO PUSH2 0x2CC JUMPI RETURNDATASIZE PUSH1 0x0 DUP1 RETURNDATACOPY RETURNDATASIZE PUSH1 0x0 REVERT JUMPDEST POP SWAP1 POP DUP1 PUSH1 0x3 PUSH1 0x0 PUSH1 0x1 SLOAD DUP2 MSTORE PUSH1 0x20 ADD SWAP1 DUP2 MSTORE PUSH1 0x20 ADD PUSH1 0x0 KECCAK256 PUSH1 0x0 PUSH2 0x100 EXP DUP2 SLOAD DUP2 PUSH20 0xFFFFFFFFFFFFFFFFFFFFFFFFFFFFFFFFFFFFFFFF MUL NOT AND SWAP1 DUP4 PUSH20 0xFFFFFFFFFFFFFFFFFFFFFFFFFFFFFFFFFFFFFFFF AND MUL OR SWAP1 SSTORE POP CALLER PUSH1 0x4 PUSH1 0x0 PUSH1 0x1 SLOAD DUP2 MSTORE PUSH1 0x20 ADD SWAP1 DUP2 MSTORE PUSH1 0x20 ADD PUSH1 0x0 KECCAK256 PUSH1 0x0 PUSH2 0x100 EXP DUP2 SLOAD DUP2 PUSH20 0xFFFFFFFFFFFFFFFFFFFFFFFFFFFFFFFFFFFFFFFF MUL NOT AND SWAP1 DUP4 PUSH20 0xFFFFFFFFFFFFFFFFFFFFFFFFFFFFFFFFFFFFFFFF AND MUL OR SWAP1 SSTORE POP PUSH1 0x1 SLOAD SWAP2 POP POP SWAP1 JUMP JUMPDEST PUSH1 0x3 PUSH1 0x20 MSTORE DUP1 PUSH1 0x0 MSTORE PUSH1 0x40 PUSH1 0x0 KECCAK256 PUSH1 0x0 SWAP2 POP SLOAD SWAP1 PUSH2 0x100 EXP SWAP1 DIV PUSH20 0xFFFFFFFFFFFFFFFFFFFFFFFFFFFFFFFFFFFFFFFF AND DUP2 JUMP JUMPDEST PUSH1 0x5 PUSH1 0x20 MSTORE DUP2 PUSH1 0x0 MSTORE PUSH1 0x40 PUSH1 0x0 KECCAK256 DUP2 DUP2 SLOAD DUP2 LT PUSH2 0x3CF JUMPI PUSH1 0x0 DUP1 REVERT JUMPDEST SWAP1 PUSH1 0x0 MSTORE PUSH1 0x20 PUSH1 0x0 KECCAK256 ADD PUSH1 0x0 SWAP2 POP SWAP2 POP POP SLOAD DUP2 JUMP JUMPDEST PUSH1 0x4 PUSH1 0x20 MSTORE DUP1 PUSH1 0x0 MSTORE PUSH1 0x40 PUSH1 0x0 KECCAK256 PUSH1 0x0 SWAP2 POP SLOAD SWAP1 PUSH2 0x100 EXP SWAP1 DIV PUSH20 0xFFFFFFFFFFFFFFFFFFFFFFFFFFFFFFFFFFFFFFFF AND DUP2 JUMP JUMPDEST CALLER PUSH20 0xFFFFFFFFFFFFFFFFFFFFFFFFFFFFFFFFFFFFFFFF AND PUSH1 0x3 PUSH1 0x0 DUP5 DUP2 MSTORE PUSH1 0x20 ADD SWAP1 DUP2 MSTORE PUSH1 0x20 ADD PUSH1 0x0 KECCAK256 PUSH1 0x0 SWAP1 SLOAD SWAP1 PUSH2 0x100 EXP SWAP1 DIV PUSH20 0xFFFFFFFFFFFFFFFFFFFFFFFFFFFFFFFFFFFFFFFF AND PUSH20 0xFFFFFFFFFFFFFFFFFFFFFFFFFFFFFFFFFFFFFFFF AND EQ PUSH2 0x4B8 JUMPI PUSH1 0x40 MLOAD PUSH32 0x8C379A000000000000000000000000000000000000000000000000000000000 DUP2 MSTORE PUSH1 0x4 ADD PUSH2 0x4AF SWAP1 PUSH2 0x7F3 JUMP JUMPDEST PUSH1 0x40 MLOAD DUP1 SWAP2 SUB SWAP1 REVERT JUMPDEST PUSH1 0x5 PUSH1 0x0 DUP3 PUSH20 0xFFFFFFFFFFFFFFFFFFFFFFFFFFFFFFFFFFFFFFFF AND PUSH20 0xFFFFFFFFFFFFFFFFFFFFFFFFFFFFFFFFFFFFFFFF AND DUP2 MSTORE PUSH1 0x20 ADD SWAP1 DUP2 MSTORE PUSH1 0x20 ADD PUSH1 0x0 KECCAK256 DUP3 SWAP1 DUP1 PUSH1 0x1 DUP2 SLOAD ADD DUP1 DUP3 SSTORE DUP1 SWAP2 POP POP PUSH1 0x1 SWAP1 SUB SWAP1 PUSH1 0x0 MSTORE PUSH1 0x20 PUSH1 0x0 KECCAK256 ADD PUSH1 0x0 SWAP1 SWAP2 SWAP1 SWAP2 SWAP1 SWAP2 POP SSTORE POP POP JUMP JUMPDEST PUSH1 0x1 SLOAD DUP2 JUMP JUMPDEST PUSH1 0x0 DUP1 SLOAD SWAP1 PUSH2 0x100 EXP SWAP1 DIV PUSH20 0xFFFFFFFFFFFFFFFFFFFFFFFFFFFFFFFFFFFFFFFF AND DUP2 JUMP JUMPDEST CALLER PUSH20 0xFFFFFFFFFFFFFFFFFFFFFFFFFFFFFFFFFFFFFFFF AND PUSH1 0x0 DUP1 SLOAD SWAP1 PUSH2 0x100 EXP SWAP1 DIV PUSH20 0xFFFFFFFFFFFFFFFFFFFFFFFFFFFFFFFFFFFFFFFF AND PUSH20 0xFFFFFFFFFFFFFFFFFFFFFFFFFFFFFFFFFFFFFFFF AND EQ PUSH2 0x5DA JUMPI PUSH1 0x40 MLOAD PUSH32 0x8C379A000000000000000000000000000000000000000000000000000000000 DUP2 MSTORE PUSH1 0x4 ADD PUSH2 0x5D1 SWAP1 PUSH2 0x813 JUMP JUMPDEST PUSH1 0x40 MLOAD DUP1 SWAP2 SUB SWAP1 REVERT JUMPDEST DUP1 PUSH1 0x2 DUP2 SWAP1 SSTORE POP POP JUMP JUMPDEST PUSH1 0x2 SLOAD DUP2 JUMP JUMPDEST PUSH2 0x1859 DUP1 PUSH3 0x962 DUP4 CODECOPY ADD SWAP1 JUMP JUMPDEST PUSH1 0x0 DUP2 CALLDATALOAD SWAP1 POP PUSH2 0x607 DUP2 PUSH2 0x933 JUMP JUMPDEST SWAP3 SWAP2 POP POP JUMP JUMPDEST PUSH1 0x0 DUP2 CALLDATALOAD SWAP1 POP PUSH2 0x61C DUP2 PUSH2 0x94A JUMP JUMPDEST SWAP3 SWAP2 POP POP JUMP JUMPDEST PUSH1 0x0 DUP1 PUSH1 0x40 DUP4 DUP6 SUB SLT ISZERO PUSH2 0x635 JUMPI PUSH1 0x0 DUP1 REVERT JUMPDEST PUSH1 0x0 PUSH2 0x643 DUP6 DUP3 DUP7 ADD PUSH2 0x5F8 JUMP JUMPDEST SWAP3 POP POP PUSH1 0x20 PUSH2 0x654 DUP6 DUP3 DUP7 ADD PUSH2 0x60D JUMP JUMPDEST SWAP2 POP POP SWAP3 POP SWAP3 SWAP1 POP JUMP JUMPDEST PUSH1 0x0 PUSH1 0x20 DUP3 DUP5 SUB SLT ISZERO PUSH2 0x670 JUMPI PUSH1 0x0 DUP1 REVERT JUMPDEST PUSH1 0x0 PUSH2 0x67E DUP5 DUP3 DUP6 ADD PUSH2 0x60D JUMP JUMPDEST SWAP2 POP POP SWAP3 SWAP2 POP POP JUMP JUMPDEST PUSH1 0x0 DUP1 PUSH1 0x40 DUP4 DUP6 SUB SLT ISZERO PUSH2 0x69A JUMPI PUSH1 0x0 DUP1 REVERT JUMPDEST PUSH1 0x0 PUSH2 0x6A8 DUP6 DUP3 DUP7 ADD PUSH2 0x60D JUMP JUMPDEST SWAP3 POP POP PUSH1 0x20 PUSH2 0x6B9 DUP6 DUP3 DUP7 ADD PUSH2 0x5F8 JUMP JUMPDEST SWAP2 POP POP SWAP3 POP SWAP3 SWAP1 POP JUMP JUMPDEST PUSH2 0x6CC DUP2 PUSH2 0x87F JUMP JUMPDEST DUP3 MSTORE POP POP JUMP JUMPDEST PUSH1 0x0 PUSH2 0x6DF PUSH1 0x12 DUP4 PUSH2 0x86E JUMP JUMPDEST SWAP2 POP PUSH32 0x4F6E6C792077616C6C6574206D6574686F640000000000000000000000000000 PUSH1 0x0 DUP4 ADD MSTORE PUSH1 0x20 DUP3 ADD SWAP1 POP SWAP2 SWAP1 POP JUMP JUMPDEST PUSH1 0x0 PUSH2 0x71F PUSH1 0x11 DUP4 PUSH2 0x86E JUMP JUMPDEST SWAP2 POP PUSH32 0x4F6E6C79206F776E6572206D6574686F64000000000000000000000000000000 PUSH1 0x0 DUP4 ADD MSTORE PUSH1 0x20 DUP3 ADD SWAP1 POP SWAP2 SWAP1 POP JUMP JUMPDEST PUSH1 0x0 PUSH2 0x75F PUSH1 0x1B DUP4 PUSH2 0x86E JUMP JUMPDEST SWAP2 POP PUSH32 0x496E73756666696369656E74207061796D656E7420616D6F756E740000000000 PUSH1 0x0 DUP4 ADD MSTORE PUSH1 0x20 DUP3 ADD SWAP1 POP SWAP2 SWAP1 POP JUMP JUMPDEST PUSH2 0x79B DUP2 PUSH2 0x8B1 JUMP JUMPDEST DUP3 MSTORE POP POP JUMP JUMPDEST PUSH1 0x0 PUSH1 0x20 DUP3 ADD SWAP1 POP PUSH2 0x7B6 PUSH1 0x0 DUP4 ADD DUP5 PUSH2 0x6C3 JUMP JUMPDEST SWAP3 SWAP2 POP POP JUMP JUMPDEST PUSH1 0x0 PUSH1 0x60 DUP3 ADD SWAP1 POP PUSH2 0x7D1 PUSH1 0x0 DUP4 ADD DUP7 PUSH2 0x6C3 JUMP JUMPDEST PUSH2 0x7DE PUSH1 0x20 DUP4 ADD DUP6 PUSH2 0x6C3 JUMP JUMPDEST PUSH2 0x7EB PUSH1 0x40 DUP4 ADD DUP5 PUSH2 0x792 JUMP JUMPDEST SWAP5 SWAP4 POP POP POP POP JUMP JUMPDEST PUSH1 0x0 PUSH1 0x20 DUP3 ADD SWAP1 POP DUP2 DUP2 SUB PUSH1 0x0 DUP4 ADD MSTORE PUSH2 0x80C DUP2 PUSH2 0x6D2 JUMP JUMPDEST SWAP1 POP SWAP2 SWAP1 POP JUMP JUMPDEST PUSH1 0x0 PUSH1 0x20 DUP3 ADD SWAP1 POP DUP2 DUP2 SUB PUSH1 0x0 DUP4 ADD MSTORE PUSH2 0x82C DUP2 PUSH2 0x712 JUMP JUMPDEST SWAP1 POP SWAP2 SWAP1 POP JUMP JUMPDEST PUSH1 0x0 PUSH1 0x20 DUP3 ADD SWAP1 POP DUP2 DUP2 SUB PUSH1 0x0 DUP4 ADD MSTORE PUSH2 0x84C DUP2 PUSH2 0x752 JUMP JUMPDEST SWAP1 POP SWAP2 SWAP1 POP JUMP JUMPDEST PUSH1 0x0 PUSH1 0x20 DUP3 ADD SWAP1 POP PUSH2 0x868 PUSH1 0x0 DUP4 ADD DUP5 PUSH2 0x792 JUMP JUMPDEST SWAP3 SWAP2 POP POP JUMP JUMPDEST PUSH1 0x0 DUP3 DUP3 MSTORE PUSH1 0x20 DUP3 ADD SWAP1 POP SWAP3 SWAP2 POP POP JUMP JUMPDEST PUSH1 0x0 PUSH2 0x88A DUP3 PUSH2 0x891 JUMP JUMPDEST SWAP1 POP SWAP2 SWAP1 POP JUMP JUMPDEST PUSH1 0x0 PUSH20 0xFFFFFFFFFFFFFFFFFFFFFFFFFFFFFFFFFFFFFFFF DUP3 AND SWAP1 POP SWAP2 SWAP1 POP JUMP JUMPDEST PUSH1 0x0 DUP2 SWAP1 POP SWAP2 SWAP1 POP JUMP JUMPDEST PUSH1 0x0 PUSH2 0x8C6 DUP3 PUSH2 0x8B1 JUMP JUMPDEST SWAP2 POP PUSH32 0xFFFFFFFFFFFFFFFFFFFFFFFFFFFFFFFFFFFFFFFFFFFFFFFFFFFFFFFFFFFFFFFF DUP3 EQ ISZERO PUSH2 0x8F9 JUMPI PUSH2 0x8F8 PUSH2 0x904 JUMP JUMPDEST JUMPDEST PUSH1 0x1 DUP3 ADD SWAP1 POP SWAP2 SWAP1 POP JUMP JUMPDEST PUSH32 0x4E487B7100000000000000000000000000000000000000000000000000000000 PUSH1 0x0 MSTORE PUSH1 0x11 PUSH1 0x4 MSTORE PUSH1 0x24 PUSH1 0x0 REVERT JUMPDEST PUSH2 0x93C DUP2 PUSH2 0x87F JUMP JUMPDEST DUP2 EQ PUSH2 0x947 JUMPI PUSH1 0x0 DUP1 REVERT JUMPDEST POP JUMP JUMPDEST PUSH2 0x953 DUP2 PUSH2 0x8B1 JUMP JUMPDEST DUP2 EQ PUSH2 0x95E JUMPI PUSH1 0x0 DUP1 REVERT JUMPDEST POP JUMP INVALID PUSH1 0x80 PUSH1 0x40 MSTORE CALLVALUE DUP1 ISZERO PUSH3 0x11 JUMPI PUSH1 0x0 DUP1 REVERT JUMPDEST POP PUSH1 0x40 MLOAD PUSH3 0x1859 CODESIZE SUB DUP1 PUSH3 0x1859 DUP4 CODECOPY DUP2 DUP2 ADD PUSH1 0x40 MSTORE DUP2 ADD SWAP1 PUSH3 0x37 SWAP2 SWAP1 PUSH3 0xFF JUMP JUMPDEST PUSH1 0x1 PUSH1 0x0 DUP2 SWAP1 SSTORE POP DUP3 PUSH1 0x1 PUSH1 0x0 PUSH2 0x100 EXP DUP2 SLOAD DUP2 PUSH20 0xFFFFFFFFFFFFFFFFFFFFFFFFFFFFFFFFFFFFFFFF MUL NOT AND SWAP1 DUP4 PUSH20 0xFFFFFFFFFFFFFFFFFFFFFFFFFFFFFFFFFFFFFFFF AND MUL OR SWAP1 SSTORE POP DUP2 PUSH1 0x4 PUSH1 0x0 PUSH2 0x100 EXP DUP2 SLOAD DUP2 PUSH20 0xFFFFFFFFFFFFFFFFFFFFFFFFFFFFFFFFFFFFFFFF MUL NOT AND SWAP1 DUP4 PUSH20 0xFFFFFFFFFFFFFFFFFFFFFFFFFFFFFFFFFFFFFFFF AND MUL OR SWAP1 SSTORE POP DUP1 PUSH1 0x3 DUP2 SWAP1 SSTORE POP POP POP POP PUSH3 0x1C7 JUMP JUMPDEST PUSH1 0x0 DUP2 MLOAD SWAP1 POP PUSH3 0xE2 DUP2 PUSH3 0x193 JUMP JUMPDEST SWAP3 SWAP2 POP POP JUMP JUMPDEST PUSH1 0x0 DUP2 MLOAD SWAP1 POP PUSH3 0xF9 DUP2 PUSH3 0x1AD JUMP JUMPDEST SWAP3 SWAP2 POP POP JUMP JUMPDEST PUSH1 0x0 DUP1 PUSH1 0x0 PUSH1 0x60 DUP5 DUP7 SUB SLT ISZERO PUSH3 0x115 JUMPI PUSH1 0x0 DUP1 REVERT JUMPDEST PUSH1 0x0 PUSH3 0x125 DUP7 DUP3 DUP8 ADD PUSH3 0xD1 JUMP JUMPDEST SWAP4 POP POP PUSH1 0x20 PUSH3 0x138 DUP7 DUP3 DUP8 ADD PUSH3 0xD1 JUMP JUMPDEST SWAP3 POP POP PUSH1 0x40 PUSH3 0x14B DUP7 DUP3 DUP8 ADD PUSH3 0xE8 JUMP JUMPDEST SWAP2 POP POP SWAP3 POP SWAP3 POP SWAP3 JUMP JUMPDEST PUSH1 0x0 PUSH3 0x162 DUP3 PUSH3 0x169 JUMP JUMPDEST SWAP1 POP SWAP2 SWAP1 POP JUMP JUMPDEST PUSH1 0x0 PUSH20 0xFFFFFFFFFFFFFFFFFFFFFFFFFFFFFFFFFFFFFFFF DUP3 AND SWAP1 POP SWAP2 SWAP1 POP JUMP JUMPDEST PUSH1 0x0 DUP2 SWAP1 POP SWAP2 SWAP1 POP JUMP JUMPDEST PUSH3 0x19E DUP2 PUSH3 0x155 JUMP JUMPDEST DUP2 EQ PUSH3 0x1AA JUMPI PUSH1 0x0 DUP1 REVERT JUMPDEST POP JUMP JUMPDEST PUSH3 0x1B8 DUP2 PUSH3 0x189 JUMP JUMPDEST DUP2 EQ PUSH3 0x1C4 JUMPI PUSH1 0x0 DUP1 REVERT JUMPDEST POP JUMP JUMPDEST PUSH2 0x1682 DUP1 PUSH3 0x1D7 PUSH1 0x0 CODECOPY PUSH1 0x0 RETURN INVALID PUSH1 0x80 PUSH1 0x40 MSTORE CALLVALUE DUP1 ISZERO PUSH2 0x10 JUMPI PUSH1 0x0 DUP1 REVERT JUMPDEST POP PUSH1 0x4 CALLDATASIZE LT PUSH2 0xA9 JUMPI PUSH1 0x0 CALLDATALOAD PUSH1 0xE0 SHR DUP1 PUSH4 0x8DA5CB5B GT PUSH2 0x71 JUMPI DUP1 PUSH4 0x8DA5CB5B EQ PUSH2 0x16B JUMPI DUP1 PUSH4 0x9A5D6A4A EQ PUSH2 0x189 JUMPI DUP1 PUSH4 0xA230C524 EQ PUSH2 0x1A5 JUMPI DUP1 PUSH4 0xA4B08872 EQ PUSH2 0x1D5 JUMPI DUP1 PUSH4 0xB789BF52 EQ PUSH2 0x206 JUMPI DUP1 PUSH4 0xC162BA2F EQ PUSH2 0x224 JUMPI PUSH2 0xA9 JUMP JUMPDEST DUP1 PUSH4 0x39935FF EQ PUSH2 0xAE JUMPI DUP1 PUSH4 0x11AEE380 EQ PUSH2 0xE5 JUMPI DUP1 PUSH4 0x3EE79599 EQ PUSH2 0x103 JUMPI DUP1 PUSH4 0x6F4D469B EQ PUSH2 0x11F JUMPI DUP1 PUSH4 0x70A08231 EQ PUSH2 0x13B JUMPI JUMPDEST PUSH1 0x0 DUP1 REVERT JUMPDEST PUSH2 0xC8 PUSH1 0x4 DUP1 CALLDATASIZE SUB DUP2 ADD SWAP1 PUSH2 0xC3 SWAP2 SWAP1 PUSH2 0xEDD JUMP JUMPDEST PUSH2 0x242 JUMP JUMPDEST PUSH1 0x40 MLOAD PUSH2 0xDC SWAP9 SWAP8 SWAP7 SWAP6 SWAP5 SWAP4 SWAP3 SWAP2 SWAP1 PUSH2 0x1398 JUMP JUMPDEST PUSH1 0x40 MLOAD DUP1 SWAP2 SUB SWAP1 RETURN JUMPDEST PUSH2 0xED PUSH2 0x2CA JUMP JUMPDEST PUSH1 0x40 MLOAD PUSH2 0xFA SWAP2 SWAP1 PUSH2 0x1354 JUMP JUMPDEST PUSH1 0x40 MLOAD DUP1 SWAP2 SUB SWAP1 RETURN JUMPDEST PUSH2 0x11D PUSH1 0x4 DUP1 CALLDATASIZE SUB DUP2 ADD SWAP1 PUSH2 0x118 SWAP2 SWAP1 PUSH2 0xF06 JUMP JUMPDEST PUSH2 0x2D0 JUMP JUMPDEST STOP JUMPDEST PUSH2 0x139 PUSH1 0x4 DUP1 CALLDATASIZE SUB DUP2 ADD SWAP1 PUSH2 0x134 SWAP2 SWAP1 PUSH2 0xE73 JUMP JUMPDEST PUSH2 0x5BA JUMP JUMPDEST STOP JUMPDEST PUSH2 0x155 PUSH1 0x4 DUP1 CALLDATASIZE SUB DUP2 ADD SWAP1 PUSH2 0x150 SWAP2 SWAP1 PUSH2 0xDFB JUMP JUMPDEST PUSH2 0x6B6 JUMP JUMPDEST PUSH1 0x40 MLOAD PUSH2 0x162 SWAP2 SWAP1 PUSH2 0x1354 JUMP JUMPDEST PUSH1 0x40 MLOAD DUP1 SWAP2 SUB SWAP1 RETURN JUMPDEST PUSH2 0x173 PUSH2 0x6CE JUMP JUMPDEST PUSH1 0x40 MLOAD PUSH2 0x180 SWAP2 SWAP1 PUSH2 0x11D5 JUMP JUMPDEST PUSH1 0x40 MLOAD DUP1 SWAP2 SUB SWAP1 RETURN JUMPDEST PUSH2 0x1A3 PUSH1 0x4 DUP1 CALLDATASIZE SUB DUP2 ADD SWAP1 PUSH2 0x19E SWAP2 SWAP1 PUSH2 0xE24 JUMP JUMPDEST PUSH2 0x6F4 JUMP JUMPDEST STOP JUMPDEST PUSH2 0x1BF PUSH1 0x4 DUP1 CALLDATASIZE SUB DUP2 ADD SWAP1 PUSH2 0x1BA SWAP2 SWAP1 PUSH2 0xDFB JUMP JUMPDEST PUSH2 0x903 JUMP JUMPDEST PUSH1 0x40 MLOAD PUSH2 0x1CC SWAP2 SWAP1 PUSH2 0x1219 JUMP JUMPDEST PUSH1 0x40 MLOAD DUP1 SWAP2 SUB SWAP1 RETURN JUMPDEST PUSH2 0x1EF PUSH1 0x4 DUP1 CALLDATASIZE SUB DUP2 ADD SWAP1 PUSH2 0x1EA SWAP2 SWAP1 PUSH2 0xDFB JUMP JUMPDEST PUSH2 0x923 JUMP JUMPDEST PUSH1 0x40 MLOAD PUSH2 0x1FD SWAP3 SWAP2 SWAP1 PUSH2 0x136F JUMP JUMPDEST PUSH1 0x40 MLOAD DUP1 SWAP2 SUB SWAP1 RETURN JUMPDEST PUSH2 0x20E PUSH2 0x967 JUMP JUMPDEST PUSH1 0x40 MLOAD PUSH2 0x21B SWAP2 SWAP1 PUSH2 0x1354 JUMP JUMPDEST PUSH1 0x40 MLOAD DUP1 SWAP2 SUB SWAP1 RETURN JUMPDEST PUSH2 0x22C PUSH2 0x96D JUMP JUMPDEST PUSH1 0x40 MLOAD PUSH2 0x239 SWAP2 SWAP1 PUSH2 0x1354 JUMP JUMPDEST PUSH1 0x40 MLOAD DUP1 SWAP2 SUB SWAP1 RETURN JUMPDEST PUSH1 0x9 PUSH1 0x20 MSTORE DUP1 PUSH1 0x0 MSTORE PUSH1 0x40 PUSH1 0x0 KECCAK256 PUSH1 0x0 SWAP2 POP SWAP1 POP DUP1 PUSH1 0x0 ADD SLOAD SWAP1 DUP1 PUSH1 0x1 ADD PUSH1 0x0 SWAP1 SLOAD SWAP1 PUSH2 0x100 EXP SWAP1 DIV PUSH20 0xFFFFFFFFFFFFFFFFFFFFFFFFFFFFFFFFFFFFFFFF AND SWAP1 DUP1 PUSH1 0x2 ADD PUSH1 0x0 SWAP1 SLOAD SWAP1 PUSH2 0x100 EXP SWAP1 DIV PUSH20 0xFFFFFFFFFFFFFFFFFFFFFFFFFFFFFFFFFFFFFFFF AND SWAP1 DUP1 PUSH1 0x3 ADD SLOAD SWAP1 DUP1 PUSH1 0x4 ADD SLOAD SWAP1 DUP1 PUSH1 0x5 ADD SLOAD SWAP1 DUP1 PUSH1 0x6 ADD SLOAD SWAP1 DUP1 PUSH1 0x7 ADD SLOAD SWAP1 POP DUP9 JUMP JUMPDEST PUSH1 0x5 SLOAD DUP2 JUMP JUMPDEST PUSH1 0x2 PUSH1 0x0 SLOAD EQ ISZERO PUSH2 0x316 JUMPI PUSH1 0x40 MLOAD PUSH32 0x8C379A000000000000000000000000000000000000000000000000000000000 DUP2 MSTORE PUSH1 0x4 ADD PUSH2 0x30D SWAP1 PUSH2 0x1334 JUMP JUMPDEST PUSH1 0x40 MLOAD DUP1 SWAP2 SUB SWAP1 REVERT JUMPDEST PUSH1 0x2 PUSH1 0x0 DUP2 SWAP1 SSTORE POP PUSH1 0x1 DUP2 EQ DUP1 PUSH2 0x32D JUMPI POP PUSH1 0x2 DUP2 EQ JUMPDEST PUSH2 0x36C JUMPI PUSH1 0x40 MLOAD PUSH32 0x8C379A000000000000000000000000000000000000000000000000000000000 DUP2 MSTORE PUSH1 0x4 ADD PUSH2 0x363 SWAP1 PUSH2 0x12B4 JUMP JUMPDEST PUSH1 0x40 MLOAD DUP1 SWAP2 SUB SWAP1 REVERT JUMPDEST PUSH1 0x0 PUSH1 0x9 PUSH1 0x0 DUP5 DUP2 MSTORE PUSH1 0x20 ADD SWAP1 DUP2 MSTORE PUSH1 0x20 ADD PUSH1 0x0 KECCAK256 SWAP1 POP PUSH1 0x0 DUP2 PUSH1 0x7 ADD SLOAD EQ ISZERO PUSH2 0x3CB JUMPI PUSH1 0x40 MLOAD PUSH32 0x8C379A000000000000000000000000000000000000000000000000000000000 DUP2 MSTORE PUSH1 0x4 ADD PUSH2 0x3C2 SWAP1 PUSH2 0x1294 JUMP JUMPDEST PUSH1 0x40 MLOAD DUP1 SWAP2 SUB SWAP1 REVERT JUMPDEST DUP1 PUSH1 0x0 ADD SLOAD PUSH1 0x6 PUSH1 0x0 CALLER PUSH20 0xFFFFFFFFFFFFFFFFFFFFFFFFFFFFFFFFFFFFFFFF AND PUSH20 0xFFFFFFFFFFFFFFFFFFFFFFFFFFFFFFFFFFFFFFFF AND DUP2 MSTORE PUSH1 0x20 ADD SWAP1 DUP2 MSTORE PUSH1 0x20 ADD PUSH1 0x0 KECCAK256 PUSH1 0x0 ADD SLOAD GT ISZERO PUSH2 0x454 JUMPI PUSH1 0x40 MLOAD PUSH32 0x8C379A000000000000000000000000000000000000000000000000000000000 DUP2 MSTORE PUSH1 0x4 ADD PUSH2 0x44B SWAP1 PUSH2 0x1274 JUMP JUMPDEST PUSH1 0x40 MLOAD DUP1 SWAP2 SUB SWAP1 REVERT JUMPDEST PUSH1 0x0 PUSH1 0xA PUSH1 0x0 DUP6 DUP2 MSTORE PUSH1 0x20 ADD SWAP1 DUP2 MSTORE PUSH1 0x20 ADD PUSH1 0x0 KECCAK256 PUSH1 0x0 CALLER PUSH20 0xFFFFFFFFFFFFFFFFFFFFFFFFFFFFFFFFFFFFFFFF AND PUSH20 0xFFFFFFFFFFFFFFFFFFFFFFFFFFFFFFFFFFFFFFFF AND DUP2 MSTORE PUSH1 0x20 ADD SWAP1 DUP2 MSTORE PUSH1 0x20 ADD PUSH1 0x0 KECCAK256 SLOAD EQ PUSH2 0x4E7 JUMPI PUSH1 0x40 MLOAD PUSH32 0x8C379A000000000000000000000000000000000000000000000000000000000 DUP2 MSTORE PUSH1 0x4 ADD PUSH2 0x4DE SWAP1 PUSH2 0x12D4 JUMP JUMPDEST PUSH1 0x40 MLOAD DUP1 SWAP2 SUB SWAP1 REVERT JUMPDEST DUP2 PUSH1 0xA PUSH1 0x0 DUP6 DUP2 MSTORE PUSH1 0x20 ADD SWAP1 DUP2 MSTORE PUSH1 0x20 ADD PUSH1 0x0 KECCAK256 PUSH1 0x0 CALLER PUSH20 0xFFFFFFFFFFFFFFFFFFFFFFFFFFFFFFFFFFFFFFFF AND PUSH20 0xFFFFFFFFFFFFFFFFFFFFFFFFFFFFFFFFFFFFFFFF AND DUP2 MSTORE PUSH1 0x20 ADD SWAP1 DUP2 MSTORE PUSH1 0x20 ADD PUSH1 0x0 KECCAK256 DUP2 SWAP1 SSTORE POP PUSH1 0x1 DUP3 EQ ISZERO PUSH2 0x564 JUMPI DUP1 PUSH1 0x4 ADD PUSH1 0x0 DUP2 SLOAD DUP1 SWAP3 SWAP2 SWAP1 PUSH2 0x55A SWAP1 PUSH2 0x1531 JUMP JUMPDEST SWAP2 SWAP1 POP SSTORE POP PUSH2 0x57F JUMP JUMPDEST DUP1 PUSH1 0x5 ADD PUSH1 0x0 DUP2 SLOAD DUP1 SWAP3 SWAP2 SWAP1 PUSH2 0x579 SWAP1 PUSH2 0x1531 JUMP JUMPDEST SWAP2 SWAP1 POP SSTORE POP JUMPDEST DUP1 PUSH1 0x6 ADD SLOAD DUP2 PUSH1 0x4 ADD SLOAD LT ISZERO DUP1 PUSH2 0x59E JUMPI POP DUP1 PUSH1 0x6 ADD SLOAD DUP2 PUSH1 0x5 ADD SLOAD LT ISZERO JUMPDEST ISZERO PUSH2 0x5AD JUMPI PUSH2 0x5AC DUP2 PUSH2 0x973 JUMP JUMPDEST JUMPDEST POP PUSH1 0x1 PUSH1 0x0 DUP2 SWAP1 SSTORE POP POP POP JUMP JUMPDEST PUSH1 0x1 PUSH1 0x0 SWAP1 SLOAD SWAP1 PUSH2 0x100 EXP SWAP1 DIV PUSH20 0xFFFFFFFFFFFFFFFFFFFFFFFFFFFFFFFFFFFFFFFF AND PUSH20 0xFFFFFFFFFFFFFFFFFFFFFFFFFFFFFFFFFFFFFFFF AND CALLER PUSH20 0xFFFFFFFFFFFFFFFFFFFFFFFFFFFFFFFFFFFFFFFF AND EQ PUSH2 0x64A JUMPI PUSH1 0x40 MLOAD PUSH32 0x8C379A000000000000000000000000000000000000000000000000000000000 DUP2 MSTORE PUSH1 0x4 ADD PUSH2 0x641 SWAP1 PUSH2 0x12F4 JUMP JUMPDEST PUSH1 0x40 MLOAD DUP1 SWAP2 SUB SWAP1 REVERT JUMPDEST PUSH1 0x0 JUMPDEST DUP2 MLOAD DUP2 LT ISZERO PUSH2 0x6B2 JUMPI PUSH2 0x69F DUP3 DUP3 DUP2 MLOAD DUP2 LT PUSH2 0x692 JUMPI PUSH32 0x4E487B7100000000000000000000000000000000000000000000000000000000 PUSH1 0x0 MSTORE PUSH1 0x32 PUSH1 0x4 MSTORE PUSH1 0x24 PUSH1 0x0 REVERT JUMPDEST PUSH1 0x20 MUL PUSH1 0x20 ADD ADD MLOAD PUSH2 0xA06 JUMP JUMPDEST DUP1 DUP1 PUSH2 0x6AA SWAP1 PUSH2 0x1531 JUMP JUMPDEST SWAP2 POP POP PUSH2 0x64D JUMP JUMPDEST POP POP JUMP JUMPDEST PUSH1 0x8 PUSH1 0x20 MSTORE DUP1 PUSH1 0x0 MSTORE PUSH1 0x40 PUSH1 0x0 KECCAK256 PUSH1 0x0 SWAP2 POP SWAP1 POP SLOAD DUP2 JUMP JUMPDEST PUSH1 0x1 PUSH1 0x0 SWAP1 SLOAD SWAP1 PUSH2 0x100 EXP SWAP1 DIV PUSH20 0xFFFFFFFFFFFFFFFFFFFFFFFFFFFFFFFFFFFFFFFF AND DUP2 JUMP JUMPDEST PUSH1 0x7 PUSH1 0x0 CALLER PUSH20 0xFFFFFFFFFFFFFFFFFFFFFFFFFFFFFFFFFFFFFFFF AND PUSH20 0xFFFFFFFFFFFFFFFFFFFFFFFFFFFFFFFFFFFFFFFF AND DUP2 MSTORE PUSH1 0x20 ADD SWAP1 DUP2 MSTORE PUSH1 0x20 ADD PUSH1 0x0 KECCAK256 PUSH1 0x0 SWAP1 SLOAD SWAP1 PUSH2 0x100 EXP SWAP1 DIV PUSH1 0xFF AND PUSH2 0x780 JUMPI PUSH1 0x40 MLOAD PUSH32 0x8C379A000000000000000000000000000000000000000000000000000000000 DUP2 MSTORE PUSH1 0x4 ADD PUSH2 0x777 SWAP1 PUSH2 0x1234 JUMP JUMPDEST PUSH1 0x40 MLOAD DUP1 SWAP2 SUB SWAP1 REVERT JUMPDEST PUSH1 0x40 MLOAD DUP1 PUSH2 0x100 ADD PUSH1 0x40 MSTORE DUP1 TIMESTAMP DUP2 MSTORE PUSH1 0x20 ADD DUP5 PUSH20 0xFFFFFFFFFFFFFFFFFFFFFFFFFFFFFFFFFFFFFFFF AND DUP2 MSTORE PUSH1 0x20 ADD DUP4 PUSH20 0xFFFFFFFFFFFFFFFFFFFFFFFFFFFFFFFFFFFFFFFF AND DUP2 MSTORE PUSH1 0x20 ADD DUP3 DUP2 MSTORE PUSH1 0x20 ADD PUSH1 0x0 DUP2 MSTORE PUSH1 0x20 ADD PUSH1 0x0 DUP2 MSTORE PUSH1 0x20 ADD PUSH1 0x2 PUSH1 0x5 SLOAD PUSH2 0x7ED SWAP2 SWAP1 PUSH2 0x1484 JUMP JUMPDEST PUSH1 0x5 SLOAD PUSH2 0x7FA SWAP2 SWAP1 PUSH2 0x14B5 JUMP JUMPDEST DUP2 MSTORE PUSH1 0x20 ADD PUSH1 0x0 DUP2 MSTORE POP PUSH1 0x9 PUSH1 0x0 PUSH1 0x2 SLOAD DUP2 MSTORE PUSH1 0x20 ADD SWAP1 DUP2 MSTORE PUSH1 0x20 ADD PUSH1 0x0 KECCAK256 PUSH1 0x0 DUP3 ADD MLOAD DUP2 PUSH1 0x0 ADD SSTORE PUSH1 0x20 DUP3 ADD MLOAD DUP2 PUSH1 0x1 ADD PUSH1 0x0 PUSH2 0x100 EXP DUP2 SLOAD DUP2 PUSH20 0xFFFFFFFFFFFFFFFFFFFFFFFFFFFFFFFFFFFFFFFF MUL NOT AND SWAP1 DUP4 PUSH20 0xFFFFFFFFFFFFFFFFFFFFFFFFFFFFFFFFFFFFFFFF AND MUL OR SWAP1 SSTORE POP PUSH1 0x40 DUP3 ADD MLOAD DUP2 PUSH1 0x2 ADD PUSH1 0x0 PUSH2 0x100 EXP DUP2 SLOAD DUP2 PUSH20 0xFFFFFFFFFFFFFFFFFFFFFFFFFFFFFFFFFFFFFFFF MUL NOT AND SWAP1 DUP4 PUSH20 0xFFFFFFFFFFFFFFFFFFFFFFFFFFFFFFFFFFFFFFFF AND MUL OR SWAP1 SSTORE POP PUSH1 0x60 DUP3 ADD MLOAD DUP2 PUSH1 0x3 ADD SSTORE PUSH1 0x80 DUP3 ADD MLOAD DUP2 PUSH1 0x4 ADD SSTORE PUSH1 0xA0 DUP3 ADD MLOAD DUP2 PUSH1 0x5 ADD SSTORE PUSH1 0xC0 DUP3 ADD MLOAD DUP2 PUSH1 0x6 ADD SSTORE PUSH1 0xE0 DUP3 ADD MLOAD DUP2 PUSH1 0x7 ADD SSTORE SWAP1 POP POP PUSH1 0x2 PUSH1 0x0 DUP2 SLOAD DUP1 SWAP3 SWAP2 SWAP1 PUSH2 0x8F9 SWAP1 PUSH2 0x1531 JUMP JUMPDEST SWAP2 SWAP1 POP SSTORE POP POP POP POP JUMP JUMPDEST PUSH1 0x7 PUSH1 0x20 MSTORE DUP1 PUSH1 0x0 MSTORE PUSH1 0x40 PUSH1 0x0 KECCAK256 PUSH1 0x0 SWAP2 POP SLOAD SWAP1 PUSH2 0x100 EXP SWAP1 DIV PUSH1 0xFF AND DUP2 JUMP JUMPDEST PUSH1 0x6 PUSH1 0x20 MSTORE DUP1 PUSH1 0x0 MSTORE PUSH1 0x40 PUSH1 0x0 KECCAK256 PUSH1 0x0 SWAP2 POP SWAP1 POP DUP1 PUSH1 0x0 ADD SLOAD SWAP1 DUP1 PUSH1 0x1 ADD PUSH1 0x0 SWAP1 SLOAD SWAP1 PUSH2 0x100 EXP SWAP1 DIV PUSH20 0xFFFFFFFFFFFFFFFFFFFFFFFFFFFFFFFFFFFFFFFF AND SWAP1 POP DUP3 JUMP JUMPDEST PUSH1 0x2 SLOAD DUP2 JUMP JUMPDEST PUSH1 0x3 SLOAD DUP2 JUMP JUMPDEST DUP1 PUSH1 0x6 ADD SLOAD DUP2 PUSH1 0x4 ADD SLOAD LT PUSH2 0x9E8 JUMPI PUSH2 0x9D9 DUP2 PUSH1 0x1 ADD PUSH1 0x0 SWAP1 SLOAD SWAP1 PUSH2 0x100 EXP SWAP1 DIV PUSH20 0xFFFFFFFFFFFFFFFFFFFFFFFFFFFFFFFFFFFFFFFF AND DUP3 PUSH1 0x2 ADD PUSH1 0x0 SWAP1 SLOAD SWAP1 PUSH2 0x100 EXP SWAP1 DIV PUSH20 0xFFFFFFFFFFFFFFFFFFFFFFFFFFFFFFFFFFFFFFFF AND DUP4 PUSH1 0x3 ADD SLOAD PUSH2 0xC55 JUMP JUMPDEST PUSH1 0x1 DUP2 PUSH1 0x7 ADD DUP2 SWAP1 SSTORE POP PUSH2 0xA03 JUMP JUMPDEST DUP1 PUSH1 0x6 ADD SLOAD DUP2 PUSH1 0x5 ADD SLOAD LT PUSH2 0xA02 JUMPI PUSH1 0x2 DUP2 PUSH1 0x7 ADD DUP2 SWAP1 SSTORE POP JUMPDEST JUMPDEST POP JUMP JUMPDEST PUSH1 0x7 PUSH1 0x0 DUP3 PUSH20 0xFFFFFFFFFFFFFFFFFFFFFFFFFFFFFFFFFFFFFFFF AND PUSH20 0xFFFFFFFFFFFFFFFFFFFFFFFFFFFFFFFFFFFFFFFF AND DUP2 MSTORE PUSH1 0x20 ADD SWAP1 DUP2 MSTORE PUSH1 0x20 ADD PUSH1 0x0 KECCAK256 PUSH1 0x0 SWAP1 SLOAD SWAP1 PUSH2 0x100 EXP SWAP1 DIV PUSH1 0xFF AND ISZERO PUSH2 0xA93 JUMPI PUSH1 0x40 MLOAD PUSH32 0x8C379A000000000000000000000000000000000000000000000000000000000 DUP2 MSTORE PUSH1 0x4 ADD PUSH2 0xA8A SWAP1 PUSH2 0x1314 JUMP JUMPDEST PUSH1 0x40 MLOAD DUP1 SWAP2 SUB SWAP1 REVERT JUMPDEST PUSH1 0x40 MLOAD DUP1 PUSH1 0x40 ADD PUSH1 0x40 MSTORE DUP1 TIMESTAMP DUP2 MSTORE PUSH1 0x20 ADD DUP3 PUSH20 0xFFFFFFFFFFFFFFFFFFFFFFFFFFFFFFFFFFFFFFFF AND DUP2 MSTORE POP PUSH1 0x6 PUSH1 0x0 DUP4 PUSH20 0xFFFFFFFFFFFFFFFFFFFFFFFFFFFFFFFFFFFFFFFF AND PUSH20 0xFFFFFFFFFFFFFFFFFFFFFFFFFFFFFFFFFFFFFFFF AND DUP2 MSTORE PUSH1 0x20 ADD SWAP1 DUP2 MSTORE PUSH1 0x20 ADD PUSH1 0x0 KECCAK256 PUSH1 0x0 DUP3 ADD MLOAD DUP2 PUSH1 0x0 ADD SSTORE PUSH1 0x20 DUP3 ADD MLOAD DUP2 PUSH1 0x1 ADD PUSH1 0x0 PUSH2 0x100 EXP DUP2 SLOAD DUP2 PUSH20 0xFFFFFFFFFFFFFFFFFFFFFFFFFFFFFFFFFFFFFFFF MUL NOT AND SWAP1 DUP4 PUSH20 0xFFFFFFFFFFFFFFFFFFFFFFFFFFFFFFFFFFFFFFFF AND MUL OR SWAP1 SSTORE POP SWAP1 POP POP PUSH1 0x1 PUSH1 0x7 PUSH1 0x0 DUP4 PUSH20 0xFFFFFFFFFFFFFFFFFFFFFFFFFFFFFFFFFFFFFFFF AND PUSH20 0xFFFFFFFFFFFFFFFFFFFFFFFFFFFFFFFFFFFFFFFF AND DUP2 MSTORE PUSH1 0x20 ADD SWAP1 DUP2 MSTORE PUSH1 0x20 ADD PUSH1 0x0 KECCAK256 PUSH1 0x0 PUSH2 0x100 EXP DUP2 SLOAD DUP2 PUSH1 0xFF MUL NOT AND SWAP1 DUP4 ISZERO ISZERO MUL OR SWAP1 SSTORE POP PUSH1 0x4 PUSH1 0x0 SWAP1 SLOAD SWAP1 PUSH2 0x100 EXP SWAP1 DIV PUSH20 0xFFFFFFFFFFFFFFFFFFFFFFFFFFFFFFFFFFFFFFFF AND PUSH20 0xFFFFFFFFFFFFFFFFFFFFFFFFFFFFFFFFFFFFFFFF AND PUSH4 0x74D0A676 PUSH1 0x3 SLOAD DUP4 PUSH1 0x40 MLOAD DUP4 PUSH4 0xFFFFFFFF AND PUSH1 0xE0 SHL DUP2 MSTORE PUSH1 0x4 ADD PUSH2 0xC08 SWAP3 SWAP2 SWAP1 PUSH2 0x136F JUMP JUMPDEST PUSH1 0x0 PUSH1 0x40 MLOAD DUP1 DUP4 SUB DUP2 PUSH1 0x0 DUP8 DUP1 EXTCODESIZE ISZERO DUP1 ISZERO PUSH2 0xC22 JUMPI PUSH1 0x0 DUP1 REVERT JUMPDEST POP GAS CALL ISZERO DUP1 ISZERO PUSH2 0xC36 JUMPI RETURNDATASIZE PUSH1 0x0 DUP1 RETURNDATACOPY RETURNDATASIZE PUSH1 0x0 REVERT JUMPDEST POP POP POP POP PUSH1 0x5 PUSH1 0x0 DUP2 SLOAD DUP1 SWAP3 SWAP2 SWAP1 PUSH2 0xC4D SWAP1 PUSH2 0x1531 JUMP JUMPDEST SWAP2 SWAP1 POP SSTORE POP POP JUMP JUMPDEST DUP3 PUSH20 0xFFFFFFFFFFFFFFFFFFFFFFFFFFFFFFFFFFFFFFFF AND PUSH4 0xA9059CBB DUP4 DUP4 PUSH1 0x40 MLOAD DUP4 PUSH4 0xFFFFFFFF AND PUSH1 0xE0 SHL DUP2 MSTORE PUSH1 0x4 ADD PUSH2 0xC90 SWAP3 SWAP2 SWAP1 PUSH2 0x11F0 JUMP JUMPDEST PUSH1 0x20 PUSH1 0x40 MLOAD DUP1 DUP4 SUB DUP2 PUSH1 0x0 DUP8 DUP1 EXTCODESIZE ISZERO DUP1 ISZERO PUSH2 0xCAA JUMPI PUSH1 0x0 DUP1 REVERT JUMPDEST POP GAS CALL ISZERO DUP1 ISZERO PUSH2 0xCBE JUMPI RETURNDATASIZE PUSH1 0x0 DUP1 RETURNDATACOPY RETURNDATASIZE PUSH1 0x0 REVERT JUMPDEST POP POP POP POP PUSH1 0x40 MLOAD RETURNDATASIZE PUSH1 0x1F NOT PUSH1 0x1F DUP3 ADD AND DUP3 ADD DUP1 PUSH1 0x40 MSTORE POP DUP2 ADD SWAP1 PUSH2 0xCE2 SWAP2 SWAP1 PUSH2 0xEB4 JUMP JUMPDEST PUSH2 0xD21 JUMPI PUSH1 0x40 MLOAD PUSH32 0x8C379A000000000000000000000000000000000000000000000000000000000 DUP2 MSTORE PUSH1 0x4 ADD PUSH2 0xD18 SWAP1 PUSH2 0x1254 JUMP JUMPDEST PUSH1 0x40 MLOAD DUP1 SWAP2 SUB SWAP1 REVERT JUMPDEST POP POP POP JUMP JUMPDEST PUSH1 0x0 PUSH2 0xD39 PUSH2 0xD34 DUP5 PUSH2 0x1447 JUMP JUMPDEST PUSH2 0x1416 JUMP JUMPDEST SWAP1 POP DUP1 DUP4 DUP3 MSTORE PUSH1 0x20 DUP3 ADD SWAP1 POP DUP3 DUP6 PUSH1 0x20 DUP7 MUL DUP3 ADD GT ISZERO PUSH2 0xD58 JUMPI PUSH1 0x0 DUP1 REVERT JUMPDEST PUSH1 0x0 JUMPDEST DUP6 DUP2 LT ISZERO PUSH2 0xD88 JUMPI DUP2 PUSH2 0xD6E DUP9 DUP3 PUSH2 0xD92 JUMP JUMPDEST DUP5 MSTORE PUSH1 0x20 DUP5 ADD SWAP4 POP PUSH1 0x20 DUP4 ADD SWAP3 POP POP PUSH1 0x1 DUP2 ADD SWAP1 POP PUSH2 0xD5B JUMP JUMPDEST POP POP POP SWAP4 SWAP3 POP POP POP JUMP JUMPDEST PUSH1 0x0 DUP2 CALLDATALOAD SWAP1 POP PUSH2 0xDA1 DUP2 PUSH2 0x1607 JUMP JUMPDEST SWAP3 SWAP2 POP POP JUMP JUMPDEST PUSH1 0x0 DUP3 PUSH1 0x1F DUP4 ADD SLT PUSH2 0xDB8 JUMPI PUSH1 0x0 DUP1 REVERT JUMPDEST DUP2 CALLDATALOAD PUSH2 0xDC8 DUP5 DUP3 PUSH1 0x20 DUP7 ADD PUSH2 0xD26 JUMP JUMPDEST SWAP2 POP POP SWAP3 SWAP2 POP POP JUMP JUMPDEST PUSH1 0x0 DUP2 MLOAD SWAP1 POP PUSH2 0xDE0 DUP2 PUSH2 0x161E JUMP JUMPDEST SWAP3 SWAP2 POP POP JUMP JUMPDEST PUSH1 0x0 DUP2 CALLDATALOAD SWAP1 POP PUSH2 0xDF5 DUP2 PUSH2 0x1635 JUMP JUMPDEST SWAP3 SWAP2 POP POP JUMP JUMPDEST PUSH1 0x0 PUSH1 0x20 DUP3 DUP5 SUB SLT ISZERO PUSH2 0xE0D JUMPI PUSH1 0x0 DUP1 REVERT JUMPDEST PUSH1 0x0 PUSH2 0xE1B DUP5 DUP3 DUP6 ADD PUSH2 0xD92 JUMP JUMPDEST SWAP2 POP POP SWAP3 SWAP2 POP POP JUMP JUMPDEST PUSH1 0x0 DUP1 PUSH1 0x0 PUSH1 0x60 DUP5 DUP7 SUB SLT ISZERO PUSH2 0xE39 JUMPI PUSH1 0x0 DUP1 REVERT JUMPDEST PUSH1 0x0 PUSH2 0xE47 DUP7 DUP3 DUP8 ADD PUSH2 0xD92 JUMP JUMPDEST SWAP4 POP POP PUSH1 0x20 PUSH2 0xE58 DUP7 DUP3 DUP8 ADD PUSH2 0xD92 JUMP JUMPDEST SWAP3 POP POP PUSH1 0x40 PUSH2 0xE69 DUP7 DUP3 DUP8 ADD PUSH2 0xDE6 JUMP JUMPDEST SWAP2 POP POP SWAP3 POP SWAP3 POP SWAP3 JUMP JUMPDEST PUSH1 0x0 PUSH1 0x20 DUP3 DUP5 SUB SLT ISZERO PUSH2 0xE85 JUMPI PUSH1 0x0 DUP1 REVERT JUMPDEST PUSH1 0x0 DUP3 ADD CALLDATALOAD PUSH8 0xFFFFFFFFFFFFFFFF DUP2 GT ISZERO PUSH2 0xE9F JUMPI PUSH1 0x0 DUP1 REVERT JUMPDEST PUSH2 0xEAB DUP5 DUP3 DUP6 ADD PUSH2 0xDA7 JUMP JUMPDEST SWAP2 POP POP SWAP3 SWAP2 POP POP JUMP JUMPDEST PUSH1 0x0 PUSH1 0x20 DUP3 DUP5 SUB SLT ISZERO PUSH2 0xEC6 JUMPI PUSH1 0x0 DUP1 REVERT JUMPDEST PUSH1 0x0 PUSH2 0xED4 DUP5 DUP3 DUP6 ADD PUSH2 0xDD1 JUMP JUMPDEST SWAP2 POP POP SWAP3 SWAP2 POP POP JUMP JUMPDEST PUSH1 0x0 PUSH1 0x20 DUP3 DUP5 SUB SLT ISZERO PUSH2 0xEEF JUMPI PUSH1 0x0 DUP1 REVERT JUMPDEST PUSH1 0x0 PUSH2 0xEFD DUP5 DUP3 DUP6 ADD PUSH2 0xDE6 JUMP JUMPDEST SWAP2 POP POP SWAP3 SWAP2 POP POP JUMP JUMPDEST PUSH1 0x0 DUP1 PUSH1 0x40 DUP4 DUP6 SUB SLT ISZERO PUSH2 0xF19 JUMPI PUSH1 0x0 DUP1 REVERT JUMPDEST PUSH1 0x0 PUSH2 0xF27 DUP6 DUP3 DUP7 ADD PUSH2 0xDE6 JUMP JUMPDEST SWAP3 POP POP PUSH1 0x20 PUSH2 0xF38 DUP6 DUP3 DUP7 ADD PUSH2 0xDE6 JUMP JUMPDEST SWAP2 POP POP SWAP3 POP SWAP3 SWAP1 POP JUMP JUMPDEST PUSH2 0xF4B DUP2 PUSH2 0x14E9 JUMP JUMPDEST DUP3 MSTORE POP POP JUMP JUMPDEST PUSH2 0xF5A DUP2 PUSH2 0x14FB JUMP JUMPDEST DUP3 MSTORE POP POP JUMP JUMPDEST PUSH1 0x0 PUSH2 0xF6D PUSH1 0x12 DUP4 PUSH2 0x1473 JUMP JUMPDEST SWAP2 POP PUSH32 0x4F6E6C79206D656D626572206D6574686F640000000000000000000000000000 PUSH1 0x0 DUP4 ADD MSTORE PUSH1 0x20 DUP3 ADD SWAP1 POP SWAP2 SWAP1 POP JUMP JUMPDEST PUSH1 0x0 PUSH2 0xFAD PUSH1 0xF DUP4 PUSH2 0x1473 JUMP JUMPDEST SWAP2 POP PUSH32 0x5472616E73666572206661696C65640000000000000000000000000000000000 PUSH1 0x0 DUP4 ADD MSTORE PUSH1 0x20 DUP3 ADD SWAP1 POP SWAP2 SWAP1 POP JUMP JUMPDEST PUSH1 0x0 PUSH2 0xFED PUSH1 0x2C DUP4 PUSH2 0x1473 JUMP JUMPDEST SWAP2 POP PUSH32 0x55736572207761736E27742061206D656D626572206174207468652074696D65 PUSH1 0x0 DUP4 ADD MSTORE PUSH32 0x206F66206F72646572696E670000000000000000000000000000000000000000 PUSH1 0x20 DUP4 ADD MSTORE PUSH1 0x40 DUP3 ADD SWAP1 POP SWAP2 SWAP1 POP JUMP JUMPDEST PUSH1 0x0 PUSH2 0x1053 PUSH1 0x10 DUP4 PUSH2 0x1473 JUMP JUMPDEST SWAP2 POP PUSH32 0x416C726561647920657865637574656400000000000000000000000000000000 PUSH1 0x0 DUP4 ADD MSTORE PUSH1 0x20 DUP3 ADD SWAP1 POP SWAP2 SWAP1 POP JUMP JUMPDEST PUSH1 0x0 PUSH2 0x1093 PUSH1 0x14 DUP4 PUSH2 0x1473 JUMP JUMPDEST SWAP2 POP PUSH32 0x4E6F7420612076616C6964206465636973696F6E000000000000000000000000 PUSH1 0x0 DUP4 ADD MSTORE PUSH1 0x20 DUP3 ADD SWAP1 POP SWAP2 SWAP1 POP JUMP JUMPDEST PUSH1 0x0 PUSH2 0x10D3 PUSH1 0x17 DUP4 PUSH2 0x1473 JUMP JUMPDEST SWAP2 POP PUSH32 0x416C7265616479206D6164652061206465636973696F6E000000000000000000 PUSH1 0x0 DUP4 ADD MSTORE PUSH1 0x20 DUP3 ADD SWAP1 POP SWAP2 SWAP1 POP JUMP JUMPDEST PUSH1 0x0 PUSH2 0x1113 PUSH1 0x11 DUP4 PUSH2 0x1473 JUMP JUMPDEST SWAP2 POP PUSH32 0x4F6E6C79206F776E6572206D6574686F64000000000000000000000000000000 PUSH1 0x0 DUP4 ADD MSTORE PUSH1 0x20 DUP3 ADD SWAP1 POP SWAP2 SWAP1 POP JUMP JUMPDEST PUSH1 0x0 PUSH2 0x1153 PUSH1 0x10 DUP4 PUSH2 0x1473 JUMP JUMPDEST SWAP2 POP PUSH32 0x416C72656164792061206D656D62657200000000000000000000000000000000 PUSH1 0x0 DUP4 ADD MSTORE PUSH1 0x20 DUP3 ADD SWAP1 POP SWAP2 SWAP1 POP JUMP JUMPDEST PUSH1 0x0 PUSH2 0x1193 PUSH1 0x1F DUP4 PUSH2 0x1473 JUMP JUMPDEST SWAP2 POP PUSH32 0x5265656E7472616E637947756172643A207265656E7472616E742063616C6C00 PUSH1 0x0 DUP4 ADD MSTORE PUSH1 0x20 DUP3 ADD SWAP1 POP SWAP2 SWAP1 POP JUMP JUMPDEST PUSH2 0x11CF DUP2 PUSH2 0x1527 JUMP JUMPDEST DUP3 MSTORE POP POP JUMP JUMPDEST PUSH1 0x0 PUSH1 0x20 DUP3 ADD SWAP1 POP PUSH2 0x11EA PUSH1 0x0 DUP4 ADD DUP5 PUSH2 0xF42 JUMP JUMPDEST SWAP3 SWAP2 POP POP JUMP JUMPDEST PUSH1 0x0 PUSH1 0x40 DUP3 ADD SWAP1 POP PUSH2 0x1205 PUSH1 0x0 DUP4 ADD DUP6 PUSH2 0xF42 JUMP JUMPDEST PUSH2 0x1212 PUSH1 0x20 DUP4 ADD DUP5 PUSH2 0x11C6 JUMP JUMPDEST SWAP4 SWAP3 POP POP POP JUMP JUMPDEST PUSH1 0x0 PUSH1 0x20 DUP3 ADD SWAP1 POP PUSH2 0x122E PUSH1 0x0 DUP4 ADD DUP5 PUSH2 0xF51 JUMP JUMPDEST SWAP3 SWAP2 POP POP JUMP JUMPDEST PUSH1 0x0 PUSH1 0x20 DUP3 ADD SWAP1 POP DUP2 DUP2 SUB PUSH1 0x0 DUP4 ADD MSTORE PUSH2 0x124D DUP2 PUSH2 0xF60 JUMP JUMPDEST SWAP1 POP SWAP2 SWAP1 POP JUMP JUMPDEST PUSH1 0x0 PUSH1 0x20 DUP3 ADD SWAP1 POP DUP2 DUP2 SUB PUSH1 0x0 DUP4 ADD MSTORE PUSH2 0x126D DUP2 PUSH2 0xFA0 JUMP JUMPDEST SWAP1 POP SWAP2 SWAP1 POP JUMP JUMPDEST PUSH1 0x0 PUSH1 0x20 DUP3 ADD SWAP1 POP DUP2 DUP2 SUB PUSH1 0x0 DUP4 ADD MSTORE PUSH2 0x128D DUP2 PUSH2 0xFE0 JUMP JUMPDEST SWAP1 POP SWAP2 SWAP1 POP JUMP JUMPDEST PUSH1 0x0 PUSH1 0x20 DUP3 ADD SWAP1 POP DUP2 DUP2 SUB PUSH1 0x0 DUP4 ADD MSTORE PUSH2 0x12AD DUP2 PUSH2 0x1046 JUMP JUMPDEST SWAP1 POP SWAP2 SWAP1 POP JUMP JUMPDEST PUSH1 0x0 PUSH1 0x20 DUP3 ADD SWAP1 POP DUP2 DUP2 SUB PUSH1 0x0 DUP4 ADD MSTORE PUSH2 0x12CD DUP2 PUSH2 0x1086 JUMP JUMPDEST SWAP1 POP SWAP2 SWAP1 POP JUMP JUMPDEST PUSH1 0x0 PUSH1 0x20 DUP3 ADD SWAP1 POP DUP2 DUP2 SUB PUSH1 0x0 DUP4 ADD MSTORE PUSH2 0x12ED DUP2 PUSH2 0x10C6 JUMP JUMPDEST SWAP1 POP SWAP2 SWAP1 POP JUMP JUMPDEST PUSH1 0x0 PUSH1 0x20 DUP3 ADD SWAP1 POP DUP2 DUP2 SUB PUSH1 0x0 DUP4 ADD MSTORE PUSH2 0x130D DUP2 PUSH2 0x1106 JUMP JUMPDEST SWAP1 POP SWAP2 SWAP1 POP JUMP JUMPDEST PUSH1 0x0 PUSH1 0x20 DUP3 ADD SWAP1 POP DUP2 DUP2 SUB PUSH1 0x0 DUP4 ADD MSTORE PUSH2 0x132D DUP2 PUSH2 0x1146 JUMP JUMPDEST SWAP1 POP SWAP2 SWAP1 POP JUMP JUMPDEST PUSH1 0x0 PUSH1 0x20 DUP3 ADD SWAP1 POP DUP2 DUP2 SUB PUSH1 0x0 DUP4 ADD MSTORE PUSH2 0x134D DUP2 PUSH2 0x1186 JUMP JUMPDEST SWAP1 POP SWAP2 SWAP1 POP JUMP JUMPDEST PUSH1 0x0 PUSH1 0x20 DUP3 ADD SWAP1 POP PUSH2 0x1369 PUSH1 0x0 DUP4 ADD DUP5 PUSH2 0x11C6 JUMP JUMPDEST SWAP3 SWAP2 POP POP JUMP JUMPDEST PUSH1 0x0 PUSH1 0x40 DUP3 ADD SWAP1 POP PUSH2 0x1384 PUSH1 0x0 DUP4 ADD DUP6 PUSH2 0x11C6 JUMP JUMPDEST PUSH2 0x1391 PUSH1 0x20 DUP4 ADD DUP5 PUSH2 0xF42 JUMP JUMPDEST SWAP4 SWAP3 POP POP POP JUMP JUMPDEST PUSH1 0x0 PUSH2 0x100 DUP3 ADD SWAP1 POP PUSH2 0x13AE PUSH1 0x0 DUP4 ADD DUP12 PUSH2 0x11C6 JUMP JUMPDEST PUSH2 0x13BB PUSH1 0x20 DUP4 ADD DUP11 PUSH2 0xF42 JUMP JUMPDEST PUSH2 0x13C8 PUSH1 0x40 DUP4 ADD DUP10 PUSH2 0xF42 JUMP JUMPDEST PUSH2 0x13D5 PUSH1 0x60 DUP4 ADD DUP9 PUSH2 0x11C6 JUMP JUMPDEST PUSH2 0x13E2 PUSH1 0x80 DUP4 ADD DUP8 PUSH2 0x11C6 JUMP JUMPDEST PUSH2 0x13EF PUSH1 0xA0 DUP4 ADD DUP7 PUSH2 0x11C6 JUMP JUMPDEST PUSH2 0x13FC PUSH1 0xC0 DUP4 ADD DUP6 PUSH2 0x11C6 JUMP JUMPDEST PUSH2 0x1409 PUSH1 0xE0 DUP4 ADD DUP5 PUSH2 0x11C6 JUMP JUMPDEST SWAP10 SWAP9 POP POP POP POP POP POP POP POP POP JUMP JUMPDEST PUSH1 0x0 PUSH1 0x40 MLOAD SWAP1 POP DUP2 DUP2 ADD DUP2 DUP2 LT PUSH8 0xFFFFFFFFFFFFFFFF DUP3 GT OR ISZERO PUSH2 0x143D JUMPI PUSH2 0x143C PUSH2 0x15D8 JUMP JUMPDEST JUMPDEST DUP1 PUSH1 0x40 MSTORE POP SWAP2 SWAP1 POP JUMP JUMPDEST PUSH1 0x0 PUSH8 0xFFFFFFFFFFFFFFFF DUP3 GT ISZERO PUSH2 0x1462 JUMPI PUSH2 0x1461 PUSH2 0x15D8 JUMP JUMPDEST JUMPDEST PUSH1 0x20 DUP3 MUL SWAP1 POP PUSH1 0x20 DUP2 ADD SWAP1 POP SWAP2 SWAP1 POP JUMP JUMPDEST PUSH1 0x0 DUP3 DUP3 MSTORE PUSH1 0x20 DUP3 ADD SWAP1 POP SWAP3 SWAP2 POP POP JUMP JUMPDEST PUSH1 0x0 PUSH2 0x148F DUP3 PUSH2 0x1527 JUMP JUMPDEST SWAP2 POP PUSH2 0x149A DUP4 PUSH2 0x1527 JUMP JUMPDEST SWAP3 POP DUP3 PUSH2 0x14AA JUMPI PUSH2 0x14A9 PUSH2 0x15A9 JUMP JUMPDEST JUMPDEST DUP3 DUP3 DIV SWAP1 POP SWAP3 SWAP2 POP POP JUMP JUMPDEST PUSH1 0x0 PUSH2 0x14C0 DUP3 PUSH2 0x1527 JUMP JUMPDEST SWAP2 POP PUSH2 0x14CB DUP4 PUSH2 0x1527 JUMP JUMPDEST SWAP3 POP DUP3 DUP3 LT ISZERO PUSH2 0x14DE JUMPI PUSH2 0x14DD PUSH2 0x157A JUMP JUMPDEST JUMPDEST DUP3 DUP3 SUB SWAP1 POP SWAP3 SWAP2 POP POP JUMP JUMPDEST PUSH1 0x0 PUSH2 0x14F4 DUP3 PUSH2 0x1507 JUMP JUMPDEST SWAP1 POP SWAP2 SWAP1 POP JUMP JUMPDEST PUSH1 0x0 DUP2 ISZERO ISZERO SWAP1 POP SWAP2 SWAP1 POP JUMP JUMPDEST PUSH1 0x0 PUSH20 0xFFFFFFFFFFFFFFFFFFFFFFFFFFFFFFFFFFFFFFFF DUP3 AND SWAP1 POP SWAP2 SWAP1 POP JUMP JUMPDEST PUSH1 0x0 DUP2 SWAP1 POP SWAP2 SWAP1 POP JUMP JUMPDEST PUSH1 0x0 PUSH2 0x153C DUP3 PUSH2 0x1527 JUMP JUMPDEST SWAP2 POP PUSH32 0xFFFFFFFFFFFFFFFFFFFFFFFFFFFFFFFFFFFFFFFFFFFFFFFFFFFFFFFFFFFFFFFF DUP3 EQ ISZERO PUSH2 0x156F JUMPI PUSH2 0x156E PUSH2 0x157A JUMP JUMPDEST JUMPDEST PUSH1 0x1 DUP3 ADD SWAP1 POP SWAP2 SWAP1 POP JUMP JUMPDEST PUSH32 0x4E487B7100000000000000000000000000000000000000000000000000000000 PUSH1 0x0 MSTORE PUSH1 0x11 PUSH1 0x4 MSTORE PUSH1 0x24 PUSH1 0x0 REVERT JUMPDEST PUSH32 0x4E487B7100000000000000000000000000000000000000000000000000000000 PUSH1 0x0 MSTORE PUSH1 0x12 PUSH1 0x4 MSTORE PUSH1 0x24 PUSH1 0x0 REVERT JUMPDEST PUSH32 0x4E487B7100000000000000000000000000000000000000000000000000000000 PUSH1 0x0 MSTORE PUSH1 0x41 PUSH1 0x4 MSTORE PUSH1 0x24 PUSH1 0x0 REVERT JUMPDEST PUSH2 0x1610 DUP2 PUSH2 0x14E9 JUMP JUMPDEST DUP2 EQ PUSH2 0x161B JUMPI PUSH1 0x0 DUP1 REVERT JUMPDEST POP JUMP JUMPDEST PUSH2 0x1627 DUP2 PUSH2 0x14FB JUMP JUMPDEST DUP2 EQ PUSH2 0x1632 JUMPI PUSH1 0x0 DUP1 REVERT JUMPDEST POP JUMP JUMPDEST PUSH2 0x163E DUP2 PUSH2 0x1527 JUMP JUMPDEST DUP2 EQ PUSH2 0x1649 JUMPI PUSH1 0x0 DUP1 REVERT JUMPDEST POP JUMP INVALID LOG2 PUSH5 0x6970667358 0x22 SLT KECCAK256 SWAP16 0xA7 SWAP9 0xDF 0xD5 0xBC JUMPDEST 0xE2 0x29 DUP8 EXTCODECOPY REVERT 0xF8 0xCF SELFBALANCE 0x2F 0x26 SMOD PUSH22 0x187809DDA398202062FFD5E5E764736F6C6343000800 STOP CALLER LOG2 PUSH5 0x6970667358 0x22 SLT KECCAK256 PUSH4 0xFDD1DDEA PUSH20 0xC16B77ECABD71FA2743D1F94A338E12C11394802 DUP6 MLOAD PUSH1 0xA4 BYTE 0x2D PUSH5 0x736F6C6343 STOP ADDMOD STOP STOP CALLER "
				},
				"gasEstimates": {
					"creation": {
						"codeDepositCost": "1737600",
						"executionCost": "infinite",
						"totalCost": "infinite"
					},
					"external": {
						"addMember(uint256,address)": "42589",
						"createWallet()": "infinite",
						"memberToWalletIds(address,uint256)": "infinite",
						"owner()": "1255",
						"ownerOf(uint256)": "1606",
						"price()": "1217",
						"setPrice(uint256)": "21353",
						"walletIdCounter()": "1151",
						"walletIdToWalletAddress(uint256)": "1562"
					}
				},
				"methodIdentifiers": {
					"addMember(uint256,address)": "74d0a676",
					"createWallet()": "11ebbf24",
					"memberToWalletIds(address,uint256)": "3e5f5c86",
					"owner()": "8da5cb5b",
					"ownerOf(uint256)": "6352211e",
					"price()": "a035b1fe",
					"setPrice(uint256)": "91b7f5ed",
					"walletIdCounter()": "7a1a6231",
					"walletIdToWalletAddress(uint256)": "28403760"
				}
			},
			"storageLayout": {
				"storage": [
					{
						"astId": 132,
						"contract": "contracts/MultiSigFactory.sol:MultiSigFactory",
						"label": "owner",
						"offset": 0,
						"slot": "0",
						"type": "t_address"
					},
					{
						"astId": 134,
						"contract": "contracts/MultiSigFactory.sol:MultiSigFactory",
						"label": "walletIdCounter",
						"offset": 0,
						"slot": "1",
						"type": "t_uint256"
					},
					{
						"astId": 136,
						"contract": "contracts/MultiSigFactory.sol:MultiSigFactory",
						"label": "price",
						"offset": 0,
						"slot": "2",
						"type": "t_uint256"
					},
					{
						"astId": 167,
						"contract": "contracts/MultiSigFactory.sol:MultiSigFactory",
						"label": "walletIdToWalletAddress",
						"offset": 0,
						"slot": "3",
						"type": "t_mapping(t_uint256,t_address)"
					},
					{
						"astId": 171,
						"contract": "contracts/MultiSigFactory.sol:MultiSigFactory",
						"label": "ownerOf",
						"offset": 0,
						"slot": "4",
						"type": "t_mapping(t_uint256,t_address)"
					},
					{
						"astId": 176,
						"contract": "contracts/MultiSigFactory.sol:MultiSigFactory",
						"label": "memberToWalletIds",
						"offset": 0,
						"slot": "5",
						"type": "t_mapping(t_address,t_array(t_uint256)dyn_storage)"
					}
				],
				"types": {
					"t_address": {
						"encoding": "inplace",
						"label": "address",
						"numberOfBytes": "20"
					},
					"t_array(t_uint256)dyn_storage": {
						"base": "t_uint256",
						"encoding": "dynamic_array",
						"label": "uint256[]",
						"numberOfBytes": "32"
					},
					"t_mapping(t_address,t_array(t_uint256)dyn_storage)": {
						"encoding": "mapping",
						"key": "t_address",
						"label": "mapping(address => uint256[])",
						"numberOfBytes": "32",
						"value": "t_array(t_uint256)dyn_storage"
					},
					"t_mapping(t_uint256,t_address)": {
						"encoding": "mapping",
						"key": "t_uint256",
						"label": "mapping(uint256 => address)",
						"numberOfBytes": "32",
						"value": "t_address"
					},
					"t_uint256": {
						"encoding": "inplace",
						"label": "uint256",
						"numberOfBytes": "32"
					}
				}
			},
			"userdoc": {
				"kind": "user",
				"methods": {},
				"version": 1
			}
		}
	}
}