{
	"data": {
		"bytecode": {
			"linkReferences": {},
			"object": "608060405234801561001057600080fd5b5060405161244f38038061244f83398181016040528101906100329190610094565b336000806101000a81548173ffffffffffffffffffffffffffffffffffffffff021916908373ffffffffffffffffffffffffffffffffffffffff16021790555080600281905550506100de565b60008151905061008e816100c7565b92915050565b6000602082840312156100a657600080fd5b60006100b48482850161007f565b91505092915050565b6000819050919050565b6100d0816100bd565b81146100db57600080fd5b50565b612362806100ed6000396000f3fe608060405260043610620000925760003560e01c806374d0a676116200006157806374d0a67614620001865780637a1a623114620001b45780638da5cb5b14620001e457806391b7f5ed1462000214578063a035b1fe14620002425762000092565b806311ebbf2414620000975780632840376014620000ba5780633e5f5c8614620000fe5780636352211e1462000142575b600080fd5b620000a162000272565b604051620000b1929190620008ee565b60405180910390f35b348015620000c757600080fd5b50620000e66004803603810190620000e09190620006bc565b620003ce565b604051620000f5919062000811565b60405180910390f35b3480156200010b57600080fd5b506200012a60048036038101906200012491906200067b565b62000401565b604051620001399190620008d1565b60405180910390f35b3480156200014f57600080fd5b506200016e6004803603810190620001689190620006bc565b62000433565b6040516200017d919062000811565b60405180910390f35b3480156200019357600080fd5b50620001b26004803603810190620001ac9190620006e8565b62000466565b005b348015620001c157600080fd5b50620001cc62000574565b604051620001db9190620008d1565b60405180910390f35b348015620001f157600080fd5b50620001fc6200057a565b6040516200020b919062000811565b60405180910390f35b3480156200022157600080fd5b506200024060048036038101906200023a9190620006bc565b6200059e565b005b3480156200024f57600080fd5b506200025a62000639565b604051620002699190620008d1565b60405180910390f35b6000806002543414620002bc576040517f08c379a0000000000000000000000000000000000000000000000000000000008152600401620002b390620008af565b60405180910390fd5b60016000815480929190620002d1906200096a565b919050555060003330600154604051620002eb906200063f565b620002f9939291906200082e565b604051809103906000f08015801562000316573d6000803e3d6000fd5b5090508091508160036000600154815260200190815260200160002060006101000a81548173ffffffffffffffffffffffffffffffffffffffff021916908373ffffffffffffffffffffffffffffffffffffffff1602179055503360046000600154815260200190815260200160002060006101000a81548173ffffffffffffffffffffffffffffffffffffffff021916908373ffffffffffffffffffffffffffffffffffffffff1602179055506001549250509091565b60036020528060005260406000206000915054906101000a900473ffffffffffffffffffffffffffffffffffffffff1681565b600560205281600052604060002081815481106200041e57600080fd5b90600052602060002001600091509150505481565b60046020528060005260406000206000915054906101000a900473ffffffffffffffffffffffffffffffffffffffff1681565b3373ffffffffffffffffffffffffffffffffffffffff166003600084815260200190815260200160002060009054906101000a900473ffffffffffffffffffffffffffffffffffffffff1673ffffffffffffffffffffffffffffffffffffffff16146200050a576040517f08c379a000000000000000000000000000000000000000000000000000000000815260040162000501906200086b565b60405180910390fd5b600560008273ffffffffffffffffffffffffffffffffffffffff1673ffffffffffffffffffffffffffffffffffffffff1681526020019081526020016000208290806001815401808255809150506001900390600052602060002001600090919091909150555050565b60015481565b60008054906101000a900473ffffffffffffffffffffffffffffffffffffffff1681565b3373ffffffffffffffffffffffffffffffffffffffff1660008054906101000a900473ffffffffffffffffffffffffffffffffffffffff1673ffffffffffffffffffffffffffffffffffffffff16146200062f576040517f08c379a000000000000000000000000000000000000000000000000000000000815260040162000626906200088d565b60405180910390fd5b8060028190555050565b60025481565b6119118062000a1c83390190565b6000813590506200065e81620009e7565b92915050565b600081359050620006758162000a01565b92915050565b600080604083850312156200068f57600080fd5b60006200069f858286016200064d565b9250506020620006b28582860162000664565b9150509250929050565b600060208284031215620006cf57600080fd5b6000620006df8482850162000664565b91505092915050565b60008060408385031215620006fc57600080fd5b60006200070c8582860162000664565b92505060206200071f858286016200064d565b9150509250929050565b62000734816200092c565b82525050565b6000620007496012836200091b565b91507f4f6e6c792077616c6c6574206d6574686f6400000000000000000000000000006000830152602082019050919050565b60006200078b6011836200091b565b91507f4f6e6c79206f776e6572206d6574686f640000000000000000000000000000006000830152602082019050919050565b6000620007cd601b836200091b565b91507f496e73756666696369656e74207061796d656e7420616d6f756e7400000000006000830152602082019050919050565b6200080b8162000960565b82525050565b600060208201905062000828600083018462000729565b92915050565b600060608201905062000845600083018662000729565b62000854602083018562000729565b62000863604083018462000800565b949350505050565b6000602082019050818103600083015262000886816200073a565b9050919050565b60006020820190508181036000830152620008a8816200077c565b9050919050565b60006020820190508181036000830152620008ca81620007be565b9050919050565b6000602082019050620008e8600083018462000800565b92915050565b600060408201905062000905600083018562000800565b62000914602083018462000729565b9392505050565b600082825260208201905092915050565b6000620009398262000940565b9050919050565b600073ffffffffffffffffffffffffffffffffffffffff82169050919050565b6000819050919050565b6000620009778262000960565b91507fffffffffffffffffffffffffffffffffffffffffffffffffffffffffffffffff821415620009ad57620009ac620009b8565b5b600182019050919050565b7f4e487b7100000000000000000000000000000000000000000000000000000000600052601160045260246000fd5b620009f2816200092c565b8114620009fe57600080fd5b50565b62000a0c8162000960565b811462000a1857600080fd5b5056fe60806040523480156200001157600080fd5b5060405162001911380380620019118339818101604052810190620000379190620000ff565b600160008190555082600160006101000a81548173ffffffffffffffffffffffffffffffffffffffff021916908373ffffffffffffffffffffffffffffffffffffffff16021790555081600460006101000a81548173ffffffffffffffffffffffffffffffffffffffff021916908373ffffffffffffffffffffffffffffffffffffffff16021790555080600381905550505050620001c7565b600081519050620000e28162000193565b92915050565b600081519050620000f981620001ad565b92915050565b6000806000606084860312156200011557600080fd5b60006200012586828701620000d1565b93505060206200013886828701620000d1565b92505060406200014b86828701620000e8565b9150509250925092565b6000620001628262000169565b9050919050565b600073ffffffffffffffffffffffffffffffffffffffff82169050919050565b6000819050919050565b6200019e8162000155565b8114620001aa57600080fd5b50565b620001b88162000189565b8114620001c457600080fd5b50565b61173a80620001d76000396000f3fe608060405234801561001057600080fd5b50600436106100a95760003560e01c80638da5cb5b116100715780638da5cb5b1461016b5780639a5d6a4a14610189578063a230c524146101a5578063a4b08872146101d5578063b789bf5214610206578063c162ba2f14610224576100a9565b8063039935ff146100ae57806311aee380146100e55780633ee79599146101035780636f4d469b1461011f57806370a082311461013b575b600080fd5b6100c860048036038101906100c39190610f6c565b610242565b6040516100dc989796959493929190611450565b60405180910390f35b6100ed6102ca565b6040516100fa919061140c565b60405180910390f35b61011d60048036038101906101189190610fbe565b6102d0565b005b61013960048036038101906101349190610f02565b6105ba565b005b61015560048036038101906101509190610e8a565b6106b6565b604051610162919061140c565b60405180910390f35b610173610748565b604051610180919061128d565b60405180910390f35b6101a3600480360381019061019e9190610eb3565b61076e565b005b6101bf60048036038101906101ba9190610e8a565b61097d565b6040516101cc91906112d1565b60405180910390f35b6101ef60048036038101906101ea9190610e8a565b61099d565b6040516101fd929190611427565b60405180910390f35b61020e6109e1565b60405161021b919061140c565b60405180910390f35b61022c6109e7565b604051610239919061140c565b60405180910390f35b60086020528060005260406000206000915090508060000154908060010160009054906101000a900473ffffffffffffffffffffffffffffffffffffffff16908060020160009054906101000a900473ffffffffffffffffffffffffffffffffffffffff16908060030154908060040154908060050154908060060154908060070154905088565b60055481565b60026000541415610316576040517f08c379a000000000000000000000000000000000000000000000000000000000815260040161030d906113ec565b60405180910390fd5b6002600081905550600181148061032d5750600281145b61036c576040517f08c379a00000000000000000000000000000000000000000000000000000000081526004016103639061136c565b60405180910390fd5b60006008600084815260200190815260200160002090506000816007015414156103cb576040517f08c379a00000000000000000000000000000000000000000000000000000000081526004016103c29061134c565b60405180910390fd5b8060000154600660003373ffffffffffffffffffffffffffffffffffffffff1673ffffffffffffffffffffffffffffffffffffffff168152602001908152602001600020600001541115610454576040517f08c379a000000000000000000000000000000000000000000000000000000000815260040161044b9061132c565b60405180910390fd5b60006009600085815260200190815260200160002060003373ffffffffffffffffffffffffffffffffffffffff1673ffffffffffffffffffffffffffffffffffffffff16815260200190815260200160002054146104e7576040517f08c379a00000000000000000000000000000000000000000000000000000000081526004016104de9061138c565b60405180910390fd5b816009600085815260200190815260200160002060003373ffffffffffffffffffffffffffffffffffffffff1673ffffffffffffffffffffffffffffffffffffffff1681526020019081526020016000208190555060018214156105645780600401600081548092919061055a906115e9565b919050555061057f565b806005016000815480929190610579906115e9565b91905055505b8060060154816004015410158061059e57508060060154816005015410155b156105ad576105ac816109ed565b5b5060016000819055505050565b600160009054906101000a900473ffffffffffffffffffffffffffffffffffffffff1673ffffffffffffffffffffffffffffffffffffffff163373ffffffffffffffffffffffffffffffffffffffff161461064a576040517f08c379a0000000000000000000000000000000000000000000000000000000008152600401610641906113ac565b60405180910390fd5b60005b81518110156106b25761069f828281518110610692577f4e487b7100000000000000000000000000000000000000000000000000000000600052603260045260246000fd5b6020026020010151610a80565b80806106aa906115e9565b91505061064d565b5050565b60008173ffffffffffffffffffffffffffffffffffffffff166370a08231306040518263ffffffff1660e01b81526004016106f1919061128d565b60206040518083038186803b15801561070957600080fd5b505afa15801561071d573d6000803e3d6000fd5b505050506040513d601f19601f820116820180604052508101906107419190610f95565b9050919050565b600160009054906101000a900473ffffffffffffffffffffffffffffffffffffffff1681565b600760003373ffffffffffffffffffffffffffffffffffffffff1673ffffffffffffffffffffffffffffffffffffffff16815260200190815260200160002060009054906101000a900460ff166107fa576040517f08c379a00000000000000000000000000000000000000000000000000000000081526004016107f1906112ec565b60405180910390fd5b6040518061010001604052804281526020018473ffffffffffffffffffffffffffffffffffffffff1681526020018373ffffffffffffffffffffffffffffffffffffffff16815260200182815260200160008152602001600081526020016002600554610867919061153c565b600554610874919061156d565b815260200160008152506008600060025481526020019081526020016000206000820151816000015560208201518160010160006101000a81548173ffffffffffffffffffffffffffffffffffffffff021916908373ffffffffffffffffffffffffffffffffffffffff16021790555060408201518160020160006101000a81548173ffffffffffffffffffffffffffffffffffffffff021916908373ffffffffffffffffffffffffffffffffffffffff160217905550606082015181600301556080820151816004015560a0820151816005015560c0820151816006015560e0820151816007015590505060026000815480929190610973906115e9565b9190505550505050565b60076020528060005260406000206000915054906101000a900460ff1681565b60066020528060005260406000206000915090508060000154908060010160009054906101000a900473ffffffffffffffffffffffffffffffffffffffff16905082565b60025481565b60035481565b8060060154816004015410610a6257610a538160010160009054906101000a900473ffffffffffffffffffffffffffffffffffffffff168260020160009054906101000a900473ffffffffffffffffffffffffffffffffffffffff168360030154610ccf565b60018160070181905550610a7d565b8060060154816005015410610a7c57600281600701819055505b5b50565b600760008273ffffffffffffffffffffffffffffffffffffffff1673ffffffffffffffffffffffffffffffffffffffff16815260200190815260200160002060009054906101000a900460ff1615610b0d576040517f08c379a0000000000000000000000000000000000000000000000000000000008152600401610b04906113cc565b60405180910390fd5b60405180604001604052804281526020018273ffffffffffffffffffffffffffffffffffffffff16815250600660008373ffffffffffffffffffffffffffffffffffffffff1673ffffffffffffffffffffffffffffffffffffffff1681526020019081526020016000206000820151816000015560208201518160010160006101000a81548173ffffffffffffffffffffffffffffffffffffffff021916908373ffffffffffffffffffffffffffffffffffffffff1602179055509050506001600760008373ffffffffffffffffffffffffffffffffffffffff1673ffffffffffffffffffffffffffffffffffffffff16815260200190815260200160002060006101000a81548160ff021916908315150217905550600460009054906101000a900473ffffffffffffffffffffffffffffffffffffffff1673ffffffffffffffffffffffffffffffffffffffff166374d0a676600354836040518363ffffffff1660e01b8152600401610c82929190611427565b600060405180830381600087803b158015610c9c57600080fd5b505af1158015610cb0573d6000803e3d6000fd5b5050505060056000815480929190610cc7906115e9565b919050555050565b8273ffffffffffffffffffffffffffffffffffffffff1663a9059cbb83836040518363ffffffff1660e01b8152600401610d0a9291906112a8565b602060405180830381600087803b158015610d2457600080fd5b505af1158015610d38573d6000803e3d6000fd5b505050506040513d601f19601f82011682018060405250810190610d5c9190610f43565b610d9b576040517f08c379a0000000000000000000000000000000000000000000000000000000008152600401610d929061130c565b60405180910390fd5b505050565b6000610db3610dae846114ff565b6114ce565b90508083825260208201905082856020860282011115610dd257600080fd5b60005b85811015610e025781610de88882610e0c565b845260208401935060208301925050600181019050610dd5565b5050509392505050565b600081359050610e1b816116bf565b92915050565b600082601f830112610e3257600080fd5b8135610e42848260208601610da0565b91505092915050565b600081519050610e5a816116d6565b92915050565b600081359050610e6f816116ed565b92915050565b600081519050610e84816116ed565b92915050565b600060208284031215610e9c57600080fd5b6000610eaa84828501610e0c565b91505092915050565b600080600060608486031215610ec857600080fd5b6000610ed686828701610e0c565b9350506020610ee786828701610e0c565b9250506040610ef886828701610e60565b9150509250925092565b600060208284031215610f1457600080fd5b600082013567ffffffffffffffff811115610f2e57600080fd5b610f3a84828501610e21565b91505092915050565b600060208284031215610f5557600080fd5b6000610f6384828501610e4b565b91505092915050565b600060208284031215610f7e57600080fd5b6000610f8c84828501610e60565b91505092915050565b600060208284031215610fa757600080fd5b6000610fb584828501610e75565b91505092915050565b60008060408385031215610fd157600080fd5b6000610fdf85828601610e60565b9250506020610ff085828601610e60565b9150509250929050565b611003816115a1565b82525050565b611012816115b3565b82525050565b600061102560128361152b565b91507f4f6e6c79206d656d626572206d6574686f6400000000000000000000000000006000830152602082019050919050565b6000611065600f8361152b565b91507f5472616e73666572206661696c656400000000000000000000000000000000006000830152602082019050919050565b60006110a5602c8361152b565b91507f55736572207761736e27742061206d656d626572206174207468652074696d6560008301527f206f66206f72646572696e6700000000000000000000000000000000000000006020830152604082019050919050565b600061110b60108361152b565b91507f416c7265616479206578656375746564000000000000000000000000000000006000830152602082019050919050565b600061114b60148361152b565b91507f4e6f7420612076616c6964206465636973696f6e0000000000000000000000006000830152602082019050919050565b600061118b60178361152b565b91507f416c7265616479206d6164652061206465636973696f6e0000000000000000006000830152602082019050919050565b60006111cb60118361152b565b91507f4f6e6c79206f776e6572206d6574686f640000000000000000000000000000006000830152602082019050919050565b600061120b60108361152b565b91507f416c72656164792061206d656d626572000000000000000000000000000000006000830152602082019050919050565b600061124b601f8361152b565b91507f5265656e7472616e637947756172643a207265656e7472616e742063616c6c006000830152602082019050919050565b611287816115df565b82525050565b60006020820190506112a26000830184610ffa565b92915050565b60006040820190506112bd6000830185610ffa565b6112ca602083018461127e565b9392505050565b60006020820190506112e66000830184611009565b92915050565b6000602082019050818103600083015261130581611018565b9050919050565b6000602082019050818103600083015261132581611058565b9050919050565b6000602082019050818103600083015261134581611098565b9050919050565b60006020820190508181036000830152611365816110fe565b9050919050565b600060208201905081810360008301526113858161113e565b9050919050565b600060208201905081810360008301526113a58161117e565b9050919050565b600060208201905081810360008301526113c5816111be565b9050919050565b600060208201905081810360008301526113e5816111fe565b9050919050565b600060208201905081810360008301526114058161123e565b9050919050565b6000602082019050611421600083018461127e565b92915050565b600060408201905061143c600083018561127e565b6114496020830184610ffa565b9392505050565b600061010082019050611466600083018b61127e565b611473602083018a610ffa565b6114806040830189610ffa565b61148d606083018861127e565b61149a608083018761127e565b6114a760a083018661127e565b6114b460c083018561127e565b6114c160e083018461127e565b9998505050505050505050565b6000604051905081810181811067ffffffffffffffff821117156114f5576114f4611690565b5b8060405250919050565b600067ffffffffffffffff82111561151a57611519611690565b5b602082029050602081019050919050565b600082825260208201905092915050565b6000611547826115df565b9150611552836115df565b92508261156257611561611661565b5b828204905092915050565b6000611578826115df565b9150611583836115df565b92508282101561159657611595611632565b5b828203905092915050565b60006115ac826115bf565b9050919050565b60008115159050919050565b600073ffffffffffffffffffffffffffffffffffffffff82169050919050565b6000819050919050565b60006115f4826115df565b91507fffffffffffffffffffffffffffffffffffffffffffffffffffffffffffffffff82141561162757611626611632565b5b600182019050919050565b7f4e487b7100000000000000000000000000000000000000000000000000000000600052601160045260246000fd5b7f4e487b7100000000000000000000000000000000000000000000000000000000600052601260045260246000fd5b7f4e487b7100000000000000000000000000000000000000000000000000000000600052604160045260246000fd5b6116c8816115a1565b81146116d357600080fd5b50565b6116df816115b3565b81146116ea57600080fd5b50565b6116f6816115df565b811461170157600080fd5b5056fea264697066735822122076aa85d93c01e985be25781d5d032fd16072be5c5fdf02790264c9b60e5dda3064736f6c63430008000033a2646970667358221220cc26071176a46107f8c74735710b4fce2bfbe09d80f7be2c4ba0d721193a4eec64736f6c63430008000033",
			"opcodes": "PUSH1 0x80 PUSH1 0x40 MSTORE CALLVALUE DUP1 ISZERO PUSH2 0x10 JUMPI PUSH1 0x0 DUP1 REVERT JUMPDEST POP PUSH1 0x40 MLOAD PUSH2 0x244F CODESIZE SUB DUP1 PUSH2 0x244F DUP4 CODECOPY DUP2 DUP2 ADD PUSH1 0x40 MSTORE DUP2 ADD SWAP1 PUSH2 0x32 SWAP2 SWAP1 PUSH2 0x94 JUMP JUMPDEST CALLER PUSH1 0x0 DUP1 PUSH2 0x100 EXP DUP2 SLOAD DUP2 PUSH20 0xFFFFFFFFFFFFFFFFFFFFFFFFFFFFFFFFFFFFFFFF MUL NOT AND SWAP1 DUP4 PUSH20 0xFFFFFFFFFFFFFFFFFFFFFFFFFFFFFFFFFFFFFFFF AND MUL OR SWAP1 SSTORE POP DUP1 PUSH1 0x2 DUP2 SWAP1 SSTORE POP POP PUSH2 0xDE JUMP JUMPDEST PUSH1 0x0 DUP2 MLOAD SWAP1 POP PUSH2 0x8E DUP2 PUSH2 0xC7 JUMP JUMPDEST SWAP3 SWAP2 POP POP JUMP JUMPDEST PUSH1 0x0 PUSH1 0x20 DUP3 DUP5 SUB SLT ISZERO PUSH2 0xA6 JUMPI PUSH1 0x0 DUP1 REVERT JUMPDEST PUSH1 0x0 PUSH2 0xB4 DUP5 DUP3 DUP6 ADD PUSH2 0x7F JUMP JUMPDEST SWAP2 POP POP SWAP3 SWAP2 POP POP JUMP JUMPDEST PUSH1 0x0 DUP2 SWAP1 POP SWAP2 SWAP1 POP JUMP JUMPDEST PUSH2 0xD0 DUP2 PUSH2 0xBD JUMP JUMPDEST DUP2 EQ PUSH2 0xDB JUMPI PUSH1 0x0 DUP1 REVERT JUMPDEST POP JUMP JUMPDEST PUSH2 0x2362 DUP1 PUSH2 0xED PUSH1 0x0 CODECOPY PUSH1 0x0 RETURN INVALID PUSH1 0x80 PUSH1 0x40 MSTORE PUSH1 0x4 CALLDATASIZE LT PUSH3 0x92 JUMPI PUSH1 0x0 CALLDATALOAD PUSH1 0xE0 SHR DUP1 PUSH4 0x74D0A676 GT PUSH3 0x61 JUMPI DUP1 PUSH4 0x74D0A676 EQ PUSH3 0x186 JUMPI DUP1 PUSH4 0x7A1A6231 EQ PUSH3 0x1B4 JUMPI DUP1 PUSH4 0x8DA5CB5B EQ PUSH3 0x1E4 JUMPI DUP1 PUSH4 0x91B7F5ED EQ PUSH3 0x214 JUMPI DUP1 PUSH4 0xA035B1FE EQ PUSH3 0x242 JUMPI PUSH3 0x92 JUMP JUMPDEST DUP1 PUSH4 0x11EBBF24 EQ PUSH3 0x97 JUMPI DUP1 PUSH4 0x28403760 EQ PUSH3 0xBA JUMPI DUP1 PUSH4 0x3E5F5C86 EQ PUSH3 0xFE JUMPI DUP1 PUSH4 0x6352211E EQ PUSH3 0x142 JUMPI JUMPDEST PUSH1 0x0 DUP1 REVERT JUMPDEST PUSH3 0xA1 PUSH3 0x272 JUMP JUMPDEST PUSH1 0x40 MLOAD PUSH3 0xB1 SWAP3 SWAP2 SWAP1 PUSH3 0x8EE JUMP JUMPDEST PUSH1 0x40 MLOAD DUP1 SWAP2 SUB SWAP1 RETURN JUMPDEST CALLVALUE DUP1 ISZERO PUSH3 0xC7 JUMPI PUSH1 0x0 DUP1 REVERT JUMPDEST POP PUSH3 0xE6 PUSH1 0x4 DUP1 CALLDATASIZE SUB DUP2 ADD SWAP1 PUSH3 0xE0 SWAP2 SWAP1 PUSH3 0x6BC JUMP JUMPDEST PUSH3 0x3CE JUMP JUMPDEST PUSH1 0x40 MLOAD PUSH3 0xF5 SWAP2 SWAP1 PUSH3 0x811 JUMP JUMPDEST PUSH1 0x40 MLOAD DUP1 SWAP2 SUB SWAP1 RETURN JUMPDEST CALLVALUE DUP1 ISZERO PUSH3 0x10B JUMPI PUSH1 0x0 DUP1 REVERT JUMPDEST POP PUSH3 0x12A PUSH1 0x4 DUP1 CALLDATASIZE SUB DUP2 ADD SWAP1 PUSH3 0x124 SWAP2 SWAP1 PUSH3 0x67B JUMP JUMPDEST PUSH3 0x401 JUMP JUMPDEST PUSH1 0x40 MLOAD PUSH3 0x139 SWAP2 SWAP1 PUSH3 0x8D1 JUMP JUMPDEST PUSH1 0x40 MLOAD DUP1 SWAP2 SUB SWAP1 RETURN JUMPDEST CALLVALUE DUP1 ISZERO PUSH3 0x14F JUMPI PUSH1 0x0 DUP1 REVERT JUMPDEST POP PUSH3 0x16E PUSH1 0x4 DUP1 CALLDATASIZE SUB DUP2 ADD SWAP1 PUSH3 0x168 SWAP2 SWAP1 PUSH3 0x6BC JUMP JUMPDEST PUSH3 0x433 JUMP JUMPDEST PUSH1 0x40 MLOAD PUSH3 0x17D SWAP2 SWAP1 PUSH3 0x811 JUMP JUMPDEST PUSH1 0x40 MLOAD DUP1 SWAP2 SUB SWAP1 RETURN JUMPDEST CALLVALUE DUP1 ISZERO PUSH3 0x193 JUMPI PUSH1 0x0 DUP1 REVERT JUMPDEST POP PUSH3 0x1B2 PUSH1 0x4 DUP1 CALLDATASIZE SUB DUP2 ADD SWAP1 PUSH3 0x1AC SWAP2 SWAP1 PUSH3 0x6E8 JUMP JUMPDEST PUSH3 0x466 JUMP JUMPDEST STOP JUMPDEST CALLVALUE DUP1 ISZERO PUSH3 0x1C1 JUMPI PUSH1 0x0 DUP1 REVERT JUMPDEST POP PUSH3 0x1CC PUSH3 0x574 JUMP JUMPDEST PUSH1 0x40 MLOAD PUSH3 0x1DB SWAP2 SWAP1 PUSH3 0x8D1 JUMP JUMPDEST PUSH1 0x40 MLOAD DUP1 SWAP2 SUB SWAP1 RETURN JUMPDEST CALLVALUE DUP1 ISZERO PUSH3 0x1F1 JUMPI PUSH1 0x0 DUP1 REVERT JUMPDEST POP PUSH3 0x1FC PUSH3 0x57A JUMP JUMPDEST PUSH1 0x40 MLOAD PUSH3 0x20B SWAP2 SWAP1 PUSH3 0x811 JUMP JUMPDEST PUSH1 0x40 MLOAD DUP1 SWAP2 SUB SWAP1 RETURN JUMPDEST CALLVALUE DUP1 ISZERO PUSH3 0x221 JUMPI PUSH1 0x0 DUP1 REVERT JUMPDEST POP PUSH3 0x240 PUSH1 0x4 DUP1 CALLDATASIZE SUB DUP2 ADD SWAP1 PUSH3 0x23A SWAP2 SWAP1 PUSH3 0x6BC JUMP JUMPDEST PUSH3 0x59E JUMP JUMPDEST STOP JUMPDEST CALLVALUE DUP1 ISZERO PUSH3 0x24F JUMPI PUSH1 0x0 DUP1 REVERT JUMPDEST POP PUSH3 0x25A PUSH3 0x639 JUMP JUMPDEST PUSH1 0x40 MLOAD PUSH3 0x269 SWAP2 SWAP1 PUSH3 0x8D1 JUMP JUMPDEST PUSH1 0x40 MLOAD DUP1 SWAP2 SUB SWAP1 RETURN JUMPDEST PUSH1 0x0 DUP1 PUSH1 0x2 SLOAD CALLVALUE EQ PUSH3 0x2BC JUMPI PUSH1 0x40 MLOAD PUSH32 0x8C379A000000000000000000000000000000000000000000000000000000000 DUP2 MSTORE PUSH1 0x4 ADD PUSH3 0x2B3 SWAP1 PUSH3 0x8AF JUMP JUMPDEST PUSH1 0x40 MLOAD DUP1 SWAP2 SUB SWAP1 REVERT JUMPDEST PUSH1 0x1 PUSH1 0x0 DUP2 SLOAD DUP1 SWAP3 SWAP2 SWAP1 PUSH3 0x2D1 SWAP1 PUSH3 0x96A JUMP JUMPDEST SWAP2 SWAP1 POP SSTORE POP PUSH1 0x0 CALLER ADDRESS PUSH1 0x1 SLOAD PUSH1 0x40 MLOAD PUSH3 0x2EB SWAP1 PUSH3 0x63F JUMP JUMPDEST PUSH3 0x2F9 SWAP4 SWAP3 SWAP2 SWAP1 PUSH3 0x82E JUMP JUMPDEST PUSH1 0x40 MLOAD DUP1 SWAP2 SUB SWAP1 PUSH1 0x0 CREATE DUP1 ISZERO DUP1 ISZERO PUSH3 0x316 JUMPI RETURNDATASIZE PUSH1 0x0 DUP1 RETURNDATACOPY RETURNDATASIZE PUSH1 0x0 REVERT JUMPDEST POP SWAP1 POP DUP1 SWAP2 POP DUP2 PUSH1 0x3 PUSH1 0x0 PUSH1 0x1 SLOAD DUP2 MSTORE PUSH1 0x20 ADD SWAP1 DUP2 MSTORE PUSH1 0x20 ADD PUSH1 0x0 KECCAK256 PUSH1 0x0 PUSH2 0x100 EXP DUP2 SLOAD DUP2 PUSH20 0xFFFFFFFFFFFFFFFFFFFFFFFFFFFFFFFFFFFFFFFF MUL NOT AND SWAP1 DUP4 PUSH20 0xFFFFFFFFFFFFFFFFFFFFFFFFFFFFFFFFFFFFFFFF AND MUL OR SWAP1 SSTORE POP CALLER PUSH1 0x4 PUSH1 0x0 PUSH1 0x1 SLOAD DUP2 MSTORE PUSH1 0x20 ADD SWAP1 DUP2 MSTORE PUSH1 0x20 ADD PUSH1 0x0 KECCAK256 PUSH1 0x0 PUSH2 0x100 EXP DUP2 SLOAD DUP2 PUSH20 0xFFFFFFFFFFFFFFFFFFFFFFFFFFFFFFFFFFFFFFFF MUL NOT AND SWAP1 DUP4 PUSH20 0xFFFFFFFFFFFFFFFFFFFFFFFFFFFFFFFFFFFFFFFF AND MUL OR SWAP1 SSTORE POP PUSH1 0x1 SLOAD SWAP3 POP POP SWAP1 SWAP2 JUMP JUMPDEST PUSH1 0x3 PUSH1 0x20 MSTORE DUP1 PUSH1 0x0 MSTORE PUSH1 0x40 PUSH1 0x0 KECCAK256 PUSH1 0x0 SWAP2 POP SLOAD SWAP1 PUSH2 0x100 EXP SWAP1 DIV PUSH20 0xFFFFFFFFFFFFFFFFFFFFFFFFFFFFFFFFFFFFFFFF AND DUP2 JUMP JUMPDEST PUSH1 0x5 PUSH1 0x20 MSTORE DUP2 PUSH1 0x0 MSTORE PUSH1 0x40 PUSH1 0x0 KECCAK256 DUP2 DUP2 SLOAD DUP2 LT PUSH3 0x41E JUMPI PUSH1 0x0 DUP1 REVERT JUMPDEST SWAP1 PUSH1 0x0 MSTORE PUSH1 0x20 PUSH1 0x0 KECCAK256 ADD PUSH1 0x0 SWAP2 POP SWAP2 POP POP SLOAD DUP2 JUMP JUMPDEST PUSH1 0x4 PUSH1 0x20 MSTORE DUP1 PUSH1 0x0 MSTORE PUSH1 0x40 PUSH1 0x0 KECCAK256 PUSH1 0x0 SWAP2 POP SLOAD SWAP1 PUSH2 0x100 EXP SWAP1 DIV PUSH20 0xFFFFFFFFFFFFFFFFFFFFFFFFFFFFFFFFFFFFFFFF AND DUP2 JUMP JUMPDEST CALLER PUSH20 0xFFFFFFFFFFFFFFFFFFFFFFFFFFFFFFFFFFFFFFFF AND PUSH1 0x3 PUSH1 0x0 DUP5 DUP2 MSTORE PUSH1 0x20 ADD SWAP1 DUP2 MSTORE PUSH1 0x20 ADD PUSH1 0x0 KECCAK256 PUSH1 0x0 SWAP1 SLOAD SWAP1 PUSH2 0x100 EXP SWAP1 DIV PUSH20 0xFFFFFFFFFFFFFFFFFFFFFFFFFFFFFFFFFFFFFFFF AND PUSH20 0xFFFFFFFFFFFFFFFFFFFFFFFFFFFFFFFFFFFFFFFF AND EQ PUSH3 0x50A JUMPI PUSH1 0x40 MLOAD PUSH32 0x8C379A000000000000000000000000000000000000000000000000000000000 DUP2 MSTORE PUSH1 0x4 ADD PUSH3 0x501 SWAP1 PUSH3 0x86B JUMP JUMPDEST PUSH1 0x40 MLOAD DUP1 SWAP2 SUB SWAP1 REVERT JUMPDEST PUSH1 0x5 PUSH1 0x0 DUP3 PUSH20 0xFFFFFFFFFFFFFFFFFFFFFFFFFFFFFFFFFFFFFFFF AND PUSH20 0xFFFFFFFFFFFFFFFFFFFFFFFFFFFFFFFFFFFFFFFF AND DUP2 MSTORE PUSH1 0x20 ADD SWAP1 DUP2 MSTORE PUSH1 0x20 ADD PUSH1 0x0 KECCAK256 DUP3 SWAP1 DUP1 PUSH1 0x1 DUP2 SLOAD ADD DUP1 DUP3 SSTORE DUP1 SWAP2 POP POP PUSH1 0x1 SWAP1 SUB SWAP1 PUSH1 0x0 MSTORE PUSH1 0x20 PUSH1 0x0 KECCAK256 ADD PUSH1 0x0 SWAP1 SWAP2 SWAP1 SWAP2 SWAP1 SWAP2 POP SSTORE POP POP JUMP JUMPDEST PUSH1 0x1 SLOAD DUP2 JUMP JUMPDEST PUSH1 0x0 DUP1 SLOAD SWAP1 PUSH2 0x100 EXP SWAP1 DIV PUSH20 0xFFFFFFFFFFFFFFFFFFFFFFFFFFFFFFFFFFFFFFFF AND DUP2 JUMP JUMPDEST CALLER PUSH20 0xFFFFFFFFFFFFFFFFFFFFFFFFFFFFFFFFFFFFFFFF AND PUSH1 0x0 DUP1 SLOAD SWAP1 PUSH2 0x100 EXP SWAP1 DIV PUSH20 0xFFFFFFFFFFFFFFFFFFFFFFFFFFFFFFFFFFFFFFFF AND PUSH20 0xFFFFFFFFFFFFFFFFFFFFFFFFFFFFFFFFFFFFFFFF AND EQ PUSH3 0x62F JUMPI PUSH1 0x40 MLOAD PUSH32 0x8C379A000000000000000000000000000000000000000000000000000000000 DUP2 MSTORE PUSH1 0x4 ADD PUSH3 0x626 SWAP1 PUSH3 0x88D JUMP JUMPDEST PUSH1 0x40 MLOAD DUP1 SWAP2 SUB SWAP1 REVERT JUMPDEST DUP1 PUSH1 0x2 DUP2 SWAP1 SSTORE POP POP JUMP JUMPDEST PUSH1 0x2 SLOAD DUP2 JUMP JUMPDEST PUSH2 0x1911 DUP1 PUSH3 0xA1C DUP4 CODECOPY ADD SWAP1 JUMP JUMPDEST PUSH1 0x0 DUP2 CALLDATALOAD SWAP1 POP PUSH3 0x65E DUP2 PUSH3 0x9E7 JUMP JUMPDEST SWAP3 SWAP2 POP POP JUMP JUMPDEST PUSH1 0x0 DUP2 CALLDATALOAD SWAP1 POP PUSH3 0x675 DUP2 PUSH3 0xA01 JUMP JUMPDEST SWAP3 SWAP2 POP POP JUMP JUMPDEST PUSH1 0x0 DUP1 PUSH1 0x40 DUP4 DUP6 SUB SLT ISZERO PUSH3 0x68F JUMPI PUSH1 0x0 DUP1 REVERT JUMPDEST PUSH1 0x0 PUSH3 0x69F DUP6 DUP3 DUP7 ADD PUSH3 0x64D JUMP JUMPDEST SWAP3 POP POP PUSH1 0x20 PUSH3 0x6B2 DUP6 DUP3 DUP7 ADD PUSH3 0x664 JUMP JUMPDEST SWAP2 POP POP SWAP3 POP SWAP3 SWAP1 POP JUMP JUMPDEST PUSH1 0x0 PUSH1 0x20 DUP3 DUP5 SUB SLT ISZERO PUSH3 0x6CF JUMPI PUSH1 0x0 DUP1 REVERT JUMPDEST PUSH1 0x0 PUSH3 0x6DF DUP5 DUP3 DUP6 ADD PUSH3 0x664 JUMP JUMPDEST SWAP2 POP POP SWAP3 SWAP2 POP POP JUMP JUMPDEST PUSH1 0x0 DUP1 PUSH1 0x40 DUP4 DUP6 SUB SLT ISZERO PUSH3 0x6FC JUMPI PUSH1 0x0 DUP1 REVERT JUMPDEST PUSH1 0x0 PUSH3 0x70C DUP6 DUP3 DUP7 ADD PUSH3 0x664 JUMP JUMPDEST SWAP3 POP POP PUSH1 0x20 PUSH3 0x71F DUP6 DUP3 DUP7 ADD PUSH3 0x64D JUMP JUMPDEST SWAP2 POP POP SWAP3 POP SWAP3 SWAP1 POP JUMP JUMPDEST PUSH3 0x734 DUP2 PUSH3 0x92C JUMP JUMPDEST DUP3 MSTORE POP POP JUMP JUMPDEST PUSH1 0x0 PUSH3 0x749 PUSH1 0x12 DUP4 PUSH3 0x91B JUMP JUMPDEST SWAP2 POP PUSH32 0x4F6E6C792077616C6C6574206D6574686F640000000000000000000000000000 PUSH1 0x0 DUP4 ADD MSTORE PUSH1 0x20 DUP3 ADD SWAP1 POP SWAP2 SWAP1 POP JUMP JUMPDEST PUSH1 0x0 PUSH3 0x78B PUSH1 0x11 DUP4 PUSH3 0x91B JUMP JUMPDEST SWAP2 POP PUSH32 0x4F6E6C79206F776E6572206D6574686F64000000000000000000000000000000 PUSH1 0x0 DUP4 ADD MSTORE PUSH1 0x20 DUP3 ADD SWAP1 POP SWAP2 SWAP1 POP JUMP JUMPDEST PUSH1 0x0 PUSH3 0x7CD PUSH1 0x1B DUP4 PUSH3 0x91B JUMP JUMPDEST SWAP2 POP PUSH32 0x496E73756666696369656E74207061796D656E7420616D6F756E740000000000 PUSH1 0x0 DUP4 ADD MSTORE PUSH1 0x20 DUP3 ADD SWAP1 POP SWAP2 SWAP1 POP JUMP JUMPDEST PUSH3 0x80B DUP2 PUSH3 0x960 JUMP JUMPDEST DUP3 MSTORE POP POP JUMP JUMPDEST PUSH1 0x0 PUSH1 0x20 DUP3 ADD SWAP1 POP PUSH3 0x828 PUSH1 0x0 DUP4 ADD DUP5 PUSH3 0x729 JUMP JUMPDEST SWAP3 SWAP2 POP POP JUMP JUMPDEST PUSH1 0x0 PUSH1 0x60 DUP3 ADD SWAP1 POP PUSH3 0x845 PUSH1 0x0 DUP4 ADD DUP7 PUSH3 0x729 JUMP JUMPDEST PUSH3 0x854 PUSH1 0x20 DUP4 ADD DUP6 PUSH3 0x729 JUMP JUMPDEST PUSH3 0x863 PUSH1 0x40 DUP4 ADD DUP5 PUSH3 0x800 JUMP JUMPDEST SWAP5 SWAP4 POP POP POP POP JUMP JUMPDEST PUSH1 0x0 PUSH1 0x20 DUP3 ADD SWAP1 POP DUP2 DUP2 SUB PUSH1 0x0 DUP4 ADD MSTORE PUSH3 0x886 DUP2 PUSH3 0x73A JUMP JUMPDEST SWAP1 POP SWAP2 SWAP1 POP JUMP JUMPDEST PUSH1 0x0 PUSH1 0x20 DUP3 ADD SWAP1 POP DUP2 DUP2 SUB PUSH1 0x0 DUP4 ADD MSTORE PUSH3 0x8A8 DUP2 PUSH3 0x77C JUMP JUMPDEST SWAP1 POP SWAP2 SWAP1 POP JUMP JUMPDEST PUSH1 0x0 PUSH1 0x20 DUP3 ADD SWAP1 POP DUP2 DUP2 SUB PUSH1 0x0 DUP4 ADD MSTORE PUSH3 0x8CA DUP2 PUSH3 0x7BE JUMP JUMPDEST SWAP1 POP SWAP2 SWAP1 POP JUMP JUMPDEST PUSH1 0x0 PUSH1 0x20 DUP3 ADD SWAP1 POP PUSH3 0x8E8 PUSH1 0x0 DUP4 ADD DUP5 PUSH3 0x800 JUMP JUMPDEST SWAP3 SWAP2 POP POP JUMP JUMPDEST PUSH1 0x0 PUSH1 0x40 DUP3 ADD SWAP1 POP PUSH3 0x905 PUSH1 0x0 DUP4 ADD DUP6 PUSH3 0x800 JUMP JUMPDEST PUSH3 0x914 PUSH1 0x20 DUP4 ADD DUP5 PUSH3 0x729 JUMP JUMPDEST SWAP4 SWAP3 POP POP POP JUMP JUMPDEST PUSH1 0x0 DUP3 DUP3 MSTORE PUSH1 0x20 DUP3 ADD SWAP1 POP SWAP3 SWAP2 POP POP JUMP JUMPDEST PUSH1 0x0 PUSH3 0x939 DUP3 PUSH3 0x940 JUMP JUMPDEST SWAP1 POP SWAP2 SWAP1 POP JUMP JUMPDEST PUSH1 0x0 PUSH20 0xFFFFFFFFFFFFFFFFFFFFFFFFFFFFFFFFFFFFFFFF DUP3 AND SWAP1 POP SWAP2 SWAP1 POP JUMP JUMPDEST PUSH1 0x0 DUP2 SWAP1 POP SWAP2 SWAP1 POP JUMP JUMPDEST PUSH1 0x0 PUSH3 0x977 DUP3 PUSH3 0x960 JUMP JUMPDEST SWAP2 POP PUSH32 0xFFFFFFFFFFFFFFFFFFFFFFFFFFFFFFFFFFFFFFFFFFFFFFFFFFFFFFFFFFFFFFFF DUP3 EQ ISZERO PUSH3 0x9AD JUMPI PUSH3 0x9AC PUSH3 0x9B8 JUMP JUMPDEST JUMPDEST PUSH1 0x1 DUP3 ADD SWAP1 POP SWAP2 SWAP1 POP JUMP JUMPDEST PUSH32 0x4E487B7100000000000000000000000000000000000000000000000000000000 PUSH1 0x0 MSTORE PUSH1 0x11 PUSH1 0x4 MSTORE PUSH1 0x24 PUSH1 0x0 REVERT JUMPDEST PUSH3 0x9F2 DUP2 PUSH3 0x92C JUMP JUMPDEST DUP2 EQ PUSH3 0x9FE JUMPI PUSH1 0x0 DUP1 REVERT JUMPDEST POP JUMP JUMPDEST PUSH3 0xA0C DUP2 PUSH3 0x960 JUMP JUMPDEST DUP2 EQ PUSH3 0xA18 JUMPI PUSH1 0x0 DUP1 REVERT JUMPDEST POP JUMP INVALID PUSH1 0x80 PUSH1 0x40 MSTORE CALLVALUE DUP1 ISZERO PUSH3 0x11 JUMPI PUSH1 0x0 DUP1 REVERT JUMPDEST POP PUSH1 0x40 MLOAD PUSH3 0x1911 CODESIZE SUB DUP1 PUSH3 0x1911 DUP4 CODECOPY DUP2 DUP2 ADD PUSH1 0x40 MSTORE DUP2 ADD SWAP1 PUSH3 0x37 SWAP2 SWAP1 PUSH3 0xFF JUMP JUMPDEST PUSH1 0x1 PUSH1 0x0 DUP2 SWAP1 SSTORE POP DUP3 PUSH1 0x1 PUSH1 0x0 PUSH2 0x100 EXP DUP2 SLOAD DUP2 PUSH20 0xFFFFFFFFFFFFFFFFFFFFFFFFFFFFFFFFFFFFFFFF MUL NOT AND SWAP1 DUP4 PUSH20 0xFFFFFFFFFFFFFFFFFFFFFFFFFFFFFFFFFFFFFFFF AND MUL OR SWAP1 SSTORE POP DUP2 PUSH1 0x4 PUSH1 0x0 PUSH2 0x100 EXP DUP2 SLOAD DUP2 PUSH20 0xFFFFFFFFFFFFFFFFFFFFFFFFFFFFFFFFFFFFFFFF MUL NOT AND SWAP1 DUP4 PUSH20 0xFFFFFFFFFFFFFFFFFFFFFFFFFFFFFFFFFFFFFFFF AND MUL OR SWAP1 SSTORE POP DUP1 PUSH1 0x3 DUP2 SWAP1 SSTORE POP POP POP POP PUSH3 0x1C7 JUMP JUMPDEST PUSH1 0x0 DUP2 MLOAD SWAP1 POP PUSH3 0xE2 DUP2 PUSH3 0x193 JUMP JUMPDEST SWAP3 SWAP2 POP POP JUMP JUMPDEST PUSH1 0x0 DUP2 MLOAD SWAP1 POP PUSH3 0xF9 DUP2 PUSH3 0x1AD JUMP JUMPDEST SWAP3 SWAP2 POP POP JUMP JUMPDEST PUSH1 0x0 DUP1 PUSH1 0x0 PUSH1 0x60 DUP5 DUP7 SUB SLT ISZERO PUSH3 0x115 JUMPI PUSH1 0x0 DUP1 REVERT JUMPDEST PUSH1 0x0 PUSH3 0x125 DUP7 DUP3 DUP8 ADD PUSH3 0xD1 JUMP JUMPDEST SWAP4 POP POP PUSH1 0x20 PUSH3 0x138 DUP7 DUP3 DUP8 ADD PUSH3 0xD1 JUMP JUMPDEST SWAP3 POP POP PUSH1 0x40 PUSH3 0x14B DUP7 DUP3 DUP8 ADD PUSH3 0xE8 JUMP JUMPDEST SWAP2 POP POP SWAP3 POP SWAP3 POP SWAP3 JUMP JUMPDEST PUSH1 0x0 PUSH3 0x162 DUP3 PUSH3 0x169 JUMP JUMPDEST SWAP1 POP SWAP2 SWAP1 POP JUMP JUMPDEST PUSH1 0x0 PUSH20 0xFFFFFFFFFFFFFFFFFFFFFFFFFFFFFFFFFFFFFFFF DUP3 AND SWAP1 POP SWAP2 SWAP1 POP JUMP JUMPDEST PUSH1 0x0 DUP2 SWAP1 POP SWAP2 SWAP1 POP JUMP JUMPDEST PUSH3 0x19E DUP2 PUSH3 0x155 JUMP JUMPDEST DUP2 EQ PUSH3 0x1AA JUMPI PUSH1 0x0 DUP1 REVERT JUMPDEST POP JUMP JUMPDEST PUSH3 0x1B8 DUP2 PUSH3 0x189 JUMP JUMPDEST DUP2 EQ PUSH3 0x1C4 JUMPI PUSH1 0x0 DUP1 REVERT JUMPDEST POP JUMP JUMPDEST PUSH2 0x173A DUP1 PUSH3 0x1D7 PUSH1 0x0 CODECOPY PUSH1 0x0 RETURN INVALID PUSH1 0x80 PUSH1 0x40 MSTORE CALLVALUE DUP1 ISZERO PUSH2 0x10 JUMPI PUSH1 0x0 DUP1 REVERT JUMPDEST POP PUSH1 0x4 CALLDATASIZE LT PUSH2 0xA9 JUMPI PUSH1 0x0 CALLDATALOAD PUSH1 0xE0 SHR DUP1 PUSH4 0x8DA5CB5B GT PUSH2 0x71 JUMPI DUP1 PUSH4 0x8DA5CB5B EQ PUSH2 0x16B JUMPI DUP1 PUSH4 0x9A5D6A4A EQ PUSH2 0x189 JUMPI DUP1 PUSH4 0xA230C524 EQ PUSH2 0x1A5 JUMPI DUP1 PUSH4 0xA4B08872 EQ PUSH2 0x1D5 JUMPI DUP1 PUSH4 0xB789BF52 EQ PUSH2 0x206 JUMPI DUP1 PUSH4 0xC162BA2F EQ PUSH2 0x224 JUMPI PUSH2 0xA9 JUMP JUMPDEST DUP1 PUSH4 0x39935FF EQ PUSH2 0xAE JUMPI DUP1 PUSH4 0x11AEE380 EQ PUSH2 0xE5 JUMPI DUP1 PUSH4 0x3EE79599 EQ PUSH2 0x103 JUMPI DUP1 PUSH4 0x6F4D469B EQ PUSH2 0x11F JUMPI DUP1 PUSH4 0x70A08231 EQ PUSH2 0x13B JUMPI JUMPDEST PUSH1 0x0 DUP1 REVERT JUMPDEST PUSH2 0xC8 PUSH1 0x4 DUP1 CALLDATASIZE SUB DUP2 ADD SWAP1 PUSH2 0xC3 SWAP2 SWAP1 PUSH2 0xF6C JUMP JUMPDEST PUSH2 0x242 JUMP JUMPDEST PUSH1 0x40 MLOAD PUSH2 0xDC SWAP9 SWAP8 SWAP7 SWAP6 SWAP5 SWAP4 SWAP3 SWAP2 SWAP1 PUSH2 0x1450 JUMP JUMPDEST PUSH1 0x40 MLOAD DUP1 SWAP2 SUB SWAP1 RETURN JUMPDEST PUSH2 0xED PUSH2 0x2CA JUMP JUMPDEST PUSH1 0x40 MLOAD PUSH2 0xFA SWAP2 SWAP1 PUSH2 0x140C JUMP JUMPDEST PUSH1 0x40 MLOAD DUP1 SWAP2 SUB SWAP1 RETURN JUMPDEST PUSH2 0x11D PUSH1 0x4 DUP1 CALLDATASIZE SUB DUP2 ADD SWAP1 PUSH2 0x118 SWAP2 SWAP1 PUSH2 0xFBE JUMP JUMPDEST PUSH2 0x2D0 JUMP JUMPDEST STOP JUMPDEST PUSH2 0x139 PUSH1 0x4 DUP1 CALLDATASIZE SUB DUP2 ADD SWAP1 PUSH2 0x134 SWAP2 SWAP1 PUSH2 0xF02 JUMP JUMPDEST PUSH2 0x5BA JUMP JUMPDEST STOP JUMPDEST PUSH2 0x155 PUSH1 0x4 DUP1 CALLDATASIZE SUB DUP2 ADD SWAP1 PUSH2 0x150 SWAP2 SWAP1 PUSH2 0xE8A JUMP JUMPDEST PUSH2 0x6B6 JUMP JUMPDEST PUSH1 0x40 MLOAD PUSH2 0x162 SWAP2 SWAP1 PUSH2 0x140C JUMP JUMPDEST PUSH1 0x40 MLOAD DUP1 SWAP2 SUB SWAP1 RETURN JUMPDEST PUSH2 0x173 PUSH2 0x748 JUMP JUMPDEST PUSH1 0x40 MLOAD PUSH2 0x180 SWAP2 SWAP1 PUSH2 0x128D JUMP JUMPDEST PUSH1 0x40 MLOAD DUP1 SWAP2 SUB SWAP1 RETURN JUMPDEST PUSH2 0x1A3 PUSH1 0x4 DUP1 CALLDATASIZE SUB DUP2 ADD SWAP1 PUSH2 0x19E SWAP2 SWAP1 PUSH2 0xEB3 JUMP JUMPDEST PUSH2 0x76E JUMP JUMPDEST STOP JUMPDEST PUSH2 0x1BF PUSH1 0x4 DUP1 CALLDATASIZE SUB DUP2 ADD SWAP1 PUSH2 0x1BA SWAP2 SWAP1 PUSH2 0xE8A JUMP JUMPDEST PUSH2 0x97D JUMP JUMPDEST PUSH1 0x40 MLOAD PUSH2 0x1CC SWAP2 SWAP1 PUSH2 0x12D1 JUMP JUMPDEST PUSH1 0x40 MLOAD DUP1 SWAP2 SUB SWAP1 RETURN JUMPDEST PUSH2 0x1EF PUSH1 0x4 DUP1 CALLDATASIZE SUB DUP2 ADD SWAP1 PUSH2 0x1EA SWAP2 SWAP1 PUSH2 0xE8A JUMP JUMPDEST PUSH2 0x99D JUMP JUMPDEST PUSH1 0x40 MLOAD PUSH2 0x1FD SWAP3 SWAP2 SWAP1 PUSH2 0x1427 JUMP JUMPDEST PUSH1 0x40 MLOAD DUP1 SWAP2 SUB SWAP1 RETURN JUMPDEST PUSH2 0x20E PUSH2 0x9E1 JUMP JUMPDEST PUSH1 0x40 MLOAD PUSH2 0x21B SWAP2 SWAP1 PUSH2 0x140C JUMP JUMPDEST PUSH1 0x40 MLOAD DUP1 SWAP2 SUB SWAP1 RETURN JUMPDEST PUSH2 0x22C PUSH2 0x9E7 JUMP JUMPDEST PUSH1 0x40 MLOAD PUSH2 0x239 SWAP2 SWAP1 PUSH2 0x140C JUMP JUMPDEST PUSH1 0x40 MLOAD DUP1 SWAP2 SUB SWAP1 RETURN JUMPDEST PUSH1 0x8 PUSH1 0x20 MSTORE DUP1 PUSH1 0x0 MSTORE PUSH1 0x40 PUSH1 0x0 KECCAK256 PUSH1 0x0 SWAP2 POP SWAP1 POP DUP1 PUSH1 0x0 ADD SLOAD SWAP1 DUP1 PUSH1 0x1 ADD PUSH1 0x0 SWAP1 SLOAD SWAP1 PUSH2 0x100 EXP SWAP1 DIV PUSH20 0xFFFFFFFFFFFFFFFFFFFFFFFFFFFFFFFFFFFFFFFF AND SWAP1 DUP1 PUSH1 0x2 ADD PUSH1 0x0 SWAP1 SLOAD SWAP1 PUSH2 0x100 EXP SWAP1 DIV PUSH20 0xFFFFFFFFFFFFFFFFFFFFFFFFFFFFFFFFFFFFFFFF AND SWAP1 DUP1 PUSH1 0x3 ADD SLOAD SWAP1 DUP1 PUSH1 0x4 ADD SLOAD SWAP1 DUP1 PUSH1 0x5 ADD SLOAD SWAP1 DUP1 PUSH1 0x6 ADD SLOAD SWAP1 DUP1 PUSH1 0x7 ADD SLOAD SWAP1 POP DUP9 JUMP JUMPDEST PUSH1 0x5 SLOAD DUP2 JUMP JUMPDEST PUSH1 0x2 PUSH1 0x0 SLOAD EQ ISZERO PUSH2 0x316 JUMPI PUSH1 0x40 MLOAD PUSH32 0x8C379A000000000000000000000000000000000000000000000000000000000 DUP2 MSTORE PUSH1 0x4 ADD PUSH2 0x30D SWAP1 PUSH2 0x13EC JUMP JUMPDEST PUSH1 0x40 MLOAD DUP1 SWAP2 SUB SWAP1 REVERT JUMPDEST PUSH1 0x2 PUSH1 0x0 DUP2 SWAP1 SSTORE POP PUSH1 0x1 DUP2 EQ DUP1 PUSH2 0x32D JUMPI POP PUSH1 0x2 DUP2 EQ JUMPDEST PUSH2 0x36C JUMPI PUSH1 0x40 MLOAD PUSH32 0x8C379A000000000000000000000000000000000000000000000000000000000 DUP2 MSTORE PUSH1 0x4 ADD PUSH2 0x363 SWAP1 PUSH2 0x136C JUMP JUMPDEST PUSH1 0x40 MLOAD DUP1 SWAP2 SUB SWAP1 REVERT JUMPDEST PUSH1 0x0 PUSH1 0x8 PUSH1 0x0 DUP5 DUP2 MSTORE PUSH1 0x20 ADD SWAP1 DUP2 MSTORE PUSH1 0x20 ADD PUSH1 0x0 KECCAK256 SWAP1 POP PUSH1 0x0 DUP2 PUSH1 0x7 ADD SLOAD EQ ISZERO PUSH2 0x3CB JUMPI PUSH1 0x40 MLOAD PUSH32 0x8C379A000000000000000000000000000000000000000000000000000000000 DUP2 MSTORE PUSH1 0x4 ADD PUSH2 0x3C2 SWAP1 PUSH2 0x134C JUMP JUMPDEST PUSH1 0x40 MLOAD DUP1 SWAP2 SUB SWAP1 REVERT JUMPDEST DUP1 PUSH1 0x0 ADD SLOAD PUSH1 0x6 PUSH1 0x0 CALLER PUSH20 0xFFFFFFFFFFFFFFFFFFFFFFFFFFFFFFFFFFFFFFFF AND PUSH20 0xFFFFFFFFFFFFFFFFFFFFFFFFFFFFFFFFFFFFFFFF AND DUP2 MSTORE PUSH1 0x20 ADD SWAP1 DUP2 MSTORE PUSH1 0x20 ADD PUSH1 0x0 KECCAK256 PUSH1 0x0 ADD SLOAD GT ISZERO PUSH2 0x454 JUMPI PUSH1 0x40 MLOAD PUSH32 0x8C379A000000000000000000000000000000000000000000000000000000000 DUP2 MSTORE PUSH1 0x4 ADD PUSH2 0x44B SWAP1 PUSH2 0x132C JUMP JUMPDEST PUSH1 0x40 MLOAD DUP1 SWAP2 SUB SWAP1 REVERT JUMPDEST PUSH1 0x0 PUSH1 0x9 PUSH1 0x0 DUP6 DUP2 MSTORE PUSH1 0x20 ADD SWAP1 DUP2 MSTORE PUSH1 0x20 ADD PUSH1 0x0 KECCAK256 PUSH1 0x0 CALLER PUSH20 0xFFFFFFFFFFFFFFFFFFFFFFFFFFFFFFFFFFFFFFFF AND PUSH20 0xFFFFFFFFFFFFFFFFFFFFFFFFFFFFFFFFFFFFFFFF AND DUP2 MSTORE PUSH1 0x20 ADD SWAP1 DUP2 MSTORE PUSH1 0x20 ADD PUSH1 0x0 KECCAK256 SLOAD EQ PUSH2 0x4E7 JUMPI PUSH1 0x40 MLOAD PUSH32 0x8C379A000000000000000000000000000000000000000000000000000000000 DUP2 MSTORE PUSH1 0x4 ADD PUSH2 0x4DE SWAP1 PUSH2 0x138C JUMP JUMPDEST PUSH1 0x40 MLOAD DUP1 SWAP2 SUB SWAP1 REVERT JUMPDEST DUP2 PUSH1 0x9 PUSH1 0x0 DUP6 DUP2 MSTORE PUSH1 0x20 ADD SWAP1 DUP2 MSTORE PUSH1 0x20 ADD PUSH1 0x0 KECCAK256 PUSH1 0x0 CALLER PUSH20 0xFFFFFFFFFFFFFFFFFFFFFFFFFFFFFFFFFFFFFFFF AND PUSH20 0xFFFFFFFFFFFFFFFFFFFFFFFFFFFFFFFFFFFFFFFF AND DUP2 MSTORE PUSH1 0x20 ADD SWAP1 DUP2 MSTORE PUSH1 0x20 ADD PUSH1 0x0 KECCAK256 DUP2 SWAP1 SSTORE POP PUSH1 0x1 DUP3 EQ ISZERO PUSH2 0x564 JUMPI DUP1 PUSH1 0x4 ADD PUSH1 0x0 DUP2 SLOAD DUP1 SWAP3 SWAP2 SWAP1 PUSH2 0x55A SWAP1 PUSH2 0x15E9 JUMP JUMPDEST SWAP2 SWAP1 POP SSTORE POP PUSH2 0x57F JUMP JUMPDEST DUP1 PUSH1 0x5 ADD PUSH1 0x0 DUP2 SLOAD DUP1 SWAP3 SWAP2 SWAP1 PUSH2 0x579 SWAP1 PUSH2 0x15E9 JUMP JUMPDEST SWAP2 SWAP1 POP SSTORE POP JUMPDEST DUP1 PUSH1 0x6 ADD SLOAD DUP2 PUSH1 0x4 ADD SLOAD LT ISZERO DUP1 PUSH2 0x59E JUMPI POP DUP1 PUSH1 0x6 ADD SLOAD DUP2 PUSH1 0x5 ADD SLOAD LT ISZERO JUMPDEST ISZERO PUSH2 0x5AD JUMPI PUSH2 0x5AC DUP2 PUSH2 0x9ED JUMP JUMPDEST JUMPDEST POP PUSH1 0x1 PUSH1 0x0 DUP2 SWAP1 SSTORE POP POP POP JUMP JUMPDEST PUSH1 0x1 PUSH1 0x0 SWAP1 SLOAD SWAP1 PUSH2 0x100 EXP SWAP1 DIV PUSH20 0xFFFFFFFFFFFFFFFFFFFFFFFFFFFFFFFFFFFFFFFF AND PUSH20 0xFFFFFFFFFFFFFFFFFFFFFFFFFFFFFFFFFFFFFFFF AND CALLER PUSH20 0xFFFFFFFFFFFFFFFFFFFFFFFFFFFFFFFFFFFFFFFF AND EQ PUSH2 0x64A JUMPI PUSH1 0x40 MLOAD PUSH32 0x8C379A000000000000000000000000000000000000000000000000000000000 DUP2 MSTORE PUSH1 0x4 ADD PUSH2 0x641 SWAP1 PUSH2 0x13AC JUMP JUMPDEST PUSH1 0x40 MLOAD DUP1 SWAP2 SUB SWAP1 REVERT JUMPDEST PUSH1 0x0 JUMPDEST DUP2 MLOAD DUP2 LT ISZERO PUSH2 0x6B2 JUMPI PUSH2 0x69F DUP3 DUP3 DUP2 MLOAD DUP2 LT PUSH2 0x692 JUMPI PUSH32 0x4E487B7100000000000000000000000000000000000000000000000000000000 PUSH1 0x0 MSTORE PUSH1 0x32 PUSH1 0x4 MSTORE PUSH1 0x24 PUSH1 0x0 REVERT JUMPDEST PUSH1 0x20 MUL PUSH1 0x20 ADD ADD MLOAD PUSH2 0xA80 JUMP JUMPDEST DUP1 DUP1 PUSH2 0x6AA SWAP1 PUSH2 0x15E9 JUMP JUMPDEST SWAP2 POP POP PUSH2 0x64D JUMP JUMPDEST POP POP JUMP JUMPDEST PUSH1 0x0 DUP2 PUSH20 0xFFFFFFFFFFFFFFFFFFFFFFFFFFFFFFFFFFFFFFFF AND PUSH4 0x70A08231 ADDRESS PUSH1 0x40 MLOAD DUP3 PUSH4 0xFFFFFFFF AND PUSH1 0xE0 SHL DUP2 MSTORE PUSH1 0x4 ADD PUSH2 0x6F1 SWAP2 SWAP1 PUSH2 0x128D JUMP JUMPDEST PUSH1 0x20 PUSH1 0x40 MLOAD DUP1 DUP4 SUB DUP2 DUP7 DUP1 EXTCODESIZE ISZERO DUP1 ISZERO PUSH2 0x709 JUMPI PUSH1 0x0 DUP1 REVERT JUMPDEST POP GAS STATICCALL ISZERO DUP1 ISZERO PUSH2 0x71D JUMPI RETURNDATASIZE PUSH1 0x0 DUP1 RETURNDATACOPY RETURNDATASIZE PUSH1 0x0 REVERT JUMPDEST POP POP POP POP PUSH1 0x40 MLOAD RETURNDATASIZE PUSH1 0x1F NOT PUSH1 0x1F DUP3 ADD AND DUP3 ADD DUP1 PUSH1 0x40 MSTORE POP DUP2 ADD SWAP1 PUSH2 0x741 SWAP2 SWAP1 PUSH2 0xF95 JUMP JUMPDEST SWAP1 POP SWAP2 SWAP1 POP JUMP JUMPDEST PUSH1 0x1 PUSH1 0x0 SWAP1 SLOAD SWAP1 PUSH2 0x100 EXP SWAP1 DIV PUSH20 0xFFFFFFFFFFFFFFFFFFFFFFFFFFFFFFFFFFFFFFFF AND DUP2 JUMP JUMPDEST PUSH1 0x7 PUSH1 0x0 CALLER PUSH20 0xFFFFFFFFFFFFFFFFFFFFFFFFFFFFFFFFFFFFFFFF AND PUSH20 0xFFFFFFFFFFFFFFFFFFFFFFFFFFFFFFFFFFFFFFFF AND DUP2 MSTORE PUSH1 0x20 ADD SWAP1 DUP2 MSTORE PUSH1 0x20 ADD PUSH1 0x0 KECCAK256 PUSH1 0x0 SWAP1 SLOAD SWAP1 PUSH2 0x100 EXP SWAP1 DIV PUSH1 0xFF AND PUSH2 0x7FA JUMPI PUSH1 0x40 MLOAD PUSH32 0x8C379A000000000000000000000000000000000000000000000000000000000 DUP2 MSTORE PUSH1 0x4 ADD PUSH2 0x7F1 SWAP1 PUSH2 0x12EC JUMP JUMPDEST PUSH1 0x40 MLOAD DUP1 SWAP2 SUB SWAP1 REVERT JUMPDEST PUSH1 0x40 MLOAD DUP1 PUSH2 0x100 ADD PUSH1 0x40 MSTORE DUP1 TIMESTAMP DUP2 MSTORE PUSH1 0x20 ADD DUP5 PUSH20 0xFFFFFFFFFFFFFFFFFFFFFFFFFFFFFFFFFFFFFFFF AND DUP2 MSTORE PUSH1 0x20 ADD DUP4 PUSH20 0xFFFFFFFFFFFFFFFFFFFFFFFFFFFFFFFFFFFFFFFF AND DUP2 MSTORE PUSH1 0x20 ADD DUP3 DUP2 MSTORE PUSH1 0x20 ADD PUSH1 0x0 DUP2 MSTORE PUSH1 0x20 ADD PUSH1 0x0 DUP2 MSTORE PUSH1 0x20 ADD PUSH1 0x2 PUSH1 0x5 SLOAD PUSH2 0x867 SWAP2 SWAP1 PUSH2 0x153C JUMP JUMPDEST PUSH1 0x5 SLOAD PUSH2 0x874 SWAP2 SWAP1 PUSH2 0x156D JUMP JUMPDEST DUP2 MSTORE PUSH1 0x20 ADD PUSH1 0x0 DUP2 MSTORE POP PUSH1 0x8 PUSH1 0x0 PUSH1 0x2 SLOAD DUP2 MSTORE PUSH1 0x20 ADD SWAP1 DUP2 MSTORE PUSH1 0x20 ADD PUSH1 0x0 KECCAK256 PUSH1 0x0 DUP3 ADD MLOAD DUP2 PUSH1 0x0 ADD SSTORE PUSH1 0x20 DUP3 ADD MLOAD DUP2 PUSH1 0x1 ADD PUSH1 0x0 PUSH2 0x100 EXP DUP2 SLOAD DUP2 PUSH20 0xFFFFFFFFFFFFFFFFFFFFFFFFFFFFFFFFFFFFFFFF MUL NOT AND SWAP1 DUP4 PUSH20 0xFFFFFFFFFFFFFFFFFFFFFFFFFFFFFFFFFFFFFFFF AND MUL OR SWAP1 SSTORE POP PUSH1 0x40 DUP3 ADD MLOAD DUP2 PUSH1 0x2 ADD PUSH1 0x0 PUSH2 0x100 EXP DUP2 SLOAD DUP2 PUSH20 0xFFFFFFFFFFFFFFFFFFFFFFFFFFFFFFFFFFFFFFFF MUL NOT AND SWAP1 DUP4 PUSH20 0xFFFFFFFFFFFFFFFFFFFFFFFFFFFFFFFFFFFFFFFF AND MUL OR SWAP1 SSTORE POP PUSH1 0x60 DUP3 ADD MLOAD DUP2 PUSH1 0x3 ADD SSTORE PUSH1 0x80 DUP3 ADD MLOAD DUP2 PUSH1 0x4 ADD SSTORE PUSH1 0xA0 DUP3 ADD MLOAD DUP2 PUSH1 0x5 ADD SSTORE PUSH1 0xC0 DUP3 ADD MLOAD DUP2 PUSH1 0x6 ADD SSTORE PUSH1 0xE0 DUP3 ADD MLOAD DUP2 PUSH1 0x7 ADD SSTORE SWAP1 POP POP PUSH1 0x2 PUSH1 0x0 DUP2 SLOAD DUP1 SWAP3 SWAP2 SWAP1 PUSH2 0x973 SWAP1 PUSH2 0x15E9 JUMP JUMPDEST SWAP2 SWAP1 POP SSTORE POP POP POP POP JUMP JUMPDEST PUSH1 0x7 PUSH1 0x20 MSTORE DUP1 PUSH1 0x0 MSTORE PUSH1 0x40 PUSH1 0x0 KECCAK256 PUSH1 0x0 SWAP2 POP SLOAD SWAP1 PUSH2 0x100 EXP SWAP1 DIV PUSH1 0xFF AND DUP2 JUMP JUMPDEST PUSH1 0x6 PUSH1 0x20 MSTORE DUP1 PUSH1 0x0 MSTORE PUSH1 0x40 PUSH1 0x0 KECCAK256 PUSH1 0x0 SWAP2 POP SWAP1 POP DUP1 PUSH1 0x0 ADD SLOAD SWAP1 DUP1 PUSH1 0x1 ADD PUSH1 0x0 SWAP1 SLOAD SWAP1 PUSH2 0x100 EXP SWAP1 DIV PUSH20 0xFFFFFFFFFFFFFFFFFFFFFFFFFFFFFFFFFFFFFFFF AND SWAP1 POP DUP3 JUMP JUMPDEST PUSH1 0x2 SLOAD DUP2 JUMP JUMPDEST PUSH1 0x3 SLOAD DUP2 JUMP JUMPDEST DUP1 PUSH1 0x6 ADD SLOAD DUP2 PUSH1 0x4 ADD SLOAD LT PUSH2 0xA62 JUMPI PUSH2 0xA53 DUP2 PUSH1 0x1 ADD PUSH1 0x0 SWAP1 SLOAD SWAP1 PUSH2 0x100 EXP SWAP1 DIV PUSH20 0xFFFFFFFFFFFFFFFFFFFFFFFFFFFFFFFFFFFFFFFF AND DUP3 PUSH1 0x2 ADD PUSH1 0x0 SWAP1 SLOAD SWAP1 PUSH2 0x100 EXP SWAP1 DIV PUSH20 0xFFFFFFFFFFFFFFFFFFFFFFFFFFFFFFFFFFFFFFFF AND DUP4 PUSH1 0x3 ADD SLOAD PUSH2 0xCCF JUMP JUMPDEST PUSH1 0x1 DUP2 PUSH1 0x7 ADD DUP2 SWAP1 SSTORE POP PUSH2 0xA7D JUMP JUMPDEST DUP1 PUSH1 0x6 ADD SLOAD DUP2 PUSH1 0x5 ADD SLOAD LT PUSH2 0xA7C JUMPI PUSH1 0x2 DUP2 PUSH1 0x7 ADD DUP2 SWAP1 SSTORE POP JUMPDEST JUMPDEST POP JUMP JUMPDEST PUSH1 0x7 PUSH1 0x0 DUP3 PUSH20 0xFFFFFFFFFFFFFFFFFFFFFFFFFFFFFFFFFFFFFFFF AND PUSH20 0xFFFFFFFFFFFFFFFFFFFFFFFFFFFFFFFFFFFFFFFF AND DUP2 MSTORE PUSH1 0x20 ADD SWAP1 DUP2 MSTORE PUSH1 0x20 ADD PUSH1 0x0 KECCAK256 PUSH1 0x0 SWAP1 SLOAD SWAP1 PUSH2 0x100 EXP SWAP1 DIV PUSH1 0xFF AND ISZERO PUSH2 0xB0D JUMPI PUSH1 0x40 MLOAD PUSH32 0x8C379A000000000000000000000000000000000000000000000000000000000 DUP2 MSTORE PUSH1 0x4 ADD PUSH2 0xB04 SWAP1 PUSH2 0x13CC JUMP JUMPDEST PUSH1 0x40 MLOAD DUP1 SWAP2 SUB SWAP1 REVERT JUMPDEST PUSH1 0x40 MLOAD DUP1 PUSH1 0x40 ADD PUSH1 0x40 MSTORE DUP1 TIMESTAMP DUP2 MSTORE PUSH1 0x20 ADD DUP3 PUSH20 0xFFFFFFFFFFFFFFFFFFFFFFFFFFFFFFFFFFFFFFFF AND DUP2 MSTORE POP PUSH1 0x6 PUSH1 0x0 DUP4 PUSH20 0xFFFFFFFFFFFFFFFFFFFFFFFFFFFFFFFFFFFFFFFF AND PUSH20 0xFFFFFFFFFFFFFFFFFFFFFFFFFFFFFFFFFFFFFFFF AND DUP2 MSTORE PUSH1 0x20 ADD SWAP1 DUP2 MSTORE PUSH1 0x20 ADD PUSH1 0x0 KECCAK256 PUSH1 0x0 DUP3 ADD MLOAD DUP2 PUSH1 0x0 ADD SSTORE PUSH1 0x20 DUP3 ADD MLOAD DUP2 PUSH1 0x1 ADD PUSH1 0x0 PUSH2 0x100 EXP DUP2 SLOAD DUP2 PUSH20 0xFFFFFFFFFFFFFFFFFFFFFFFFFFFFFFFFFFFFFFFF MUL NOT AND SWAP1 DUP4 PUSH20 0xFFFFFFFFFFFFFFFFFFFFFFFFFFFFFFFFFFFFFFFF AND MUL OR SWAP1 SSTORE POP SWAP1 POP POP PUSH1 0x1 PUSH1 0x7 PUSH1 0x0 DUP4 PUSH20 0xFFFFFFFFFFFFFFFFFFFFFFFFFFFFFFFFFFFFFFFF AND PUSH20 0xFFFFFFFFFFFFFFFFFFFFFFFFFFFFFFFFFFFFFFFF AND DUP2 MSTORE PUSH1 0x20 ADD SWAP1 DUP2 MSTORE PUSH1 0x20 ADD PUSH1 0x0 KECCAK256 PUSH1 0x0 PUSH2 0x100 EXP DUP2 SLOAD DUP2 PUSH1 0xFF MUL NOT AND SWAP1 DUP4 ISZERO ISZERO MUL OR SWAP1 SSTORE POP PUSH1 0x4 PUSH1 0x0 SWAP1 SLOAD SWAP1 PUSH2 0x100 EXP SWAP1 DIV PUSH20 0xFFFFFFFFFFFFFFFFFFFFFFFFFFFFFFFFFFFFFFFF AND PUSH20 0xFFFFFFFFFFFFFFFFFFFFFFFFFFFFFFFFFFFFFFFF AND PUSH4 0x74D0A676 PUSH1 0x3 SLOAD DUP4 PUSH1 0x40 MLOAD DUP4 PUSH4 0xFFFFFFFF AND PUSH1 0xE0 SHL DUP2 MSTORE PUSH1 0x4 ADD PUSH2 0xC82 SWAP3 SWAP2 SWAP1 PUSH2 0x1427 JUMP JUMPDEST PUSH1 0x0 PUSH1 0x40 MLOAD DUP1 DUP4 SUB DUP2 PUSH1 0x0 DUP8 DUP1 EXTCODESIZE ISZERO DUP1 ISZERO PUSH2 0xC9C JUMPI PUSH1 0x0 DUP1 REVERT JUMPDEST POP GAS CALL ISZERO DUP1 ISZERO PUSH2 0xCB0 JUMPI RETURNDATASIZE PUSH1 0x0 DUP1 RETURNDATACOPY RETURNDATASIZE PUSH1 0x0 REVERT JUMPDEST POP POP POP POP PUSH1 0x5 PUSH1 0x0 DUP2 SLOAD DUP1 SWAP3 SWAP2 SWAP1 PUSH2 0xCC7 SWAP1 PUSH2 0x15E9 JUMP JUMPDEST SWAP2 SWAP1 POP SSTORE POP POP JUMP JUMPDEST DUP3 PUSH20 0xFFFFFFFFFFFFFFFFFFFFFFFFFFFFFFFFFFFFFFFF AND PUSH4 0xA9059CBB DUP4 DUP4 PUSH1 0x40 MLOAD DUP4 PUSH4 0xFFFFFFFF AND PUSH1 0xE0 SHL DUP2 MSTORE PUSH1 0x4 ADD PUSH2 0xD0A SWAP3 SWAP2 SWAP1 PUSH2 0x12A8 JUMP JUMPDEST PUSH1 0x20 PUSH1 0x40 MLOAD DUP1 DUP4 SUB DUP2 PUSH1 0x0 DUP8 DUP1 EXTCODESIZE ISZERO DUP1 ISZERO PUSH2 0xD24 JUMPI PUSH1 0x0 DUP1 REVERT JUMPDEST POP GAS CALL ISZERO DUP1 ISZERO PUSH2 0xD38 JUMPI RETURNDATASIZE PUSH1 0x0 DUP1 RETURNDATACOPY RETURNDATASIZE PUSH1 0x0 REVERT JUMPDEST POP POP POP POP PUSH1 0x40 MLOAD RETURNDATASIZE PUSH1 0x1F NOT PUSH1 0x1F DUP3 ADD AND DUP3 ADD DUP1 PUSH1 0x40 MSTORE POP DUP2 ADD SWAP1 PUSH2 0xD5C SWAP2 SWAP1 PUSH2 0xF43 JUMP JUMPDEST PUSH2 0xD9B JUMPI PUSH1 0x40 MLOAD PUSH32 0x8C379A000000000000000000000000000000000000000000000000000000000 DUP2 MSTORE PUSH1 0x4 ADD PUSH2 0xD92 SWAP1 PUSH2 0x130C JUMP JUMPDEST PUSH1 0x40 MLOAD DUP1 SWAP2 SUB SWAP1 REVERT JUMPDEST POP POP POP JUMP JUMPDEST PUSH1 0x0 PUSH2 0xDB3 PUSH2 0xDAE DUP5 PUSH2 0x14FF JUMP JUMPDEST PUSH2 0x14CE JUMP JUMPDEST SWAP1 POP DUP1 DUP4 DUP3 MSTORE PUSH1 0x20 DUP3 ADD SWAP1 POP DUP3 DUP6 PUSH1 0x20 DUP7 MUL DUP3 ADD GT ISZERO PUSH2 0xDD2 JUMPI PUSH1 0x0 DUP1 REVERT JUMPDEST PUSH1 0x0 JUMPDEST DUP6 DUP2 LT ISZERO PUSH2 0xE02 JUMPI DUP2 PUSH2 0xDE8 DUP9 DUP3 PUSH2 0xE0C JUMP JUMPDEST DUP5 MSTORE PUSH1 0x20 DUP5 ADD SWAP4 POP PUSH1 0x20 DUP4 ADD SWAP3 POP POP PUSH1 0x1 DUP2 ADD SWAP1 POP PUSH2 0xDD5 JUMP JUMPDEST POP POP POP SWAP4 SWAP3 POP POP POP JUMP JUMPDEST PUSH1 0x0 DUP2 CALLDATALOAD SWAP1 POP PUSH2 0xE1B DUP2 PUSH2 0x16BF JUMP JUMPDEST SWAP3 SWAP2 POP POP JUMP JUMPDEST PUSH1 0x0 DUP3 PUSH1 0x1F DUP4 ADD SLT PUSH2 0xE32 JUMPI PUSH1 0x0 DUP1 REVERT JUMPDEST DUP2 CALLDATALOAD PUSH2 0xE42 DUP5 DUP3 PUSH1 0x20 DUP7 ADD PUSH2 0xDA0 JUMP JUMPDEST SWAP2 POP POP SWAP3 SWAP2 POP POP JUMP JUMPDEST PUSH1 0x0 DUP2 MLOAD SWAP1 POP PUSH2 0xE5A DUP2 PUSH2 0x16D6 JUMP JUMPDEST SWAP3 SWAP2 POP POP JUMP JUMPDEST PUSH1 0x0 DUP2 CALLDATALOAD SWAP1 POP PUSH2 0xE6F DUP2 PUSH2 0x16ED JUMP JUMPDEST SWAP3 SWAP2 POP POP JUMP JUMPDEST PUSH1 0x0 DUP2 MLOAD SWAP1 POP PUSH2 0xE84 DUP2 PUSH2 0x16ED JUMP JUMPDEST SWAP3 SWAP2 POP POP JUMP JUMPDEST PUSH1 0x0 PUSH1 0x20 DUP3 DUP5 SUB SLT ISZERO PUSH2 0xE9C JUMPI PUSH1 0x0 DUP1 REVERT JUMPDEST PUSH1 0x0 PUSH2 0xEAA DUP5 DUP3 DUP6 ADD PUSH2 0xE0C JUMP JUMPDEST SWAP2 POP POP SWAP3 SWAP2 POP POP JUMP JUMPDEST PUSH1 0x0 DUP1 PUSH1 0x0 PUSH1 0x60 DUP5 DUP7 SUB SLT ISZERO PUSH2 0xEC8 JUMPI PUSH1 0x0 DUP1 REVERT JUMPDEST PUSH1 0x0 PUSH2 0xED6 DUP7 DUP3 DUP8 ADD PUSH2 0xE0C JUMP JUMPDEST SWAP4 POP POP PUSH1 0x20 PUSH2 0xEE7 DUP7 DUP3 DUP8 ADD PUSH2 0xE0C JUMP JUMPDEST SWAP3 POP POP PUSH1 0x40 PUSH2 0xEF8 DUP7 DUP3 DUP8 ADD PUSH2 0xE60 JUMP JUMPDEST SWAP2 POP POP SWAP3 POP SWAP3 POP SWAP3 JUMP JUMPDEST PUSH1 0x0 PUSH1 0x20 DUP3 DUP5 SUB SLT ISZERO PUSH2 0xF14 JUMPI PUSH1 0x0 DUP1 REVERT JUMPDEST PUSH1 0x0 DUP3 ADD CALLDATALOAD PUSH8 0xFFFFFFFFFFFFFFFF DUP2 GT ISZERO PUSH2 0xF2E JUMPI PUSH1 0x0 DUP1 REVERT JUMPDEST PUSH2 0xF3A DUP5 DUP3 DUP6 ADD PUSH2 0xE21 JUMP JUMPDEST SWAP2 POP POP SWAP3 SWAP2 POP POP JUMP JUMPDEST PUSH1 0x0 PUSH1 0x20 DUP3 DUP5 SUB SLT ISZERO PUSH2 0xF55 JUMPI PUSH1 0x0 DUP1 REVERT JUMPDEST PUSH1 0x0 PUSH2 0xF63 DUP5 DUP3 DUP6 ADD PUSH2 0xE4B JUMP JUMPDEST SWAP2 POP POP SWAP3 SWAP2 POP POP JUMP JUMPDEST PUSH1 0x0 PUSH1 0x20 DUP3 DUP5 SUB SLT ISZERO PUSH2 0xF7E JUMPI PUSH1 0x0 DUP1 REVERT JUMPDEST PUSH1 0x0 PUSH2 0xF8C DUP5 DUP3 DUP6 ADD PUSH2 0xE60 JUMP JUMPDEST SWAP2 POP POP SWAP3 SWAP2 POP POP JUMP JUMPDEST PUSH1 0x0 PUSH1 0x20 DUP3 DUP5 SUB SLT ISZERO PUSH2 0xFA7 JUMPI PUSH1 0x0 DUP1 REVERT JUMPDEST PUSH1 0x0 PUSH2 0xFB5 DUP5 DUP3 DUP6 ADD PUSH2 0xE75 JUMP JUMPDEST SWAP2 POP POP SWAP3 SWAP2 POP POP JUMP JUMPDEST PUSH1 0x0 DUP1 PUSH1 0x40 DUP4 DUP6 SUB SLT ISZERO PUSH2 0xFD1 JUMPI PUSH1 0x0 DUP1 REVERT JUMPDEST PUSH1 0x0 PUSH2 0xFDF DUP6 DUP3 DUP7 ADD PUSH2 0xE60 JUMP JUMPDEST SWAP3 POP POP PUSH1 0x20 PUSH2 0xFF0 DUP6 DUP3 DUP7 ADD PUSH2 0xE60 JUMP JUMPDEST SWAP2 POP POP SWAP3 POP SWAP3 SWAP1 POP JUMP JUMPDEST PUSH2 0x1003 DUP2 PUSH2 0x15A1 JUMP JUMPDEST DUP3 MSTORE POP POP JUMP JUMPDEST PUSH2 0x1012 DUP2 PUSH2 0x15B3 JUMP JUMPDEST DUP3 MSTORE POP POP JUMP JUMPDEST PUSH1 0x0 PUSH2 0x1025 PUSH1 0x12 DUP4 PUSH2 0x152B JUMP JUMPDEST SWAP2 POP PUSH32 0x4F6E6C79206D656D626572206D6574686F640000000000000000000000000000 PUSH1 0x0 DUP4 ADD MSTORE PUSH1 0x20 DUP3 ADD SWAP1 POP SWAP2 SWAP1 POP JUMP JUMPDEST PUSH1 0x0 PUSH2 0x1065 PUSH1 0xF DUP4 PUSH2 0x152B JUMP JUMPDEST SWAP2 POP PUSH32 0x5472616E73666572206661696C65640000000000000000000000000000000000 PUSH1 0x0 DUP4 ADD MSTORE PUSH1 0x20 DUP3 ADD SWAP1 POP SWAP2 SWAP1 POP JUMP JUMPDEST PUSH1 0x0 PUSH2 0x10A5 PUSH1 0x2C DUP4 PUSH2 0x152B JUMP JUMPDEST SWAP2 POP PUSH32 0x55736572207761736E27742061206D656D626572206174207468652074696D65 PUSH1 0x0 DUP4 ADD MSTORE PUSH32 0x206F66206F72646572696E670000000000000000000000000000000000000000 PUSH1 0x20 DUP4 ADD MSTORE PUSH1 0x40 DUP3 ADD SWAP1 POP SWAP2 SWAP1 POP JUMP JUMPDEST PUSH1 0x0 PUSH2 0x110B PUSH1 0x10 DUP4 PUSH2 0x152B JUMP JUMPDEST SWAP2 POP PUSH32 0x416C726561647920657865637574656400000000000000000000000000000000 PUSH1 0x0 DUP4 ADD MSTORE PUSH1 0x20 DUP3 ADD SWAP1 POP SWAP2 SWAP1 POP JUMP JUMPDEST PUSH1 0x0 PUSH2 0x114B PUSH1 0x14 DUP4 PUSH2 0x152B JUMP JUMPDEST SWAP2 POP PUSH32 0x4E6F7420612076616C6964206465636973696F6E000000000000000000000000 PUSH1 0x0 DUP4 ADD MSTORE PUSH1 0x20 DUP3 ADD SWAP1 POP SWAP2 SWAP1 POP JUMP JUMPDEST PUSH1 0x0 PUSH2 0x118B PUSH1 0x17 DUP4 PUSH2 0x152B JUMP JUMPDEST SWAP2 POP PUSH32 0x416C7265616479206D6164652061206465636973696F6E000000000000000000 PUSH1 0x0 DUP4 ADD MSTORE PUSH1 0x20 DUP3 ADD SWAP1 POP SWAP2 SWAP1 POP JUMP JUMPDEST PUSH1 0x0 PUSH2 0x11CB PUSH1 0x11 DUP4 PUSH2 0x152B JUMP JUMPDEST SWAP2 POP PUSH32 0x4F6E6C79206F776E6572206D6574686F64000000000000000000000000000000 PUSH1 0x0 DUP4 ADD MSTORE PUSH1 0x20 DUP3 ADD SWAP1 POP SWAP2 SWAP1 POP JUMP JUMPDEST PUSH1 0x0 PUSH2 0x120B PUSH1 0x10 DUP4 PUSH2 0x152B JUMP JUMPDEST SWAP2 POP PUSH32 0x416C72656164792061206D656D62657200000000000000000000000000000000 PUSH1 0x0 DUP4 ADD MSTORE PUSH1 0x20 DUP3 ADD SWAP1 POP SWAP2 SWAP1 POP JUMP JUMPDEST PUSH1 0x0 PUSH2 0x124B PUSH1 0x1F DUP4 PUSH2 0x152B JUMP JUMPDEST SWAP2 POP PUSH32 0x5265656E7472616E637947756172643A207265656E7472616E742063616C6C00 PUSH1 0x0 DUP4 ADD MSTORE PUSH1 0x20 DUP3 ADD SWAP1 POP SWAP2 SWAP1 POP JUMP JUMPDEST PUSH2 0x1287 DUP2 PUSH2 0x15DF JUMP JUMPDEST DUP3 MSTORE POP POP JUMP JUMPDEST PUSH1 0x0 PUSH1 0x20 DUP3 ADD SWAP1 POP PUSH2 0x12A2 PUSH1 0x0 DUP4 ADD DUP5 PUSH2 0xFFA JUMP JUMPDEST SWAP3 SWAP2 POP POP JUMP JUMPDEST PUSH1 0x0 PUSH1 0x40 DUP3 ADD SWAP1 POP PUSH2 0x12BD PUSH1 0x0 DUP4 ADD DUP6 PUSH2 0xFFA JUMP JUMPDEST PUSH2 0x12CA PUSH1 0x20 DUP4 ADD DUP5 PUSH2 0x127E JUMP JUMPDEST SWAP4 SWAP3 POP POP POP JUMP JUMPDEST PUSH1 0x0 PUSH1 0x20 DUP3 ADD SWAP1 POP PUSH2 0x12E6 PUSH1 0x0 DUP4 ADD DUP5 PUSH2 0x1009 JUMP JUMPDEST SWAP3 SWAP2 POP POP JUMP JUMPDEST PUSH1 0x0 PUSH1 0x20 DUP3 ADD SWAP1 POP DUP2 DUP2 SUB PUSH1 0x0 DUP4 ADD MSTORE PUSH2 0x1305 DUP2 PUSH2 0x1018 JUMP JUMPDEST SWAP1 POP SWAP2 SWAP1 POP JUMP JUMPDEST PUSH1 0x0 PUSH1 0x20 DUP3 ADD SWAP1 POP DUP2 DUP2 SUB PUSH1 0x0 DUP4 ADD MSTORE PUSH2 0x1325 DUP2 PUSH2 0x1058 JUMP JUMPDEST SWAP1 POP SWAP2 SWAP1 POP JUMP JUMPDEST PUSH1 0x0 PUSH1 0x20 DUP3 ADD SWAP1 POP DUP2 DUP2 SUB PUSH1 0x0 DUP4 ADD MSTORE PUSH2 0x1345 DUP2 PUSH2 0x1098 JUMP JUMPDEST SWAP1 POP SWAP2 SWAP1 POP JUMP JUMPDEST PUSH1 0x0 PUSH1 0x20 DUP3 ADD SWAP1 POP DUP2 DUP2 SUB PUSH1 0x0 DUP4 ADD MSTORE PUSH2 0x1365 DUP2 PUSH2 0x10FE JUMP JUMPDEST SWAP1 POP SWAP2 SWAP1 POP JUMP JUMPDEST PUSH1 0x0 PUSH1 0x20 DUP3 ADD SWAP1 POP DUP2 DUP2 SUB PUSH1 0x0 DUP4 ADD MSTORE PUSH2 0x1385 DUP2 PUSH2 0x113E JUMP JUMPDEST SWAP1 POP SWAP2 SWAP1 POP JUMP JUMPDEST PUSH1 0x0 PUSH1 0x20 DUP3 ADD SWAP1 POP DUP2 DUP2 SUB PUSH1 0x0 DUP4 ADD MSTORE PUSH2 0x13A5 DUP2 PUSH2 0x117E JUMP JUMPDEST SWAP1 POP SWAP2 SWAP1 POP JUMP JUMPDEST PUSH1 0x0 PUSH1 0x20 DUP3 ADD SWAP1 POP DUP2 DUP2 SUB PUSH1 0x0 DUP4 ADD MSTORE PUSH2 0x13C5 DUP2 PUSH2 0x11BE JUMP JUMPDEST SWAP1 POP SWAP2 SWAP1 POP JUMP JUMPDEST PUSH1 0x0 PUSH1 0x20 DUP3 ADD SWAP1 POP DUP2 DUP2 SUB PUSH1 0x0 DUP4 ADD MSTORE PUSH2 0x13E5 DUP2 PUSH2 0x11FE JUMP JUMPDEST SWAP1 POP SWAP2 SWAP1 POP JUMP JUMPDEST PUSH1 0x0 PUSH1 0x20 DUP3 ADD SWAP1 POP DUP2 DUP2 SUB PUSH1 0x0 DUP4 ADD MSTORE PUSH2 0x1405 DUP2 PUSH2 0x123E JUMP JUMPDEST SWAP1 POP SWAP2 SWAP1 POP JUMP JUMPDEST PUSH1 0x0 PUSH1 0x20 DUP3 ADD SWAP1 POP PUSH2 0x1421 PUSH1 0x0 DUP4 ADD DUP5 PUSH2 0x127E JUMP JUMPDEST SWAP3 SWAP2 POP POP JUMP JUMPDEST PUSH1 0x0 PUSH1 0x40 DUP3 ADD SWAP1 POP PUSH2 0x143C PUSH1 0x0 DUP4 ADD DUP6 PUSH2 0x127E JUMP JUMPDEST PUSH2 0x1449 PUSH1 0x20 DUP4 ADD DUP5 PUSH2 0xFFA JUMP JUMPDEST SWAP4 SWAP3 POP POP POP JUMP JUMPDEST PUSH1 0x0 PUSH2 0x100 DUP3 ADD SWAP1 POP PUSH2 0x1466 PUSH1 0x0 DUP4 ADD DUP12 PUSH2 0x127E JUMP JUMPDEST PUSH2 0x1473 PUSH1 0x20 DUP4 ADD DUP11 PUSH2 0xFFA JUMP JUMPDEST PUSH2 0x1480 PUSH1 0x40 DUP4 ADD DUP10 PUSH2 0xFFA JUMP JUMPDEST PUSH2 0x148D PUSH1 0x60 DUP4 ADD DUP9 PUSH2 0x127E JUMP JUMPDEST PUSH2 0x149A PUSH1 0x80 DUP4 ADD DUP8 PUSH2 0x127E JUMP JUMPDEST PUSH2 0x14A7 PUSH1 0xA0 DUP4 ADD DUP7 PUSH2 0x127E JUMP JUMPDEST PUSH2 0x14B4 PUSH1 0xC0 DUP4 ADD DUP6 PUSH2 0x127E JUMP JUMPDEST PUSH2 0x14C1 PUSH1 0xE0 DUP4 ADD DUP5 PUSH2 0x127E JUMP JUMPDEST SWAP10 SWAP9 POP POP POP POP POP POP POP POP POP JUMP JUMPDEST PUSH1 0x0 PUSH1 0x40 MLOAD SWAP1 POP DUP2 DUP2 ADD DUP2 DUP2 LT PUSH8 0xFFFFFFFFFFFFFFFF DUP3 GT OR ISZERO PUSH2 0x14F5 JUMPI PUSH2 0x14F4 PUSH2 0x1690 JUMP JUMPDEST JUMPDEST DUP1 PUSH1 0x40 MSTORE POP SWAP2 SWAP1 POP JUMP JUMPDEST PUSH1 0x0 PUSH8 0xFFFFFFFFFFFFFFFF DUP3 GT ISZERO PUSH2 0x151A JUMPI PUSH2 0x1519 PUSH2 0x1690 JUMP JUMPDEST JUMPDEST PUSH1 0x20 DUP3 MUL SWAP1 POP PUSH1 0x20 DUP2 ADD SWAP1 POP SWAP2 SWAP1 POP JUMP JUMPDEST PUSH1 0x0 DUP3 DUP3 MSTORE PUSH1 0x20 DUP3 ADD SWAP1 POP SWAP3 SWAP2 POP POP JUMP JUMPDEST PUSH1 0x0 PUSH2 0x1547 DUP3 PUSH2 0x15DF JUMP JUMPDEST SWAP2 POP PUSH2 0x1552 DUP4 PUSH2 0x15DF JUMP JUMPDEST SWAP3 POP DUP3 PUSH2 0x1562 JUMPI PUSH2 0x1561 PUSH2 0x1661 JUMP JUMPDEST JUMPDEST DUP3 DUP3 DIV SWAP1 POP SWAP3 SWAP2 POP POP JUMP JUMPDEST PUSH1 0x0 PUSH2 0x1578 DUP3 PUSH2 0x15DF JUMP JUMPDEST SWAP2 POP PUSH2 0x1583 DUP4 PUSH2 0x15DF JUMP JUMPDEST SWAP3 POP DUP3 DUP3 LT ISZERO PUSH2 0x1596 JUMPI PUSH2 0x1595 PUSH2 0x1632 JUMP JUMPDEST JUMPDEST DUP3 DUP3 SUB SWAP1 POP SWAP3 SWAP2 POP POP JUMP JUMPDEST PUSH1 0x0 PUSH2 0x15AC DUP3 PUSH2 0x15BF JUMP JUMPDEST SWAP1 POP SWAP2 SWAP1 POP JUMP JUMPDEST PUSH1 0x0 DUP2 ISZERO ISZERO SWAP1 POP SWAP2 SWAP1 POP JUMP JUMPDEST PUSH1 0x0 PUSH20 0xFFFFFFFFFFFFFFFFFFFFFFFFFFFFFFFFFFFFFFFF DUP3 AND SWAP1 POP SWAP2 SWAP1 POP JUMP JUMPDEST PUSH1 0x0 DUP2 SWAP1 POP SWAP2 SWAP1 POP JUMP JUMPDEST PUSH1 0x0 PUSH2 0x15F4 DUP3 PUSH2 0x15DF JUMP JUMPDEST SWAP2 POP PUSH32 0xFFFFFFFFFFFFFFFFFFFFFFFFFFFFFFFFFFFFFFFFFFFFFFFFFFFFFFFFFFFFFFFF DUP3 EQ ISZERO PUSH2 0x1627 JUMPI PUSH2 0x1626 PUSH2 0x1632 JUMP JUMPDEST JUMPDEST PUSH1 0x1 DUP3 ADD SWAP1 POP SWAP2 SWAP1 POP JUMP JUMPDEST PUSH32 0x4E487B7100000000000000000000000000000000000000000000000000000000 PUSH1 0x0 MSTORE PUSH1 0x11 PUSH1 0x4 MSTORE PUSH1 0x24 PUSH1 0x0 REVERT JUMPDEST PUSH32 0x4E487B7100000000000000000000000000000000000000000000000000000000 PUSH1 0x0 MSTORE PUSH1 0x12 PUSH1 0x4 MSTORE PUSH1 0x24 PUSH1 0x0 REVERT JUMPDEST PUSH32 0x4E487B7100000000000000000000000000000000000000000000000000000000 PUSH1 0x0 MSTORE PUSH1 0x41 PUSH1 0x4 MSTORE PUSH1 0x24 PUSH1 0x0 REVERT JUMPDEST PUSH2 0x16C8 DUP2 PUSH2 0x15A1 JUMP JUMPDEST DUP2 EQ PUSH2 0x16D3 JUMPI PUSH1 0x0 DUP1 REVERT JUMPDEST POP JUMP JUMPDEST PUSH2 0x16DF DUP2 PUSH2 0x15B3 JUMP JUMPDEST DUP2 EQ PUSH2 0x16EA JUMPI PUSH1 0x0 DUP1 REVERT JUMPDEST POP JUMP JUMPDEST PUSH2 0x16F6 DUP2 PUSH2 0x15DF JUMP JUMPDEST DUP2 EQ PUSH2 0x1701 JUMPI PUSH1 0x0 DUP1 REVERT JUMPDEST POP JUMP INVALID LOG2 PUSH5 0x6970667358 0x22 SLT KECCAK256 PUSH23 0xAA85D93C01E985BE25781D5D032FD16072BE5C5FDF0279 MUL PUSH5 0xC9B60E5DDA ADDRESS PUSH5 0x736F6C6343 STOP ADDMOD STOP STOP CALLER LOG2 PUSH5 0x6970667358 0x22 SLT KECCAK256 0xCC 0x26 SMOD GT PUSH23 0xA46107F8C74735710B4FCE2BFBE09D80F7BE2C4BA0D721 NOT GASPRICE 0x4E 0xEC PUSH5 0x736F6C6343 STOP ADDMOD STOP STOP CALLER "
		},
		"gasEstimates": {
			"creation": {
				"codeDepositCost": "1811600",
				"executionCost": "infinite",
				"totalCost": "infinite"
			},
			"external": {
				"addMember(uint256,address)": "42589",
				"createWallet()": "infinite",
				"memberToWalletIds(address,uint256)": "infinite",
				"owner()": "1255",
				"ownerOf(uint256)": "1606",
				"price()": "1217",
				"setPrice(uint256)": "21353",
				"walletIdCounter()": "1151",
				"walletIdToWalletAddress(uint256)": "1562"
			}
		},
		"methodIdentifiers": {
			"addMember(uint256,address)": "74d0a676",
			"createWallet()": "11ebbf24",
			"memberToWalletIds(address,uint256)": "3e5f5c86",
			"owner()": "8da5cb5b",
			"ownerOf(uint256)": "6352211e",
			"price()": "a035b1fe",
			"setPrice(uint256)": "91b7f5ed",
			"walletIdCounter()": "7a1a6231",
			"walletIdToWalletAddress(uint256)": "28403760"
		}
	},
	"abi": [
		{
			"inputs": [
				{
					"internalType": "uint256",
					"name": "_price",
					"type": "uint256"
				}
			],
			"stateMutability": "nonpayable",
			"type": "constructor"
		},
		{
			"inputs": [
				{
					"internalType": "uint256",
					"name": "walletId",
					"type": "uint256"
				},
				{
					"internalType": "address",
					"name": "member",
					"type": "address"
				}
			],
			"name": "addMember",
			"outputs": [],
			"stateMutability": "nonpayable",
			"type": "function"
		},
		{
			"inputs": [],
			"name": "createWallet",
			"outputs": [
				{
					"internalType": "uint256",
					"name": "walletId",
					"type": "uint256"
				},
				{
					"internalType": "address",
					"name": "newWalletAddress",
					"type": "address"
				}
			],
			"stateMutability": "payable",
			"type": "function"
		},
		{
			"inputs": [
				{
					"internalType": "address",
					"name": "",
					"type": "address"
				},
				{
					"internalType": "uint256",
					"name": "",
					"type": "uint256"
				}
			],
			"name": "memberToWalletIds",
			"outputs": [
				{
					"internalType": "uint256",
					"name": "",
					"type": "uint256"
				}
			],
			"stateMutability": "view",
			"type": "function"
		},
		{
			"inputs": [],
			"name": "owner",
			"outputs": [
				{
					"internalType": "address",
					"name": "",
					"type": "address"
				}
			],
			"stateMutability": "view",
			"type": "function"
		},
		{
			"inputs": [
				{
					"internalType": "uint256",
					"name": "",
					"type": "uint256"
				}
			],
			"name": "ownerOf",
			"outputs": [
				{
					"internalType": "address",
					"name": "",
					"type": "address"
				}
			],
			"stateMutability": "view",
			"type": "function"
		},
		{
			"inputs": [],
			"name": "price",
			"outputs": [
				{
					"internalType": "uint256",
					"name": "",
					"type": "uint256"
				}
			],
			"stateMutability": "view",
			"type": "function"
		},
		{
			"inputs": [
				{
					"internalType": "uint256",
					"name": "_price",
					"type": "uint256"
				}
			],
			"name": "setPrice",
			"outputs": [],
			"stateMutability": "nonpayable",
			"type": "function"
		},
		{
			"inputs": [],
			"name": "walletIdCounter",
			"outputs": [
				{
					"internalType": "uint256",
					"name": "",
					"type": "uint256"
				}
			],
			"stateMutability": "view",
			"type": "function"
		},
		{
			"inputs": [
				{
					"internalType": "uint256",
					"name": "",
					"type": "uint256"
				}
			],
			"name": "walletIdToWalletAddress",
			"outputs": [
				{
					"internalType": "address",
					"name": "",
					"type": "address"
				}
			],
			"stateMutability": "view",
			"type": "function"
		}
	]
}