{
  "contractName": "MultiSigFactory",
  "abi": [
    {
      "inputs": [
        {
          "internalType": "uint256",
          "name": "_price",
          "type": "uint256"
        }
      ],
      "stateMutability": "nonpayable",
      "type": "constructor"
    },
    {
      "anonymous": false,
      "inputs": [
        {
          "indexed": false,
          "internalType": "address",
          "name": "creator",
          "type": "address"
        },
        {
          "indexed": false,
          "internalType": "uint256",
          "name": "walletId",
          "type": "uint256"
        },
        {
          "indexed": false,
          "internalType": "address",
          "name": "newWalletAddress",
          "type": "address"
        }
      ],
      "name": "WalletCreated",
      "type": "event"
    },
    {
      "inputs": [
        {
          "internalType": "address",
          "name": "",
          "type": "address"
        }
      ],
      "name": "isWallet",
      "outputs": [
        {
          "internalType": "bool",
          "name": "",
          "type": "bool"
        }
      ],
      "stateMutability": "view",
      "type": "function"
    },
    {
      "inputs": [
        {
          "internalType": "address",
          "name": "",
          "type": "address"
        },
        {
          "internalType": "uint256",
          "name": "",
          "type": "uint256"
        }
      ],
      "name": "memberToWalletIds",
      "outputs": [
        {
          "internalType": "uint256",
          "name": "",
          "type": "uint256"
        }
      ],
      "stateMutability": "view",
      "type": "function"
    },
    {
      "inputs": [],
      "name": "owner",
      "outputs": [
        {
          "internalType": "address",
          "name": "",
          "type": "address"
        }
      ],
      "stateMutability": "view",
      "type": "function"
    },
    {
      "inputs": [
        {
          "internalType": "uint256",
          "name": "",
          "type": "uint256"
        }
      ],
      "name": "ownerOf",
      "outputs": [
        {
          "internalType": "address",
          "name": "",
          "type": "address"
        }
      ],
      "stateMutability": "view",
      "type": "function"
    },
    {
      "inputs": [],
      "name": "price",
      "outputs": [
        {
          "internalType": "uint256",
          "name": "",
          "type": "uint256"
        }
      ],
      "stateMutability": "view",
      "type": "function"
    },
    {
      "inputs": [],
      "name": "walletIdCounter",
      "outputs": [
        {
          "internalType": "uint256",
          "name": "",
          "type": "uint256"
        }
      ],
      "stateMutability": "view",
      "type": "function"
    },
    {
      "inputs": [
        {
          "internalType": "uint256",
          "name": "",
          "type": "uint256"
        }
      ],
      "name": "walletIdToWalletAddress",
      "outputs": [
        {
          "internalType": "address",
          "name": "",
          "type": "address"
        }
      ],
      "stateMutability": "view",
      "type": "function"
    },
    {
      "inputs": [],
      "name": "getWalletAddresses_msgSender",
      "outputs": [
        {
          "internalType": "uint256[]",
          "name": "",
          "type": "uint256[]"
        },
        {
          "internalType": "address[]",
          "name": "",
          "type": "address[]"
        }
      ],
      "stateMutability": "view",
      "type": "function"
    },
    {
      "inputs": [
        {
          "internalType": "uint256",
          "name": "_price",
          "type": "uint256"
        }
      ],
      "name": "setPrice",
      "outputs": [],
      "stateMutability": "nonpayable",
      "type": "function"
    },
    {
      "inputs": [
        {
          "internalType": "string",
          "name": "description",
          "type": "string"
        }
      ],
      "name": "createWallet",
      "outputs": [
        {
          "internalType": "uint256",
          "name": "walletId",
          "type": "uint256"
        },
        {
          "internalType": "address",
          "name": "newWalletAddress",
          "type": "address"
        }
      ],
      "stateMutability": "payable",
      "type": "function"
    },
    {
      "inputs": [
        {
          "internalType": "uint256",
          "name": "walletId",
          "type": "uint256"
        },
        {
          "internalType": "address",
          "name": "member",
          "type": "address"
        }
      ],
      "name": "addMember",
      "outputs": [],
      "stateMutability": "nonpayable",
      "type": "function"
    }
  ],
  "bytecode": "0x60806040523480156200001157600080fd5b50604051620036db380380620036db8339818101604052810190620000379190620000c5565b336000806101000a81548173ffffffffffffffffffffffffffffffffffffffff021916908373ffffffffffffffffffffffffffffffffffffffff1602179055508060028190555050620000f7565b600080fd5b6000819050919050565b6200009f816200008a565b8114620000ab57600080fd5b50565b600081519050620000bf8162000094565b92915050565b600060208284031215620000de57620000dd62000085565b5b6000620000ee84828501620000ae565b91505092915050565b6135d480620001076000396000f3fe608060405260043610620000aa5760003560e01c80637a1a6231116200006d5780637a1a623114620001e05780638da5cb5b146200021057806391b7f5ed1462000240578063a035b1fe146200026e578063ce5570ec146200029e578063f7cc628214620002e257620000aa565b80632840376014620000af5780633e5f5c8614620000f35780636352211e14620001375780637404f1d2146200017b57806374d0a67614620001b2575b600080fd5b348015620000bc57600080fd5b50620000db6004803603810190620000d5919062000a2d565b62000313565b604051620000ea919062000aa4565b60405180910390f35b3480156200010057600080fd5b506200011f600480360381019062000119919062000af2565b62000346565b6040516200012e919062000b4a565b60405180910390f35b3480156200014457600080fd5b506200016360048036038101906200015d919062000a2d565b62000378565b60405162000172919062000aa4565b60405180910390f35b62000199600480360381019062000193919062000cc9565b620003ab565b604051620001a992919062000d1a565b60405180910390f35b348015620001bf57600080fd5b50620001de6004803603810190620001d8919062000d47565b62000601565b005b348015620001ed57600080fd5b50620001f86200070f565b60405162000207919062000b4a565b60405180910390f35b3480156200021d57600080fd5b506200022862000715565b60405162000237919062000aa4565b60405180910390f35b3480156200024d57600080fd5b506200026c600480360381019062000266919062000a2d565b62000739565b005b3480156200027b57600080fd5b5062000286620007d4565b60405162000295919062000b4a565b60405180910390f35b348015620002ab57600080fd5b50620002ca6004803603810190620002c4919062000d8e565b620007da565b604051620002d9919062000ddd565b60405180910390f35b348015620002ef57600080fd5b50620002fa620007fa565b6040516200030a92919062000f96565b60405180910390f35b60036020528060005260406000206000915054906101000a900473ffffffffffffffffffffffffffffffffffffffff1681565b600560205281600052604060002081815481106200036357600080fd5b90600052602060002001600091509150505481565b60046020528060005260406000206000915054906101000a900473ffffffffffffffffffffffffffffffffffffffff1681565b6000806002543414620003f5576040517f08c379a0000000000000000000000000000000000000000000000000000000008152600401620003ec9062001032565b60405180910390fd5b60003330600154866040516200040b90620009d0565b6200041a9493929190620010d6565b604051809103906000f08015801562000437573d6000803e3d6000fd5b5090508091506001549250816003600085815260200190815260200160002060006101000a81548173ffffffffffffffffffffffffffffffffffffffff021916908373ffffffffffffffffffffffffffffffffffffffff1602179055506001600660008473ffffffffffffffffffffffffffffffffffffffff1673ffffffffffffffffffffffffffffffffffffffff16815260200190815260200160002060006101000a81548160ff021916908315150217905550336004600085815260200190815260200160002060006101000a81548173ffffffffffffffffffffffffffffffffffffffff021916908373ffffffffffffffffffffffffffffffffffffffff160217905550600560003373ffffffffffffffffffffffffffffffffffffffff1673ffffffffffffffffffffffffffffffffffffffff16815260200190815260200160002083908060018154018082558091505060019003906000526020600020016000909190919091505560016000815480929190620005b99062001159565b91905055507f4a3920ce64f1f4f94c7d183cc35de5df87c9b0b30de1c886f490b495cb8791c8338484604051620005f393929190620011a6565b60405180910390a150915091565b3373ffffffffffffffffffffffffffffffffffffffff166003600084815260200190815260200160002060009054906101000a900473ffffffffffffffffffffffffffffffffffffffff1673ffffffffffffffffffffffffffffffffffffffff1614620006a5576040517f08c379a00000000000000000000000000000000000000000000000000000000081526004016200069c9062001233565b60405180910390fd5b600560008273ffffffffffffffffffffffffffffffffffffffff1673ffffffffffffffffffffffffffffffffffffffff1681526020019081526020016000208290806001815401808255809150506001900390600052602060002001600090919091909150555050565b60015481565b60008054906101000a900473ffffffffffffffffffffffffffffffffffffffff1681565b3373ffffffffffffffffffffffffffffffffffffffff1660008054906101000a900473ffffffffffffffffffffffffffffffffffffffff1673ffffffffffffffffffffffffffffffffffffffff1614620007ca576040517f08c379a0000000000000000000000000000000000000000000000000000000008152600401620007c190620012a5565b60405180910390fd5b8060028190555050565b60025481565b60066020528060005260406000206000915054906101000a900460ff1681565b606080620008083362000810565b915091509091565b6060806000600560008573ffffffffffffffffffffffffffffffffffffffff1673ffffffffffffffffffffffffffffffffffffffff168152602001908152602001600020805480602002602001604051908101604052809291908181526020018280548015620008a057602002820191906000526020600020905b8154815260200190600101908083116200088b575b5050505050905060008151905060008167ffffffffffffffff811115620008cc57620008cb62000b82565b5b604051908082528060200260200182016040528015620008fb5781602001602082028036833780820191505090505b50905060005b82811015620009c15760036000858381518110620009245762000923620012c7565b5b6020026020010151815260200190815260200160002060009054906101000a900473ffffffffffffffffffffffffffffffffffffffff16828281518110620009715762000970620012c7565b5b602002602001019073ffffffffffffffffffffffffffffffffffffffff16908173ffffffffffffffffffffffffffffffffffffffff16815250508080620009b89062001159565b91505062000901565b50828194509450505050915091565b6122a880620012f783390190565b6000604051905090565b600080fd5b600080fd5b6000819050919050565b62000a0781620009f2565b811462000a1357600080fd5b50565b60008135905062000a2781620009fc565b92915050565b60006020828403121562000a465762000a45620009e8565b5b600062000a568482850162000a16565b91505092915050565b600073ffffffffffffffffffffffffffffffffffffffff82169050919050565b600062000a8c8262000a5f565b9050919050565b62000a9e8162000a7f565b82525050565b600060208201905062000abb600083018462000a93565b92915050565b62000acc8162000a7f565b811462000ad857600080fd5b50565b60008135905062000aec8162000ac1565b92915050565b6000806040838503121562000b0c5762000b0b620009e8565b5b600062000b1c8582860162000adb565b925050602062000b2f8582860162000a16565b9150509250929050565b62000b4481620009f2565b82525050565b600060208201905062000b61600083018462000b39565b92915050565b600080fd5b600080fd5b6000601f19601f8301169050919050565b7f4e487b7100000000000000000000000000000000000000000000000000000000600052604160045260246000fd5b62000bbc8262000b71565b810181811067ffffffffffffffff8211171562000bde5762000bdd62000b82565b5b80604052505050565b600062000bf3620009de565b905062000c01828262000bb1565b919050565b600067ffffffffffffffff82111562000c245762000c2362000b82565b5b62000c2f8262000b71565b9050602081019050919050565b82818337600083830152505050565b600062000c6262000c5c8462000c06565b62000be7565b90508281526020810184848401111562000c815762000c8062000b6c565b5b62000c8e84828562000c3c565b509392505050565b600082601f83011262000cae5762000cad62000b67565b5b813562000cc084826020860162000c4b565b91505092915050565b60006020828403121562000ce25762000ce1620009e8565b5b600082013567ffffffffffffffff81111562000d035762000d02620009ed565b5b62000d118482850162000c96565b91505092915050565b600060408201905062000d31600083018562000b39565b62000d40602083018462000a93565b9392505050565b6000806040838503121562000d615762000d60620009e8565b5b600062000d718582860162000a16565b925050602062000d848582860162000adb565b9150509250929050565b60006020828403121562000da75762000da6620009e8565b5b600062000db78482850162000adb565b91505092915050565b60008115159050919050565b62000dd78162000dc0565b82525050565b600060208201905062000df4600083018462000dcc565b92915050565b600081519050919050565b600082825260208201905092915050565b6000819050602082019050919050565b62000e3181620009f2565b82525050565b600062000e45838362000e26565b60208301905092915050565b6000602082019050919050565b600062000e6b8262000dfa565b62000e77818562000e05565b935062000e848362000e16565b8060005b8381101562000ebb57815162000e9f888262000e37565b975062000eac8362000e51565b92505060018101905062000e88565b5085935050505092915050565b600081519050919050565b600082825260208201905092915050565b6000819050602082019050919050565b62000eff8162000a7f565b82525050565b600062000f13838362000ef4565b60208301905092915050565b6000602082019050919050565b600062000f398262000ec8565b62000f45818562000ed3565b935062000f528362000ee4565b8060005b8381101562000f8957815162000f6d888262000f05565b975062000f7a8362000f1f565b92505060018101905062000f56565b5085935050505092915050565b6000604082019050818103600083015262000fb2818562000e5e565b9050818103602083015262000fc8818462000f2c565b90509392505050565b600082825260208201905092915050565b7f496e73756666696369656e74207061796d656e7420616d6f756e740000000000600082015250565b60006200101a601b8362000fd1565b9150620010278262000fe2565b602082019050919050565b600060208201905081810360008301526200104d816200100b565b9050919050565b600081519050919050565b60005b838110156200107f57808201518184015260208101905062001062565b838111156200108f576000848401525b50505050565b6000620010a28262001054565b620010ae818562000fd1565b9350620010c08185602086016200105f565b620010cb8162000b71565b840191505092915050565b6000608082019050620010ed600083018762000a93565b620010fc602083018662000a93565b6200110b604083018562000b39565b81810360608301526200111f818462001095565b905095945050505050565b7f4e487b7100000000000000000000000000000000000000000000000000000000600052601160045260246000fd5b60006200116682620009f2565b91507fffffffffffffffffffffffffffffffffffffffffffffffffffffffffffffffff82036200119b576200119a6200112a565b5b600182019050919050565b6000606082019050620011bd600083018662000a93565b620011cc602083018562000b39565b620011db604083018462000a93565b949350505050565b7f4f6e6c792077616c6c6574206d6574686f640000000000000000000000000000600082015250565b60006200121b60128362000fd1565b91506200122882620011e3565b602082019050919050565b600060208201905081810360008301526200124e816200120c565b9050919050565b7f4f6e6c79206f776e6572206d6574686f64000000000000000000000000000000600082015250565b60006200128d60118362000fd1565b91506200129a8262001255565b602082019050919050565b60006020820190508181036000830152620012c0816200127e565b9050919050565b7f4e487b7100000000000000000000000000000000000000000000000000000000600052603260045260246000fdfe60806040523480156200001157600080fd5b50604051620022a8380380620022a8833981810160405281019062000037919062000590565b60016000819055508273ffffffffffffffffffffffffffffffffffffffff163373ffffffffffffffffffffffffffffffffffffffff16146200007857600080fd5b83600160006101000a81548173ffffffffffffffffffffffffffffffffffffffff021916908373ffffffffffffffffffffffffffffffffffffffff16021790555082600560006101000a81548173ffffffffffffffffffffffffffffffffffffffff021916908373ffffffffffffffffffffffffffffffffffffffff16021790555081600381905550806004908051906020019062000119929190620002a3565b504260096000600160009054906101000a900473ffffffffffffffffffffffffffffffffffffffff1673ffffffffffffffffffffffffffffffffffffffff1673ffffffffffffffffffffffffffffffffffffffff16815260200190815260200160002081905550600160086000600160009054906101000a900473ffffffffffffffffffffffffffffffffffffffff1673ffffffffffffffffffffffffffffffffffffffff1673ffffffffffffffffffffffffffffffffffffffff16815260200190815260200160002060006101000a81548160ff0219169083151502179055506007600160009054906101000a900473ffffffffffffffffffffffffffffffffffffffff169080600181540180825580915050600190039060005260206000200160009091909190916101000a81548173ffffffffffffffffffffffffffffffffffffffff021916908373ffffffffffffffffffffffffffffffffffffffff16021790555060066000815480929190620002949062000650565b91905055505050505062000701565b828054620002b190620006cc565b90600052602060002090601f016020900481019282620002d5576000855562000321565b82601f10620002f057805160ff191683800117855562000321565b8280016001018555821562000321579182015b828111156200032057825182559160200191906001019062000303565b5b50905062000330919062000334565b5090565b5b808211156200034f57600081600090555060010162000335565b5090565b6000604051905090565b600080fd5b600080fd5b600073ffffffffffffffffffffffffffffffffffffffff82169050919050565b6000620003948262000367565b9050919050565b620003a68162000387565b8114620003b257600080fd5b50565b600081519050620003c6816200039b565b92915050565b6000819050919050565b620003e181620003cc565b8114620003ed57600080fd5b50565b6000815190506200040181620003d6565b92915050565b600080fd5b600080fd5b6000601f19601f8301169050919050565b7f4e487b7100000000000000000000000000000000000000000000000000000000600052604160045260246000fd5b6200045c8262000411565b810181811067ffffffffffffffff821117156200047e576200047d62000422565b5b80604052505050565b60006200049362000353565b9050620004a1828262000451565b919050565b600067ffffffffffffffff821115620004c457620004c362000422565b5b620004cf8262000411565b9050602081019050919050565b60005b83811015620004fc578082015181840152602081019050620004df565b838111156200050c576000848401525b50505050565b6000620005296200052384620004a6565b62000487565b9050828152602081018484840111156200054857620005476200040c565b5b62000555848285620004dc565b509392505050565b600082601f83011262000575576200057462000407565b5b81516200058784826020860162000512565b91505092915050565b60008060008060808587031215620005ad57620005ac6200035d565b5b6000620005bd87828801620003b5565b9450506020620005d087828801620003b5565b9350506040620005e387828801620003f0565b925050606085015167ffffffffffffffff81111562000607576200060662000362565b5b62000615878288016200055d565b91505092959194509250565b7f4e487b7100000000000000000000000000000000000000000000000000000000600052601160045260246000fd5b60006200065d82620003cc565b91507fffffffffffffffffffffffffffffffffffffffffffffffffffffffffffffffff820362000692576200069162000621565b5b600182019050919050565b7f4e487b7100000000000000000000000000000000000000000000000000000000600052602260045260246000fd5b60006002820490506001821680620006e557607f821691505b602082108103620006fb57620006fa6200069d565b5b50919050565b611b9780620007116000396000f3fe6080604052600436106100c65760003560e01c80637284e4161161007f578063ae09316511610059578063ae093165146102b2578063b789bf52146102ef578063c162ba2f1461031a578063f851a44014610345576100cd565b80637284e4161461020d5780639a5d6a4a14610238578063a230c52414610275576100cd565b8063039935ff146100d257806311aee380146101165780633ee79599146101415780635daf08ca1461016a5780636f4d469b146101a757806370a08231146101d0576100cd565b366100cd57005b600080fd5b3480156100de57600080fd5b506100f960048036038101906100f49190611020565b610370565b60405161010d98979695949392919061109d565b60405180910390f35b34801561012257600080fd5b5061012b6103f8565b604051610138919061111b565b60405180910390f35b34801561014d57600080fd5b5061016860048036038101906101639190611136565b6103fe565b005b34801561017657600080fd5b50610191600480360381019061018c9190611020565b610742565b60405161019e9190611176565b60405180910390f35b3480156101b357600080fd5b506101ce60048036038101906101c99190611316565b610781565b005b3480156101dc57600080fd5b506101f760048036038101906101f2919061135f565b61085d565b604051610204919061111b565b60405180910390f35b34801561021957600080fd5b506102226108e0565b60405161022f9190611414565b60405180910390f35b34801561024457600080fd5b5061025f600480360381019061025a9190611436565b61096e565b60405161026c919061111b565b60405180910390f35b34801561028157600080fd5b5061029c6004803603810190610297919061135f565b610b84565b6040516102a991906114a4565b60405180910390f35b3480156102be57600080fd5b506102d960048036038101906102d4919061135f565b610ba4565b6040516102e6919061111b565b60405180910390f35b3480156102fb57600080fd5b50610304610bbc565b604051610311919061111b565b60405180910390f35b34801561032657600080fd5b5061032f610bc2565b60405161033c919061111b565b60405180910390f35b34801561035157600080fd5b5061035a610bc8565b6040516103679190611176565b60405180910390f35b600a6020528060005260406000206000915090508060000154908060010160009054906101000a900473ffffffffffffffffffffffffffffffffffffffff16908060020160009054906101000a900473ffffffffffffffffffffffffffffffffffffffff16908060030154908060040154908060050154908060060154908060070154905088565b60065481565b600260005403610443576040517f08c379a000000000000000000000000000000000000000000000000000000000815260040161043a9061150b565b60405180910390fd5b6002600081905550600254821015610490576040517f08c379a000000000000000000000000000000000000000000000000000000000815260040161048790611577565b60405180910390fd5b600181148061049f5750600281145b6104de576040517f08c379a00000000000000000000000000000000000000000000000000000000081526004016104d5906115e3565b60405180910390fd5b6000600a60008481526020019081526020016000209050600081600701541461053c576040517f08c379a00000000000000000000000000000000000000000000000000000000081526004016105339061164f565b60405180910390fd5b8060000154600960003373ffffffffffffffffffffffffffffffffffffffff1673ffffffffffffffffffffffffffffffffffffffff1681526020019081526020016000205411156105c2576040517f08c379a00000000000000000000000000000000000000000000000000000000081526004016105b9906116e1565b60405180910390fd5b6000600b600085815260200190815260200160002060003373ffffffffffffffffffffffffffffffffffffffff1673ffffffffffffffffffffffffffffffffffffffff1681526020019081526020016000205490506001810361063e5781600401600081548092919061063490611730565b9190505550610662565b600281036106615781600501600081548092919061065b90611730565b91905055505b5b82600b600086815260200190815260200160002060003373ffffffffffffffffffffffffffffffffffffffff1673ffffffffffffffffffffffffffffffffffffffff16815260200190815260200160002081905550600183036106de578160040160008154809291906106d490611759565b91905055506106f9565b8160050160008154809291906106f390611759565b91905055505b816006015482600401540361071857610713826001610bee565b610734565b816006015482600501540361073357610732826002610bee565b5b5b505060016000819055505050565b6007818154811061075257600080fd5b906000526020600020016000915054906101000a900473ffffffffffffffffffffffffffffffffffffffff1681565b600160009054906101000a900473ffffffffffffffffffffffffffffffffffffffff1673ffffffffffffffffffffffffffffffffffffffff163373ffffffffffffffffffffffffffffffffffffffff1614610811576040517f08c379a0000000000000000000000000000000000000000000000000000000008152600401610808906117ed565b60405180910390fd5b60008151905060005b81811015610858576108458382815181106108385761083761180d565b5b6020026020010151610c5b565b808061085090611759565b91505061081a565b505050565b60008173ffffffffffffffffffffffffffffffffffffffff166370a08231306040518263ffffffff1660e01b81526004016108989190611176565b602060405180830381865afa1580156108b5573d6000803e3d6000fd5b505050506040513d601f19601f820116820180604052508101906108d99190611851565b9050919050565b600480546108ed906118ad565b80601f0160208091040260200160405190810160405280929190818152602001828054610919906118ad565b80156109665780601f1061093b57610100808354040283529160200191610966565b820191906000526020600020905b81548152906001019060200180831161094957829003601f168201915b505050505081565b6000600860003373ffffffffffffffffffffffffffffffffffffffff1673ffffffffffffffffffffffffffffffffffffffff16815260200190815260200160002060009054906101000a900460ff166109fc576040517f08c379a00000000000000000000000000000000000000000000000000000000081526004016109f39061192a565b60405180910390fd5b60025490506040518061010001604052804281526020018573ffffffffffffffffffffffffffffffffffffffff1681526020018473ffffffffffffffffffffffffffffffffffffffff16815260200183815260200160008152602001600081526020016002600654610a6e9190611979565b600654610a7b91906119aa565b81526020016000815250600a60008381526020019081526020016000206000820151816000015560208201518160010160006101000a81548173ffffffffffffffffffffffffffffffffffffffff021916908373ffffffffffffffffffffffffffffffffffffffff16021790555060408201518160020160006101000a81548173ffffffffffffffffffffffffffffffffffffffff021916908373ffffffffffffffffffffffffffffffffffffffff160217905550606082015181600301556080820151816004015560a0820151816005015560c0820151816006015560e0820151816007015590505060026000815480929190610b7890611759565b91905055509392505050565b60086020528060005260406000206000915054906101000a900460ff1681565b60096020528060005260406000206000915090505481565b60025481565b60035481565b600160009054906101000a900473ffffffffffffffffffffffffffffffffffffffff1681565b60018103610c4e57610c4d8260010160009054906101000a900473ffffffffffffffffffffffffffffffffffffffff168360020160009054906101000a900473ffffffffffffffffffffffffffffffffffffffff168460030154610e93565b5b8082600701819055505050565b600860008273ffffffffffffffffffffffffffffffffffffffff1673ffffffffffffffffffffffffffffffffffffffff16815260200190815260200160002060009054906101000a900460ff1615610ce8576040517f08c379a0000000000000000000000000000000000000000000000000000000008152600401610cdf90611a2a565b60405180910390fd5b42600960008373ffffffffffffffffffffffffffffffffffffffff1673ffffffffffffffffffffffffffffffffffffffff168152602001908152602001600020819055506001600860008373ffffffffffffffffffffffffffffffffffffffff1673ffffffffffffffffffffffffffffffffffffffff16815260200190815260200160002060006101000a81548160ff0219169083151502179055506007819080600181540180825580915050600190039060005260206000200160009091909190916101000a81548173ffffffffffffffffffffffffffffffffffffffff021916908373ffffffffffffffffffffffffffffffffffffffff160217905550600560009054906101000a900473ffffffffffffffffffffffffffffffffffffffff1673ffffffffffffffffffffffffffffffffffffffff166374d0a676600354836040518363ffffffff1660e01b8152600401610e46929190611a4a565b600060405180830381600087803b158015610e6057600080fd5b505af1158015610e74573d6000803e3d6000fd5b5050505060066000815480929190610e8b90611759565b919050555050565b600073ffffffffffffffffffffffffffffffffffffffff168373ffffffffffffffffffffffffffffffffffffffff1603610f13578173ffffffffffffffffffffffffffffffffffffffff166108fc829081150290604051600060405180830381858888f19350505050158015610f0d573d6000803e3d6000fd5b50610fd1565b8273ffffffffffffffffffffffffffffffffffffffff1663a9059cbb83836040518363ffffffff1660e01b8152600401610f4e929190611a73565b6020604051808303816000875af1158015610f6d573d6000803e3d6000fd5b505050506040513d601f19601f82011682018060405250810190610f919190611ac8565b610fd0576040517f08c379a0000000000000000000000000000000000000000000000000000000008152600401610fc790611b41565b60405180910390fd5b5b505050565b6000604051905090565b600080fd5b600080fd5b6000819050919050565b610ffd81610fea565b811461100857600080fd5b50565b60008135905061101a81610ff4565b92915050565b60006020828403121561103657611035610fe0565b5b60006110448482850161100b565b91505092915050565b61105681610fea565b82525050565b600073ffffffffffffffffffffffffffffffffffffffff82169050919050565b60006110878261105c565b9050919050565b6110978161107c565b82525050565b6000610100820190506110b3600083018b61104d565b6110c0602083018a61108e565b6110cd604083018961108e565b6110da606083018861104d565b6110e7608083018761104d565b6110f460a083018661104d565b61110160c083018561104d565b61110e60e083018461104d565b9998505050505050505050565b6000602082019050611130600083018461104d565b92915050565b6000806040838503121561114d5761114c610fe0565b5b600061115b8582860161100b565b925050602061116c8582860161100b565b9150509250929050565b600060208201905061118b600083018461108e565b92915050565b600080fd5b6000601f19601f8301169050919050565b7f4e487b7100000000000000000000000000000000000000000000000000000000600052604160045260246000fd5b6111df82611196565b810181811067ffffffffffffffff821117156111fe576111fd6111a7565b5b80604052505050565b6000611211610fd6565b905061121d82826111d6565b919050565b600067ffffffffffffffff82111561123d5761123c6111a7565b5b602082029050602081019050919050565b600080fd5b61125c8161107c565b811461126757600080fd5b50565b60008135905061127981611253565b92915050565b600061129261128d84611222565b611207565b905080838252602082019050602084028301858111156112b5576112b461124e565b5b835b818110156112de57806112ca888261126a565b8452602084019350506020810190506112b7565b5050509392505050565b600082601f8301126112fd576112fc611191565b5b813561130d84826020860161127f565b91505092915050565b60006020828403121561132c5761132b610fe0565b5b600082013567ffffffffffffffff81111561134a57611349610fe5565b5b611356848285016112e8565b91505092915050565b60006020828403121561137557611374610fe0565b5b60006113838482850161126a565b91505092915050565b600081519050919050565b600082825260208201905092915050565b60005b838110156113c65780820151818401526020810190506113ab565b838111156113d5576000848401525b50505050565b60006113e68261138c565b6113f08185611397565b93506114008185602086016113a8565b61140981611196565b840191505092915050565b6000602082019050818103600083015261142e81846113db565b905092915050565b60008060006060848603121561144f5761144e610fe0565b5b600061145d8682870161126a565b935050602061146e8682870161126a565b925050604061147f8682870161100b565b9150509250925092565b60008115159050919050565b61149e81611489565b82525050565b60006020820190506114b96000830184611495565b92915050565b7f5265656e7472616e637947756172643a207265656e7472616e742063616c6c00600082015250565b60006114f5601f83611397565b9150611500826114bf565b602082019050919050565b60006020820190508181036000830152611524816114e8565b9050919050565b7f4e6f2073756368206f7264657200000000000000000000000000000000000000600082015250565b6000611561600d83611397565b915061156c8261152b565b602082019050919050565b6000602082019050818103600083015261159081611554565b9050919050565b7f4e6f7420612076616c6964206465636973696f6e000000000000000000000000600082015250565b60006115cd601483611397565b91506115d882611597565b602082019050919050565b600060208201905081810360008301526115fc816115c0565b9050919050565b7f416c726561647920657865637574656400000000000000000000000000000000600082015250565b6000611639601083611397565b915061164482611603565b602082019050919050565b600060208201905081810360008301526116688161162c565b9050919050565b7f55736572207761736e27742061206d656d626572206174207468652074696d6560008201527f206f66206f72646572696e670000000000000000000000000000000000000000602082015250565b60006116cb602c83611397565b91506116d68261166f565b604082019050919050565b600060208201905081810360008301526116fa816116be565b9050919050565b7f4e487b7100000000000000000000000000000000000000000000000000000000600052601160045260246000fd5b600061173b82610fea565b91506000820361174e5761174d611701565b5b600182039050919050565b600061176482610fea565b91507fffffffffffffffffffffffffffffffffffffffffffffffffffffffffffffffff820361179657611795611701565b5b600182019050919050565b7f4f6e6c79206f776e6572206d6574686f64000000000000000000000000000000600082015250565b60006117d7601183611397565b91506117e2826117a1565b602082019050919050565b60006020820190508181036000830152611806816117ca565b9050919050565b7f4e487b7100000000000000000000000000000000000000000000000000000000600052603260045260246000fd5b60008151905061184b81610ff4565b92915050565b60006020828403121561186757611866610fe0565b5b60006118758482850161183c565b91505092915050565b7f4e487b7100000000000000000000000000000000000000000000000000000000600052602260045260246000fd5b600060028204905060018216806118c557607f821691505b6020821081036118d8576118d761187e565b5b50919050565b7f4f6e6c79206d656d626572206d6574686f640000000000000000000000000000600082015250565b6000611914601283611397565b915061191f826118de565b602082019050919050565b6000602082019050818103600083015261194381611907565b9050919050565b7f4e487b7100000000000000000000000000000000000000000000000000000000600052601260045260246000fd5b600061198482610fea565b915061198f83610fea565b92508261199f5761199e61194a565b5b828204905092915050565b60006119b582610fea565b91506119c083610fea565b9250828210156119d3576119d2611701565b5b828203905092915050565b7f416c72656164792061206d656d62657200000000000000000000000000000000600082015250565b6000611a14601083611397565b9150611a1f826119de565b602082019050919050565b60006020820190508181036000830152611a4381611a07565b9050919050565b6000604082019050611a5f600083018561104d565b611a6c602083018461108e565b9392505050565b6000604082019050611a88600083018561108e565b611a95602083018461104d565b9392505050565b611aa581611489565b8114611ab057600080fd5b50565b600081519050611ac281611a9c565b92915050565b600060208284031215611ade57611add610fe0565b5b6000611aec84828501611ab3565b91505092915050565b7f5472616e73666572206661696c65640000000000000000000000000000000000600082015250565b6000611b2b600f83611397565b9150611b3682611af5565b602082019050919050565b60006020820190508181036000830152611b5a81611b1e565b905091905056fea2646970667358221220cdbcf783b47995a9f2c0f5995057b5cbcc352a81872be20778a272fb6663299164736f6c634300080d0033a264697066735822122004de4c7baf5c0319a21df58231a17761d4c5df546d1406c3dad3a14aadb28e8764736f6c634300080d0033",
  "immutableReferences": {},
  "source": "//SPDX-License-Identifier: No License\n\npragma solidity ^0.8.0;\n\nimport \"./MultiSigWallet.sol\";\n\ncontract MultiSigFactory {\n    address public owner;\n    uint256 public walletIdCounter;\n    uint256 public price;\n\n    constructor(uint256 _price) {\n        owner = msg.sender;\n        price = _price;\n    }\n\n    modifier onlyOwner() {\n        require(owner == msg.sender, \"Only owner method\");\n        _;\n    }\n\n    mapping(uint256 => address) public walletIdToWalletAddress;\n    mapping(uint256 => address) public ownerOf;\n    mapping(address => uint256[]) public memberToWalletIds;\n    mapping(address => bool) public isWallet;\n\n    event WalletCreated(\n        address creator,\n        uint256 walletId,\n        address newWalletAddress\n    );\n\n    function getWalletAddresses_msgSender()\n        public\n        view\n        returns (uint256[] memory, address[] memory)\n    {\n        return getWalletAddresses(msg.sender);\n    }\n\n    function getWalletAddresses(address member)\n        internal\n        view\n        returns (uint256[] memory, address[] memory)\n    {\n        uint256[] memory walletIds = memberToWalletIds[member];\n        uint256 l = walletIds.length;\n        address[] memory addresses = new address[](l);\n        for (uint256 i; i < l; i++) {\n            addresses[i] = walletIdToWalletAddress[walletIds[i]];\n        }\n        return (walletIds, addresses);\n    }\n\n    function setPrice(uint256 _price) public onlyOwner {\n        price = _price;\n    }\n\n    function createWallet(string memory description)\n        public\n        payable\n        returns (uint256 walletId, address newWalletAddress)\n    {\n        require(msg.value == price, \"Insufficient payment amount\");\n        MultiSigWallet newMultiSigWallet = new MultiSigWallet(\n            msg.sender,\n            address(this),\n            walletIdCounter,\n            description\n        );\n        newWalletAddress = address(newMultiSigWallet);\n        walletId = walletIdCounter;\n        walletIdToWalletAddress[walletId] = newWalletAddress;\n        isWallet[newWalletAddress] = true;\n        ownerOf[walletId] = msg.sender;\n        memberToWalletIds[msg.sender].push(walletId);\n        walletIdCounter++;\n        emit WalletCreated(msg.sender, walletId, newWalletAddress);\n    }\n\n    function addMember(uint256 walletId, address member) public {\n        require(\n            walletIdToWalletAddress[walletId] == msg.sender,\n            \"Only wallet method\"\n        );\n        memberToWalletIds[member].push(walletId);\n    }\n}\n",
  "sourcePath": "/home/yusufbenli/codes/github/multi-sig-contracts/contracts/MultiSigFactory.sol",
  "compiler": {
    "name": "solc",
    "version": "0.8.13+commit.abaa5c0e.Emscripten.clang"
  },
  "schemaVersion": "3.4.5",
  "updatedAt": "2022-04-28T00:21:20.051Z",
  "devdoc": {
    "kind": "dev",
    "methods": {},
    "version": 1
  },
  "userdoc": {
    "kind": "user",
    "methods": {},
    "version": 1
  }
}