{
  "contractName": "MultiSigWallet",
  "abi": [
    {
      "inputs": [
        {
          "internalType": "address",
          "name": "_admin",
          "type": "address"
        },
        {
          "internalType": "address",
          "name": "_factoryAddress",
          "type": "address"
        },
        {
          "internalType": "uint256",
          "name": "_walletId",
          "type": "uint256"
        },
        {
          "internalType": "string",
          "name": "_description",
          "type": "string"
        }
      ],
      "stateMutability": "nonpayable",
      "type": "constructor"
    },
    {
      "inputs": [],
      "name": "admin",
      "outputs": [
        {
          "internalType": "address",
          "name": "",
          "type": "address"
        }
      ],
      "stateMutability": "view",
      "type": "function",
      "constant": true
    },
    {
      "inputs": [],
      "name": "description",
      "outputs": [
        {
          "internalType": "string",
          "name": "",
          "type": "string"
        }
      ],
      "stateMutability": "view",
      "type": "function",
      "constant": true
    },
    {
      "inputs": [
        {
          "internalType": "address",
          "name": "",
          "type": "address"
        }
      ],
      "name": "isMember",
      "outputs": [
        {
          "internalType": "bool",
          "name": "",
          "type": "bool"
        }
      ],
      "stateMutability": "view",
      "type": "function",
      "constant": true
    },
    {
      "inputs": [],
      "name": "memberCount",
      "outputs": [
        {
          "internalType": "uint256",
          "name": "",
          "type": "uint256"
        }
      ],
      "stateMutability": "view",
      "type": "function",
      "constant": true
    },
    {
      "inputs": [
        {
          "internalType": "uint256",
          "name": "",
          "type": "uint256"
        }
      ],
      "name": "members",
      "outputs": [
        {
          "internalType": "address",
          "name": "",
          "type": "address"
        }
      ],
      "stateMutability": "view",
      "type": "function",
      "constant": true
    },
    {
      "inputs": [],
      "name": "orderCounter",
      "outputs": [
        {
          "internalType": "uint256",
          "name": "",
          "type": "uint256"
        }
      ],
      "stateMutability": "view",
      "type": "function",
      "constant": true
    },
    {
      "inputs": [
        {
          "internalType": "uint256",
          "name": "",
          "type": "uint256"
        }
      ],
      "name": "orderIdToOrder",
      "outputs": [
        {
          "internalType": "uint256",
          "name": "creationTime",
          "type": "uint256"
        },
        {
          "internalType": "address",
          "name": "tokenAddress",
          "type": "address"
        },
        {
          "internalType": "address",
          "name": "toAddress",
          "type": "address"
        },
        {
          "internalType": "uint256",
          "name": "amount",
          "type": "uint256"
        },
        {
          "internalType": "uint256",
          "name": "numberOfAcceptance",
          "type": "uint256"
        },
        {
          "internalType": "uint256",
          "name": "numberOfRejections",
          "type": "uint256"
        },
        {
          "internalType": "uint256",
          "name": "minRequiredDecision",
          "type": "uint256"
        },
        {
          "internalType": "uint256",
          "name": "finalDecision",
          "type": "uint256"
        }
      ],
      "stateMutability": "view",
      "type": "function",
      "constant": true
    },
    {
      "inputs": [
        {
          "internalType": "address",
          "name": "",
          "type": "address"
        }
      ],
      "name": "timeAdded",
      "outputs": [
        {
          "internalType": "uint256",
          "name": "",
          "type": "uint256"
        }
      ],
      "stateMutability": "view",
      "type": "function",
      "constant": true
    },
    {
      "inputs": [],
      "name": "walletId",
      "outputs": [
        {
          "internalType": "uint256",
          "name": "",
          "type": "uint256"
        }
      ],
      "stateMutability": "view",
      "type": "function",
      "constant": true
    },
    {
      "stateMutability": "payable",
      "type": "receive",
      "payable": true
    },
    {
      "inputs": [
        {
          "internalType": "address",
          "name": "tokenAddress",
          "type": "address"
        }
      ],
      "name": "balanceOf",
      "outputs": [
        {
          "internalType": "uint256",
          "name": "balance",
          "type": "uint256"
        }
      ],
      "stateMutability": "view",
      "type": "function",
      "constant": true
    },
    {
      "inputs": [
        {
          "internalType": "address[]",
          "name": "newMembers",
          "type": "address[]"
        }
      ],
      "name": "addMembers",
      "outputs": [],
      "stateMutability": "nonpayable",
      "type": "function"
    },
    {
      "inputs": [
        {
          "internalType": "address",
          "name": "_tokenAddress",
          "type": "address"
        },
        {
          "internalType": "address",
          "name": "_toAddress",
          "type": "address"
        },
        {
          "internalType": "uint256",
          "name": "_amount",
          "type": "uint256"
        }
      ],
      "name": "createOrder",
      "outputs": [
        {
          "internalType": "uint256",
          "name": "orderId",
          "type": "uint256"
        }
      ],
      "stateMutability": "nonpayable",
      "type": "function"
    },
    {
      "inputs": [
        {
          "internalType": "uint256",
          "name": "orderId",
          "type": "uint256"
        },
        {
          "internalType": "uint256",
          "name": "decision",
          "type": "uint256"
        }
      ],
      "name": "makeDecision",
      "outputs": [],
      "stateMutability": "nonpayable",
      "type": "function"
    }
  ],
  "bytecode": "0x60806040523480156200001157600080fd5b506040516200228838038062002288833981810160405281019062000037919062000557565b600160008190555083600160006101000a81548173ffffffffffffffffffffffffffffffffffffffff021916908373ffffffffffffffffffffffffffffffffffffffff16021790555082600560006101000a81548173ffffffffffffffffffffffffffffffffffffffff021916908373ffffffffffffffffffffffffffffffffffffffff160217905550816003819055508060049080519060200190620000e09291906200026a565b504260096000600160009054906101000a900473ffffffffffffffffffffffffffffffffffffffff1673ffffffffffffffffffffffffffffffffffffffff1673ffffffffffffffffffffffffffffffffffffffff16815260200190815260200160002081905550600160086000600160009054906101000a900473ffffffffffffffffffffffffffffffffffffffff1673ffffffffffffffffffffffffffffffffffffffff1673ffffffffffffffffffffffffffffffffffffffff16815260200190815260200160002060006101000a81548160ff0219169083151502179055506007600160009054906101000a900473ffffffffffffffffffffffffffffffffffffffff169080600181540180825580915050600190039060005260206000200160009091909190916101000a81548173ffffffffffffffffffffffffffffffffffffffff021916908373ffffffffffffffffffffffffffffffffffffffff160217905550600660008154809291906200025b9062000617565b919050555050505050620006c8565b828054620002789062000693565b90600052602060002090601f0160209004810192826200029c5760008555620002e8565b82601f10620002b757805160ff1916838001178555620002e8565b82800160010185558215620002e8579182015b82811115620002e7578251825591602001919060010190620002ca565b5b509050620002f79190620002fb565b5090565b5b8082111562000316576000816000905550600101620002fc565b5090565b6000604051905090565b600080fd5b600080fd5b600073ffffffffffffffffffffffffffffffffffffffff82169050919050565b60006200035b826200032e565b9050919050565b6200036d816200034e565b81146200037957600080fd5b50565b6000815190506200038d8162000362565b92915050565b6000819050919050565b620003a88162000393565b8114620003b457600080fd5b50565b600081519050620003c8816200039d565b92915050565b600080fd5b600080fd5b6000601f19601f8301169050919050565b7f4e487b7100000000000000000000000000000000000000000000000000000000600052604160045260246000fd5b6200042382620003d8565b810181811067ffffffffffffffff82111715620004455762000444620003e9565b5b80604052505050565b60006200045a6200031a565b905062000468828262000418565b919050565b600067ffffffffffffffff8211156200048b576200048a620003e9565b5b6200049682620003d8565b9050602081019050919050565b60005b83811015620004c3578082015181840152602081019050620004a6565b83811115620004d3576000848401525b50505050565b6000620004f0620004ea846200046d565b6200044e565b9050828152602081018484840111156200050f576200050e620003d3565b5b6200051c848285620004a3565b509392505050565b600082601f8301126200053c576200053b620003ce565b5b81516200054e848260208601620004d9565b91505092915050565b6000806000806080858703121562000574576200057362000324565b5b600062000584878288016200037c565b945050602062000597878288016200037c565b9350506040620005aa87828801620003b7565b925050606085015167ffffffffffffffff811115620005ce57620005cd62000329565b5b620005dc8782880162000524565b91505092959194509250565b7f4e487b7100000000000000000000000000000000000000000000000000000000600052601160045260246000fd5b6000620006248262000393565b91507fffffffffffffffffffffffffffffffffffffffffffffffffffffffffffffffff8203620006595762000658620005e8565b5b600182019050919050565b7f4e487b7100000000000000000000000000000000000000000000000000000000600052602260045260246000fd5b60006002820490506001821680620006ac57607f821691505b602082108103620006c257620006c162000664565b5b50919050565b611bb080620006d86000396000f3fe6080604052600436106100c65760003560e01c80637284e4161161007f578063ae09316511610059578063ae093165146102b2578063b789bf52146102ef578063c162ba2f1461031a578063f851a44014610345576100cd565b80637284e4161461020d5780639a5d6a4a14610238578063a230c52414610275576100cd565b8063039935ff146100d257806311aee380146101165780633ee79599146101415780635daf08ca1461016a5780636f4d469b146101a757806370a08231146101d0576100cd565b366100cd57005b600080fd5b3480156100de57600080fd5b506100f960048036038101906100f49190611039565b610370565b60405161010d9897969594939291906110b6565b60405180910390f35b34801561012257600080fd5b5061012b6103f8565b6040516101389190611134565b60405180910390f35b34801561014d57600080fd5b506101686004803603810190610163919061114f565b6103fe565b005b34801561017657600080fd5b50610191600480360381019061018c9190611039565b610735565b60405161019e919061118f565b60405180910390f35b3480156101b357600080fd5b506101ce60048036038101906101c9919061132f565b610774565b005b3480156101dc57600080fd5b506101f760048036038101906101f29190611378565b610850565b6040516102049190611134565b60405180910390f35b34801561021957600080fd5b506102226108d3565b60405161022f919061142d565b60405180910390f35b34801561024457600080fd5b5061025f600480360381019061025a919061144f565b610961565b60405161026c9190611134565b60405180910390f35b34801561028157600080fd5b5061029c60048036038101906102979190611378565b610b77565b6040516102a991906114bd565b60405180910390f35b3480156102be57600080fd5b506102d960048036038101906102d49190611378565b610b97565b6040516102e69190611134565b60405180910390f35b3480156102fb57600080fd5b50610304610baf565b6040516103119190611134565b60405180910390f35b34801561032657600080fd5b5061032f610bb5565b60405161033c9190611134565b60405180910390f35b34801561035157600080fd5b5061035a610bbb565b604051610367919061118f565b60405180910390f35b600a6020528060005260406000206000915090508060000154908060010160009054906101000a900473ffffffffffffffffffffffffffffffffffffffff16908060020160009054906101000a900473ffffffffffffffffffffffffffffffffffffffff16908060030154908060040154908060050154908060060154908060070154905088565b60065481565b600260005403610443576040517f08c379a000000000000000000000000000000000000000000000000000000000815260040161043a90611524565b60405180910390fd5b6002600081905550600254821015610490576040517f08c379a000000000000000000000000000000000000000000000000000000000815260040161048790611590565b60405180910390fd5b600181148061049f5750600281145b6104de576040517f08c379a00000000000000000000000000000000000000000000000000000000081526004016104d5906115fc565b60405180910390fd5b6000600a60008481526020019081526020016000209050600081600701541461053c576040517f08c379a000000000000000000000000000000000000000000000000000000000815260040161053390611668565b60405180910390fd5b8060000154600960003373ffffffffffffffffffffffffffffffffffffffff1673ffffffffffffffffffffffffffffffffffffffff1681526020019081526020016000205411156105c2576040517f08c379a00000000000000000000000000000000000000000000000000000000081526004016105b9906116fa565b60405180910390fd5b6000600b600085815260200190815260200160002060003373ffffffffffffffffffffffffffffffffffffffff1673ffffffffffffffffffffffffffffffffffffffff1681526020019081526020016000205490506001810361063e5781600401600081548092919061063490611749565b9190505550610662565b600281036106615781600501600081548092919061065b90611749565b91905055505b5b82600b600086815260200190815260200160002060003373ffffffffffffffffffffffffffffffffffffffff1673ffffffffffffffffffffffffffffffffffffffff16815260200190815260200160002081905550600183036106de578160040160008154809291906106d490611772565b91905055506106f9565b8160050160008154809291906106f390611772565b91905055505b8160060154826004015410158061071857508160060154826005015410155b156107275761072682610be1565b5b505060016000819055505050565b6007818154811061074557600080fd5b906000526020600020016000915054906101000a900473ffffffffffffffffffffffffffffffffffffffff1681565b600160009054906101000a900473ffffffffffffffffffffffffffffffffffffffff1673ffffffffffffffffffffffffffffffffffffffff163373ffffffffffffffffffffffffffffffffffffffff1614610804576040517f08c379a00000000000000000000000000000000000000000000000000000000081526004016107fb90611806565b60405180910390fd5b60008151905060005b8181101561084b5761083883828151811061082b5761082a611826565b5b6020026020010151610c74565b808061084390611772565b91505061080d565b505050565b60008173ffffffffffffffffffffffffffffffffffffffff166370a08231306040518263ffffffff1660e01b815260040161088b919061118f565b602060405180830381865afa1580156108a8573d6000803e3d6000fd5b505050506040513d601f19601f820116820180604052508101906108cc919061186a565b9050919050565b600480546108e0906118c6565b80601f016020809104026020016040519081016040528092919081815260200182805461090c906118c6565b80156109595780601f1061092e57610100808354040283529160200191610959565b820191906000526020600020905b81548152906001019060200180831161093c57829003601f168201915b505050505081565b6000600860003373ffffffffffffffffffffffffffffffffffffffff1673ffffffffffffffffffffffffffffffffffffffff16815260200190815260200160002060009054906101000a900460ff166109ef576040517f08c379a00000000000000000000000000000000000000000000000000000000081526004016109e690611943565b60405180910390fd5b60025490506040518061010001604052804281526020018573ffffffffffffffffffffffffffffffffffffffff1681526020018473ffffffffffffffffffffffffffffffffffffffff16815260200183815260200160008152602001600081526020016002600654610a619190611992565b600654610a6e91906119c3565b81526020016000815250600a60008381526020019081526020016000206000820151816000015560208201518160010160006101000a81548173ffffffffffffffffffffffffffffffffffffffff021916908373ffffffffffffffffffffffffffffffffffffffff16021790555060408201518160020160006101000a81548173ffffffffffffffffffffffffffffffffffffffff021916908373ffffffffffffffffffffffffffffffffffffffff160217905550606082015181600301556080820151816004015560a0820151816005015560c0820151816006015560e0820151816007015590505060026000815480929190610b6b90611772565b91905055509392505050565b60086020528060005260406000206000915054906101000a900460ff1681565b60096020528060005260406000206000915090505481565b60025481565b60035481565b600160009054906101000a900473ffffffffffffffffffffffffffffffffffffffff1681565b8060060154816004015410610c5657610c478160010160009054906101000a900473ffffffffffffffffffffffffffffffffffffffff168260020160009054906101000a900473ffffffffffffffffffffffffffffffffffffffff168360030154610eac565b60018160070181905550610c71565b8060060154816005015410610c7057600281600701819055505b5b50565b600860008273ffffffffffffffffffffffffffffffffffffffff1673ffffffffffffffffffffffffffffffffffffffff16815260200190815260200160002060009054906101000a900460ff1615610d01576040517f08c379a0000000000000000000000000000000000000000000000000000000008152600401610cf890611a43565b60405180910390fd5b42600960008373ffffffffffffffffffffffffffffffffffffffff1673ffffffffffffffffffffffffffffffffffffffff168152602001908152602001600020819055506001600860008373ffffffffffffffffffffffffffffffffffffffff1673ffffffffffffffffffffffffffffffffffffffff16815260200190815260200160002060006101000a81548160ff0219169083151502179055506007819080600181540180825580915050600190039060005260206000200160009091909190916101000a81548173ffffffffffffffffffffffffffffffffffffffff021916908373ffffffffffffffffffffffffffffffffffffffff160217905550600560009054906101000a900473ffffffffffffffffffffffffffffffffffffffff1673ffffffffffffffffffffffffffffffffffffffff166374d0a676600354836040518363ffffffff1660e01b8152600401610e5f929190611a63565b600060405180830381600087803b158015610e7957600080fd5b505af1158015610e8d573d6000803e3d6000fd5b5050505060066000815480929190610ea490611772565b919050555050565b600073ffffffffffffffffffffffffffffffffffffffff168373ffffffffffffffffffffffffffffffffffffffff1603610f2c578173ffffffffffffffffffffffffffffffffffffffff166108fc829081150290604051600060405180830381858888f19350505050158015610f26573d6000803e3d6000fd5b50610fea565b8273ffffffffffffffffffffffffffffffffffffffff1663a9059cbb83836040518363ffffffff1660e01b8152600401610f67929190611a8c565b6020604051808303816000875af1158015610f86573d6000803e3d6000fd5b505050506040513d601f19601f82011682018060405250810190610faa9190611ae1565b610fe9576040517f08c379a0000000000000000000000000000000000000000000000000000000008152600401610fe090611b5a565b60405180910390fd5b5b505050565b6000604051905090565b600080fd5b600080fd5b6000819050919050565b61101681611003565b811461102157600080fd5b50565b6000813590506110338161100d565b92915050565b60006020828403121561104f5761104e610ff9565b5b600061105d84828501611024565b91505092915050565b61106f81611003565b82525050565b600073ffffffffffffffffffffffffffffffffffffffff82169050919050565b60006110a082611075565b9050919050565b6110b081611095565b82525050565b6000610100820190506110cc600083018b611066565b6110d9602083018a6110a7565b6110e660408301896110a7565b6110f36060830188611066565b6111006080830187611066565b61110d60a0830186611066565b61111a60c0830185611066565b61112760e0830184611066565b9998505050505050505050565b60006020820190506111496000830184611066565b92915050565b6000806040838503121561116657611165610ff9565b5b600061117485828601611024565b925050602061118585828601611024565b9150509250929050565b60006020820190506111a460008301846110a7565b92915050565b600080fd5b6000601f19601f8301169050919050565b7f4e487b7100000000000000000000000000000000000000000000000000000000600052604160045260246000fd5b6111f8826111af565b810181811067ffffffffffffffff82111715611217576112166111c0565b5b80604052505050565b600061122a610fef565b905061123682826111ef565b919050565b600067ffffffffffffffff821115611256576112556111c0565b5b602082029050602081019050919050565b600080fd5b61127581611095565b811461128057600080fd5b50565b6000813590506112928161126c565b92915050565b60006112ab6112a68461123b565b611220565b905080838252602082019050602084028301858111156112ce576112cd611267565b5b835b818110156112f757806112e38882611283565b8452602084019350506020810190506112d0565b5050509392505050565b600082601f830112611316576113156111aa565b5b8135611326848260208601611298565b91505092915050565b60006020828403121561134557611344610ff9565b5b600082013567ffffffffffffffff81111561136357611362610ffe565b5b61136f84828501611301565b91505092915050565b60006020828403121561138e5761138d610ff9565b5b600061139c84828501611283565b91505092915050565b600081519050919050565b600082825260208201905092915050565b60005b838110156113df5780820151818401526020810190506113c4565b838111156113ee576000848401525b50505050565b60006113ff826113a5565b61140981856113b0565b93506114198185602086016113c1565b611422816111af565b840191505092915050565b6000602082019050818103600083015261144781846113f4565b905092915050565b60008060006060848603121561146857611467610ff9565b5b600061147686828701611283565b935050602061148786828701611283565b925050604061149886828701611024565b9150509250925092565b60008115159050919050565b6114b7816114a2565b82525050565b60006020820190506114d260008301846114ae565b92915050565b7f5265656e7472616e637947756172643a207265656e7472616e742063616c6c00600082015250565b600061150e601f836113b0565b9150611519826114d8565b602082019050919050565b6000602082019050818103600083015261153d81611501565b9050919050565b7f4e6f2073756368206f7264657200000000000000000000000000000000000000600082015250565b600061157a600d836113b0565b915061158582611544565b602082019050919050565b600060208201905081810360008301526115a98161156d565b9050919050565b7f4e6f7420612076616c6964206465636973696f6e000000000000000000000000600082015250565b60006115e66014836113b0565b91506115f1826115b0565b602082019050919050565b60006020820190508181036000830152611615816115d9565b9050919050565b7f416c726561647920657865637574656400000000000000000000000000000000600082015250565b60006116526010836113b0565b915061165d8261161c565b602082019050919050565b6000602082019050818103600083015261168181611645565b9050919050565b7f55736572207761736e27742061206d656d626572206174207468652074696d6560008201527f206f66206f72646572696e670000000000000000000000000000000000000000602082015250565b60006116e4602c836113b0565b91506116ef82611688565b604082019050919050565b60006020820190508181036000830152611713816116d7565b9050919050565b7f4e487b7100000000000000000000000000000000000000000000000000000000600052601160045260246000fd5b600061175482611003565b9150600082036117675761176661171a565b5b600182039050919050565b600061177d82611003565b91507fffffffffffffffffffffffffffffffffffffffffffffffffffffffffffffffff82036117af576117ae61171a565b5b600182019050919050565b7f4f6e6c79206f776e6572206d6574686f64000000000000000000000000000000600082015250565b60006117f06011836113b0565b91506117fb826117ba565b602082019050919050565b6000602082019050818103600083015261181f816117e3565b9050919050565b7f4e487b7100000000000000000000000000000000000000000000000000000000600052603260045260246000fd5b6000815190506118648161100d565b92915050565b6000602082840312156118805761187f610ff9565b5b600061188e84828501611855565b91505092915050565b7f4e487b7100000000000000000000000000000000000000000000000000000000600052602260045260246000fd5b600060028204905060018216806118de57607f821691505b6020821081036118f1576118f0611897565b5b50919050565b7f4f6e6c79206d656d626572206d6574686f640000000000000000000000000000600082015250565b600061192d6012836113b0565b9150611938826118f7565b602082019050919050565b6000602082019050818103600083015261195c81611920565b9050919050565b7f4e487b7100000000000000000000000000000000000000000000000000000000600052601260045260246000fd5b600061199d82611003565b91506119a883611003565b9250826119b8576119b7611963565b5b828204905092915050565b60006119ce82611003565b91506119d983611003565b9250828210156119ec576119eb61171a565b5b828203905092915050565b7f416c72656164792061206d656d62657200000000000000000000000000000000600082015250565b6000611a2d6010836113b0565b9150611a38826119f7565b602082019050919050565b60006020820190508181036000830152611a5c81611a20565b9050919050565b6000604082019050611a786000830185611066565b611a8560208301846110a7565b9392505050565b6000604082019050611aa160008301856110a7565b611aae6020830184611066565b9392505050565b611abe816114a2565b8114611ac957600080fd5b50565b600081519050611adb81611ab5565b92915050565b600060208284031215611af757611af6610ff9565b5b6000611b0584828501611acc565b91505092915050565b7f5472616e73666572206661696c65640000000000000000000000000000000000600082015250565b6000611b44600f836113b0565b9150611b4f82611b0e565b602082019050919050565b60006020820190508181036000830152611b7381611b37565b905091905056fea2646970667358221220391f0e83d618a9ce7fafead8ca1e35d4b83806f080229626aa5a9e238c1f2b7964736f6c634300080d0033",
  "immutableReferences": {},
  "source": "//SPDX-License-Identifier: No License\n\npragma solidity ^0.8.0;\n\nimport \"@openzeppelin/contracts/token/ERC20/IERC20.sol\";\nimport \"@openzeppelin/contracts/security/ReentrancyGuard.sol\";\nimport \"./Interfaces/IMultiSigFactory.sol\";\n\ncontract MultiSigWallet is ReentrancyGuard {\n    address public admin;\n    uint256 public orderCounter;\n    uint256 public walletId;\n    string public description;\n    IMultiSigFactory multiSigFactory;\n\n    struct Order {\n        uint256 creationTime;\n        address tokenAddress;\n        address toAddress;\n        uint256 amount;\n        uint256 numberOfAcceptance;\n        uint256 numberOfRejections;\n        uint256 minRequiredDecision;\n        uint256 finalDecision;\n    }\n\n    uint256 public memberCount;\n    address[] public members;\n    mapping(address => bool) public isMember;\n    mapping(address => uint256) public timeAdded;\n    mapping(uint256 => Order) public orderIdToOrder;\n    mapping(uint256 => mapping(address => uint256)) orderIdToAddressToDecision;\n\n    constructor(\n        address _admin,\n        address _factoryAddress,\n        uint256 _walletId,\n        string memory _description\n    ) {\n        admin = _admin;\n        multiSigFactory = IMultiSigFactory(_factoryAddress);\n        walletId = _walletId;\n        description = _description;\n        timeAdded[admin] = block.timestamp;\n        isMember[admin] = true;\n        members.push(admin);\n        memberCount++;\n    }\n\n    modifier onlyAdmin() {\n        require(msg.sender == admin, \"Only owner method\");\n        _;\n    }\n\n    modifier onlyMember() {\n        require(isMember[msg.sender], \"Only member method\");\n        _;\n    }\n\n    function balanceOf(address tokenAddress)\n        public\n        view\n        returns (uint256 balance)\n    {\n        balance = IERC20(tokenAddress).balanceOf(address(this));\n    }\n\n    function addMember(address member) internal {\n        require(!isMember[member], \"Already a member\");\n        timeAdded[member] = block.timestamp;\n        isMember[member] = true;\n        members.push(member);\n        multiSigFactory.addMember(walletId, member);\n        memberCount++;\n    }\n\n    function addMembers(address[] memory newMembers) public onlyAdmin {\n        uint256 l = newMembers.length;\n        for (uint256 i; i < l; i++) addMember(newMembers[i]);\n    }\n\n    // set token address to address(0) to send ether\n    function createOrder(\n        address _tokenAddress,\n        address _toAddress,\n        uint256 _amount\n    ) public onlyMember returns (uint256 orderId) {\n        orderId = orderCounter;\n        orderIdToOrder[orderId] = Order({\n            creationTime: block.timestamp,\n            tokenAddress: _tokenAddress,\n            toAddress: _toAddress,\n            amount: _amount,\n            numberOfAcceptance: 0,\n            numberOfRejections: 0,\n            minRequiredDecision: memberCount - memberCount / 2,\n            finalDecision: 0\n        });\n        orderCounter++;\n    }\n\n    // 1 is for acceptance\n    // 2 is for rejectance\n    function makeDecision(uint256 orderId, uint256 decision)\n        public\n        nonReentrant\n    {\n        require(orderId >= orderCounter, \"No such order\");\n        require((decision == 1) || (decision == 2), \"Not a valid decision\");\n        Order storage o = orderIdToOrder[orderId];\n        require(o.finalDecision == 0, \"Already executed\");\n        require(\n            timeAdded[msg.sender] <= o.creationTime,\n            \"User wasn't a member at the time of ordering\"\n        );\n\n        uint256 prevDecision = orderIdToAddressToDecision[orderId][msg.sender];\n        if (prevDecision == 1) o.numberOfAcceptance--;\n        else if (prevDecision == 2) o.numberOfRejections--;\n\n        orderIdToAddressToDecision[orderId][msg.sender] = decision;\n        if (decision == 1) o.numberOfAcceptance++;\n        else o.numberOfRejections++;\n\n        if (\n            (o.numberOfAcceptance >= o.minRequiredDecision) ||\n            (o.numberOfRejections >= o.minRequiredDecision)\n        ) finalizeOrder(o);\n    }\n\n    function finalizeOrder(Order storage o) internal {\n        if (o.numberOfAcceptance >= o.minRequiredDecision) {\n            transfer(o.tokenAddress, o.toAddress, o.amount);\n            o.finalDecision = 1;\n        } else if (o.numberOfRejections >= o.minRequiredDecision)\n            o.finalDecision = 2;\n    }\n\n    function transfer(\n        address tokenAddress,\n        address to,\n        uint256 amount\n    ) internal {\n        if (tokenAddress == address(0)) payable(to).transfer(amount);\n        else\n            require(\n                IERC20(tokenAddress).transfer(to, amount),\n                \"Transfer failed\"\n            );\n    }\n\n    receive() external payable {}\n}\n",
  "sourcePath": "/home/yusufbenli/codes/multi_sig/contracts/MultiSigWallet.sol",
  "compiler": {
    "name": "solc",
    "version": "0.8.13+commit.abaa5c0e.Emscripten.clang"
  },
  "schemaVersion": "3.4.5",
  "updatedAt": "2022-04-17T19:20:52.183Z",
  "networkType": "ethereum",
  "devdoc": {
    "kind": "dev",
    "methods": {},
    "version": 1
  },
  "userdoc": {
    "kind": "user",
    "methods": {},
    "version": 1
  }
}