{
  "contractName": "MultiSigWallet",
  "abi": [
    {
      "inputs": [
        {
          "internalType": "address",
          "name": "_admin",
          "type": "address"
        },
        {
          "internalType": "address",
          "name": "_factoryAddress",
          "type": "address"
        },
        {
          "internalType": "uint256",
          "name": "_walletId",
          "type": "uint256"
        },
        {
          "internalType": "string",
          "name": "_description",
          "type": "string"
        }
      ],
      "stateMutability": "nonpayable",
      "type": "constructor"
    },
    {
      "inputs": [],
      "name": "admin",
      "outputs": [
        {
          "internalType": "address",
          "name": "",
          "type": "address"
        }
      ],
      "stateMutability": "view",
      "type": "function"
    },
    {
      "inputs": [],
      "name": "description",
      "outputs": [
        {
          "internalType": "string",
          "name": "",
          "type": "string"
        }
      ],
      "stateMutability": "view",
      "type": "function"
    },
    {
      "inputs": [
        {
          "internalType": "address",
          "name": "",
          "type": "address"
        }
      ],
      "name": "isMember",
      "outputs": [
        {
          "internalType": "bool",
          "name": "",
          "type": "bool"
        }
      ],
      "stateMutability": "view",
      "type": "function"
    },
    {
      "inputs": [],
      "name": "memberCount",
      "outputs": [
        {
          "internalType": "uint256",
          "name": "",
          "type": "uint256"
        }
      ],
      "stateMutability": "view",
      "type": "function"
    },
    {
      "inputs": [
        {
          "internalType": "uint256",
          "name": "",
          "type": "uint256"
        }
      ],
      "name": "members",
      "outputs": [
        {
          "internalType": "address",
          "name": "",
          "type": "address"
        }
      ],
      "stateMutability": "view",
      "type": "function"
    },
    {
      "inputs": [],
      "name": "orderCounter",
      "outputs": [
        {
          "internalType": "uint256",
          "name": "",
          "type": "uint256"
        }
      ],
      "stateMutability": "view",
      "type": "function"
    },
    {
      "inputs": [
        {
          "internalType": "uint256",
          "name": "",
          "type": "uint256"
        }
      ],
      "name": "orderIdToOrder",
      "outputs": [
        {
          "internalType": "uint256",
          "name": "creationTime",
          "type": "uint256"
        },
        {
          "internalType": "address",
          "name": "tokenAddress",
          "type": "address"
        },
        {
          "internalType": "address",
          "name": "toAddress",
          "type": "address"
        },
        {
          "internalType": "uint256",
          "name": "amount",
          "type": "uint256"
        },
        {
          "internalType": "uint256",
          "name": "numberOfAcceptance",
          "type": "uint256"
        },
        {
          "internalType": "uint256",
          "name": "numberOfRejections",
          "type": "uint256"
        },
        {
          "internalType": "uint256",
          "name": "minRequiredDecision",
          "type": "uint256"
        },
        {
          "internalType": "uint256",
          "name": "finalDecision",
          "type": "uint256"
        }
      ],
      "stateMutability": "view",
      "type": "function"
    },
    {
      "inputs": [
        {
          "internalType": "address",
          "name": "",
          "type": "address"
        }
      ],
      "name": "timeAdded",
      "outputs": [
        {
          "internalType": "uint256",
          "name": "",
          "type": "uint256"
        }
      ],
      "stateMutability": "view",
      "type": "function"
    },
    {
      "inputs": [],
      "name": "walletId",
      "outputs": [
        {
          "internalType": "uint256",
          "name": "",
          "type": "uint256"
        }
      ],
      "stateMutability": "view",
      "type": "function"
    },
    {
      "stateMutability": "payable",
      "type": "receive"
    },
    {
      "inputs": [
        {
          "internalType": "address",
          "name": "tokenAddress",
          "type": "address"
        }
      ],
      "name": "balanceOf",
      "outputs": [
        {
          "internalType": "uint256",
          "name": "balance",
          "type": "uint256"
        }
      ],
      "stateMutability": "view",
      "type": "function"
    },
    {
      "inputs": [
        {
          "internalType": "address[]",
          "name": "newMembers",
          "type": "address[]"
        }
      ],
      "name": "addMembers",
      "outputs": [],
      "stateMutability": "nonpayable",
      "type": "function"
    },
    {
      "inputs": [
        {
          "internalType": "address",
          "name": "_tokenAddress",
          "type": "address"
        },
        {
          "internalType": "address",
          "name": "_toAddress",
          "type": "address"
        },
        {
          "internalType": "uint256",
          "name": "_amount",
          "type": "uint256"
        }
      ],
      "name": "createOrder",
      "outputs": [
        {
          "internalType": "uint256",
          "name": "orderId",
          "type": "uint256"
        }
      ],
      "stateMutability": "nonpayable",
      "type": "function"
    },
    {
      "inputs": [
        {
          "internalType": "uint256",
          "name": "orderId",
          "type": "uint256"
        },
        {
          "internalType": "uint256",
          "name": "decision",
          "type": "uint256"
        }
      ],
      "name": "makeDecision",
      "outputs": [],
      "stateMutability": "nonpayable",
      "type": "function"
    }
  ],
  "bytecode": "0x60806040523480156200001157600080fd5b50604051620022a8380380620022a8833981810160405281019062000037919062000590565b60016000819055508273ffffffffffffffffffffffffffffffffffffffff163373ffffffffffffffffffffffffffffffffffffffff16146200007857600080fd5b83600160006101000a81548173ffffffffffffffffffffffffffffffffffffffff021916908373ffffffffffffffffffffffffffffffffffffffff16021790555082600560006101000a81548173ffffffffffffffffffffffffffffffffffffffff021916908373ffffffffffffffffffffffffffffffffffffffff16021790555081600381905550806004908051906020019062000119929190620002a3565b504260096000600160009054906101000a900473ffffffffffffffffffffffffffffffffffffffff1673ffffffffffffffffffffffffffffffffffffffff1673ffffffffffffffffffffffffffffffffffffffff16815260200190815260200160002081905550600160086000600160009054906101000a900473ffffffffffffffffffffffffffffffffffffffff1673ffffffffffffffffffffffffffffffffffffffff1673ffffffffffffffffffffffffffffffffffffffff16815260200190815260200160002060006101000a81548160ff0219169083151502179055506007600160009054906101000a900473ffffffffffffffffffffffffffffffffffffffff169080600181540180825580915050600190039060005260206000200160009091909190916101000a81548173ffffffffffffffffffffffffffffffffffffffff021916908373ffffffffffffffffffffffffffffffffffffffff16021790555060066000815480929190620002949062000650565b91905055505050505062000701565b828054620002b190620006cc565b90600052602060002090601f016020900481019282620002d5576000855562000321565b82601f10620002f057805160ff191683800117855562000321565b8280016001018555821562000321579182015b828111156200032057825182559160200191906001019062000303565b5b50905062000330919062000334565b5090565b5b808211156200034f57600081600090555060010162000335565b5090565b6000604051905090565b600080fd5b600080fd5b600073ffffffffffffffffffffffffffffffffffffffff82169050919050565b6000620003948262000367565b9050919050565b620003a68162000387565b8114620003b257600080fd5b50565b600081519050620003c6816200039b565b92915050565b6000819050919050565b620003e181620003cc565b8114620003ed57600080fd5b50565b6000815190506200040181620003d6565b92915050565b600080fd5b600080fd5b6000601f19601f8301169050919050565b7f4e487b7100000000000000000000000000000000000000000000000000000000600052604160045260246000fd5b6200045c8262000411565b810181811067ffffffffffffffff821117156200047e576200047d62000422565b5b80604052505050565b60006200049362000353565b9050620004a1828262000451565b919050565b600067ffffffffffffffff821115620004c457620004c362000422565b5b620004cf8262000411565b9050602081019050919050565b60005b83811015620004fc578082015181840152602081019050620004df565b838111156200050c576000848401525b50505050565b6000620005296200052384620004a6565b62000487565b9050828152602081018484840111156200054857620005476200040c565b5b62000555848285620004dc565b509392505050565b600082601f83011262000575576200057462000407565b5b81516200058784826020860162000512565b91505092915050565b60008060008060808587031215620005ad57620005ac6200035d565b5b6000620005bd87828801620003b5565b9450506020620005d087828801620003b5565b9350506040620005e387828801620003f0565b925050606085015167ffffffffffffffff81111562000607576200060662000362565b5b62000615878288016200055d565b91505092959194509250565b7f4e487b7100000000000000000000000000000000000000000000000000000000600052601160045260246000fd5b60006200065d82620003cc565b91507fffffffffffffffffffffffffffffffffffffffffffffffffffffffffffffffff820362000692576200069162000621565b5b600182019050919050565b7f4e487b7100000000000000000000000000000000000000000000000000000000600052602260045260246000fd5b60006002820490506001821680620006e557607f821691505b602082108103620006fb57620006fa6200069d565b5b50919050565b611b9780620007116000396000f3fe6080604052600436106100c65760003560e01c80637284e4161161007f578063ae09316511610059578063ae093165146102b2578063b789bf52146102ef578063c162ba2f1461031a578063f851a44014610345576100cd565b80637284e4161461020d5780639a5d6a4a14610238578063a230c52414610275576100cd565b8063039935ff146100d257806311aee380146101165780633ee79599146101415780635daf08ca1461016a5780636f4d469b146101a757806370a08231146101d0576100cd565b366100cd57005b600080fd5b3480156100de57600080fd5b506100f960048036038101906100f49190611020565b610370565b60405161010d98979695949392919061109d565b60405180910390f35b34801561012257600080fd5b5061012b6103f8565b604051610138919061111b565b60405180910390f35b34801561014d57600080fd5b5061016860048036038101906101639190611136565b6103fe565b005b34801561017657600080fd5b50610191600480360381019061018c9190611020565b610742565b60405161019e9190611176565b60405180910390f35b3480156101b357600080fd5b506101ce60048036038101906101c99190611316565b610781565b005b3480156101dc57600080fd5b506101f760048036038101906101f2919061135f565b61085d565b604051610204919061111b565b60405180910390f35b34801561021957600080fd5b506102226108e0565b60405161022f9190611414565b60405180910390f35b34801561024457600080fd5b5061025f600480360381019061025a9190611436565b61096e565b60405161026c919061111b565b60405180910390f35b34801561028157600080fd5b5061029c6004803603810190610297919061135f565b610b84565b6040516102a991906114a4565b60405180910390f35b3480156102be57600080fd5b506102d960048036038101906102d4919061135f565b610ba4565b6040516102e6919061111b565b60405180910390f35b3480156102fb57600080fd5b50610304610bbc565b604051610311919061111b565b60405180910390f35b34801561032657600080fd5b5061032f610bc2565b60405161033c919061111b565b60405180910390f35b34801561035157600080fd5b5061035a610bc8565b6040516103679190611176565b60405180910390f35b600a6020528060005260406000206000915090508060000154908060010160009054906101000a900473ffffffffffffffffffffffffffffffffffffffff16908060020160009054906101000a900473ffffffffffffffffffffffffffffffffffffffff16908060030154908060040154908060050154908060060154908060070154905088565b60065481565b600260005403610443576040517f08c379a000000000000000000000000000000000000000000000000000000000815260040161043a9061150b565b60405180910390fd5b6002600081905550600254821015610490576040517f08c379a000000000000000000000000000000000000000000000000000000000815260040161048790611577565b60405180910390fd5b600181148061049f5750600281145b6104de576040517f08c379a00000000000000000000000000000000000000000000000000000000081526004016104d5906115e3565b60405180910390fd5b6000600a60008481526020019081526020016000209050600081600701541461053c576040517f08c379a00000000000000000000000000000000000000000000000000000000081526004016105339061164f565b60405180910390fd5b8060000154600960003373ffffffffffffffffffffffffffffffffffffffff1673ffffffffffffffffffffffffffffffffffffffff1681526020019081526020016000205411156105c2576040517f08c379a00000000000000000000000000000000000000000000000000000000081526004016105b9906116e1565b60405180910390fd5b6000600b600085815260200190815260200160002060003373ffffffffffffffffffffffffffffffffffffffff1673ffffffffffffffffffffffffffffffffffffffff1681526020019081526020016000205490506001810361063e5781600401600081548092919061063490611730565b9190505550610662565b600281036106615781600501600081548092919061065b90611730565b91905055505b5b82600b600086815260200190815260200160002060003373ffffffffffffffffffffffffffffffffffffffff1673ffffffffffffffffffffffffffffffffffffffff16815260200190815260200160002081905550600183036106de578160040160008154809291906106d490611759565b91905055506106f9565b8160050160008154809291906106f390611759565b91905055505b816006015482600401540361071857610713826001610bee565b610734565b816006015482600501540361073357610732826002610bee565b5b5b505060016000819055505050565b6007818154811061075257600080fd5b906000526020600020016000915054906101000a900473ffffffffffffffffffffffffffffffffffffffff1681565b600160009054906101000a900473ffffffffffffffffffffffffffffffffffffffff1673ffffffffffffffffffffffffffffffffffffffff163373ffffffffffffffffffffffffffffffffffffffff1614610811576040517f08c379a0000000000000000000000000000000000000000000000000000000008152600401610808906117ed565b60405180910390fd5b60008151905060005b81811015610858576108458382815181106108385761083761180d565b5b6020026020010151610c5b565b808061085090611759565b91505061081a565b505050565b60008173ffffffffffffffffffffffffffffffffffffffff166370a08231306040518263ffffffff1660e01b81526004016108989190611176565b602060405180830381865afa1580156108b5573d6000803e3d6000fd5b505050506040513d601f19601f820116820180604052508101906108d99190611851565b9050919050565b600480546108ed906118ad565b80601f0160208091040260200160405190810160405280929190818152602001828054610919906118ad565b80156109665780601f1061093b57610100808354040283529160200191610966565b820191906000526020600020905b81548152906001019060200180831161094957829003601f168201915b505050505081565b6000600860003373ffffffffffffffffffffffffffffffffffffffff1673ffffffffffffffffffffffffffffffffffffffff16815260200190815260200160002060009054906101000a900460ff166109fc576040517f08c379a00000000000000000000000000000000000000000000000000000000081526004016109f39061192a565b60405180910390fd5b60025490506040518061010001604052804281526020018573ffffffffffffffffffffffffffffffffffffffff1681526020018473ffffffffffffffffffffffffffffffffffffffff16815260200183815260200160008152602001600081526020016002600654610a6e9190611979565b600654610a7b91906119aa565b81526020016000815250600a60008381526020019081526020016000206000820151816000015560208201518160010160006101000a81548173ffffffffffffffffffffffffffffffffffffffff021916908373ffffffffffffffffffffffffffffffffffffffff16021790555060408201518160020160006101000a81548173ffffffffffffffffffffffffffffffffffffffff021916908373ffffffffffffffffffffffffffffffffffffffff160217905550606082015181600301556080820151816004015560a0820151816005015560c0820151816006015560e0820151816007015590505060026000815480929190610b7890611759565b91905055509392505050565b60086020528060005260406000206000915054906101000a900460ff1681565b60096020528060005260406000206000915090505481565b60025481565b60035481565b600160009054906101000a900473ffffffffffffffffffffffffffffffffffffffff1681565b60018103610c4e57610c4d8260010160009054906101000a900473ffffffffffffffffffffffffffffffffffffffff168360020160009054906101000a900473ffffffffffffffffffffffffffffffffffffffff168460030154610e93565b5b8082600701819055505050565b600860008273ffffffffffffffffffffffffffffffffffffffff1673ffffffffffffffffffffffffffffffffffffffff16815260200190815260200160002060009054906101000a900460ff1615610ce8576040517f08c379a0000000000000000000000000000000000000000000000000000000008152600401610cdf90611a2a565b60405180910390fd5b42600960008373ffffffffffffffffffffffffffffffffffffffff1673ffffffffffffffffffffffffffffffffffffffff168152602001908152602001600020819055506001600860008373ffffffffffffffffffffffffffffffffffffffff1673ffffffffffffffffffffffffffffffffffffffff16815260200190815260200160002060006101000a81548160ff0219169083151502179055506007819080600181540180825580915050600190039060005260206000200160009091909190916101000a81548173ffffffffffffffffffffffffffffffffffffffff021916908373ffffffffffffffffffffffffffffffffffffffff160217905550600560009054906101000a900473ffffffffffffffffffffffffffffffffffffffff1673ffffffffffffffffffffffffffffffffffffffff166374d0a676600354836040518363ffffffff1660e01b8152600401610e46929190611a4a565b600060405180830381600087803b158015610e6057600080fd5b505af1158015610e74573d6000803e3d6000fd5b5050505060066000815480929190610e8b90611759565b919050555050565b600073ffffffffffffffffffffffffffffffffffffffff168373ffffffffffffffffffffffffffffffffffffffff1603610f13578173ffffffffffffffffffffffffffffffffffffffff166108fc829081150290604051600060405180830381858888f19350505050158015610f0d573d6000803e3d6000fd5b50610fd1565b8273ffffffffffffffffffffffffffffffffffffffff1663a9059cbb83836040518363ffffffff1660e01b8152600401610f4e929190611a73565b6020604051808303816000875af1158015610f6d573d6000803e3d6000fd5b505050506040513d601f19601f82011682018060405250810190610f919190611ac8565b610fd0576040517f08c379a0000000000000000000000000000000000000000000000000000000008152600401610fc790611b41565b60405180910390fd5b5b505050565b6000604051905090565b600080fd5b600080fd5b6000819050919050565b610ffd81610fea565b811461100857600080fd5b50565b60008135905061101a81610ff4565b92915050565b60006020828403121561103657611035610fe0565b5b60006110448482850161100b565b91505092915050565b61105681610fea565b82525050565b600073ffffffffffffffffffffffffffffffffffffffff82169050919050565b60006110878261105c565b9050919050565b6110978161107c565b82525050565b6000610100820190506110b3600083018b61104d565b6110c0602083018a61108e565b6110cd604083018961108e565b6110da606083018861104d565b6110e7608083018761104d565b6110f460a083018661104d565b61110160c083018561104d565b61110e60e083018461104d565b9998505050505050505050565b6000602082019050611130600083018461104d565b92915050565b6000806040838503121561114d5761114c610fe0565b5b600061115b8582860161100b565b925050602061116c8582860161100b565b9150509250929050565b600060208201905061118b600083018461108e565b92915050565b600080fd5b6000601f19601f8301169050919050565b7f4e487b7100000000000000000000000000000000000000000000000000000000600052604160045260246000fd5b6111df82611196565b810181811067ffffffffffffffff821117156111fe576111fd6111a7565b5b80604052505050565b6000611211610fd6565b905061121d82826111d6565b919050565b600067ffffffffffffffff82111561123d5761123c6111a7565b5b602082029050602081019050919050565b600080fd5b61125c8161107c565b811461126757600080fd5b50565b60008135905061127981611253565b92915050565b600061129261128d84611222565b611207565b905080838252602082019050602084028301858111156112b5576112b461124e565b5b835b818110156112de57806112ca888261126a565b8452602084019350506020810190506112b7565b5050509392505050565b600082601f8301126112fd576112fc611191565b5b813561130d84826020860161127f565b91505092915050565b60006020828403121561132c5761132b610fe0565b5b600082013567ffffffffffffffff81111561134a57611349610fe5565b5b611356848285016112e8565b91505092915050565b60006020828403121561137557611374610fe0565b5b60006113838482850161126a565b91505092915050565b600081519050919050565b600082825260208201905092915050565b60005b838110156113c65780820151818401526020810190506113ab565b838111156113d5576000848401525b50505050565b60006113e68261138c565b6113f08185611397565b93506114008185602086016113a8565b61140981611196565b840191505092915050565b6000602082019050818103600083015261142e81846113db565b905092915050565b60008060006060848603121561144f5761144e610fe0565b5b600061145d8682870161126a565b935050602061146e8682870161126a565b925050604061147f8682870161100b565b9150509250925092565b60008115159050919050565b61149e81611489565b82525050565b60006020820190506114b96000830184611495565b92915050565b7f5265656e7472616e637947756172643a207265656e7472616e742063616c6c00600082015250565b60006114f5601f83611397565b9150611500826114bf565b602082019050919050565b60006020820190508181036000830152611524816114e8565b9050919050565b7f4e6f2073756368206f7264657200000000000000000000000000000000000000600082015250565b6000611561600d83611397565b915061156c8261152b565b602082019050919050565b6000602082019050818103600083015261159081611554565b9050919050565b7f4e6f7420612076616c6964206465636973696f6e000000000000000000000000600082015250565b60006115cd601483611397565b91506115d882611597565b602082019050919050565b600060208201905081810360008301526115fc816115c0565b9050919050565b7f416c726561647920657865637574656400000000000000000000000000000000600082015250565b6000611639601083611397565b915061164482611603565b602082019050919050565b600060208201905081810360008301526116688161162c565b9050919050565b7f55736572207761736e27742061206d656d626572206174207468652074696d6560008201527f206f66206f72646572696e670000000000000000000000000000000000000000602082015250565b60006116cb602c83611397565b91506116d68261166f565b604082019050919050565b600060208201905081810360008301526116fa816116be565b9050919050565b7f4e487b7100000000000000000000000000000000000000000000000000000000600052601160045260246000fd5b600061173b82610fea565b91506000820361174e5761174d611701565b5b600182039050919050565b600061176482610fea565b91507fffffffffffffffffffffffffffffffffffffffffffffffffffffffffffffffff820361179657611795611701565b5b600182019050919050565b7f4f6e6c79206f776e6572206d6574686f64000000000000000000000000000000600082015250565b60006117d7601183611397565b91506117e2826117a1565b602082019050919050565b60006020820190508181036000830152611806816117ca565b9050919050565b7f4e487b7100000000000000000000000000000000000000000000000000000000600052603260045260246000fd5b60008151905061184b81610ff4565b92915050565b60006020828403121561186757611866610fe0565b5b60006118758482850161183c565b91505092915050565b7f4e487b7100000000000000000000000000000000000000000000000000000000600052602260045260246000fd5b600060028204905060018216806118c557607f821691505b6020821081036118d8576118d761187e565b5b50919050565b7f4f6e6c79206d656d626572206d6574686f640000000000000000000000000000600082015250565b6000611914601283611397565b915061191f826118de565b602082019050919050565b6000602082019050818103600083015261194381611907565b9050919050565b7f4e487b7100000000000000000000000000000000000000000000000000000000600052601260045260246000fd5b600061198482610fea565b915061198f83610fea565b92508261199f5761199e61194a565b5b828204905092915050565b60006119b582610fea565b91506119c083610fea565b9250828210156119d3576119d2611701565b5b828203905092915050565b7f416c72656164792061206d656d62657200000000000000000000000000000000600082015250565b6000611a14601083611397565b9150611a1f826119de565b602082019050919050565b60006020820190508181036000830152611a4381611a07565b9050919050565b6000604082019050611a5f600083018561104d565b611a6c602083018461108e565b9392505050565b6000604082019050611a88600083018561108e565b611a95602083018461104d565b9392505050565b611aa581611489565b8114611ab057600080fd5b50565b600081519050611ac281611a9c565b92915050565b600060208284031215611ade57611add610fe0565b5b6000611aec84828501611ab3565b91505092915050565b7f5472616e73666572206661696c65640000000000000000000000000000000000600082015250565b6000611b2b600f83611397565b9150611b3682611af5565b602082019050919050565b60006020820190508181036000830152611b5a81611b1e565b905091905056fea2646970667358221220cdbcf783b47995a9f2c0f5995057b5cbcc352a81872be20778a272fb6663299164736f6c634300080d0033",
  "immutableReferences": {},
  "source": "//SPDX-License-Identifier: No License\n\npragma solidity ^0.8.0;\n\nimport \"@openzeppelin/contracts/token/ERC20/IERC20.sol\";\nimport \"@openzeppelin/contracts/security/ReentrancyGuard.sol\";\nimport \"./interfaces/IMultiSigFactory.sol\";\n\ncontract MultiSigWallet is ReentrancyGuard {\n    address public admin;\n    uint256 public orderCounter;\n    uint256 public walletId;\n    string public description;\n    IMultiSigFactory multiSigFactory;\n\n    struct Order {\n        uint256 creationTime;\n        address tokenAddress;\n        address toAddress;\n        uint256 amount;\n        uint256 numberOfAcceptance;\n        uint256 numberOfRejections;\n        uint256 minRequiredDecision;\n        uint256 finalDecision;\n    }\n\n    uint256 public memberCount;\n    address[] public members;\n    mapping(address => bool) public isMember;\n    mapping(address => uint256) public timeAdded;\n    mapping(uint256 => Order) public orderIdToOrder;\n    mapping(uint256 => mapping(address => uint256)) orderIdToAddressToDecision;\n\n    constructor(\n        address _admin,\n        address _factoryAddress,\n        uint256 _walletId,\n        string memory _description\n    ) {\n        require(msg.sender == _factoryAddress);\n        admin = _admin;\n        multiSigFactory = IMultiSigFactory(_factoryAddress);\n        walletId = _walletId;\n        description = _description;\n        timeAdded[admin] = block.timestamp;\n        isMember[admin] = true;\n        members.push(admin);\n        memberCount++;\n    }\n\n    modifier onlyAdmin() {\n        require(msg.sender == admin, \"Only owner method\");\n        _;\n    }\n\n    modifier onlyMember() {\n        require(isMember[msg.sender], \"Only member method\");\n        _;\n    }\n\n    function balanceOf(address tokenAddress)\n        public\n        view\n        returns (uint256 balance)\n    {\n        balance = IERC20(tokenAddress).balanceOf(address(this));\n    }\n\n    function addMember(address member) internal {\n        require(!isMember[member], \"Already a member\");\n        timeAdded[member] = block.timestamp;\n        isMember[member] = true;\n        members.push(member);\n        multiSigFactory.addMember(walletId, member);\n        memberCount++;\n    }\n\n    function addMembers(address[] memory newMembers) public onlyAdmin {\n        uint256 l = newMembers.length;\n        for (uint256 i; i < l; i++) addMember(newMembers[i]);\n    }\n\n    // set token address to address(0) to send ether\n    function createOrder(\n        address _tokenAddress,\n        address _toAddress,\n        uint256 _amount\n    ) public onlyMember returns (uint256 orderId) {\n        orderId = orderCounter;\n        orderIdToOrder[orderId] = Order({\n            creationTime: block.timestamp,\n            tokenAddress: _tokenAddress,\n            toAddress: _toAddress,\n            amount: _amount,\n            numberOfAcceptance: 0,\n            numberOfRejections: 0,\n            minRequiredDecision: memberCount - memberCount / 2,\n            finalDecision: 0\n        });\n        orderCounter++;\n    }\n\n    // 1 is for acceptance\n    // 2 is for rejectance\n    function makeDecision(uint256 orderId, uint256 decision)\n        public\n        nonReentrant\n    {\n        require(orderId >= orderCounter, \"No such order\");\n        require((decision == 1) || (decision == 2), \"Not a valid decision\");\n        Order storage o = orderIdToOrder[orderId];\n        require(o.finalDecision == 0, \"Already executed\");\n        require(\n            timeAdded[msg.sender] <= o.creationTime,\n            \"User wasn't a member at the time of ordering\"\n        );\n\n        uint256 prevDecision = orderIdToAddressToDecision[orderId][msg.sender];\n        if (prevDecision == 1) o.numberOfAcceptance--;\n        else if (prevDecision == 2) o.numberOfRejections--;\n\n        orderIdToAddressToDecision[orderId][msg.sender] = decision;\n        if (decision == 1) o.numberOfAcceptance++;\n        else o.numberOfRejections++;\n\n        if (o.numberOfAcceptance == o.minRequiredDecision) closeOrder(o, 1);\n        else if (o.numberOfRejections == o.minRequiredDecision)\n            closeOrder(o, 2);\n    }\n\n    function closeOrder(Order storage o, uint256 decision) internal {\n        if (decision == 1) transfer(o.tokenAddress, o.toAddress, o.amount);\n        o.finalDecision = decision;\n    }\n\n    function transfer(\n        address tokenAddress,\n        address to,\n        uint256 amount\n    ) internal {\n        if (tokenAddress == address(0)) payable(to).transfer(amount);\n        else\n            require(\n                IERC20(tokenAddress).transfer(to, amount),\n                \"Transfer failed\"\n            );\n    }\n\n    receive() external payable {}\n}\n",
  "sourcePath": "/home/yusufbenli/codes/github/multi-sig-contracts/contracts/MultiSigWallet.sol",
  "compiler": {
    "name": "solc",
    "version": "0.8.13+commit.abaa5c0e.Emscripten.clang"
  },
  "schemaVersion": "3.4.5",
  "updatedAt": "2022-04-28T00:21:20.060Z",
  "devdoc": {
    "kind": "dev",
    "methods": {},
    "version": 1
  },
  "userdoc": {
    "kind": "user",
    "methods": {},
    "version": 1
  }
}