{
  "contractName": "MultiSigFactory",
  "abi": [
    {
      "inputs": [
        {
          "internalType": "uint256",
          "name": "_price",
          "type": "uint256"
        }
      ],
      "stateMutability": "nonpayable",
      "type": "constructor"
    },
    {
      "inputs": [
        {
          "internalType": "address",
          "name": "",
          "type": "address"
        }
      ],
      "name": "isWallet",
      "outputs": [
        {
          "internalType": "bool",
          "name": "",
          "type": "bool"
        }
      ],
      "stateMutability": "view",
      "type": "function",
      "constant": true
    },
    {
      "inputs": [],
      "name": "owner",
      "outputs": [
        {
          "internalType": "address",
          "name": "",
          "type": "address"
        }
      ],
      "stateMutability": "view",
      "type": "function",
      "constant": true
    },
    {
      "inputs": [
        {
          "internalType": "uint256",
          "name": "",
          "type": "uint256"
        }
      ],
      "name": "ownerOf",
      "outputs": [
        {
          "internalType": "address",
          "name": "",
          "type": "address"
        }
      ],
      "stateMutability": "view",
      "type": "function",
      "constant": true
    },
    {
      "inputs": [],
      "name": "price",
      "outputs": [
        {
          "internalType": "uint256",
          "name": "",
          "type": "uint256"
        }
      ],
      "stateMutability": "view",
      "type": "function",
      "constant": true
    },
    {
      "inputs": [],
      "name": "walletIdCounter",
      "outputs": [
        {
          "internalType": "uint256",
          "name": "",
          "type": "uint256"
        }
      ],
      "stateMutability": "view",
      "type": "function",
      "constant": true
    },
    {
      "inputs": [],
      "name": "getWalletAddresses_msgSender",
      "outputs": [
        {
          "internalType": "uint256[]",
          "name": "",
          "type": "uint256[]"
        },
        {
          "internalType": "address[]",
          "name": "",
          "type": "address[]"
        }
      ],
      "stateMutability": "view",
      "type": "function",
      "constant": true
    },
    {
      "inputs": [
        {
          "internalType": "uint256",
          "name": "_price",
          "type": "uint256"
        }
      ],
      "name": "setPrice",
      "outputs": [],
      "stateMutability": "nonpayable",
      "type": "function"
    },
    {
      "inputs": [
        {
          "internalType": "string",
          "name": "description",
          "type": "string"
        }
      ],
      "name": "createWallet",
      "outputs": [
        {
          "internalType": "uint256",
          "name": "walletId",
          "type": "uint256"
        },
        {
          "internalType": "address",
          "name": "newWalletAddress",
          "type": "address"
        }
      ],
      "stateMutability": "payable",
      "type": "function",
      "payable": true
    },
    {
      "inputs": [
        {
          "internalType": "uint256",
          "name": "walletId",
          "type": "uint256"
        },
        {
          "internalType": "address",
          "name": "member",
          "type": "address"
        }
      ],
      "name": "addMember",
      "outputs": [],
      "stateMutability": "nonpayable",
      "type": "function"
    }
  ],
  "bytecode": "0x608060405234801561001057600080fd5b50604051620034e7380380620034e7833981810160405281019061003491906100bc565b336000806101000a81548173ffffffffffffffffffffffffffffffffffffffff021916908373ffffffffffffffffffffffffffffffffffffffff16021790555080600281905550506100e9565b600080fd5b6000819050919050565b61009981610086565b81146100a457600080fd5b50565b6000815190506100b681610090565b92915050565b6000602082840312156100d2576100d1610081565b5b60006100e0848285016100a7565b91505092915050565b6133ee80620000f96000396000f3fe608060405260043610620000925760003560e01c80638da5cb5b11620000615780638da5cb5b146200017057806391b7f5ed14620001a0578063a035b1fe14620001ce578063ce5570ec14620001fe578063f7cc628214620002425762000092565b80636352211e14620000975780637404f1d214620000db57806374d0a67614620001125780637a1a62311462000140575b600080fd5b348015620000a457600080fd5b50620000c36004803603810190620000bd9190620008eb565b62000273565b604051620000d2919062000962565b60405180910390f35b620000f96004803603810190620000f3919062000ae1565b620002a6565b6040516200010992919062000b43565b60405180910390f35b3480156200011f57600080fd5b506200013e600480360381019062000138919062000ba1565b620004bf565b005b3480156200014d57600080fd5b5062000158620005cd565b60405162000167919062000be8565b60405180910390f35b3480156200017d57600080fd5b5062000188620005d3565b60405162000197919062000962565b60405180910390f35b348015620001ad57600080fd5b50620001cc6004803603810190620001c69190620008eb565b620005f7565b005b348015620001db57600080fd5b50620001e662000692565b604051620001f5919062000be8565b60405180910390f35b3480156200020b57600080fd5b506200022a600480360381019062000224919062000c05565b62000698565b60405162000239919062000c54565b60405180910390f35b3480156200024f57600080fd5b506200025a620006b8565b6040516200026a92919062000e0d565b60405180910390f35b60046020528060005260406000206000915054906101000a900473ffffffffffffffffffffffffffffffffffffffff1681565b6000806002543414620002f0576040517f08c379a0000000000000000000000000000000000000000000000000000000008152600401620002e79062000ea9565b60405180910390fd5b600033306001548660405162000306906200088e565b62000315949392919062000f4d565b604051809103906000f08015801562000332573d6000803e3d6000fd5b5090508091506001549250816003600085815260200190815260200160002060006101000a81548173ffffffffffffffffffffffffffffffffffffffff021916908373ffffffffffffffffffffffffffffffffffffffff1602179055506001600660008473ffffffffffffffffffffffffffffffffffffffff1673ffffffffffffffffffffffffffffffffffffffff16815260200190815260200160002060006101000a81548160ff021916908315150217905550336004600085815260200190815260200160002060006101000a81548173ffffffffffffffffffffffffffffffffffffffff021916908373ffffffffffffffffffffffffffffffffffffffff160217905550600560003373ffffffffffffffffffffffffffffffffffffffff1673ffffffffffffffffffffffffffffffffffffffff16815260200190815260200160002083908060018154018082558091505060019003906000526020600020016000909190919091505560016000815480929190620004b49062000fd0565b919050555050915091565b3373ffffffffffffffffffffffffffffffffffffffff166003600084815260200190815260200160002060009054906101000a900473ffffffffffffffffffffffffffffffffffffffff1673ffffffffffffffffffffffffffffffffffffffff161462000563576040517f08c379a00000000000000000000000000000000000000000000000000000000081526004016200055a906200106d565b60405180910390fd5b600560008273ffffffffffffffffffffffffffffffffffffffff1673ffffffffffffffffffffffffffffffffffffffff1681526020019081526020016000208290806001815401808255809150506001900390600052602060002001600090919091909150555050565b60015481565b60008054906101000a900473ffffffffffffffffffffffffffffffffffffffff1681565b3373ffffffffffffffffffffffffffffffffffffffff1660008054906101000a900473ffffffffffffffffffffffffffffffffffffffff1673ffffffffffffffffffffffffffffffffffffffff161462000688576040517f08c379a00000000000000000000000000000000000000000000000000000000081526004016200067f90620010df565b60405180910390fd5b8060028190555050565b60025481565b60066020528060005260406000206000915054906101000a900460ff1681565b606080620006c633620006ce565b915091509091565b6060806000600560008573ffffffffffffffffffffffffffffffffffffffff1673ffffffffffffffffffffffffffffffffffffffff1681526020019081526020016000208054806020026020016040519081016040528092919081815260200182805480156200075e57602002820191906000526020600020905b81548152602001906001019080831162000749575b5050505050905060008151905060008167ffffffffffffffff8111156200078a57620007896200099a565b5b604051908082528060200260200182016040528015620007b95781602001602082028036833780820191505090505b50905060005b828110156200087f5760036000858381518110620007e257620007e162001101565b5b6020026020010151815260200190815260200160002060009054906101000a900473ffffffffffffffffffffffffffffffffffffffff168282815181106200082f576200082e62001101565b5b602002602001019073ffffffffffffffffffffffffffffffffffffffff16908173ffffffffffffffffffffffffffffffffffffffff16815250508080620008769062000fd0565b915050620007bf565b50828194509450505050915091565b612288806200113183390190565b6000604051905090565b600080fd5b600080fd5b6000819050919050565b620008c581620008b0565b8114620008d157600080fd5b50565b600081359050620008e581620008ba565b92915050565b600060208284031215620009045762000903620008a6565b5b60006200091484828501620008d4565b91505092915050565b600073ffffffffffffffffffffffffffffffffffffffff82169050919050565b60006200094a826200091d565b9050919050565b6200095c816200093d565b82525050565b600060208201905062000979600083018462000951565b92915050565b600080fd5b600080fd5b6000601f19601f8301169050919050565b7f4e487b7100000000000000000000000000000000000000000000000000000000600052604160045260246000fd5b620009d48262000989565b810181811067ffffffffffffffff82111715620009f657620009f56200099a565b5b80604052505050565b600062000a0b6200089c565b905062000a198282620009c9565b919050565b600067ffffffffffffffff82111562000a3c5762000a3b6200099a565b5b62000a478262000989565b9050602081019050919050565b82818337600083830152505050565b600062000a7a62000a748462000a1e565b620009ff565b90508281526020810184848401111562000a995762000a9862000984565b5b62000aa684828562000a54565b509392505050565b600082601f83011262000ac65762000ac56200097f565b5b813562000ad884826020860162000a63565b91505092915050565b60006020828403121562000afa5762000af9620008a6565b5b600082013567ffffffffffffffff81111562000b1b5762000b1a620008ab565b5b62000b298482850162000aae565b91505092915050565b62000b3d81620008b0565b82525050565b600060408201905062000b5a600083018562000b32565b62000b69602083018462000951565b9392505050565b62000b7b816200093d565b811462000b8757600080fd5b50565b60008135905062000b9b8162000b70565b92915050565b6000806040838503121562000bbb5762000bba620008a6565b5b600062000bcb85828601620008d4565b925050602062000bde8582860162000b8a565b9150509250929050565b600060208201905062000bff600083018462000b32565b92915050565b60006020828403121562000c1e5762000c1d620008a6565b5b600062000c2e8482850162000b8a565b91505092915050565b60008115159050919050565b62000c4e8162000c37565b82525050565b600060208201905062000c6b600083018462000c43565b92915050565b600081519050919050565b600082825260208201905092915050565b6000819050602082019050919050565b62000ca881620008b0565b82525050565b600062000cbc838362000c9d565b60208301905092915050565b6000602082019050919050565b600062000ce28262000c71565b62000cee818562000c7c565b935062000cfb8362000c8d565b8060005b8381101562000d3257815162000d16888262000cae565b975062000d238362000cc8565b92505060018101905062000cff565b5085935050505092915050565b600081519050919050565b600082825260208201905092915050565b6000819050602082019050919050565b62000d76816200093d565b82525050565b600062000d8a838362000d6b565b60208301905092915050565b6000602082019050919050565b600062000db08262000d3f565b62000dbc818562000d4a565b935062000dc98362000d5b565b8060005b8381101562000e0057815162000de4888262000d7c565b975062000df18362000d96565b92505060018101905062000dcd565b5085935050505092915050565b6000604082019050818103600083015262000e29818562000cd5565b9050818103602083015262000e3f818462000da3565b90509392505050565b600082825260208201905092915050565b7f496e73756666696369656e74207061796d656e7420616d6f756e740000000000600082015250565b600062000e91601b8362000e48565b915062000e9e8262000e59565b602082019050919050565b6000602082019050818103600083015262000ec48162000e82565b9050919050565b600081519050919050565b60005b8381101562000ef657808201518184015260208101905062000ed9565b8381111562000f06576000848401525b50505050565b600062000f198262000ecb565b62000f25818562000e48565b935062000f3781856020860162000ed6565b62000f428162000989565b840191505092915050565b600060808201905062000f64600083018762000951565b62000f73602083018662000951565b62000f82604083018562000b32565b818103606083015262000f96818462000f0c565b905095945050505050565b7f4e487b7100000000000000000000000000000000000000000000000000000000600052601160045260246000fd5b600062000fdd82620008b0565b91507fffffffffffffffffffffffffffffffffffffffffffffffffffffffffffffffff820362001012576200101162000fa1565b5b600182019050919050565b7f4f6e6c792077616c6c6574206d6574686f640000000000000000000000000000600082015250565b60006200105560128362000e48565b915062001062826200101d565b602082019050919050565b60006020820190508181036000830152620010888162001046565b9050919050565b7f4f6e6c79206f776e6572206d6574686f64000000000000000000000000000000600082015250565b6000620010c760118362000e48565b9150620010d4826200108f565b602082019050919050565b60006020820190508181036000830152620010fa81620010b8565b9050919050565b7f4e487b7100000000000000000000000000000000000000000000000000000000600052603260045260246000fdfe60806040523480156200001157600080fd5b506040516200228838038062002288833981810160405281019062000037919062000557565b600160008190555083600160006101000a81548173ffffffffffffffffffffffffffffffffffffffff021916908373ffffffffffffffffffffffffffffffffffffffff16021790555082600560006101000a81548173ffffffffffffffffffffffffffffffffffffffff021916908373ffffffffffffffffffffffffffffffffffffffff160217905550816003819055508060049080519060200190620000e09291906200026a565b504260096000600160009054906101000a900473ffffffffffffffffffffffffffffffffffffffff1673ffffffffffffffffffffffffffffffffffffffff1673ffffffffffffffffffffffffffffffffffffffff16815260200190815260200160002081905550600160086000600160009054906101000a900473ffffffffffffffffffffffffffffffffffffffff1673ffffffffffffffffffffffffffffffffffffffff1673ffffffffffffffffffffffffffffffffffffffff16815260200190815260200160002060006101000a81548160ff0219169083151502179055506007600160009054906101000a900473ffffffffffffffffffffffffffffffffffffffff169080600181540180825580915050600190039060005260206000200160009091909190916101000a81548173ffffffffffffffffffffffffffffffffffffffff021916908373ffffffffffffffffffffffffffffffffffffffff160217905550600660008154809291906200025b9062000617565b919050555050505050620006c8565b828054620002789062000693565b90600052602060002090601f0160209004810192826200029c5760008555620002e8565b82601f10620002b757805160ff1916838001178555620002e8565b82800160010185558215620002e8579182015b82811115620002e7578251825591602001919060010190620002ca565b5b509050620002f79190620002fb565b5090565b5b8082111562000316576000816000905550600101620002fc565b5090565b6000604051905090565b600080fd5b600080fd5b600073ffffffffffffffffffffffffffffffffffffffff82169050919050565b60006200035b826200032e565b9050919050565b6200036d816200034e565b81146200037957600080fd5b50565b6000815190506200038d8162000362565b92915050565b6000819050919050565b620003a88162000393565b8114620003b457600080fd5b50565b600081519050620003c8816200039d565b92915050565b600080fd5b600080fd5b6000601f19601f8301169050919050565b7f4e487b7100000000000000000000000000000000000000000000000000000000600052604160045260246000fd5b6200042382620003d8565b810181811067ffffffffffffffff82111715620004455762000444620003e9565b5b80604052505050565b60006200045a6200031a565b905062000468828262000418565b919050565b600067ffffffffffffffff8211156200048b576200048a620003e9565b5b6200049682620003d8565b9050602081019050919050565b60005b83811015620004c3578082015181840152602081019050620004a6565b83811115620004d3576000848401525b50505050565b6000620004f0620004ea846200046d565b6200044e565b9050828152602081018484840111156200050f576200050e620003d3565b5b6200051c848285620004a3565b509392505050565b600082601f8301126200053c576200053b620003ce565b5b81516200054e848260208601620004d9565b91505092915050565b6000806000806080858703121562000574576200057362000324565b5b600062000584878288016200037c565b945050602062000597878288016200037c565b9350506040620005aa87828801620003b7565b925050606085015167ffffffffffffffff811115620005ce57620005cd62000329565b5b620005dc8782880162000524565b91505092959194509250565b7f4e487b7100000000000000000000000000000000000000000000000000000000600052601160045260246000fd5b6000620006248262000393565b91507fffffffffffffffffffffffffffffffffffffffffffffffffffffffffffffffff8203620006595762000658620005e8565b5b600182019050919050565b7f4e487b7100000000000000000000000000000000000000000000000000000000600052602260045260246000fd5b60006002820490506001821680620006ac57607f821691505b602082108103620006c257620006c162000664565b5b50919050565b611bb080620006d86000396000f3fe6080604052600436106100c65760003560e01c80637284e4161161007f578063ae09316511610059578063ae093165146102b2578063b789bf52146102ef578063c162ba2f1461031a578063f851a44014610345576100cd565b80637284e4161461020d5780639a5d6a4a14610238578063a230c52414610275576100cd565b8063039935ff146100d257806311aee380146101165780633ee79599146101415780635daf08ca1461016a5780636f4d469b146101a757806370a08231146101d0576100cd565b366100cd57005b600080fd5b3480156100de57600080fd5b506100f960048036038101906100f49190611039565b610370565b60405161010d9897969594939291906110b6565b60405180910390f35b34801561012257600080fd5b5061012b6103f8565b6040516101389190611134565b60405180910390f35b34801561014d57600080fd5b506101686004803603810190610163919061114f565b6103fe565b005b34801561017657600080fd5b50610191600480360381019061018c9190611039565b610735565b60405161019e919061118f565b60405180910390f35b3480156101b357600080fd5b506101ce60048036038101906101c9919061132f565b610774565b005b3480156101dc57600080fd5b506101f760048036038101906101f29190611378565b610850565b6040516102049190611134565b60405180910390f35b34801561021957600080fd5b506102226108d3565b60405161022f919061142d565b60405180910390f35b34801561024457600080fd5b5061025f600480360381019061025a919061144f565b610961565b60405161026c9190611134565b60405180910390f35b34801561028157600080fd5b5061029c60048036038101906102979190611378565b610b77565b6040516102a991906114bd565b60405180910390f35b3480156102be57600080fd5b506102d960048036038101906102d49190611378565b610b97565b6040516102e69190611134565b60405180910390f35b3480156102fb57600080fd5b50610304610baf565b6040516103119190611134565b60405180910390f35b34801561032657600080fd5b5061032f610bb5565b60405161033c9190611134565b60405180910390f35b34801561035157600080fd5b5061035a610bbb565b604051610367919061118f565b60405180910390f35b600a6020528060005260406000206000915090508060000154908060010160009054906101000a900473ffffffffffffffffffffffffffffffffffffffff16908060020160009054906101000a900473ffffffffffffffffffffffffffffffffffffffff16908060030154908060040154908060050154908060060154908060070154905088565b60065481565b600260005403610443576040517f08c379a000000000000000000000000000000000000000000000000000000000815260040161043a90611524565b60405180910390fd5b6002600081905550600254821015610490576040517f08c379a000000000000000000000000000000000000000000000000000000000815260040161048790611590565b60405180910390fd5b600181148061049f5750600281145b6104de576040517f08c379a00000000000000000000000000000000000000000000000000000000081526004016104d5906115fc565b60405180910390fd5b6000600a60008481526020019081526020016000209050600081600701541461053c576040517f08c379a000000000000000000000000000000000000000000000000000000000815260040161053390611668565b60405180910390fd5b8060000154600960003373ffffffffffffffffffffffffffffffffffffffff1673ffffffffffffffffffffffffffffffffffffffff1681526020019081526020016000205411156105c2576040517f08c379a00000000000000000000000000000000000000000000000000000000081526004016105b9906116fa565b60405180910390fd5b6000600b600085815260200190815260200160002060003373ffffffffffffffffffffffffffffffffffffffff1673ffffffffffffffffffffffffffffffffffffffff1681526020019081526020016000205490506001810361063e5781600401600081548092919061063490611749565b9190505550610662565b600281036106615781600501600081548092919061065b90611749565b91905055505b5b82600b600086815260200190815260200160002060003373ffffffffffffffffffffffffffffffffffffffff1673ffffffffffffffffffffffffffffffffffffffff16815260200190815260200160002081905550600183036106de578160040160008154809291906106d490611772565b91905055506106f9565b8160050160008154809291906106f390611772565b91905055505b8160060154826004015410158061071857508160060154826005015410155b156107275761072682610be1565b5b505060016000819055505050565b6007818154811061074557600080fd5b906000526020600020016000915054906101000a900473ffffffffffffffffffffffffffffffffffffffff1681565b600160009054906101000a900473ffffffffffffffffffffffffffffffffffffffff1673ffffffffffffffffffffffffffffffffffffffff163373ffffffffffffffffffffffffffffffffffffffff1614610804576040517f08c379a00000000000000000000000000000000000000000000000000000000081526004016107fb90611806565b60405180910390fd5b60008151905060005b8181101561084b5761083883828151811061082b5761082a611826565b5b6020026020010151610c74565b808061084390611772565b91505061080d565b505050565b60008173ffffffffffffffffffffffffffffffffffffffff166370a08231306040518263ffffffff1660e01b815260040161088b919061118f565b602060405180830381865afa1580156108a8573d6000803e3d6000fd5b505050506040513d601f19601f820116820180604052508101906108cc919061186a565b9050919050565b600480546108e0906118c6565b80601f016020809104026020016040519081016040528092919081815260200182805461090c906118c6565b80156109595780601f1061092e57610100808354040283529160200191610959565b820191906000526020600020905b81548152906001019060200180831161093c57829003601f168201915b505050505081565b6000600860003373ffffffffffffffffffffffffffffffffffffffff1673ffffffffffffffffffffffffffffffffffffffff16815260200190815260200160002060009054906101000a900460ff166109ef576040517f08c379a00000000000000000000000000000000000000000000000000000000081526004016109e690611943565b60405180910390fd5b60025490506040518061010001604052804281526020018573ffffffffffffffffffffffffffffffffffffffff1681526020018473ffffffffffffffffffffffffffffffffffffffff16815260200183815260200160008152602001600081526020016002600654610a619190611992565b600654610a6e91906119c3565b81526020016000815250600a60008381526020019081526020016000206000820151816000015560208201518160010160006101000a81548173ffffffffffffffffffffffffffffffffffffffff021916908373ffffffffffffffffffffffffffffffffffffffff16021790555060408201518160020160006101000a81548173ffffffffffffffffffffffffffffffffffffffff021916908373ffffffffffffffffffffffffffffffffffffffff160217905550606082015181600301556080820151816004015560a0820151816005015560c0820151816006015560e0820151816007015590505060026000815480929190610b6b90611772565b91905055509392505050565b60086020528060005260406000206000915054906101000a900460ff1681565b60096020528060005260406000206000915090505481565b60025481565b60035481565b600160009054906101000a900473ffffffffffffffffffffffffffffffffffffffff1681565b8060060154816004015410610c5657610c478160010160009054906101000a900473ffffffffffffffffffffffffffffffffffffffff168260020160009054906101000a900473ffffffffffffffffffffffffffffffffffffffff168360030154610eac565b60018160070181905550610c71565b8060060154816005015410610c7057600281600701819055505b5b50565b600860008273ffffffffffffffffffffffffffffffffffffffff1673ffffffffffffffffffffffffffffffffffffffff16815260200190815260200160002060009054906101000a900460ff1615610d01576040517f08c379a0000000000000000000000000000000000000000000000000000000008152600401610cf890611a43565b60405180910390fd5b42600960008373ffffffffffffffffffffffffffffffffffffffff1673ffffffffffffffffffffffffffffffffffffffff168152602001908152602001600020819055506001600860008373ffffffffffffffffffffffffffffffffffffffff1673ffffffffffffffffffffffffffffffffffffffff16815260200190815260200160002060006101000a81548160ff0219169083151502179055506007819080600181540180825580915050600190039060005260206000200160009091909190916101000a81548173ffffffffffffffffffffffffffffffffffffffff021916908373ffffffffffffffffffffffffffffffffffffffff160217905550600560009054906101000a900473ffffffffffffffffffffffffffffffffffffffff1673ffffffffffffffffffffffffffffffffffffffff166374d0a676600354836040518363ffffffff1660e01b8152600401610e5f929190611a63565b600060405180830381600087803b158015610e7957600080fd5b505af1158015610e8d573d6000803e3d6000fd5b5050505060066000815480929190610ea490611772565b919050555050565b600073ffffffffffffffffffffffffffffffffffffffff168373ffffffffffffffffffffffffffffffffffffffff1603610f2c578173ffffffffffffffffffffffffffffffffffffffff166108fc829081150290604051600060405180830381858888f19350505050158015610f26573d6000803e3d6000fd5b50610fea565b8273ffffffffffffffffffffffffffffffffffffffff1663a9059cbb83836040518363ffffffff1660e01b8152600401610f67929190611a8c565b6020604051808303816000875af1158015610f86573d6000803e3d6000fd5b505050506040513d601f19601f82011682018060405250810190610faa9190611ae1565b610fe9576040517f08c379a0000000000000000000000000000000000000000000000000000000008152600401610fe090611b5a565b60405180910390fd5b5b505050565b6000604051905090565b600080fd5b600080fd5b6000819050919050565b61101681611003565b811461102157600080fd5b50565b6000813590506110338161100d565b92915050565b60006020828403121561104f5761104e610ff9565b5b600061105d84828501611024565b91505092915050565b61106f81611003565b82525050565b600073ffffffffffffffffffffffffffffffffffffffff82169050919050565b60006110a082611075565b9050919050565b6110b081611095565b82525050565b6000610100820190506110cc600083018b611066565b6110d9602083018a6110a7565b6110e660408301896110a7565b6110f36060830188611066565b6111006080830187611066565b61110d60a0830186611066565b61111a60c0830185611066565b61112760e0830184611066565b9998505050505050505050565b60006020820190506111496000830184611066565b92915050565b6000806040838503121561116657611165610ff9565b5b600061117485828601611024565b925050602061118585828601611024565b9150509250929050565b60006020820190506111a460008301846110a7565b92915050565b600080fd5b6000601f19601f8301169050919050565b7f4e487b7100000000000000000000000000000000000000000000000000000000600052604160045260246000fd5b6111f8826111af565b810181811067ffffffffffffffff82111715611217576112166111c0565b5b80604052505050565b600061122a610fef565b905061123682826111ef565b919050565b600067ffffffffffffffff821115611256576112556111c0565b5b602082029050602081019050919050565b600080fd5b61127581611095565b811461128057600080fd5b50565b6000813590506112928161126c565b92915050565b60006112ab6112a68461123b565b611220565b905080838252602082019050602084028301858111156112ce576112cd611267565b5b835b818110156112f757806112e38882611283565b8452602084019350506020810190506112d0565b5050509392505050565b600082601f830112611316576113156111aa565b5b8135611326848260208601611298565b91505092915050565b60006020828403121561134557611344610ff9565b5b600082013567ffffffffffffffff81111561136357611362610ffe565b5b61136f84828501611301565b91505092915050565b60006020828403121561138e5761138d610ff9565b5b600061139c84828501611283565b91505092915050565b600081519050919050565b600082825260208201905092915050565b60005b838110156113df5780820151818401526020810190506113c4565b838111156113ee576000848401525b50505050565b60006113ff826113a5565b61140981856113b0565b93506114198185602086016113c1565b611422816111af565b840191505092915050565b6000602082019050818103600083015261144781846113f4565b905092915050565b60008060006060848603121561146857611467610ff9565b5b600061147686828701611283565b935050602061148786828701611283565b925050604061149886828701611024565b9150509250925092565b60008115159050919050565b6114b7816114a2565b82525050565b60006020820190506114d260008301846114ae565b92915050565b7f5265656e7472616e637947756172643a207265656e7472616e742063616c6c00600082015250565b600061150e601f836113b0565b9150611519826114d8565b602082019050919050565b6000602082019050818103600083015261153d81611501565b9050919050565b7f4e6f2073756368206f7264657200000000000000000000000000000000000000600082015250565b600061157a600d836113b0565b915061158582611544565b602082019050919050565b600060208201905081810360008301526115a98161156d565b9050919050565b7f4e6f7420612076616c6964206465636973696f6e000000000000000000000000600082015250565b60006115e66014836113b0565b91506115f1826115b0565b602082019050919050565b60006020820190508181036000830152611615816115d9565b9050919050565b7f416c726561647920657865637574656400000000000000000000000000000000600082015250565b60006116526010836113b0565b915061165d8261161c565b602082019050919050565b6000602082019050818103600083015261168181611645565b9050919050565b7f55736572207761736e27742061206d656d626572206174207468652074696d6560008201527f206f66206f72646572696e670000000000000000000000000000000000000000602082015250565b60006116e4602c836113b0565b91506116ef82611688565b604082019050919050565b60006020820190508181036000830152611713816116d7565b9050919050565b7f4e487b7100000000000000000000000000000000000000000000000000000000600052601160045260246000fd5b600061175482611003565b9150600082036117675761176661171a565b5b600182039050919050565b600061177d82611003565b91507fffffffffffffffffffffffffffffffffffffffffffffffffffffffffffffffff82036117af576117ae61171a565b5b600182019050919050565b7f4f6e6c79206f776e6572206d6574686f64000000000000000000000000000000600082015250565b60006117f06011836113b0565b91506117fb826117ba565b602082019050919050565b6000602082019050818103600083015261181f816117e3565b9050919050565b7f4e487b7100000000000000000000000000000000000000000000000000000000600052603260045260246000fd5b6000815190506118648161100d565b92915050565b6000602082840312156118805761187f610ff9565b5b600061188e84828501611855565b91505092915050565b7f4e487b7100000000000000000000000000000000000000000000000000000000600052602260045260246000fd5b600060028204905060018216806118de57607f821691505b6020821081036118f1576118f0611897565b5b50919050565b7f4f6e6c79206d656d626572206d6574686f640000000000000000000000000000600082015250565b600061192d6012836113b0565b9150611938826118f7565b602082019050919050565b6000602082019050818103600083015261195c81611920565b9050919050565b7f4e487b7100000000000000000000000000000000000000000000000000000000600052601260045260246000fd5b600061199d82611003565b91506119a883611003565b9250826119b8576119b7611963565b5b828204905092915050565b60006119ce82611003565b91506119d983611003565b9250828210156119ec576119eb61171a565b5b828203905092915050565b7f416c72656164792061206d656d62657200000000000000000000000000000000600082015250565b6000611a2d6010836113b0565b9150611a38826119f7565b602082019050919050565b60006020820190508181036000830152611a5c81611a20565b9050919050565b6000604082019050611a786000830185611066565b611a8560208301846110a7565b9392505050565b6000604082019050611aa160008301856110a7565b611aae6020830184611066565b9392505050565b611abe816114a2565b8114611ac957600080fd5b50565b600081519050611adb81611ab5565b92915050565b600060208284031215611af757611af6610ff9565b5b6000611b0584828501611acc565b91505092915050565b7f5472616e73666572206661696c65640000000000000000000000000000000000600082015250565b6000611b44600f836113b0565b9150611b4f82611b0e565b602082019050919050565b60006020820190508181036000830152611b7381611b37565b905091905056fea2646970667358221220391f0e83d618a9ce7fafead8ca1e35d4b83806f080229626aa5a9e238c1f2b7964736f6c634300080d0033a264697066735822122015a42bd4021792eb21047d682b8e571ef07c9442077b9018f6953bc9ba36542f64736f6c634300080d0033",
  "immutableReferences": {},
  "source": "//SPDX-License-Identifier: No License\n\npragma solidity ^0.8.0;\n\nimport \"./MultiSigWallet.sol\";\n\ncontract MultiSigFactory {\n    address public owner;\n    uint256 public walletIdCounter;\n    uint256 public price;\n\n    constructor(uint256 _price) {\n        owner = msg.sender;\n        price = _price;\n    }\n\n    modifier onlyOwner() {\n        require(owner == msg.sender, \"Only owner method\");\n        _;\n    }\n\n    mapping(uint256 => address) internal walletIdToWalletAddress;\n    mapping(uint256 => address) public ownerOf;\n    mapping(address => uint256[]) internal memberToWalletIds;\n    mapping(address => bool) public isWallet;\n\n    function getWalletAddresses_msgSender()\n        public\n        view\n        returns (uint256[] memory, address[] memory)\n    {\n        return getWalletAddresses(msg.sender);\n    }\n\n    function getWalletAddresses(address member)\n        internal\n        view\n        returns (uint256[] memory, address[] memory)\n    {\n        uint256[] memory walletIds = memberToWalletIds[member];\n        uint256 l = walletIds.length;\n        address[] memory addresses = new address[](l);\n        for (uint256 i; i < l; i++) {\n            addresses[i] = walletIdToWalletAddress[walletIds[i]];\n        }\n        return (walletIds, addresses);\n    }\n\n    function setPrice(uint256 _price) public onlyOwner {\n        price = _price;\n    }\n\n    function createWallet(string memory description)\n        public\n        payable\n        returns (uint256 walletId, address newWalletAddress)\n    {\n        require(msg.value == price, \"Insufficient payment amount\");\n        MultiSigWallet newMultiSigWallet = new MultiSigWallet(\n            msg.sender,\n            address(this),\n            walletIdCounter,\n            description\n        );\n        newWalletAddress = address(newMultiSigWallet);\n        walletId = walletIdCounter;\n        walletIdToWalletAddress[walletId] = newWalletAddress;\n        isWallet[newWalletAddress] = true;\n        ownerOf[walletId] = msg.sender;\n        memberToWalletIds[msg.sender].push(walletId);\n        walletIdCounter++;\n    }\n\n    function addMember(uint256 walletId, address member) public {\n        require(\n            walletIdToWalletAddress[walletId] == msg.sender,\n            \"Only wallet method\"\n        );\n        memberToWalletIds[member].push(walletId);\n    }\n}\n",
  "sourcePath": "/home/yusufbenli/codes/multi_sig/contracts/MultiSigFactory.sol",
  "compiler": {
    "name": "solc",
    "version": "0.8.13+commit.abaa5c0e.Emscripten.clang"
  },
  "schemaVersion": "3.4.5",
  "updatedAt": "2022-04-17T19:20:52.175Z",
  "networkType": "ethereum",
  "devdoc": {
    "kind": "dev",
    "methods": {},
    "version": 1
  },
  "userdoc": {
    "kind": "user",
    "methods": {},
    "version": 1
  }
}