{
  "contractName": "MyToken",
  "abi": [
    {
      "inputs": [],
      "stateMutability": "nonpayable",
      "type": "constructor"
    },
    {
      "anonymous": false,
      "inputs": [
        {
          "indexed": true,
          "internalType": "address",
          "name": "owner",
          "type": "address"
        },
        {
          "indexed": true,
          "internalType": "address",
          "name": "spender",
          "type": "address"
        },
        {
          "indexed": false,
          "internalType": "uint256",
          "name": "value",
          "type": "uint256"
        }
      ],
      "name": "Approval",
      "type": "event"
    },
    {
      "anonymous": false,
      "inputs": [
        {
          "indexed": true,
          "internalType": "address",
          "name": "previousOwner",
          "type": "address"
        },
        {
          "indexed": true,
          "internalType": "address",
          "name": "newOwner",
          "type": "address"
        }
      ],
      "name": "OwnershipTransferred",
      "type": "event"
    },
    {
      "anonymous": false,
      "inputs": [
        {
          "indexed": true,
          "internalType": "address",
          "name": "from",
          "type": "address"
        },
        {
          "indexed": true,
          "internalType": "address",
          "name": "to",
          "type": "address"
        },
        {
          "indexed": false,
          "internalType": "uint256",
          "name": "value",
          "type": "uint256"
        }
      ],
      "name": "Transfer",
      "type": "event"
    },
    {
      "inputs": [
        {
          "internalType": "address",
          "name": "owner",
          "type": "address"
        },
        {
          "internalType": "address",
          "name": "spender",
          "type": "address"
        }
      ],
      "name": "allowance",
      "outputs": [
        {
          "internalType": "uint256",
          "name": "",
          "type": "uint256"
        }
      ],
      "stateMutability": "view",
      "type": "function",
      "constant": true
    },
    {
      "inputs": [
        {
          "internalType": "address",
          "name": "spender",
          "type": "address"
        },
        {
          "internalType": "uint256",
          "name": "amount",
          "type": "uint256"
        }
      ],
      "name": "approve",
      "outputs": [
        {
          "internalType": "bool",
          "name": "",
          "type": "bool"
        }
      ],
      "stateMutability": "nonpayable",
      "type": "function"
    },
    {
      "inputs": [
        {
          "internalType": "address",
          "name": "account",
          "type": "address"
        }
      ],
      "name": "balanceOf",
      "outputs": [
        {
          "internalType": "uint256",
          "name": "",
          "type": "uint256"
        }
      ],
      "stateMutability": "view",
      "type": "function",
      "constant": true
    },
    {
      "inputs": [],
      "name": "decimals",
      "outputs": [
        {
          "internalType": "uint8",
          "name": "",
          "type": "uint8"
        }
      ],
      "stateMutability": "view",
      "type": "function",
      "constant": true
    },
    {
      "inputs": [
        {
          "internalType": "address",
          "name": "spender",
          "type": "address"
        },
        {
          "internalType": "uint256",
          "name": "subtractedValue",
          "type": "uint256"
        }
      ],
      "name": "decreaseAllowance",
      "outputs": [
        {
          "internalType": "bool",
          "name": "",
          "type": "bool"
        }
      ],
      "stateMutability": "nonpayable",
      "type": "function"
    },
    {
      "inputs": [
        {
          "internalType": "address",
          "name": "spender",
          "type": "address"
        },
        {
          "internalType": "uint256",
          "name": "addedValue",
          "type": "uint256"
        }
      ],
      "name": "increaseAllowance",
      "outputs": [
        {
          "internalType": "bool",
          "name": "",
          "type": "bool"
        }
      ],
      "stateMutability": "nonpayable",
      "type": "function"
    },
    {
      "inputs": [],
      "name": "name",
      "outputs": [
        {
          "internalType": "string",
          "name": "",
          "type": "string"
        }
      ],
      "stateMutability": "view",
      "type": "function",
      "constant": true
    },
    {
      "inputs": [],
      "name": "owner",
      "outputs": [
        {
          "internalType": "address",
          "name": "",
          "type": "address"
        }
      ],
      "stateMutability": "view",
      "type": "function",
      "constant": true
    },
    {
      "inputs": [],
      "name": "renounceOwnership",
      "outputs": [],
      "stateMutability": "nonpayable",
      "type": "function"
    },
    {
      "inputs": [],
      "name": "symbol",
      "outputs": [
        {
          "internalType": "string",
          "name": "",
          "type": "string"
        }
      ],
      "stateMutability": "view",
      "type": "function",
      "constant": true
    },
    {
      "inputs": [],
      "name": "totalSupply",
      "outputs": [
        {
          "internalType": "uint256",
          "name": "",
          "type": "uint256"
        }
      ],
      "stateMutability": "view",
      "type": "function",
      "constant": true
    },
    {
      "inputs": [
        {
          "internalType": "address",
          "name": "to",
          "type": "address"
        },
        {
          "internalType": "uint256",
          "name": "amount",
          "type": "uint256"
        }
      ],
      "name": "transfer",
      "outputs": [
        {
          "internalType": "bool",
          "name": "",
          "type": "bool"
        }
      ],
      "stateMutability": "nonpayable",
      "type": "function"
    },
    {
      "inputs": [
        {
          "internalType": "address",
          "name": "from",
          "type": "address"
        },
        {
          "internalType": "address",
          "name": "to",
          "type": "address"
        },
        {
          "internalType": "uint256",
          "name": "amount",
          "type": "uint256"
        }
      ],
      "name": "transferFrom",
      "outputs": [
        {
          "internalType": "bool",
          "name": "",
          "type": "bool"
        }
      ],
      "stateMutability": "nonpayable",
      "type": "function"
    },
    {
      "inputs": [
        {
          "internalType": "address",
          "name": "newOwner",
          "type": "address"
        }
      ],
      "name": "transferOwnership",
      "outputs": [],
      "stateMutability": "nonpayable",
      "type": "function"
    },
    {
      "inputs": [
        {
          "internalType": "address",
          "name": "to",
          "type": "address"
        },
        {
          "internalType": "uint256",
          "name": "amount",
          "type": "uint256"
        }
      ],
      "name": "mint",
      "outputs": [],
      "stateMutability": "nonpayable",
      "type": "function"
    }
  ],
  "bytecode": "0x60806040523480156200001157600080fd5b506040518060400160405280600781526020017f4d79546f6b656e000000000000000000000000000000000000000000000000008152506040518060400160405280600381526020017f4d544b000000000000000000000000000000000000000000000000000000000081525081600390805190602001906200009692919062000371565b508060049080519060200190620000af92919062000371565b505050620000d2620000c66200011760201b60201c565b6200011f60201b60201c565b6200011133620000e7620001e560201b60201c565b600a620000f59190620005bb565b629896806200010591906200060c565b620001ee60201b60201c565b620007e0565b600033905090565b6000600560009054906101000a900473ffffffffffffffffffffffffffffffffffffffff16905081600560006101000a81548173ffffffffffffffffffffffffffffffffffffffff021916908373ffffffffffffffffffffffffffffffffffffffff1602179055508173ffffffffffffffffffffffffffffffffffffffff168173ffffffffffffffffffffffffffffffffffffffff167f8be0079c531659141344cd1fd0a4f28419497f9722a3daafe3b4186f6b6457e060405160405180910390a35050565b60006012905090565b600073ffffffffffffffffffffffffffffffffffffffff168273ffffffffffffffffffffffffffffffffffffffff16141562000261576040517f08c379a00000000000000000000000000000000000000000000000000000000081526004016200025890620006ce565b60405180910390fd5b62000275600083836200036760201b60201c565b8060026000828254620002899190620006f0565b92505081905550806000808473ffffffffffffffffffffffffffffffffffffffff1673ffffffffffffffffffffffffffffffffffffffff1681526020019081526020016000206000828254620002e09190620006f0565b925050819055508173ffffffffffffffffffffffffffffffffffffffff16600073ffffffffffffffffffffffffffffffffffffffff167fddf252ad1be2c89b69c2b068fc378daa952ba7f163c4a11628f55a4df523b3ef836040516200034791906200075e565b60405180910390a362000363600083836200036c60201b60201c565b5050565b505050565b505050565b8280546200037f90620007aa565b90600052602060002090601f016020900481019282620003a35760008555620003ef565b82601f10620003be57805160ff1916838001178555620003ef565b82800160010185558215620003ef579182015b82811115620003ee578251825591602001919060010190620003d1565b5b509050620003fe919062000402565b5090565b5b808211156200041d57600081600090555060010162000403565b5090565b7f4e487b7100000000000000000000000000000000000000000000000000000000600052601160045260246000fd5b60008160011c9050919050565b6000808291508390505b6001851115620004af5780860481111562000487576200048662000421565b5b6001851615620004975780820291505b8081029050620004a78562000450565b945062000467565b94509492505050565b600082620004ca57600190506200059d565b81620004da57600090506200059d565b8160018114620004f35760028114620004fe5762000534565b60019150506200059d565b60ff84111562000513576200051262000421565b5b8360020a9150848211156200052d576200052c62000421565b5b506200059d565b5060208310610133831016604e8410600b84101617156200056e5782820a90508381111562000568576200056762000421565b5b6200059d565b6200057d84848460016200045d565b9250905081840481111562000597576200059662000421565b5b81810290505b9392505050565b6000819050919050565b600060ff82169050919050565b6000620005c882620005a4565b9150620005d583620005ae565b9250620006047fffffffffffffffffffffffffffffffffffffffffffffffffffffffffffffffff8484620004b8565b905092915050565b60006200061982620005a4565b91506200062683620005a4565b9250817fffffffffffffffffffffffffffffffffffffffffffffffffffffffffffffffff048311821515161562000662576200066162000421565b5b828202905092915050565b600082825260208201905092915050565b7f45524332303a206d696e7420746f20746865207a65726f206164647265737300600082015250565b6000620006b6601f836200066d565b9150620006c3826200067e565b602082019050919050565b60006020820190508181036000830152620006e981620006a7565b9050919050565b6000620006fd82620005a4565b91506200070a83620005a4565b9250827fffffffffffffffffffffffffffffffffffffffffffffffffffffffffffffffff0382111562000742576200074162000421565b5b828201905092915050565b6200075881620005a4565b82525050565b60006020820190506200077560008301846200074d565b92915050565b7f4e487b7100000000000000000000000000000000000000000000000000000000600052602260045260246000fd5b60006002820490506001821680620007c357607f821691505b60208210811415620007da57620007d96200077b565b5b50919050565b6119e880620007f06000396000f3fe608060405234801561001057600080fd5b50600436106100f55760003560e01c806370a0823111610097578063a457c2d711610066578063a457c2d714610276578063a9059cbb146102a6578063dd62ed3e146102d6578063f2fde38b14610306576100f5565b806370a0823114610200578063715018a6146102305780638da5cb5b1461023a57806395d89b4114610258576100f5565b806323b872dd116100d357806323b872dd14610166578063313ce5671461019657806339509351146101b457806340c10f19146101e4576100f5565b806306fdde03146100fa578063095ea7b31461011857806318160ddd14610148575b600080fd5b610102610322565b60405161010f919061110e565b60405180910390f35b610132600480360381019061012d91906111c9565b6103b4565b60405161013f9190611224565b60405180910390f35b6101506103d7565b60405161015d919061124e565b60405180910390f35b610180600480360381019061017b9190611269565b6103e1565b60405161018d9190611224565b60405180910390f35b61019e610410565b6040516101ab91906112d8565b60405180910390f35b6101ce60048036038101906101c991906111c9565b610419565b6040516101db9190611224565b60405180910390f35b6101fe60048036038101906101f991906111c9565b6104c3565b005b61021a600480360381019061021591906112f3565b61054d565b604051610227919061124e565b60405180910390f35b610238610595565b005b61024261061d565b60405161024f919061132f565b60405180910390f35b610260610647565b60405161026d919061110e565b60405180910390f35b610290600480360381019061028b91906111c9565b6106d9565b60405161029d9190611224565b60405180910390f35b6102c060048036038101906102bb91906111c9565b6107c3565b6040516102cd9190611224565b60405180910390f35b6102f060048036038101906102eb919061134a565b6107e6565b6040516102fd919061124e565b60405180910390f35b610320600480360381019061031b91906112f3565b61086d565b005b606060038054610331906113b9565b80601f016020809104026020016040519081016040528092919081815260200182805461035d906113b9565b80156103aa5780601f1061037f576101008083540402835291602001916103aa565b820191906000526020600020905b81548152906001019060200180831161038d57829003601f168201915b5050505050905090565b6000806103bf610965565b90506103cc81858561096d565b600191505092915050565b6000600254905090565b6000806103ec610965565b90506103f9858285610b38565b610404858585610bc4565b60019150509392505050565b60006012905090565b600080610424610965565b90506104b8818585600160008673ffffffffffffffffffffffffffffffffffffffff1673ffffffffffffffffffffffffffffffffffffffff16815260200190815260200160002060008973ffffffffffffffffffffffffffffffffffffffff1673ffffffffffffffffffffffffffffffffffffffff168152602001908152602001600020546104b3919061141a565b61096d565b600191505092915050565b6104cb610965565b73ffffffffffffffffffffffffffffffffffffffff166104e961061d565b73ffffffffffffffffffffffffffffffffffffffff161461053f576040517f08c379a0000000000000000000000000000000000000000000000000000000008152600401610536906114bc565b60405180910390fd5b6105498282610e45565b5050565b60008060008373ffffffffffffffffffffffffffffffffffffffff1673ffffffffffffffffffffffffffffffffffffffff168152602001908152602001600020549050919050565b61059d610965565b73ffffffffffffffffffffffffffffffffffffffff166105bb61061d565b73ffffffffffffffffffffffffffffffffffffffff1614610611576040517f08c379a0000000000000000000000000000000000000000000000000000000008152600401610608906114bc565b60405180910390fd5b61061b6000610fa5565b565b6000600560009054906101000a900473ffffffffffffffffffffffffffffffffffffffff16905090565b606060048054610656906113b9565b80601f0160208091040260200160405190810160405280929190818152602001828054610682906113b9565b80156106cf5780601f106106a4576101008083540402835291602001916106cf565b820191906000526020600020905b8154815290600101906020018083116106b257829003601f168201915b5050505050905090565b6000806106e4610965565b90506000600160008373ffffffffffffffffffffffffffffffffffffffff1673ffffffffffffffffffffffffffffffffffffffff16815260200190815260200160002060008673ffffffffffffffffffffffffffffffffffffffff1673ffffffffffffffffffffffffffffffffffffffff168152602001908152602001600020549050838110156107aa576040517f08c379a00000000000000000000000000000000000000000000000000000000081526004016107a19061154e565b60405180910390fd5b6107b7828686840361096d565b60019250505092915050565b6000806107ce610965565b90506107db818585610bc4565b600191505092915050565b6000600160008473ffffffffffffffffffffffffffffffffffffffff1673ffffffffffffffffffffffffffffffffffffffff16815260200190815260200160002060008373ffffffffffffffffffffffffffffffffffffffff1673ffffffffffffffffffffffffffffffffffffffff16815260200190815260200160002054905092915050565b610875610965565b73ffffffffffffffffffffffffffffffffffffffff1661089361061d565b73ffffffffffffffffffffffffffffffffffffffff16146108e9576040517f08c379a00000000000000000000000000000000000000000000000000000000081526004016108e0906114bc565b60405180910390fd5b600073ffffffffffffffffffffffffffffffffffffffff168173ffffffffffffffffffffffffffffffffffffffff161415610959576040517f08c379a0000000000000000000000000000000000000000000000000000000008152600401610950906115e0565b60405180910390fd5b61096281610fa5565b50565b600033905090565b600073ffffffffffffffffffffffffffffffffffffffff168373ffffffffffffffffffffffffffffffffffffffff1614156109dd576040517f08c379a00000000000000000000000000000000000000000000000000000000081526004016109d490611672565b60405180910390fd5b600073ffffffffffffffffffffffffffffffffffffffff168273ffffffffffffffffffffffffffffffffffffffff161415610a4d576040517f08c379a0000000000000000000000000000000000000000000000000000000008152600401610a4490611704565b60405180910390fd5b80600160008573ffffffffffffffffffffffffffffffffffffffff1673ffffffffffffffffffffffffffffffffffffffff16815260200190815260200160002060008473ffffffffffffffffffffffffffffffffffffffff1673ffffffffffffffffffffffffffffffffffffffff168152602001908152602001600020819055508173ffffffffffffffffffffffffffffffffffffffff168373ffffffffffffffffffffffffffffffffffffffff167f8c5be1e5ebec7d5bd14f71427d1e84f3dd0314c0f7b2291e5b200ac8c7c3b92583604051610b2b919061124e565b60405180910390a3505050565b6000610b4484846107e6565b90507fffffffffffffffffffffffffffffffffffffffffffffffffffffffffffffffff8114610bbe5781811015610bb0576040517f08c379a0000000000000000000000000000000000000000000000000000000008152600401610ba790611770565b60405180910390fd5b610bbd848484840361096d565b5b50505050565b600073ffffffffffffffffffffffffffffffffffffffff168373ffffffffffffffffffffffffffffffffffffffff161415610c34576040517f08c379a0000000000000000000000000000000000000000000000000000000008152600401610c2b90611802565b60405180910390fd5b600073ffffffffffffffffffffffffffffffffffffffff168273ffffffffffffffffffffffffffffffffffffffff161415610ca4576040517f08c379a0000000000000000000000000000000000000000000000000000000008152600401610c9b90611894565b60405180910390fd5b610caf83838361106b565b60008060008573ffffffffffffffffffffffffffffffffffffffff1673ffffffffffffffffffffffffffffffffffffffff16815260200190815260200160002054905081811015610d35576040517f08c379a0000000000000000000000000000000000000000000000000000000008152600401610d2c90611926565b60405180910390fd5b8181036000808673ffffffffffffffffffffffffffffffffffffffff1673ffffffffffffffffffffffffffffffffffffffff16815260200190815260200160002081905550816000808573ffffffffffffffffffffffffffffffffffffffff1673ffffffffffffffffffffffffffffffffffffffff1681526020019081526020016000206000828254610dc8919061141a565b925050819055508273ffffffffffffffffffffffffffffffffffffffff168473ffffffffffffffffffffffffffffffffffffffff167fddf252ad1be2c89b69c2b068fc378daa952ba7f163c4a11628f55a4df523b3ef84604051610e2c919061124e565b60405180910390a3610e3f848484611070565b50505050565b600073ffffffffffffffffffffffffffffffffffffffff168273ffffffffffffffffffffffffffffffffffffffff161415610eb5576040517f08c379a0000000000000000000000000000000000000000000000000000000008152600401610eac90611992565b60405180910390fd5b610ec16000838361106b565b8060026000828254610ed3919061141a565b92505081905550806000808473ffffffffffffffffffffffffffffffffffffffff1673ffffffffffffffffffffffffffffffffffffffff1681526020019081526020016000206000828254610f28919061141a565b925050819055508173ffffffffffffffffffffffffffffffffffffffff16600073ffffffffffffffffffffffffffffffffffffffff167fddf252ad1be2c89b69c2b068fc378daa952ba7f163c4a11628f55a4df523b3ef83604051610f8d919061124e565b60405180910390a3610fa160008383611070565b5050565b6000600560009054906101000a900473ffffffffffffffffffffffffffffffffffffffff16905081600560006101000a81548173ffffffffffffffffffffffffffffffffffffffff021916908373ffffffffffffffffffffffffffffffffffffffff1602179055508173ffffffffffffffffffffffffffffffffffffffff168173ffffffffffffffffffffffffffffffffffffffff167f8be0079c531659141344cd1fd0a4f28419497f9722a3daafe3b4186f6b6457e060405160405180910390a35050565b505050565b505050565b600081519050919050565b600082825260208201905092915050565b60005b838110156110af578082015181840152602081019050611094565b838111156110be576000848401525b50505050565b6000601f19601f8301169050919050565b60006110e082611075565b6110ea8185611080565b93506110fa818560208601611091565b611103816110c4565b840191505092915050565b6000602082019050818103600083015261112881846110d5565b905092915050565b600080fd5b600073ffffffffffffffffffffffffffffffffffffffff82169050919050565b600061116082611135565b9050919050565b61117081611155565b811461117b57600080fd5b50565b60008135905061118d81611167565b92915050565b6000819050919050565b6111a681611193565b81146111b157600080fd5b50565b6000813590506111c38161119d565b92915050565b600080604083850312156111e0576111df611130565b5b60006111ee8582860161117e565b92505060206111ff858286016111b4565b9150509250929050565b60008115159050919050565b61121e81611209565b82525050565b60006020820190506112396000830184611215565b92915050565b61124881611193565b82525050565b6000602082019050611263600083018461123f565b92915050565b60008060006060848603121561128257611281611130565b5b60006112908682870161117e565b93505060206112a18682870161117e565b92505060406112b2868287016111b4565b9150509250925092565b600060ff82169050919050565b6112d2816112bc565b82525050565b60006020820190506112ed60008301846112c9565b92915050565b60006020828403121561130957611308611130565b5b60006113178482850161117e565b91505092915050565b61132981611155565b82525050565b60006020820190506113446000830184611320565b92915050565b6000806040838503121561136157611360611130565b5b600061136f8582860161117e565b92505060206113808582860161117e565b9150509250929050565b7f4e487b7100000000000000000000000000000000000000000000000000000000600052602260045260246000fd5b600060028204905060018216806113d157607f821691505b602082108114156113e5576113e461138a565b5b50919050565b7f4e487b7100000000000000000000000000000000000000000000000000000000600052601160045260246000fd5b600061142582611193565b915061143083611193565b9250827fffffffffffffffffffffffffffffffffffffffffffffffffffffffffffffffff03821115611465576114646113eb565b5b828201905092915050565b7f4f776e61626c653a2063616c6c6572206973206e6f7420746865206f776e6572600082015250565b60006114a6602083611080565b91506114b182611470565b602082019050919050565b600060208201905081810360008301526114d581611499565b9050919050565b7f45524332303a2064656372656173656420616c6c6f77616e63652062656c6f7760008201527f207a65726f000000000000000000000000000000000000000000000000000000602082015250565b6000611538602583611080565b9150611543826114dc565b604082019050919050565b600060208201905081810360008301526115678161152b565b9050919050565b7f4f776e61626c653a206e6577206f776e657220697320746865207a65726f206160008201527f6464726573730000000000000000000000000000000000000000000000000000602082015250565b60006115ca602683611080565b91506115d58261156e565b604082019050919050565b600060208201905081810360008301526115f9816115bd565b9050919050565b7f45524332303a20617070726f76652066726f6d20746865207a65726f2061646460008201527f7265737300000000000000000000000000000000000000000000000000000000602082015250565b600061165c602483611080565b915061166782611600565b604082019050919050565b6000602082019050818103600083015261168b8161164f565b9050919050565b7f45524332303a20617070726f766520746f20746865207a65726f20616464726560008201527f7373000000000000000000000000000000000000000000000000000000000000602082015250565b60006116ee602283611080565b91506116f982611692565b604082019050919050565b6000602082019050818103600083015261171d816116e1565b9050919050565b7f45524332303a20696e73756666696369656e7420616c6c6f77616e6365000000600082015250565b600061175a601d83611080565b915061176582611724565b602082019050919050565b600060208201905081810360008301526117898161174d565b9050919050565b7f45524332303a207472616e736665722066726f6d20746865207a65726f20616460008201527f6472657373000000000000000000000000000000000000000000000000000000602082015250565b60006117ec602583611080565b91506117f782611790565b604082019050919050565b6000602082019050818103600083015261181b816117df565b9050919050565b7f45524332303a207472616e7366657220746f20746865207a65726f206164647260008201527f6573730000000000000000000000000000000000000000000000000000000000602082015250565b600061187e602383611080565b915061188982611822565b604082019050919050565b600060208201905081810360008301526118ad81611871565b9050919050565b7f45524332303a207472616e7366657220616d6f756e742065786365656473206260008201527f616c616e63650000000000000000000000000000000000000000000000000000602082015250565b6000611910602683611080565b915061191b826118b4565b604082019050919050565b6000602082019050818103600083015261193f81611903565b9050919050565b7f45524332303a206d696e7420746f20746865207a65726f206164647265737300600082015250565b600061197c601f83611080565b915061198782611946565b602082019050919050565b600060208201905081810360008301526119ab8161196f565b905091905056fea2646970667358221220e499e09ae9aed984c0ea2ea4e1dcdc214fe4dfcb0c12ff6d55070da531de860964736f6c634300080b0033",
  "immutableReferences": {},
  "source": "// SPDX-License-Identifier: MIT\npragma solidity ^0.8.0;\n\nimport \"@openzeppelin/contracts/token/ERC20/ERC20.sol\";\nimport \"@openzeppelin/contracts/access/Ownable.sol\";\n\ncontract MyToken is ERC20, Ownable {\n    constructor() ERC20(\"MyToken\", \"MTK\") {\n        _mint(msg.sender, 10000000 * 10 ** decimals());\n    }\n\n    function mint(address to, uint256 amount) public onlyOwner {\n        _mint(to, amount);\n    }\n}",
  "sourcePath": "/home/yusufbenli/codes/multi_sig/contracts/MyToken.sol",
  "compiler": {
    "name": "solc",
    "version": "0.8.11+commit.d7f03943.Emscripten.clang"
  },
  "schemaVersion": "3.4.5",
  "updatedAt": "2022-04-17T19:20:52.192Z",
  "networkType": "ethereum",
  "devdoc": {
    "kind": "dev",
    "methods": {
      "allowance(address,address)": {
        "details": "See {IERC20-allowance}."
      },
      "approve(address,uint256)": {
        "details": "See {IERC20-approve}. NOTE: If `amount` is the maximum `uint256`, the allowance is not updated on `transferFrom`. This is semantically equivalent to an infinite approval. Requirements: - `spender` cannot be the zero address."
      },
      "balanceOf(address)": {
        "details": "See {IERC20-balanceOf}."
      },
      "decimals()": {
        "details": "Returns the number of decimals used to get its user representation. For example, if `decimals` equals `2`, a balance of `505` tokens should be displayed to a user as `5.05` (`505 / 10 ** 2`). Tokens usually opt for a value of 18, imitating the relationship between Ether and Wei. This is the value {ERC20} uses, unless this function is overridden; NOTE: This information is only used for _display_ purposes: it in no way affects any of the arithmetic of the contract, including {IERC20-balanceOf} and {IERC20-transfer}."
      },
      "decreaseAllowance(address,uint256)": {
        "details": "Atomically decreases the allowance granted to `spender` by the caller. This is an alternative to {approve} that can be used as a mitigation for problems described in {IERC20-approve}. Emits an {Approval} event indicating the updated allowance. Requirements: - `spender` cannot be the zero address. - `spender` must have allowance for the caller of at least `subtractedValue`."
      },
      "increaseAllowance(address,uint256)": {
        "details": "Atomically increases the allowance granted to `spender` by the caller. This is an alternative to {approve} that can be used as a mitigation for problems described in {IERC20-approve}. Emits an {Approval} event indicating the updated allowance. Requirements: - `spender` cannot be the zero address."
      },
      "name()": {
        "details": "Returns the name of the token."
      },
      "owner()": {
        "details": "Returns the address of the current owner."
      },
      "renounceOwnership()": {
        "details": "Leaves the contract without owner. It will not be possible to call `onlyOwner` functions anymore. Can only be called by the current owner. NOTE: Renouncing ownership will leave the contract without an owner, thereby removing any functionality that is only available to the owner."
      },
      "symbol()": {
        "details": "Returns the symbol of the token, usually a shorter version of the name."
      },
      "totalSupply()": {
        "details": "See {IERC20-totalSupply}."
      },
      "transfer(address,uint256)": {
        "details": "See {IERC20-transfer}. Requirements: - `to` cannot be the zero address. - the caller must have a balance of at least `amount`."
      },
      "transferFrom(address,address,uint256)": {
        "details": "See {IERC20-transferFrom}. Emits an {Approval} event indicating the updated allowance. This is not required by the EIP. See the note at the beginning of {ERC20}. NOTE: Does not update the allowance if the current allowance is the maximum `uint256`. Requirements: - `from` and `to` cannot be the zero address. - `from` must have a balance of at least `amount`. - the caller must have allowance for ``from``'s tokens of at least `amount`."
      },
      "transferOwnership(address)": {
        "details": "Transfers ownership of the contract to a new account (`newOwner`). Can only be called by the current owner."
      }
    },
    "version": 1
  },
  "userdoc": {
    "kind": "user",
    "methods": {},
    "version": 1
  }
}